:10000000025AB8026ECBE4FF026F1B0265A0C296D3
:0A001000C2A5126FA0D296026FA0E5
:03001B000251C9C6
:10002300026B1AE49000C4F0A3F0A3F0A3F0A3F0D2
:10003300A3F0A3F0A3F0900078F0C2B3C203900042
:1000430013E0FEA3E0FFC374289F900030F07423F5
:100053009E90002FF012710290011F7405F0900121
:100063001AF0A37403F0900093E0FF12645290001F
:10007300F1E03007054404F0800354FBF09000C026
:10008300E0FD700D9000F0E054FBF054F7F054EFF6
:10009300F0EDB401149000F0E04404F0A3E0F0901C
:1000A30000F0E054F7F054EFF09000C0E0B4022405
:1000B3009000F0E04404FEA3E0FF9000F0EEF0A314
:1000C300EFF0FFEE44089000F0F0A3EFF09000F0A3
:1000D300E054EFF09000C0E0B403289000F0E04457
:1000E30004FEA3E0FF9000F0EEF0A3EFF0FFEE4478
:1000F30008FE9000F0F0A3EFF0EE44109000F0F053
:10010300A3EFF0126362126044900013E0FEA3E0D9
:10011300FFC374289FFF74239EFEE4FD124A42E44A
:10012300FFFE125CD6E490004AF09000B6E0700641
:100133009000ADF08013900042E0FF64046004EF90
:10014300B40106780F7605800090003CE0900042F1
:10015300F090003CE060030215391252CB780FE6B1
:1001630070069000B6E0700C9000B6E0700B900043
:10017300ADE06005E4FF125642780DE67004FF120D
:100183005C6290002FE0FEA3E0FFC39484EE94032F
:10019300400FD3900090E094CC90008FE0941E40E9
:1001A300689000BDE06401706090004BE0B4010B07
:1001B300E4F09000AAE02460F080259000AA741077
:1001C300F0900046E0FD64A06004EDB48007900069
:1001D300AAE02418F0EDB460079000AAE02428F008
:1001E300EF4E600FC3900090E0943890008FE0943E
:1001F300224008900079740DF08006900079740C09
:10020300F09000BE7401F08000E49000BDF0900017
:10021300B6E0600302121C900078E09000C4F01274
:100223003EE711020E117F1002971102D11203074C
:1002330013033114035315036C16038517039E1818
:1002430003B71903D01A047022043823118D251122
:100253009D2611AE2711BF2811D02911E12A10B60E
:100263002B04632C044E2D10762E03F13B02873FA3
:10027300027A4000001224E4900078F09000AD046C
:10028300F0021224E4900078F07F201268D3125910
:100293008F021224E4900078F09000C07403F024DD
:1002A30030FF1268D39000F0E04404FEA3E0FF9017
:1002B30000F0EEF0A3EFF0FFEE4408FE9000F0F044
:1002C300A3EFF0EE44109000F0F0A3EF8059E49018
:1002D3000078F09000C07402F02430FF1268D390CD
:1002E30000F0E04404FEA3E0FF9000F0EEF0A3EF83
:1002F300F0FFEE44089000F0F0A3EFF09000F0E080
:1003030054EF8023E4900078F09000C004F0243090
:10031300FF1268D39000F0E04404F0A3E0F09000F3
:10032300F0E054F7F054EFF0126362020468E490D3
:100333000078F09000C0F02430FF1268D39000F0F2
:10034300E054FBF054F7F054EFF01263620212240E
:10035300E4900078F07F201268D3E4900046F0FD2B
:100363007F14126E1DE4FD807DE4900078F07F2001
:100373001268D3E4900046F0FD7F14126E1D7D03D6
:100383008064E4900078F07F201268D3E490004604
:10039300F0FD7F14126E1D7D04804BE4900078F015
:1003A3007F201268D3E4900046F0FD7F14126E1D87
:1003B3007D058032E4900078F07F201268D3E490CA
:1003C3000046F0FD7F14126E1D7D068019E4900037
:1003D30078F07F201268D39000467440F07D027F4E
:1003E30014126E1D7D017F26126E1D021224E490ED
:1003F3000078F09000467440F07D027F14126E1D69
:100403007D017F26126E1D900078E0FF6423700348
:10041300021224EF642D7003021224EF60E9643B9F
:1004230060E5E0FD7F26126E1DE4900078F07F20EA
:100433001268D380D2E4900078F0FFFE125CD6906D
:100443000093E0FF1264527F21801CE4900078F057
:10045300FFFE125CD6900093E0FF12645202122456
:10046300E4900078F07F201268D3021224E4900015
:1004730078F07F211268D3E49000C8F09000C8E0C0
:100483006003021224900078E09000C4F0123EE76B
:1004930004BC1B06971C087E1D0A661E0C4E1F0E0D
:1004A3004420103A2304B22C10562D0000047FE49C
:1004B300900078F07F20021070E4900078F09000B4
:1004C300C4F0A3F0241FFF126D801264369000C69F
:1004D300E0FF7D011263CEE49000C7F09000C7E017
:1004E300709A900078E09000C4F0123EE705180B74
:1004F30005300D05501B056F1C057A1D05861E056D
:10050300B41F05E320063D23062624067D2C065E44
:100513002D00000687E4900078F09000C6E0C394B5
:10052300325020E004F07F201268D38016E490005C
:1005330078F09000C6E0D394004008E014F07F20E8
:100543001268D39000C6E0FF126DBC8015E49000E2
:1005530078F09000C5F0241FFF126D80126436906E
:1005630000C6E0FF7D011263CE020687E4900078A7
:10057300F09000C5048016E4900078F09000C574F4
:1005830002800AE4900078F09000C57403F0241F01
:10059300FF126D809000C6EFF0126DBC9000F4E086
:1005A3004480F09000F0E0547FF09000C5E00480B8
:1005B3005CE4900078F09000C57404F0241FFF12EF
:1005C3006D809000C6EFF0126DBC9000F4E04480A3
:1005D300F09000F0E0547FF09000C5E02402802DFD
:1005E300E4900078F09000C57405F0241FFF126DAD
:1005F300809000C6EFF0126DBC9000F4E04480F0F0
:100603009000F0E0547FF09000C5E02402FF1264F4
:10061300529000C6E0FF7D011263CE9000C77401C3
:10062300F080611257B29000C5E0241FFF126D8065
:100633009000C6EFF0126DBC8045E4900078F09016
:1006430000C704F0A3F0E4FFFE125CD6900093E031
:10065300FF1264521262F47F218026E4900078F046
:100663009000C704F0A3F0E4FFFE125CD690009361
:10067300E0FF1264521262F4800AE4900078F07F83
:10068300201268D39000C5E0241FFFA3E0FD126E83
:100693001D0204DFE4900078F09000C4F0A304F09E
:1006A300241FFF126D809000C6EFF012643E90008D
:1006B300C6E0FF7D011263CE9000C6E0FF126DBC61
:1006C300E4A3F09000C7E0600302047F900078E0A9
:1006D3009000C4F0123EE707020B071A0D073A1BFE
:1006E30007441C07641D07701E079E1F07CD2008C3
:1006F300462308102408642C08272D0000086EE404
:10070300900078F09000C6E0C394325020E004F0EB
:100713007F201268D38016E4900078F09000C6E042
:10072300D394004008E014F07F201268D39000C6F1
:10073300E0FF126DBC8020E4900078F09000C5804B
:1007430036E4900078F09000C504F0241FFF126D8A
:10075300801264369000C6E0FF7D011263CE02086A
:100763006EE4900078F09000C57402800AE4900073
:1007730078F09000C57403F0241FFF126D80900081
:10078300C6EFF0126DBC9000F4E04480F09000F0EE
:10079300E0547FF09000C5E004805CE4900078F0C2
:1007A3009000C57404F0241FFF126D809000C6EF03
:1007B300F0126DBC9000F4E04480F09000F0E0543F
:1007C3007FF09000C5E02402802DE4900078F09043
:1007D30000C57405F0241FFF126D809000C6EFF072
:1007E300126DBC9000F4E04480F09000F0E0547F80
:1007F300F09000C5E02402FF1264529000C6E0FFAF
:100803007D011263CE9000C77401F0805E1257B26F
:100813009000C5E0241FFF126D809000C6EFF01218
:100823006DBC8042E4900078F09000C704F0A3F020
:10083300E4FFFE125CD6900093E0FF126452126252
:10084300F48028E4900078F09000C704F0A3F0E46B
:10085300FFFE125CD6900093E0FF1264527F21806A
:1008630007E4900078F07F201268D39000C5E0245D
:100873001FFFA3E0FD126E1D0206C6E4900078F090
:100883009000C4F0A37402F0241FFF126D80900047
:10089300C6EFF012643E9000C6E0FF7D011263CE06
:1008A3009000C6E0FF126DBCE4A3F09000C7E060C7
:1008B3000302047F900078E09000C4F0123EE70842
:1008C300EA0B09020D09221B092C1C09371D0958C3
:1008D3001E09861F09B5200A2E2309F8240A4C2C69
:1008E3000A0F2D00000A56E4900078F09000C6E04D
:1008F300C394325020E004F07F201268D38016E4C2
:10090300900078F09000C6E0D394004008E014F023
:100913007F201268D39000C6E0FF126DBC802CE4E8
:10092300900078F09000C58036E4900078F0900055
:10093300C504802BE4900078F09000C57402F02485
:100943001FFF126D801264369000C6E0FF7D011216
:1009530063CE020A56E4900078F09000C57403F069
:10096300241FFF126D809000C6EFF0126DBC900043
:10097300F4E04480F09000F0E0547FF09000C5E094
:1009830004805CE4900078F09000C57404F0241FA8
:10099300FF126D809000C6EFF0126DBC9000F4E082
:1009A3004480F09000F0E0547FF09000C5E0240212
:1009B300802DE4900078F09000C57405F0241FFFAB
:1009C300126D809000C6EFF0126DBC9000F4E0440D
:1009D30080F09000F0E0547FF09000C5E02402FF27
:1009E3001264529000C6E0FF7D011263CE9000C7EF
:1009F3007401F0805E1257B29000C5E0241FFF120D
:100A03006D809000C6EFF0126DBC8042E4900078D8
:100A1300F09000C704F0A3F0E4FFFE125CD6900050
:100A230093E0FF1264521262F48028E4900078F09D
:100A33009000C704F0A3F0E4FFFE125CD69000938D
:100A4300E0FF1264527F218007E4900078F07F205A
:100A53001268D39000C5E0241FFFA3E0FD126E1DB2
:100A63000208AEE4900078F09000C4F0A37403F0A1
:100A7300241FFF126D809000C6EFF012643E9000B9
:100A8300C6E0FF7D011263CE9000C6E0FF126DBC8D
:100A9300E4A3F09000C7E0600302047F900078E0D5
:100AA3009000C4F0123EE70AD20B0AEA0D0B0A1BB0
:100AB3000B141C0B1F1D0B4D1E0B6E1F0B9D200CCF
:100AC30016230BE0240C342C0BF72D00000C3EE412
:100AD300900078F09000C6E0C394325020E004F018
:100AE3007F201268D38016E4900078F09000C6E06F
:100AF300D394004008E014F07F201268D39000C61E
:100B0300E0FF126DBC805AE4900078F09000C5803D
:100B130015E4900078F09000C504800AE490007812
:100B2300F09000C57402F0241FFF126D809000C680
:100B3300EFF0126DBC9000F4E04480F09000F0E020
:100B4300547FF09000C5E004807DE4900078F0903D
:100B530000C57403F0241FFF126D801264369000E9
:100B6300C6E0FF7D011263CE020C3EE4900078F0F4
:100B73009000C57404F0241FFF126D809000C6EF2F
:100B8300F0126DBC9000F4E04480F09000F0E0546B
:100B93007FF09000C5E02402802DE4900078F0906F
:100BA30000C57405F0241FFF126D809000C6EFF09E
:100BB300126DBC9000F4E04480F09000F0E0547FAC
:100BC300F09000C5E02402FF1264529000C6E0FFDB
:100BD3007D011263CE9000C77401F0805E1257B29C
:100BE3009000C5E0241FFF126D809000C6EFF01245
:100BF3006DBC8042E4900078F09000C704F0A3F04D
:100C0300E4FFFE125CD6900093E0FF12645212627E
:100C1300F48028E4900078F09000C704F0A3F0E497
:100C2300FFFE125CD6900093E0FF1264527F218096
:100C330007E4900078F07F201268D39000C5E02489
:100C43001FFFA3E0FD126E1D020A96E4900078F0E8
:100C53009000C57404F0241FFF126D809000C6EF4E
:100C6300F09000F4E04480F09000F0E0547FF090C6
:100C730000C5E02402FF1264529000C6E0FF7D012C
:100C83001263CE9000C6E0FF126DBCE4A3F09000A7
:100C9300C7E0600302047F900078E09000C4F01284
:100CA3003EE70CCD0B0CE50D0D061B0D101C0D1BAB
:100CB3001D0D271E0D551F0D93200E0C230DD6243D
:100CC3000E2A2C0DED2D00000E34E4900078F090E8
:100CD30000C6E0C394325020E004F07F201268D3B2
:100CE3008016E4900078F09000C6E0D394004008AA
:100CF300E014F07F201268D39000C6E0FF126DBCB1
:100D0300020D89E4900078F09000C58021E4900002
:100D130078F09000C5048016E4900078F09000C548
:100D23007402800AE4900078F09000C57403F02404
:100D33001FFF126D809000C6EFF0126DBC9000F49F
:100D4300E04480F09000F0E0547FF09000C5E004B0
:100D5300806BE4900078F09000C57404F0241FFFCA
:100D6300126D809000C6EFF0126DBC9000F4E04469
:100D730080F09000F0E0547FF09000C5E02402FF83
:100D83001264529000C6E0FF7D011263CE020E345E
:100D9300E4900078F09000C57405F0241FFF126DF5
:100DA300809000C6EFF0126DBC9000F4E04480F038
:100DB3009000F0E0547FF09000C5E02402FF12643D
:100DC300529000C6E0FF7D011263CE9000C774010C
:100DD300F0805E1257B29000C5E0241FFF126D80B1
:100DE3009000C6EFF0126DBC8042E4900078F09062
:100DF30000C704F0A3F0E4FFFE125CD6900093E07A
:100E0300FF1264521262F48028E4900078F090009C
:100E1300C704F0A3F0E4FFFE125CD6900093E0FF5A
:100E23001264527F218007E4900078F07F201268DB
:100E3300D39000C5E0241FFFA3E0FD126E1D020C3A
:100E430091E4900078F09000C57405F0241FFF1220
:100E53006D809000C6EFF09000F4E04480F09000C5
:100E6300F0E0547FF09000C5E02402FF126452903A
:100E730000C6E0FF7D011263CE9000C6E0FF126D55
:100E8300BCE4A3F09000C7E0600302047F90007805
:100E9300E09000C4F0123EE70EC30B0EDB0D0EFC18
:100EA3001B0F061C0F111D0F1D1E0F4B1F0F8F2035
:100EB3001002230FCC2410202C0FE32D0000102A46
:100EC300E4900078F09000C6E0C394325020E00430
:100ED300F07F201268D38016E4900078F09000C66B
:100EE300E0D394004008E014F07F201268D3900010
:100EF300C6E0FF126DBC020FC3E4900078F09000CF
:100F0300C58021E4900078F09000C5048016E49039
:100F13000078F09000C57402800AE4900078F090A5
:100F230000C57403F0241FFF126D809000C6EFF01C
:100F3300126DBC9000F4E04480F09000F0E0547F28
:100F4300F09000C5E004802DE4900078F09000C597
:100F53007404F0241FFF126D809000C6EFF0126D31
:100F6300BC9000F4E04480F09000F0E0547FF090F7
:100F730000C5E02402FF1264529000C6E0FF7D0129
:100F83001263CE9000C77401F002102AE490007837
:100F9300F09000C57405F0241FFF126D809000C609
:100FA300EFF0126DBC9000F4E04480F09000F0E0AC
:100FB300547FF09000C5E02402FF1264529000C6F3
:100FC300E0FF7D011263CE805E1257B29000C5E050
:100FD300241FFF126D809000C6EFF0126DBC80429B
:100FE300E4900078F09000C704F0A3F0E4FFFE1251
:100FF3005CD6900093E0FF1264521262F48028E4FE
:10100300900078F09000C704F0A3F0E4FFFE125CB8
:10101300D6900093E0FF1264527F218007E4900092
:1010230078F07F201268D39000C5E0241FFFA3E06F
:10103300FD126E1D020E87E4900078F09000C80444
:10104300F0E4FFFE125CD6900093E0FF1264527F3F
:1010530021801AE4900078F09000C804F0E4FFFEC9
:10106300125CD6900093E0FF1264527F211268D382
:1010730002047FE4900078F07F211268D39000C4CB
:10108300E0FF64236025EF642D6020900078E090FA
:1010930000C4F024C860E6240724F6500280DE90E2
:1010A30000C4E024CFFF123F1980D2E4900078F00F
:1010B300021224E4900078F07F211268D39000C4D8
:1010C300E0FF64236027EF642F6022EF642D601D2F
:1010D300900078E09000C4F07FE87E03126E987D64
:1010E300A27C017F0912621212649A80D07FE87E8B
:1010F30003126E98E4FDFC7F03124257021224E4AC
:10110300900078F07F211268D390002F7423F0A30E
:101113007428F09000F1E04410F04420F04440F0D3
:101123004480F09000F0E04401F0A3E0F0E4FD7FA0
:10113300287E23124A42E4900091F0A3F09000131A
:10114300F0A3F09000A6F0A3F090008FF0A3F0FDC1
:10115300FC7F15126B60126B4F126E949000A6E029
:10116300FCA3E0FD7F19126B60126E9490008FE078
:10117300FCA3E0FD7F1B126B60021224E490007855
:10118300F090003C7406F0021224E4900078F07FA3
:10119300201268D3E49000C58053E4900078F07F78
:1011A300201268D39000C574018042E4900078F067
:1011B3007F201268D39000C574028031E4900078D8
:1011C300F07F201268D39000C574038020E4900060
:1011D30078F07F201268D39000C57404800FE490E8
:1011E3000078F07F201268D39000C57405F0FD7F6E
:1011F30013126E1D9000C5E025E024E3F582E4346C
:1012030071F583E493FE740193FF900036EEF0A32F
:10121300EFF07D0112670E8008125D5A9000C4EF53
:10122300F09000C4E0702C900077E070030214B2D9
:1012330012707AEF70087F3C1270960214B212702B
:10124300AEEF70030214B21270A290003C7402F06D
:101253000214B21270A29000C4E014B40F00400351
:101263000214B290127475F003A4C58325F0C583EC
:101273007302146102132702133802134A02135C28
:1012830002136E0213800213920213A40212A1022C
:1012930012AF0214B20213BC0214B2021310E49090
:1012A3000078F090003C7403F00214B2E4900078EC
:1012B300F0B207300729900093E02480FD7F1212DB
:1012C3006E1D9000F1E04404F09000B6E0700890C9
:1012D3000046E060028022900046E024088024E477
:1012E300FD7F12126E1D9000F1E054FBF09000B6EA
:1012F300E0700A900046E060047F2080079000467B
:10130300E02409FF1268D31263620214B2E490006E
:1013130078F07F201268D3900077E004F0E0540166
:10132300F00214B2E4900078F03007030214B29094
:10133300009304807CE4900078F03007030214B239
:101343009000937402806AE4900078F030070302FF
:1013530014B290009374038058E4900078F030073F
:10136300030214B290009374048046E4900078F072
:101373003007030214B290009374058034E49000A4
:1013830078F03007030214B290009374068022E4CD
:10139300900078F03007030214B290009374078032
:1013A30010E4900078F03007030214B290009374B5
:1013B30008F0FF1264520214B2E4900078F0900037
:1013C300C0E004F0E05403F02430FF1268D390002F
:1013D300C0E0FD700D9000F0E054FBF054F7F054C2
:1013E300EFF0EDB401149000F0E04404F0A3E0F05A
:1013F3009000F0E054F7F054EFF09000C0E0B40236
:10140300249000F0E04404FEA3E0FF9000F0EEF02F
:10141300A3EFF0FFEE44089000F0F0A3EFF090008C
:10142300F0E054EFF09000C0E0B403289000F0E047
:101433004404FEA3E0FF9000F0EEF0A3EFF0FFEE14
:101443004408FE9000F0F0A3EFF0EE44109000F09B
:10145300F0A3EFF01263627F201268D38051E4900F
:101463000078F09000B6E0700A900046E060047FD8
:10147300228012900046E0B4600424198006900094
:1014830046E02418FF1268D3900093E0FFC3940151
:101493004010EF9408500B30010890003C7404F0A6
:1014A300800690003C7401F0EF4410FF126F1B2084
:1014B3000003020154D3900030E0940090002FE029
:1014C300940040059000C9800F9000CAE09000C9C5
:1014D3006006E04402F08004E054FDF0126044EF43
:1014E30070059000C9800F9000CAE09000C96006A3
:1014F300E04401F08004E054FEF09000CAE004F000
:10150300E05401F090002FE0FEA3E0FF9000C9E05B
:10151300FD124A42126EE6EF4E700790003CE0B4B3
:10152300050790003C7405F022E4FDFC7F021242A3
:1015330057C20002015422E49000C6F0A3F0A3F0C6
:10154300A3F0A3F0A304F0E49000CEF0A3F0A3F083
:10155300A3F0A3F09000D4F0A3F0A3F09000D8F090
:10156300A3F0C208900032F0A3F0A3F0A3F0D2B32B
:101573001262F47F01125C62E49000CCF0A3F0C22B
:1015830000900049E04410F0D204C203900013E03D
:10159300FEA3E0FFC374289F900030F074239E9055
:1015A300002FF0E490004AF0900078F0900093E070
:1015B3009071EE93900079F012710290003CE090EC
:1015C3000042F090011B7403F0900093E0D3940564
:1015D30040127F01126BBF9000487401F0E4900049
:1015E30003F0800AE4900048F090000304F09000B8
:1015F3008FE0FEA3E0FF9000A7E02FFF9000A6E09E
:101603003EFE900004E06E7003A3E06F602590003F
:1016130003E09000B8F0900004EEF0A3EFF0900028
:1016230093E025E02494F582E43400F583A3E0906D
:101633000017F0C2A8E49000ABF0A3F0780C76108A
:10164300D2A8900093E0B40804D2018002C20190B2
:1016530000B6E0700A900078E09000C6F0800812AF
:101663005D5A9000C6EFF09000C6E064017003027B
:101673002403D2B31252CBC3900030E09484900081
:101683002FE09403400FD3900090E094CC90008F10
:10169300E0941E40209000C77401F0A3E0700B1289
:1016A300424E9000C8E004F0800B9000C8E0D39451
:1016B300144002E4F0125E5A9000B6E0700A900003
:1016C30078E09000C6F08011125D5A9000C6EFF0EA
:1016D3006007E49000CEF0A3F0900093E0FF64086D
:1016E30070030219999000C6E0FE146F700302198B
:1016F30099EE24D4700302198F242AB407004003FF
:1017030002199990171475F003A4C58325F0C583B6
:101713007302172902178A0217DC02182E02188097
:101723000218D202192EE4900078F0900093E06042
:1017330007E49000CEF0A3F0300703021987E4FF1B
:10174300126BBFE49000D6F090000304F0E4900025
:10175300D9F090009304F00F126452900093E0903C
:1017630071EE93900079F09000D27407F090002E00
:10177300E0D394054008E49000B8F0021987900084
:10178300B87401F0021987E4900078F0900093E0B8
:101793006007E49000CEF0A3F020073A126BB3E4A5
:1017A3009000D9F09000937402F0FF1264529000FD
:1017B30093E09071EE93900079F09000D27408F06A
:1017C30090002EE0D394054007E49000B8F0800623
:1017D3009000B87401F0021987E4900078F090004B
:1017E30093E06007E49000CEF0A3F020073A126B79
:1017F300B3E49000D9F09000937403F0FF126452A5
:10180300900093E09071EE93900079F09000D27481
:1018130009F090002EE0D394054007E49000B8F05F
:1018230080069000B87401F0021987E4900078F004
:10183300900093E06007E49000CEF0A3F020073A15
:10184300126BB3E49000D9F09000937404F0FF128C
:101853006452900093E09071EE93900079F09000C1
:10186300D2740AF090002EE0D394054007E4900070
:10187300B8F080069000B87401F0021987E4900074
:1018830078F0900093E06007E49000CEF0A3F0209E
:10189300073A126BB3E49000D9F09000937405F00B
:1018A300FF126452900093E09071EE93900079F0F0
:1018B3009000D2740BF090002EE0D394054007E41F
:1018C3009000B8F080069000B87401F0021987E424
:1018D300900078F0900093E06007E49000CEF0A3CE
:1018E300F0200745E49000D6F0900003F07F01124A
:1018F3006BBFE49000D9F09000937406F0FF12647C
:1019030052900093E09071EE93900079F09000D2A2
:10191300740CF090002EE0D394054007E49000B8D7
:10192300F080069000B87401F08059E4900078F0DC
:10193300900093E06007E49000CEF0A3F02007440A
:10194300E49000D6F0900003F09000D9F07F0112EC
:101953006BBF9000937407F0FF126452900093E002
:101963009071EE93900079F09000D2740DF0900096
:101973002EE0D394054007E49000B8F08006900071
:10198300B87401F09000D57401F0800AE4900078F7
:10199300F07F201268D39000C6E064017039900094
:1019A30093E030060444108000FF126F1B126FD0C7
:1019B300E4FFFE125EDEE4FF126BBF900093E0FFD4
:1019C30064017003022403EF64077003022403E439
:1019D300FF125C62022403900093E0FF90002EF05C
:1019E3009000C6E024F6604E24FD7003021A7724AB
:1019F300026003021B1AE4900078F0B20730071864
:101A0300EF2480FD7F12126E1D9000F1E04404F07C
:101A1300900046E024088014E4FD7F12126E1D90AE
:101A230000F1E054FBF0900046E02409FF1268D374
:101A3300126362021B1AE4900078F07F201268D3CD
:101A4300200522D2059000F3E04402FEA3E0FF90BC
:101A530000F3EEF0A3EFF0FFEE44019000F3F0A3E8
:101A6300EFF0021B1AC2059000F3E054FDF054FEA0
:101A7300F0021B1AE4900078F09000C0E004F0E05C
:101A83005403F02430FF1268D39000C0E0FD700DC2
:101A93009000F0E054FBF054F7F054EFF0EDB40194
:101AA300149000F0E04404F0A3E0F09000F0E05460
:101AB300F7F054EFF09000C0E0B402249000F0E09F
:101AC3004404FEA3E0FF9000F0EEF0A3EFF0FFEE7E
:101AD30044089000F0F0A3EFF09000F0E054EFF032
:101AE3009000C0E0B403289000F0E04404FEA3E0BB
:101AF300FF9000F0EEF0A3EFF0FFEE4408FE90003D
:101B0300F0F0A3EFF0EE44109000F0F0A3EFF0122A
:101B130063627F201268D312424E200003021C2B03
:101B2300900093E075F005A420E9072470F974711F
:101B3300800524A7F9747135F0FA7BFF9000C9E0A2
:101B4300FF12488B200322900093E0B40508900015
:101B5300C97403F0802F9000C9E0B40404E4F0805A
:101B6300249000C9E004F0801C9000C97404F09034
:101B730000F1E030E10554FDF080079000F1E0440E
:101B830002F0126362D3900030E0940090002FE0E3
:101B9300940040069000CAE0800C9000CAE0300830
:101BA300054402F0800354FDF0126044EF70069088
:101BB30000CAE0800C9000CAE03008054401F080C0
:101BC3000354FEF0B20890002FE0FEA3E0FF900064
:101BD300CAE0FD124A42126EE6EF4E701F900039C2
:101BE300E07043209116D390003BE0940090003ABC
:101BF300E0943D500790003CE0B4052A900039E0A2
:101C0300701820910FD390003BE0940090003AE0CD
:101C1300943D40069000457403F090003C7405F039
:101C23009000C67401F0C200780CE6600302224FF4
:101C3300C2A890003DE0600B900034E4F0A3743040
:101C4300F0800F9000ABE0FFA3E0900034CFF0A34F
:101C5300EFF0E49000ABF0A3F0780C7610D2A890EC
:101C63000038E060579000D4E004F0E0D3940340E0
:101C73004B7F011254A3AC06AD07E4123C33C004FE
:101C8300C005C006C0079000C4E0FCA3E0FDEC1251
:101C93003C337B667A667986783F123AAFA804A90B
:101CA30005AA06AB07D007D006D005D004123BB572
:101CB300500AE49000D4F07F0A126E59900034E089
:101CC300FEA3E0FF900092E02FF0900091E03EF041
:101CD300900032E0FCA3E0FDEF2DFFEE3CFE7C0024
:101CE3007D19123DC5EF7807CEC313CE13D8F9FF84
:101CF3009000CCEEF0A3EFF0125CD69000CCE0FCA9
:101D0300A3E0FD7F011242573004030221669000D5
:101D1300CCE0FEA3E0FF1264F69000D3EFF0900056
:101D2300D2E06F6058900093E025E02494F582E4BC
:101D33003400F583E0FEA3E0FF7C007D64123DC523
:101D43009000C4EEF0A3EFF0C3EE648094805007DC
:101D5300E49000C4F0A3F0C39000C5E09488900021
:101D6300C4E06480949340077417F0A37470F090F8
:101D730000C4125ED99000D3E09000D2F0900038F6
:101D8300E06003022175900003E0FF9000B8E06F6C
:101D9300700302200E900093E025E02494F582E482
:101DA3003400F583E0FEA3E0FF900017E0FD7C0024
:101DB300C39FFFEC9EFEC3EF9419EE6480948050A2
:101DC30025900093E0F925E02494F582E43400F5AE
:101DD30083E0FEA3E0C39DFFEE9CFEC3EF9419EEE8
:101DE3006480948040089000D7740AF0805BE925F2
:101DF300E02494F582E43400F583E0FEA3E0FF9051
:101E03000017E0FD7C00C39FFFEC9EFEC3EF940F21
:101E1300EE648094805024900093E025E02494F5B0
:101E230082E43400F583E0FEA3E0C39DFFEE9CFE55
:101E3300C3EF940FEE6480948040089000D774053C
:101E4300F080069000D77401F09000D7E064017031
:101E530003021F3B9000D6E004F0E0C3940A50064F
:101E6300E4FFFE021F649000D6E0C3940C500B9075
:101E730000C4E0FEA3E0FF021F649000D6E0FFC3AE
:101E83009412500302215EEFC394135003021F9A6E
:101E93009000D6E0FFC39416500302215EEFC39473
:101EA300175002807D9000D6E0FFC39419500302BF
:101EB300215EEFC3941A500280689000D6E0FFC3FE
:101EC300941E500302215EEFC3941F5003021F9A16
:101ED3009000D6E0FFC39420500302215EEFC39429
:101EE300215002803D9000D6E0FFC39422500302AC
:101EF300215EEFC39423500280289000D6E0FFC3F5
:101F03009424500302215EEFC39425500280139062
:101F130000D6E0FFC39427500302215EEFC3942849
:101F230050079000D7E0021FBB9000D6E0C3942A6D
:101F3300500302215E021FBF9000D7E064016003DB
:101F4300021FE89000D6E004F0E0FFC394035003BF
:101F530002215EEFC39405500E9000C4E0FEA3E09F
:101F6300FF125EDE02215E9000D6E0FFC3940850AC
:101F73000302215EEFC3940E500A9000D7E075F080
:101F83000FA480349000D6E0FFC3941050030221C5
:101F93005EEFC3941E50089000D7E025E0801990AF
:101FA30000D6E0FFC39421500302215EEFC39425C2
:101FB300500A9000D7E025E0FF022122900003E0C1
:101FC3009000B8F0900093E025E02494F582E43487
:101FD30000F583A3E0900017F0E49000D8F09000A0
:101FE300D6F002215E900003E09000B8F0900093D9
:101FF300E0FF25E02494F582E43400F583A3E09028
:102003000017F0E49000D8F0022155900017E0FF8C
:10201300C3942D50030220CB900093E025E0249439
:10202300F582E43400F583E0FCA3E0FD7E006F70ED
:1020330001EC70030220CBC3EF9DFFEE9CFED3EFB8
:10204300940FEE64809480507F9000D8E004F0E019
:10205300FFC39403500302215EEFC3940550057F31
:102063000A0221229000D8E0FFC394085003022102
:102073005EEFC3940E50057F0A0221229000D8E040
:10208300FFC39410500302215EEFC3941950057FE0
:10209300020221229000D8E0FFC3941E50030221C4
:1020A3005EEFC3942250047F018074900093E0FF9D
:1020B30025E02494F582E43400F583A3E09000172F
:1020C300F0E49000D80221589000D9E0FFC394288F
:1020D3005069900093E025E02494F582E43400F500
:1020E30083E0FCA3E0FDC39423EC64809480404B25
:1020F300ED942EEC648094805041EFC39408405BD0
:102103009000D9E0C3940E50047F0A80129000D946
:10211300E0FFC394104044EFC3941950077F0212A9
:102123006E598037900093E0FF25E02494F582E414
:102133003400F583A3E0900017801A900093E0FF2A
:1021430025E02494F582E43400F583A3E09000179E
:10215300F0E49000D6F090002EEFF09000D9E00468
:10216300F0800F126FD0E4FFFE125EDE9000D27497
:1021730007F0900034E0FEA3E0FFC39407EE940061
:102183005004D2048002C204900032EEF0A3EFF0B8
:102193009000CFE004F070069000CEE004F09000D1
:1021A300CEE0B4030BA3E0B484069000C67401F040
:1021B3003003109000D0E004F0E0B43C069000C679
:1021C3007401F0C3900014E09428900013E094236A
:1021D3005063C3900092E094DC900091E09405403A
:1021E30054900014E004F07006900013E004F090A3
:1021F3000036E0FCA3E0FD900013E0FEA3E0FF1235
:102203003DD7ED4C7018C3900090E0943890008F48
:10221300E094225002D206E4FD7F51126E1D90001D
:1022230091E0FEA3E0FF7C057DDC123DD790009199
:10223300ECF0A3EDF0900013E0FEA3E0FFC37428DD
:102243009F900030F074239E90002FF0300466209E
:10225300032A127088EF70047F0A80341270F6EF3D
:1022630070030223F21270EAD203900046E0240FB7
:10227300FF1268D37F051261A10223F29000D1E01F
:10228300C3940240030223F2127088EF70087F05A3
:102293001270DE0223F21270F6EF70030223F212C1
:1022A30070EA900046E0240FFF1268D39000D1E05B
:1022B30004F00223F2E49000D0F0A3F01270EA30AD
:1022C300031CC2039000F1E054FDF012636290001E
:1022D30093E0FF9071EE93900079F01261A190006A
:1022E30079E070030223F2900048E0B401259000E6
:1022F30093E0C39406501CE4900048F07FA07E0F47
:10230300126E98E49000ABF0A3F07FA07E0F126EE4
:10231300988016900093E0D3940540089000487489
:1023230001F08005E4900048F09000B6E070119051
:102333000046E0600B9000D5E0B401197F228012C3
:102343007FB87E0B126E98900079E0FF900046E014
:102353002FFF1268D3900093E025E025E0244BF58E
:1023630082E43400F583E0FCA3E0FDA3E0FEA3E0F8
:10237300FF74FFFBFAF9F8D3123E865034900093B2
:10238300E0FF25E02418F582E43400F583E0FCA3A4
:10239300E0FD9000BBE04CF0A3E04DF0EF25E0251D
:1023A300E0244BF582E43400F583123EB6000000CE
:1023B30000900093E0FB25E025E0244BF582E43414
:1023C30000F583E0FCA3E0FDA3E0FEA3E02401FF0E
:1023D300E43EFEE43DFDE43CFCEB25E025E0244B3C
:1023E300F582E43400F583123EAAE4900079F07F8D
:1023F300327E00126E987F327E00126E9802166A49
:10240300E4900078F0900049E054EFF0C2A8900007
:1024130091E0FCA3E0FD7F15126B60126B56124630
:10242300BC9000BD7401F09000CEE064037004A37F
:10243300E0648460079000D0E0B43C0EE49000BDFB
:10244300F090003C7402F00224CF90003CE064055D
:10245300607A300606E49000768017900093E0FFE0
:10246300640560459000B6E0FE701020E90D900011
:102473007604F090003C7404F08037EE602BEF6438
:10248300016007900093E0B4071DE4900076F0909C
:10249300003CF0780D7605126FD0E4FFFE125EDE8D
:1024A300E4FF126BBF800B8000E4900076F0900095
:1024B3003CF09000B6E0700A900046E060047F2391
:1024C3008007900046E02419FF1268D3E490007956
:1024D300F0FF126D38C2B3E49000F3F0A3E054C0F0
:1024E300F0900093E075F005A420E9072470F974D7
:1024F30071800524A7F9747135F0FA7BFF124E59E8
:10250300E49000ABF0A3F0FFFE125CD69000F1E084
:1025130054FDF0126362126FD0E4FFFE125EDEE43C
:10252300FF126BBF780DE67003125C62900003E04C
:102533009000B8F0900093E025E02494F582E43411
:1025430000F583A3E0900017F0E49000D8F090002A
:10255300D6F0C2059000D2740DF01270EA90008F8D
:10256300E0FEA3E0FF9000A7E02FFF9000A6E03E6F
:10257300900004F0A3EFF0229000C57401F0E49002
:1025830000C7F0A3F0A3F0A3F0A3F0A3125C527F63
:10259300211268D39000F4E0547FF0E49000C6F079
:1025A3009000F0E030E3069000C67401F09000F074
:1025B300E054F7F054EFF0FD9000F3E054FEF0ED3B
:1025C300547F9000F0F054DFF054BFF07F051261A8
:1025D300A112710290011A7405F090011EF090018E
:1025E30020F090011FF0900111F09000C7E060030C
:1025F300022E5B1252CB9000C9E060030227677F73
:10260300051261A1126FF29000F0E0547FF07F1E7B
:10261300126D809000C5EFF07E007D017C001258A2
:10262300F5E49000C8F09000C8E06003022767302B
:10263300002D9000CBE09000C5700AE0FF7E007D86
:10264300017C008007E0FF7E00E4FDFC1258F5905A
:1026530000CBE004F0E05401F0A3E004F0C2001268
:102663005D5A9000CAEFF060031270A29000CAE0B6
:10267300B4100050B190267FF828287302273D023A
:1026830026290227170227170227170227170226D0
:10269300290227170227170227170226AF0226F15E
:1026A3000226BA0226D802262902272F9000C774D1
:1026B30001F0A3F00226297F201268D39000C8748A
:1026C30001F0A304F09000C414F0A3E0FD7F1E12F8
:1026D3006E1D0226299000C5E0D394005003022604
:1026E300297F201268D39000C5E024FE8017900054
:1026F300C5E0C3941840030226297F201268D390B3
:1027030000C5E02402F0E0FF7E007D017C0012584A
:10271300F50226299000CAE024FE9000C4F0900040
:10272300C97402F09000C814F002262990003D7489
:1027330001F07F211268D302262912707AEF700804
:102743007F3C1270960226291270AEEF70030226A8
:10275300291270A29000C77401F0A3F090003C040A
:10276300F00226299000C9E0640160030228871261
:102773006FF29000CB7401F0E49000C8F09000F485
:10278300E04480F09000C4E0D394039000F0E04074
:102793001A54DFF0E4FF1269C69000C4E024FDFF81
:1027A300126F349000C4E0241E801E4420F0A3E086
:1027B300F09000C4E0FFC374049FFF1269C6E4FFF6
:1027C300126F349000C4E0241FFF126D809000C587
:1027D300EFF012654E9000C4E075F005A420E90700
:1027E3002475F97471800524ACF9747135F0FA7BA2
:1027F300FF124E599000C5E0FF7D011263CE900099
:10280300C8E06003022887125D5A9000CAEFF060A7
:10281300031270A29000CAE0604424FA60E024042A
:1028230024F8502324FE600E240270D29000C77453
:1028330001F0A3F080C87F201268D39000C8740110
:10284300F0A37403F080B79000CAE024FE9000C4A4
:10285300F09000C97402F09000C814F080A01270C8
:102863007AEF70077F3C12709680931270AEEF6020
:102873008D1270A29000C77401F0A3F090003C0485
:10288300F00228019000C9E064026003022A3012BA
:102893006FF29000CB7401F0E49000C8F09000F464
:1028A300E04480F09000C4E0D394039000F0E04053
:1028B3001A54DFF0E4FF1269C69000C4E024FDFF60
:1028C300126F349000C4E0241E801E4420F0A3E065
:1028D300F09000C4E0FFC374049FFF1269C6E4FFD5
:1028E300126F349000C4E0241FFF126D809000C566
:1028F300EFF012654E9000C4E075F005A420E907DF
:102903002475F97471800524ACF9747135F0FA7B80
:10291300FF124E599000C50229FC9000C8E06003E5
:10292300022A30125D5A9000CAEFF060031270A2BF
:102933003000309000CBE09000F4700DE04480F064
:102943009000C5E0FF7D01800BE0547FF09000C54F
:10295300E0FFE4FD1263CE9000CBE004F0E054010D
:10296300F0C2009000CAE07003022A0624F56072E8
:10297300146011146053240370A09000C77401F015
:10298300A3F080967F201268D39000C87401F0A34F
:10299300F09000C4E0FFC394045005EF241F8006A9
:1029A3009000C4E0241EFFA3E0FD126E1D9000C53D
:1029B300E0FF9000C4E025E02496F582E43400F5BE
:1029C30083E4F0A3EFF002291D9000C5E0D3940047
:1029D300500302291D7F201268D39000C5E014F034
:1029E30080179000C5E0C3940A400302291D7F208D
:1029F3001268D39000C5E004F0E0FF7D011263CEBE
:102A030002291D12707AEF70087F3C12709602291A
:102A13001D1270AEEF700302291D1270A29000C741
:102A23007401F0A3F090003C04F002291D9000C94A
:102A3300E064036003022BF97F051261A1126FF2B8
:102A43009000F0E054DFF0E4FF1269C6E4FF126F78
:102A5300349000F0E0547FF09000F4E0547FF09065
:102A63000046E0FFC41354079000C4F025E0240798
:102A7300F582E43400F583E0FEA3E0AA06F97BFFC8
:102A8300124E59E49000C8F09000C8E06003022B96
:102A9300F9125D5A9000CAEFF060031270A2300081
:102AA300359000CBE0701A9000C4E025E02407F5D0
:102AB30082E43400F583E0FEA3E0AA06F97BFF80FD
:102AC300067BFF7A7179D9124E599000CBE004F05E
:102AD300E05401F0C2009000CAE0B40E0050A99087
:102AE3002AE9F8282873022BCF022A8B022BB7027C
:102AF3002BB7022BB7022BB7022A8B022BB7022B61
:102B0300B7022BB7022B13022B7A022B1E022B5672
:102B13009000C77401F0A3F0022A8B7F201268D3C0
:102B23009000C87401F0A37404F09000C4E0FD7F2A
:102B330014126E1D9000C4E07003FD80027D017FBE
:102B430026126E1D9000C4E0C43354E0900046F09A
:102B5300022A8B7F201268D39000C4E0FF700574B3
:102B630005F08032EFB40207E49000C4F0802790B0
:102B730000C4E014F0801F7F201268D39000C4E0EB
:102B8300FFB40504E4F0800EEF9000C470057402F6
:102B9300F08003E004F09000C4E025E02407F58210
:102BA300E43400F583E0FEA3E0AA06F97BFF124EAE
:102BB30059022A8B9000CAE024FE9000C4F09000D2
:102BC300C97402F09000C814F0022A8B12707AEFD5
:102BD30070087F3C127096022A8B1270AEEF70035E
:102BE300022A8B1270A29000C77401F0A3F0900028
:102BF3003C04F0022A8B9000C9E0640460030225C0
:102C0300ED7F051261A17F13126D809000C4EFF078
:102C1300126FF27BFF7A7179D4124E59126044908D
:102C23000013E0FEA3E0FFC374289FFF74239EFEFE
:102C33009000CDF0A3EFF0E4FD124A429000C4E00F
:102C430025E024E3F582E43471F583E4740193FF12
:102C53007D0112670EE49000C8F09000CBF0900065
:102C6300C8E060030225ED125D5A9000CAEFF060E0
:102C7300031270A230003F9000CBE09000C46015B7
:102C8300E025E024E3F582E43471F583E4740193F1
:102C9300FF7D018012E025E024E3F582E43471F541
:102CA30083740193FFE4FD12670E9000CBE004F000
:102CB300E05401F0C2009000CAE0B41100509F90AC
:102CC3002CC9F8282873022E31022E27022D8102E7
:102CD3002D81022D81022D81022C61022D81022D75
:102CE30081022D81022CFC022D4F022CFF022D3775
:102CF300022D99022C61022E11022E1C7F201268D4
:102D0300D39000C87401F0E4A3F09000C4E0FD7F09
:102D130013126E1D9000C4E025E024E3F582E43431
:102D230071F583E493FF740193900036CFF0A3EF22
:102D3300F0022C617F201268D39000C4E070057408
:102D430005F0801E9000C4E014F080167F20126806
:102D5300D39000C4E0B40504E4F080069000C4E01E
:102D630004F09000C4E025E024E3F582E43471F537
:102D730083E4740193FF7D0112670E022C619000BE
:102D8300CAE024FE9000C4F09000C97402F09000E1
:102D9300C814F0022C617F201268D39000CD7423F5
:102DA300F0A37428F09000F1E04410F04420F044C4
:102DB30040F04480F09000F0E04401F0A3E0F0E440
:102DC300FD7F287E23124A42E4900091F0A3F09005
:102DD3000013F0A3F09000A6F0A3F090008FF0A3EF
:102DE300F0FDFC7F15126B60126B4F126E94900016
:102DF300A6E0FCA3E0FD7F19126B60126E949000B5
:102E03008FE0FCA3E0FD7F1B126B60022C61E4905A
:102E13000078F090003C7406F09000C77401F0A3B2
:102E2300F0022C6112598F7F201268D3801A12701E
:102E33007AEF70087F3C127096022C611270AEEF2D
:102E43007003022C611270A29000C77401F0A3F00A
:102E530090003C04F0022C617F211268D39000C6DD
:102E6300E0600A9000F0E04408F0A3E0F090003C3A
:102E7300E0FF64026007EF64066002E4F022126B75
:102E8300E3126B82120006126A75126FA8126F6446
:102E930012712B126E77D2AF7F031261A1126FE210
:102EA300E4FFFE125EDEE4FF126D14C202C2049060
:102EB30000777401F0E4900016F0900049F012449A
:102EC3009BC2A89000F0E04402FEA3E0FF9000F054
:102ED300EEF0A3EFF0FFEE4404FE9000F0F0A3EF5A
:102EE300F0EE4408FE9000F0F0A3EFF075B2F27537
:102EF300B10DEE54FEFEEF540FFF9000F0EEF0A381
:102F0300EFF030B3077FB87E0B126E987F14126D0B
:102F130080EFD39405504630E90B7F26126D80EF86
:102F2300D3940650387F14126D80EF60137F2612FE
:102F33006D80EFD3940650087F26126D80BF011D6C
:102F43007F14126D80EF702C7F26126D80EFD39467
:102F530006500A7F26126D80EF640170177D0230E0
:102F6300E9027D007F14126E1DA2E9B3E433FD7FF5
:102F730026126E1D7DA27C017F0912621212710D51
:102F83007F02126D80BF09127F03126D80BFA20AF8
:102F93007F04126D80EF640160267D41E4FF126EB1
:102FA3001D7D377F01126E1D7D097F02126E1D7D0F
:102FB300A27F03126E1D7D017F04126E1D12612F0D
:102FC300E4FF126D80BF410A7F01126D80EF643709
:102FD300606C7D41E4FF126E1D7D377F01126E1D13
:102FE3007D097F02126E1D7DA27F03126E1D7D017E
:102FF3007F04126E1D12612F126DE1E4900091F0B7
:10300300A3F0900013F0A3F09000A6F0A3F09000BB
:103013008FF0A3F0FDFC7F15126B60126B4F126EE5
:10302300949000A6E0FCA3E0FD7F19126B60126E82
:103033009490008FE0FCA3E0FD7F1B126B607F2662
:10304300126D80126DBCE4900045F07F13126D8009
:10305300EF25E024E3F582E43471F583E493FE7411
:103063000193FF900036EEF0A3EFF0D3943CEE947F
:10307300004012900036E4F0A3741EF07D027C0041
:103083007F13126B607F26126D80EFD39406400787
:103093007D027F14126E1D7F14126D80EFC43354B2
:1030A300E0900046F07F15126AE4900091EEF0A3E1
:1030B300EFF07F17126AE4900013EEF0A3EFF090A5
:1030C3000036A3E0FF126DBC7F19126AE49000A6DC
:1030D300EEF0A3EFF07F1B126AE490008FEEF0A3F3
:1030E300EFF07F3E126DBC7F29126AE4EF7810C3C4
:1030F30033CE33CED8F9FDAC06C004C0057F27120A
:103103006AE4D0E02FFFD0E03EFEE4FCFD90004FE8
:10311300123EAA7F2D126AE4EF7810C333CE33CE6A
:10312300D8F9FDAC06C004C0057F2B126AE4D0E0D9
:103133002FFFD0E03EFEE4FCFD900053123EAA7F39
:1031430031126AE4EF7810C333CE33CED8F9FDAC35
:1031530006C004C0057F2F126AE4D0E02FFFD0E041
:103163003EFEE4FCFD900057123EAA7F35126AE44E
:10317300EF7810C333CE33CED8F9FDAC06C004C00C
:10318300057F33126AE4D0E02FFFD0E03EFEE4FC7B
:10319300FD90005B123EAA7F39126AE4EF7810C3F8
:1031A30033CE33CED8F9FDAC06C004C0057F371249
:1031B3006AE4D0E02FFFD0E03EFEE4FCFD90005F28
:1031C300123EAA7F3D126AE4EF7810C333CE33CEAA
:1031D300D8F9FDAC06C004C0057F3B126AE4D0E019
:1031E3002FFFD0E03EFEE4FCFD900063123EAA7F79
:1031F30041126AE4EF7810C333CE33CED8F9FDAC75
:1032030006C004C0057F3F126AE4D0E02FFFD0E080
:103213003EFEE4FCFD900067123EAA7F45126AE47D
:10322300EF7810C333CE33CED8F9FDAC06C004C05B
:10323300057F43126AE4D0E02FFFD0E03EFEE4FCBA
:10324300FD90006B123EAA7F49126AE4EF7810C327
:1032530033CE33CED8F9FDAC06C004C0057F471288
:103263006AE4D0E02FFFD0E03EFEE4FCFD90007A5C
:10327300123EAA7F4D126AE4EF7810C333CE33CEE9
:10328300D8F9FDAC06C004C0057F4B126AE4D0E058
:103293002FFFD0E03EFEE4FCFD90003E123EAA7FED
:1032A3004F126AE49000BBEEF0A3EFF0EE44AFFEE2
:1032B30074FFF47003EE64AF6007E49000BBF0A307
:1032C300F0900013E0FEA3E0FFC374289F9000304A
:1032D300F074239E90002FF0A207E4339000C0F017
:1032E30030E70BE0547F900093F0D2078008900002
:1032F300937402F0C2079000C07402F02430FF12EE
:1033030068D3126C13126FF27F021254A390003829
:10331300EFF0126362126044900013E0FEA3E0FF3B
:10332300C374289FFF74239EFEE4FD124A427F1E4E
:10333300126D80900043E4F0A3EFF07F1F126D80C5
:10334300900096E4F0A3EFF07F20126D8090009838
:10335300E4F0A3EFF07F21126D8090009AE4F0A3D4
:10336300EFF07F22126D8090009CE4F0A3EFF0E475
:10337300A3F0A3F07F23126D809000A0E4F0A3EFED
:10338300F07F24126D809000A2E4F0A3EFF07F257C
:10339300126D809000A4E4F0A3EFF0127121126F7C
:1033A300D0A2B3E4339000B6F0126BE3C390009065
:1033B300E0943890008FE09422500E900030E09417
:1033C3000090002FE0940050077D017F51126E1D85
:1033D3007F51126D80EF6004C2068002D206900016
:1033E300B6E0701A7F26126D80EF24B0FF126DBC19
:1033F30090003C7409F09000067401F080103006D0
:103403000890003C7404F08005E490003CF09000C8
:103413003CE0FFB40A0050F6903422F828287302E7
:103423003449023451023459023493023461023470
:103433008502348D023411023411023440EF1242FA
:103443005212570980C812424E12002680C01242FF
:103453004E12153A80B812424E1260BA80B0124230
:103463004E900076E0B40102800D3006047F0180A7
:103473000C300107200604E4FF8002E4FF123499B4
:10348300808C12424E12557580841250B50234114D
:1034930012257B0234119000C4EFF0FDE4A3F0A3E6
:1034A300F09000C9F09000CCF0A3F0A3F0A3F0A338
:1034B300F0A3741EF0E4A3F0A37403F0A374E8F084
:1034C300C208E4900078F0780E7608C2A8C2009093
:1034D3000049E04410F0E49000ABF0A3F0780C76E0
:1034E30010D2A8D204C203900013E0FEA3E0FFC3EE
:1034F30074289F9000C8F074239E9000C7F0E49056
:10350300004AF090003CE0900042F0AF05126A3CA4
:1035130090004B7401F09000C4E0FF70089000D15C
:10352300E0FD1258549000797410F0900076E0603A
:10353300047F0580089000C4E070127F3C127096EF
:10354300E49000D1F07F01125C620236189000B75C
:10355300E0702C9000C4E0640170249000B6E07029
:103563001E7F3C127096E49000D1F0A37402F07FAA
:1035730001125C62125ED67F01126BBF0236189095
:1035830000B6E0600302361D9000C4E064016003EE
:1035930002361D9000CBE0643C604C900078E090D4
:1035A30000CBF0780CE6700F9000CFE060097F1E2F
:1035B3001268D3780C76309000CBE0B42C0DE490F5
:1035C3000078F09000CFF07F1B80179000CBE0B421
:1035D3003DC1E4900078F09000CF04F0780C763091
:1035E3007F1E1268D380ACE4900078F0900006F060
:1035F300125ED67F01126BBF125C627F3C12709623
:103603009000D27402F0E49000D1F09000C4E0FF87
:10361300E4FD1258547F10126F1B1252CB780CE644
:1036230060030237BFC2A89000CEE004F0E0D39459
:103633000340119000D2E0B4010AE49000CEF07F81
:103643001E1268D39000C4E0640160030236D69072
:1036530000D2E0FF6402607B9000D1E0606CEF7009
:1036630069780EE670349000CCE0FFB40806A374CA
:1036730001F08009EFB40105E49000CDF09000CD96
:10368300E09000CC7005E004F08003E014F09000BB
:10369300CCE0FF126F1B780E7608E49000D1F09017
:1036A30000C4E0FFE4FD1258549000D1E0701B12F7
:1036B3005ED67F01126BBF125C627F3C12709690E4
:1036C30000D27402F07F10126F1B780C7610D2A810
:1036D3000237BF90003DE0FF70169000ABE0FCA303
:1036E300E0FD900092E02DF0900091E03CF080121C
:1036F300900091E4F0A37430F09000ABE4F0A37475
:103703000AF0EF701F9000ABE0FEA3E0FF7C007DAA
:1037130032123DC5EF7807CEC313CE13D8F990000C
:10372300CAF080069000CA7412F09000CAE0FD7CD3
:10373300007F01124257C39000ACE094089000ABA5
:10374300E094005004D2048002C204E49000ABF081
:10375300A3F0780C7610D2A830030E9000D0E004CA
:10376300F0E0643C70030239D4C3900014E0942861
:10377300900013E09423502D900091E0FEA3E0FF0E
:10378300C394DCEE9405401D900014E004F0700631
:10379300900013E004F07C057DDC123DD79000918E
:1037A300ECF0A3EDF0900013E0FEA3E0FFC3742858
:1037B3009F9000C8F074239E9000C7F09000D1E062
:1037C300600302361DD2B39000C4E0B40103125E5D
:1037D3005A1270AEEF60061270A20239D4200003B1
:1037E3000238BA20031B9000C6E0FF04F07BFF7A87
:1037F3007179D412488B9000C6E064047019F0808C
:10380300169000F1E030E10554FDF080079000F1DF
:10381300E04402F0126362D39000C8E09400900089
:10382300C7E0940040069000C5E0800C9000C5E01E
:103833003008054402F0800354FDF0126044EF7039
:10384300069000C5E0800C9000C5E03008054401F7
:10385300F0800354FEF0B2089000C7E0FEA3E0FF3F
:103863009000C5E0FD124A42126EE6EF4E701F90C3
:103873000039E07040209116D390003BE094009013
:10388300003AE0943D500790003CE0B405279000D7
:1038930039E0701820910FD390003BE09400900022
:1038A3003AE0943D40069000457403F090003C7468
:1038B30005F00239D4C2002004030239442003393D
:1038C300127088EF70047F0A80401270F6EF605820
:1038D3001270EA900046E0240FFF1268D3E49000D0
:1038E300F3F0A3E054C0F07BFF7A7179D4124E5900
:1038F300D2037F051261A1802F9000C9E0C3940217
:103903005026127088EF70077F051270DE8019123F
:1039130070F6EF60131270EA900046E0240FFF1276
:1039230068D39000C9E004F09000C4E06401600330
:1039330002361D9000D3F0A3F0FFFE125EDE0236C6
:103943001D9000C4E0FF126A3CE49000D0F09000A8
:10395300C9F01270EA3003129000797410F0C203B8
:103963009000F1E054FDF0126362900079E0602969
:10397300900076E0701E9000B6E0700A900046E07A
:1039830060047F20800B900079E0FF900046E02FD9
:10399300FF1268D3E4900079F09000C4E064016002
:1039A3000302361D9000D3E07002A3E060030236E9
:1039B3001D7FE87E03125EDE9000D37403F0A374D0
:1039C300E8F09000177432F090002E7407F002367E
:1039D3001D900049E054EFF0E4FF126D38E4FE124D
:1039E3005EDEE4FF126BBFC2A89000BD7401F0E479
:1039F3009000F3F0A3E054C0F0900093E075F0055D
:103A0300A420E9072470F97471800524A7F974715F
:103A130035F0FA7BFF124E59E49000ABF0A3F0FFB0
:103A2300FE125CD69000F1E054FDF0126362127056
:103A3300EAE4FF125C62900091E0FCA3E0FD7F15D5
:103A4300126B60126B569000D0E0B43C0890003CBF
:103A53007402F0802A90003CE064056022E4F09058
:103A63000076E0701A9000B6E0700A900046E060BD
:103A7300047F208007900046E02416FF1268D3904D
:103A830000C4E0B4010DC206C2017D017F51126E74
:103A93001D8008900076E07002C201E4900076F089
:103AA30090003CE0FD7C00E4FF024257EC4D6011C6
:103AB300E8497017ED33EC3304600DE4FCFFFEFDC1
:103AC30022E933E8330470F8023CA1123C6C580439
:103AD3006009E4CC24815006285009023CAB2840FD
:103AE30003023CA8C0E0EB4A7044B98006D0E0FB77
:103AF300023C97EF4E701CBD8008EBFFEAFEE9FD28
:103B030080EBE98DF0A4FEE5F0023B98E9CDF9EAFC
:103B1300FEEBFFEF89F0A4FCE5F0CE89F0A42EFFC5
:103B2300E435F0CD89F0A42DFEE435F08067EF4E47
:103B33007005BD80D780C3EF8BF0A4ACF0EE8BF0A3
:103B4300A42CFCE435F0F8EF8AF0A42CE5F038FC63
:103B5300E433CB8DF0A42CFCE5F03BF8EE8AF0A423
:103B63002CFCE5F038F8E433CF89F0A42CFCE5F025
:103B730038CF3400CE89F0A42FFFE5F03EFEE433C6
:103B8300C98DF0A42EFEE5F039CD8AF0A42FFFE510
:103B9300F03EFEE43DFD33D0E0FB50070BBB000FCE
:103BA300023CABEC2CFCEF33FFEE33FEED33FD02B6
:103BB3003C8374F8CC6480CCC86480C8F58204600C
:103BC3004FC3EB9FF5F0EA9E42F0E99D42F0E89C7B
:103BD30045F0603C501DE5825FFFE582D313CB5B6C
:103BE300CBF42B5582FB50280ABA002409B90020D4
:103BF30008801DE5825BFBE582D313CF5FCFF4C35F
:103C0300132F5582FF50090EBE00050DBD00010C98
:103C1300C3EB9FF5F0EA9E42F0E99D42F0E89C4534
:103C2300F06007CC4820E701B3EC2275F020800E4A
:103C330075F010800575F0087D007E007F003392DB
:103C4300D530D503123E78EC334010EF33FFEE331B
:103C5300FEED33FDEC33FCD5F0ED22E5F0247EA23E
:103C6300D513CC92E7CDCEFF22E9D2E7C933E833AF
:103C7300F892D5EDD2E7CD33EC33FC5002B2D52226
:103C8300EC30E7100FBF000C0EBE00080DBD0004A2
:103C93000BEB6014A2D5EB13FCED92E7FD2274FF4E
:103CA300FCFDFEFF22E480F8A2D574FF13FC7D80A7
:103CB300E480EFE709F608DFFA8046E709F208DF58
:103CC300FA803E88828C83E709F0A3DFFA8032E32F
:103CD30009F608DFFA8078E309F208DFFA807088D2
:103CE300828C83E309F0A3DFFA806489828A83E00C
:103CF300A3F608DFFA805889828A83E0A3F208DFFB
:103D0300FA804C80D280FA80C680D4806980F280A9
:103D130033801080A680EA809A80A880DA80E280CF
:103D2300CA803389828A83ECFAE493A3C8C582C824
:103D3300CCC583CCF0A3C8C582C8CCC583CCDFE98E
:103D4300DEE7800D89828A83E493A3F608DFF9EC2A
:103D5300FAA9F0EDFB2289828A83ECFAE0A3C8C5B5
:103D630082C8CCC583CCF0A3C8C582C8CCC583CCDC
:103D7300DFEADEE880DB89828A83E493A3F208DF4B
:103D8300F980CC88F0EF60010E4E60C388F0ED241B
:103D930002B4040050B9F582EB2402B4040050AF1E
:103DA3002323458223903D0673BB010689828A83C0
:103DB300E0225002E722BBFE02E32289828A83E4E7
:103DC3009322EF8DF0A4A8F0CF8CF0A428CE8DF031
:103DD300A42EFE22BC000BBE0029EF8DF084FFADA4
:103DE300F022E4CCF875F008EF2FFFEE33FEEC334E
:103DF300FCEE9DEC984005FCEE9DFE0FD5F0E9E44A
:103E0300CEFD22EDF8F5F0EE8420D21CFEADF07568
:103E1300F008EF2FFFED33FD4007985006D5F0F281
:103E230022C398FD0FD5F0EA22C2D5EC30E709B2E0
:103E3300D5E4C39DFDE49CFCEE30E715B2D5E4C3A5
:103E43009FFFE49EFE123DD7C3E49DFDE49CFC80EE
:103E530003123DD730D507C3E49FFFE49EFE22A3A0
:103E6300F8E0C5F025F0F0E582158270021583E0D5
:103E7300C838F0E822C3E49FFFE49EFEE49DFDE41E
:103E83009CFC22EB9FF5F0EA9E42F0E99D42F0E8AC
:103E93009C45F022E8600FECC313FCED13FDEE1319
:103EA300FEEF13FFD8F122ECF0A3EDF0A3EEF0A3A5
:103EB300EFF022A8828583F0D083D082123ECD1208
:103EC3003ECD123ECD123ECDE473E493A3C583C52C
:103ED300F0C583C8C582C8F0A3C583C5F0C583C830
:103EE300C582C822D083D082F8E493701274019300
:103EF300700DA3A393F8740193F5828883E473741C
:103F030002936860EFA3A3A380DFE0FCA3E0FDA31B
:103F1300E0FEA3E0FF229000CCEFF078CD7C007DA3
:103F2300017BFF7A7179577E007F0C123D869000EA
:103F3300BBA3E0FD540F24809000D5F0ED54F0FFB7
:103F4300E4C4F854F0C8EFC4540F482490A3F0908D
:103F530000BBE0FCEC540F24A09000D7F0EC54F02D
:103F6300C4540F24B0A3F09000CCE024F8500E709A
:103F7300030240A41470030241630242389000CC50
:103F8300E0FB25E025E0244FF582E43400F583A32C
:103F9300A3A3E0540FFF9000CDEFF0EB25E025E065
:103FA300244FF582E43400F583A3A3A3E054F0FF88
:103FB300E4FEFDFC7804123E97EF24109000CEF04F
:103FC3009000CCE025E025E0244FF582E43400F5B1
:103FD30083A3A3E0FEA3E4FFEE540FFEE4FDFC780D
:103FE30008123E97EF24209000CFF0EB25E025E068
:103FF300244FF582E43400F583A3A3E0FEA3E4FF9A
:10400300EE54F0FEE4FDFC780C123E97EF24309062
:1040130000D0F09000CCE025E025E0244FF582E4C9
:104023003400F583A3E0FDA3A3E4FFFEED540FFDED
:10403300E4FC7810123E97EF24409000D1F0EB257A
:10404300E025E0244FF582E43400F583A3E0FDA3EB
:10405300A3E4FFFEED54F0FDE4FC7814123E97EF69
:1040630024509000D2F09000CCE025E025E0244FCE
:10407300F582E43400F583E0FCA3A3A3E4FFFEFD93
:10408300EC540FFC7818123E97EF24609000D3F0A5
:10409300EB25E025E0244FF582E43400F58302426A
:1040A3001F90007AA3A3A3E0540FFF9000CDEFF07D
:1040B30090007AA3A3A3E054F0FFE4FEFDFC780490
:1040C300123E97EF24109000CEF090007AA3A3E065
:1040D300FEA3E4FFEE540FFEE4FDFC7808123E97C6
:1040E300EF24209000CFF090007AA3A3E0FEA3E496
:1040F300FFEE54F0FEE4FDFC780C123E97EF243003
:104103009000D0F090007AA3E0FDA3A3E4FFFEEDBE
:10411300540FFDE4FC7810123E97EF24409000D139
:10412300F090007AA3E0FDA3A3E4FFFEED54F0FDBD
:10413300E4FC7814123E97EF24509000D2F09000E4
:104143007AE0FCA3A3A3E4FFFEFDEC540FFC781874
:10415300123E97EF24609000D3F090007A02421F42
:1041630090003EA3A3A3E0540FFF9000CDEFF09087
:10417300003EA3A3A3E054F0FFE4FEFDFC78041289
:104183003E97EF24109000CEF090003EA3A3E0FEF4
:10419300A3E4FFEE540FFEE4FDFC7808123E97EF14
:1041A30024209000CFF090003EA3A3E0FEA3E4FF01
:1041B300EE54F0FEE4FDFC780C123E97EF243090B1
:1041C30000D0F090003EA3E0FDA3A3E4FFFEED5476
:1041D3000FFDE4FC7810123E97EF24409000D1F0DD
:1041E30090003EA3E0FDA3A3E4FFFEED54F0FDE445
:1041F300FC7814123E97EF24509000D2F090003ECA
:10420300E0FCA3A3A3E4FFFEFDEC540FFC7818121B
:104213003E97EF24609000D3F090003EE0FCA3A310
:10422300A3E4FFFEFDEC54F0FC781C123E97EF2450
:10423300709000D4F09000CD126DA2A3126DA2A3D2
:10424300E0FF126DBCA3E0FF026DBC90003CE0FDFB
:104253007C00E4FF9000DAEFF0A3ECF0A3EDF0783C
:10426300DD7C007D017BFF7A7179637E007F021222
:104273003D8678DF7C007D017BFF7A7179657E0066
:104283007F08123D8678E77C007D017BFF7A717998
:104293006D7E007F08123D869000DAE01470030201
:1042A300432E1470030243681470030244752403FD
:1042B30060030244959000DBA3E0FEB4051990006F
:1042C30045E0FDB404047FE4800AEDB403047FE316
:1042D30080027FE1126DBC3006189000B7E0600EDB
:1042E300900006E060047F0B80317F0A802D7F07FA
:1042F3008029C3900030E0948490002FE094034021
:104303000FD3900090E094CC90008FE0941E40096E
:10431300EE640560047F088002AF06126DBC3001B5
:10432300057FD10244927FD00244929000DBA3E048
:10433300FD540F2410A3F0ED54F0FFE4C4F854F03F
:10434300C8EFC4540F482420A3F09000DDE0FF120F
:104353006DBC0000000000A3E0FF126DBC00000074
:10436300000002449590002FA3E0FD540F2430FE7B
:10437300E4339000DFF0A3CEF0ED54F0FFE4C4F893
:1043830054F0C868FEEFC4540F482440FFE43EA332
:10439300F0A3EFF090002FE0FCEC540F2450FEE468
:1043A300339000E3F0A3CEF0EC54F0C4540F246038
:1043B300FEE433A3F0A3CEF090008FA3E0FD540FEF
:1043C3002470FEE4339000E7F0A3CEF0ED54F0FF49
:1043D300E4C4F854F0C868FEEFC4540F482480FFC7
:1043E300E43EA3F0A3EFF090008FE0FCEC540F2425
:1043F30090FEE4339000EBF0A3CEF0EC54F0C45401
:104403000F24A0FEE433A3F0A3CEF0900001E0FE5E
:1044130070059000E3801DEEB401059000DF801469
:10442300900001E0FEB402059000E78007EEB403BC
:10443300189000EBA3E0FF126DBCA3A3E0FF126D85
:10444300BC900001E004F080493006047F07800936
:104453003001047FD180027FD0126DBC00000000C8
:104463000000000000007FC1126DBCE4900001F069
:1044730080207F14126D80EF70047FB080027FB1C3
:10448300126DBC000000000000000000007FC1129C
:104493006DBC000000000022E4FBFAFDFC7F2C123F
:1044A3006C747B307D407F2C126C74E4FB7D0A7F3F
:1044B3002C126C747D747F2C126C747B3F7A037D99
:1044C300417F2C126C74126C6D7B3F7A030D7F2C31
:1044D300126C74126C6D7B027D087F2C126C74E479
:1044E300FB7D3F7F2C126C741D7F2C126C747B1F21
:1044F3007A0A7D517F2C126C747BBC126C6F7BFF2C
:104503007A070D7F2C126C747B007A507D4E7F2CC2
:10451300126C740B7D5F126C707B320D7F2C126CEE
:10452300740D7F2C126C740D7F2C126C740D7F2C08
:10453300126C740D7F2C126C740D7F2C126C747DB5
:10454300687F2C126C740D7F2C126C740D7F2C12EF
:104553006C740D7F2C126C740D7F2C126C740D7F98
:104563002C126C740D7F2C126C747B027D5F7F2C7C
:10457300126C747B100D7F2C126C740D7F2C126CDB
:10458300740D7F2C126C740D7F2C126C740D7F2CA8
:10459300126C740D7F2C126C747D687F2C126C74FA
:1045A3000D7F2C126C740D7F2C126C740D7F2C12EA
:1045B3006C740D7F2C126C740D7F2C126C740D7F38
:1045C3002C126C747B037D5F7F2C126C740B0D7F3C
:1045D3002C126C740D7F2C126C740D7F2C126C7466
:1045E3000D7F2C126C740D7F2C126C740D7F2C12AA
:1045F3006C747D687F2C126C740D7F2C126C740D9F
:104603007F2C126C740D7F2C126C740D7F2C126C2A
:10461300740D7F2C126C740D7F2C126C747D5F7F74
:104623002C126C740D7F2C126C740D7F2C126C7415
:104633000D7F2C126C740D7F2C126C740D7F2C1259
:104643006C740D7F2C126C747D687F2C126C740D4E
:104653007F2C126C740D7F2C126C740D7F2C126CDA
:10466300740D7F2C126C740D7F2C126C740D7F2CC7
:10467300126C747B007A407D577F2C126C747B0321
:104683007A007D757F2C126C74E4FB7D7C7F2C1289
:104693006C740D7F2C126C740D7F2C126C740D7F57
:1046A3002C126C747B387AB07D407F2C126C74E4CE
:1046B300FBFA7D017F2C026C7490004FA3A3E0FEF4
:1046C300A3E0FDAC067F27126B6090004FE0FCA3D4
:1046D300E0FDA3E0FEA3E0FF7810123E97AD07AC28
:1046E300067F29126B60900053A3A3E0FEA3E0FDB5
:1046F300AC067F2B126B60900053E0FCA3E0FDA39C
:10470300E0FEA3E0FF7810123E97AD07AC067F2DC5
:10471300126B60900057A3A3E0FEA3E0FDAC067FFD
:104723002F126B60900057E0FCA3E0FDA3E0FEA313
:10473300E0FF7810123E97AD07AC067F31126B6035
:1047430090005BA3A3E0FEA3E0FDAC067F33126BF6
:104753006090005BE0FCA3E0FDA3E0FEA3E0FF7834
:1047630010123E97AD07AC067F35126B6090005F69
:10477300A3A3E0FEA3E0FDAC067F37126B609000BD
:104783005FE0FCA3E0FDA3E0FEA3E0FF7810123E90
:1047930097AD07AC067F39126B60900063A3A3E06B
:1047A300FEA3E0FDAC067F3B126B60900063E0FC70
:1047B300A3E0FDA3E0FEA3E0FF7810123E97AD0750
:1047C300AC067F3D126B60900067A3A3E0FEA3E0FD
:1047D300FDAC067F3F126B60900067E0FCA3E0FD39
:1047E300A3E0FEA3E0FF7810123E97AD07AC067F6F
:1047F30041126B6090006BA3A3E0FEA3E0FDAC0647
:104803007F43126B6090006BE0FCA3E0FDA3E0FE2E
:10481300A3E0FF7810123E97AD07AC067F45126BFD
:104823006090007AA3A3E0FEA3E0FDAC067F4712ED
:104833006B6090007AE0FCA3E0FDA3E0FEA3E0FF41
:104843007810123E97AD07AC067F49126B6090005B
:104853003EA3A3E0FEA3E0FDAC067F4B126B60908A
:10486300003EE0FCA3E0FDA3E0FEA3E0FF7810120E
:104873003E97AD07AC067F4D126B609000BBE0FC2A
:10488300A3E0FD7F4F026B609000DAEFF0A3EBF043
:10489300A3EAF0A3E9F0200503024A11E49000E043
:1048A300F09000F4E030E7069000E07401F090002F
:1048B300DAE09071F793FF7E009000F3EEF0A3EF40
:1048C300F074010E9000F3F0A3EFF0EE44029000B9
:1048D300F3F0A3EFF01265ED7C007DC8123E2CAF20
:1048E30005EFC394644042749C2FFFC3945A400263
:1048F3007F64900093E0FB90728B93FEEF8EF0A4A5
:10490300FFAEF07C007D64123DD79000DEEEF0A395
:10491300EFF0EB25E0247AF582E43472F583C37477
:1049230001939FFFE4939E803CEFC3945A40027F20
:1049330064900093E0FB90728B93FEEF8EF0A4FFE4
:10494300AEF07C007D64123DD79000DEEEF0A3EF65
:10495300F0EB25E0247AF582E43472F58374019355
:104963002FFFE4933EFE900093E025E0247DF58243
:10497300E43400F583EEF0A3EFF0900093E0FF251D
:10498300E0247DF582E43400F583E0FCA3E0D394D6
:10499300E7EC648094834013EF25E0247DF582E403
:1049A3003400F5837403F0A374E7F0C3900035E09B
:1049B3009407900034E09400403F900093E025E09A
:1049C300247DF582E43400F583E0FEA3E0FFC3EE2B
:1049D30064809480500B7CFF7DFF123DC57D018078
:1049E3001C900093E025E0247DF582E43400F583F8
:1049F300E0FEA3E0FFE4FD8004E4FDFFFE124F9917
:104A03009000E0E060389000F4E04480F0229000F1
:104A1300F4E09000DA30E70AE09071F7934480FF06
:104A23008006E09071F793FF9000F3E4F0A3EFF0BA
:104A33009000DBE0FBA3E0FAA3E0F9124E592290C9
:104A430000DAEEF0A3EFF0AB057F17126DC9EB7F31
:104A53000830E0027F00AA071266F09000DAE0FE59
:104A6300A3E0FF7C277D10123DD7AA079000DAE070
:104A7300FEA3E0FF7C277D10123DD7A3ECF0A3ED4E
:104A8300F0EA6004EB30E1047F008006EA9072B341
:104A930093FFAA079000F1E030E404EA4410FAAF70
:104AA300021266F0EA1266EC9000DCE0FEA3E0FF7F
:104AB3007C037DE8123DD7AA079000DAE0FEA3E06D
:104AC300FF7C037DE8123DD7A3ECF0A3EDF0EB30C0
:104AD300E1047F008006EA9072B393FFAA07900077
:104AE300F1E030E504EA4410FAAF021266F0EA128C
:104AF30066EC9000DCE0FEA3E0FF7C007D64123DE9
:104B0300D7AA079000DCE0FEA3E0FF7C007D6412DF
:104B13003DD79000DCECF0A3EDF0EB30E1047F0037
:104B23008006EA9072B393FFAA079000F1E030E6A3
:104B330004EA4410FAAF021266F0EA1266EC90003F
:104B4300DCE0FEA3E0FF7C007D0A123DD7AA0790BC
:104B530000DCE0FEA3E0FF7C007D0A123DD790005D
:104B6300DCECF0A3EDF0EB30E1047F008006EA908B
:104B730072B393FFAA079000F1E030E704EA441010
:104B8300FAAF021266F0EA1266EC9000DCA3E0FAD8
:104B9300EB30E1047F008006EA9072B393FFAA072B
:104BA3009000F0E030E004EA4410FAAF021266F03D
:104BB300EF1266EC7F010266F09000EFE004F0E094
:104BC300D394054002E4F09000C2EEF0A3EFF0901E
:104BD30000C2E0FEA3E0FF7C277D10123DD7AB07A8
:104BE300EB9072B393FB9000C2E0FEA3E0FF7C273F
:104BF3007D10123DD79000C2ECF0A3EDF09000EFD2
:104C0300E0D394004004EB4410FB7F18126DC9AF4E
:104C1300031266F0EB1266EC9000C2E0FEA3E0FF25
:104C23007C037DE8123DD7AB079000C2E0FEA3E012
:104C3300FF7C037DE8123DD79000C2ECF0A3EDF0BA
:104C4300EB9072B393FB9000EFE0D394014004EB3D
:104C53004410FBAF031266F0EB1266EC9000C2E067
:104C6300FEA3E0FF7C007D64123DD7AB079000C23A
:104C7300E0FEA3E0FF7C007D64123DD79000C2EC10
:104C8300F0A3EDF0EB9072B393FB9000EFE0D394BD
:104C9300024004EB4410FBAF031266F0EB1266EC28
:104CA3009000C2E0FEA3E0FF7C007D0A123DD7AB7B
:104CB300079000C2E0FEA3E0FF7C007D0A123DD70F
:104CC3009000C2ECF0A3EDF0EB9072B393FB900075
:104CD300EFE0D394034004EB4410FBAF031266F000
:104CE300EB1266EC9000C2A3E09072B393FB9000CA
:104CF300EFE0D394044004EB4410FBAF031266F0DF
:104D0300EF1266ECE4FF0266F04C0007713400001A
:104D13007139713E71437148C101C106C107C105B3
:104D23004100AD0041007600410047004100BF0053
:104D330041004E00410006004200AB000042006FFC
:104D4300000042003A000041004A004100B7004120
:104D530000390041001800080800000000000000AE
:104D6300004100AA004100BE004100B50041001906
:104D73000044007200000000410049004100790036
:104D83004100C100410048004100BD00410017003F
:104D93004100B80041002E004200B92238440032DD
:104DA300000000004700AE0A040302050714410097
:104DB3003D004100380041004B0054001AA001A0FF
:104DC30002A004A008A010A020A040A080A100A2DF
:104DD30000410000004100010050007F000000007E
:104DE300000000000000000000000000410002007D
:104DF3004100030042000400005A00F505000705C6
:104E03000A000C050F001105140019001E002300F1
:104E130028002D0032004200F003F84200F30000A6
:104E23004100F2004100EF00420123000041012153
:104E33000041010F00410122005001110000000058
:104E430000000000000000000000000041012C00F1
:104E530042012AC8C8009000E1EBF0A3EAF0A3E9FD
:104E6300F07F04126DC9E4FD9000F4E030E5010D1C
:104E73009000F0E030E504ED4404FDAF051266F068
:104E83007F07126DC99000F0E07F0030E3027F02DC
:104E9300AD079000F3E030E004ED4404FDAF0512EC
:104EA30066F07F09126DC99000E1E0FBA3E475F0A1
:104EB30001123E62A9F0FA123DAC90729C93FD90F0
:104EC30000F4E030E004ED4410FDAF051266F0EDB0
:104ED3001266EC9000E1E0FBA3E475F001123E6280
:104EE300A9F0FA123DAC90729C93FD9000F4E0306F
:104EF300E204ED4410FDAF051266F0ED1266EC908E
:104F030000E1E0FBA3E475F001123E62A9F0FA129E
:104F13003DAC90729C93FD9000F4E030E404ED44CA
:104F230010FDAF051266F0ED1266EC9000E1E0FBB8
:104F3300A3E475F001123E62A9F0FA123DAC90723F
:104F43009C93FD9000F4E030E704ED4410FDAF05C1
:104F53001266F0ED1266EC9000E1E0FBA3E475F05D
:104F630001123E62A9F0FA123DAC90729C93FD903F
:104F730000F4E030E104ED4410FDAF051266F0EDFE
:104F83001266EC9000F3E07F0030E1027F04AD078E
:104F93001266F0026854AB07AA067F04126DC9E4D7
:104FA300FC9000F4E030E5010C9000F0E030E50403
:104FB300EC4404FCAF041266F07F07126DC9900045
:104FC300F0E07F0030E3027F02AC079000F3E030B3
:104FD300E004EC4404FCAF041266F07F09126DC9CF
:104FE300ED60089072B1E493FC8002E4FC9000F45D
:104FF300E030E004EC4410FCAF041266F0EC1266FF
:10500300EC7C007D64AF03AE02123DD7749C2FF598
:105013008274723EF583E493FC9000F4E030E20482
:10502300EC4410FCAF041266F0EC1266EC7C007DDD
:105033000AAF03AE02123DD77C007D0A123DD7743E
:105043009C2DF58274723CF583E493FC9000F4E0AC
:1050530030E404EC4410FCAF041266F0EC1266EC8E
:10506300AE02AF037C007D0A123DD7749C2DF582FE
:1050730074723CF583E493FC9000F4E030E704ECB5
:105083004410FCAF041266F0EC1266ECE4FC9000F2
:10509300F4E030E1037410FCAF041266F0EC126626
:1050A300EC9000F3E030E1027C04AF041266F002FE
:1050B3006854E49000C4F090003CE0900042F01289
:1050C30071027F051261A1126FE2780C765080069F
:1050D3009000C5E0600A125D5A9000C5EFF080F0C1
:1050E300780CE6700302519A9000B6E070089000C5
:1050F300C5740CF08008125D5A9000C5EFF0900063
:10510300C5E0640C707B7F201268D3900093740217
:10511300F012612F1262F47F0230E9027F00EFC4C4
:105123003354E0900046F0900036E4F0A3741EF090
:105133009000C07402F02430FF1268D3C2079000BD
:10514300F1E054FBF0A207E433FD7F12126E1D90D1
:105153000036E0FEA3E0FF7C007D0A123DD7EF148A
:10516300FD7F13126E1D7D0230E9027D007F141254
:105173006E1D126FE2126C137FF47E01126E988023
:1051830016780CE675F00A8430E006126FE20250DE
:10519300E3126FF20250E39000F0E04404FEA3E058
:1051A300FF9000F0EEF0A3EFF0FFEE44089000F064
:1051B300F0A3EFF09000F0E054EFF0126362E4909C
:1051C300003CF0026FF2C0E0C0F0C083C082C0D0E8
:1051D30075D000C000C001C002C003C004C005C038
:1051E30006C007C28E7810069000BEE060159000DE
:1051F300AAE0600214F09000AAE070079000BEF0ED
:10520300126F01900019E060159000B5E060021480
:10521300F09000B5E07007900019F0126EB0780CB2
:10522300E6600116780EE66001167810E6FF540773
:105233007002D200EF6410706C7810F67808E660A4
:1052430001167809E6600116780AE6600116780B04
:10525300E6600116780DE6600116780FE660011628
:10526300900072E07002A3E06023900073E024FFDB
:10527300F0900072E034FFF0A3E0540F2450FF12CB
:105283006DBC900072E0FEA3E0FF124BBC90007473
:10529300E07002A3E0600E900075E024FFF0900040
:1052A30074E034FFF0758D0B758BDCD28ED007D094
:1052B30006D005D004D003D002D001D000D0D0D086
:1052C30082D083D0F0D0E032780AE660030253B98B
:1052D3009000B9E0FEA3E0FFC3900090E09F900030
:1052E3008FE09E40030253B99000A7E004F07006DC
:1052F3009000A6E004F09000A6E0FCA3E0FD7F1977
:10530300126B60780A763C900049E04404F0900008
:10531300A6E0FEA3E0FFC3943CEE940050030253C7
:10532300B97C007D3C123DD79000A6ECF0A3EDF0D4
:10533300900090E004F0700690008FE004F090007D
:105343008FE0FCA3E0FD7F1B126B6074FFFFFEFD8B
:10535300FC90007AE0F8A3E0F9A3E0FAA3E0FBC332
:10536300123E86401C90002CE0FEA3E0FF9000BBA1
:10537300E04EF0A3E04FF090007A123EB60000003A
:105383000090003CE0FFB40107900093E0B40507F0
:10539300EFB4042230061F90007AE0FCA3E0FDA3E3
:1053A300E0FEA3E02401FFE43EFEE43DFDE43CFC1B
:1053B30090007A123EAA22E4FFFEF9126283E4907F
:1053C3000110F0EF4E7003025494900123E0FCA30C
:1053D300E0FDEC6EFAED6F4A700302548DEF540951
:1053E3006409700D790E900123F0A37409F002543F
:1053F3009CEF54036403700D790F900123F0A374A1
:1054030003F002549CEF54056405700D791090016C
:1054130023F0A37405F002549CEC5EFCED5F4C603A
:1054230017900121E0FD640F600EED640E6009ED3D
:1054330064106004A9058061EF30E002790BEF305E
:10544300E102790CEF30E202790DEF30E302790AE1
:10545300EF30E5027908EF30E6027907EF30E70233
:105463007906EE30E0027905EE30E1027904EE30A0
:10547300E2027903EE30E3027902EE30E4027901CD
:10548300900123EEF0A3EFF0800F900121E0F9806B
:1054930008E4F9900123F0A3F0900121E9F0FF2241
:1054A300A907E4FDFC7E91FB9000DAF0D2A5D29629
:1054B300C2A5126FA0E4FAC296126FA0EE30E70401
:1054C300D2A58002C2A5D296126FA0EE25E0FE0AF5
:1054D300EAB408E3C296D2A5126FA020A5069000F5
:1054E300DA7401F0E4FA126F92ED30A5054401FD80
:1054F300800354FEFD0AEAB408EC12000ED2A5E4C0
:10550300FA126F92ED30A5054401FD800354FEFDB0
:105513000AEAB408ECECC4F854F0C868FCEDC454CF
:105523000F48FDAE047803C333CE33CED8F9F582EA
:105533008E8312000ED2A5E4FAEB25E0FB126F99DD
:10554300EB30A5054401FB800354FEFB0AEAB408D3
:10555300E812000E126F99D2A5E97005AE04AF05EB
:1055630022E9B40105AE83AF82229000DAE0FF7E28
:105573000022E49000C5F090003CE0900042F0C2AD
:10558300B3126FF27F081261A1125C5D900045E0D7
:10559300FFB4040B9000C47424F0126C40803F905D
:1055A3000045E0FFB403159000C47424F09000C6D6
:1055B3007403F0A374B6F0FD7C03801FE49000BD78
:1055C300F090004504F09000C47415F09000C67488
:1055D30002F0A374A3F0FD7C027F01125FCB7F3B3B
:1055E3001270961252CB1270AEEF60051270A28049
:1055F300429000C5E060127808E6FF75F00F84E57D
:10560300F070E0EFD3941440DA12424E9000C57468
:1056130001F0900045E09000C4B40109E0FF900060
:1056230046E02F8001E0FF1268D37F207E4E126E8A
:105633009880B090003C7402F0E4900045F0229012
:105643000039E06003025708EF701B7D01FF125A17
:105653002490006FEEF0A3EFF0C39428EE94234060
:1056630002806A0256EF90003CE0FFB4010790000D
:1056730093E0B40508EF6404707730067490004E2D
:10568300E0FF9000BFE0FEC39FD3940A5008C3EF2E
:105693009ED3940A405B7D01E4FF125A2490006F6D
:1056A300E0FCA3E0FDC3EF9DFFEE9CFEC3EF94146B
:1056B300EE94005020C3ED9428EC942340177D0111
:1056C300E4FF125A2490006FEEF0A3EFF090004A2B
:1056D300E004F0801C7D01E4FF125A2490006FEE79
:1056E300F0A3EFF09000BFE090004EF0E490004A8A
:1056F300F090004AE0D39446400B90003C7405F0D0
:1057030090004514F022E49000C4F0C2B39000C4AA
:10571300E06430607A900078E09000C4F012424E6A
:105723009000C4E024D57055E4900078F07F2112F6
:1057330068D39000C4E0FF64236022EF642F601DF0
:10574300900078E09000C4F07FE87E03126E987DAD
:10575300A27C017F0912621212649A80D59000C460
:10576300E0B42F0AE4900078F090003D04F07FE865
:105773007E03126E98E4FDFC7F031242577F647E22
:1057830000126E98E4FDFC7F02124257025710305C
:1057930006139000B7E0600D90003C7404F0900095
:1057A300067401F022E490003CF0900006F022E43D
:1057B300900078F09000C5E0FF7E009000CCEEF002
:1057C300FCA3EFF0FD241FFF74AE2DF58274003CA3
:1057D300F583E0FD126E1D9000CCE0FEA3E0FFD345
:1057E3009403EE9400402EEF241FFF126D80EFFD13
:1057F3009000CDE025E0FF9000CCE033FE74982FBD
:10580300F58274003EF583E4F0A3EDF074982FF570
:1058130082740080309000CCA3E0241FFF126D80BF
:10582300EFFD9000CDE025E0FF9000CCE033FE7467
:10583300962FF58274003EF583E4F0A3EDF07496A1
:105843002FF58274003EF583A3E0FF7D011263CE42
:1058530022AC079000F4E04440F07F23126DC9ECC2
:105863006003ED700F9072B1E4939000D7F0900055
:10587300D6F08033EC75F06484600790729C93FFDC
:1058830080027F009000D7EFF0ED75F00A8475F089
:105893000A84E5F090729C939000D6F0ED75F00ABF
:1058A30084E5F090729C939000D5F09000D7E0FFD0
:1058B3001266F0E01266EC9000D6E0FF1266F0E0AC
:1058C3001266EC9000D5E0FF1266F0E01266EC90F1
:1058D30000F4E054BFF0EC6003ED700C9000F0E0D6
:1058E3004480F0A3E0F080079000F0E0547FF002E2
:1058F3006854AB07AA067F08126DC99000F0E07FD9
:105903000030E4027F02EF4404FF1266F07F1312BB
:105913006DC97F081266F0ED4C701D0F126DC9E45E
:10592300FF1266F01266F01266F01266F01266F06D
:105933001266F01266F0804E74F52BF58274003A0D
:10594300F583E0FF75F00A84F9EF75F00A84ADF092
:1059530074F62BF58274003AF583E0FC7F0B126D2D
:10596300C9E990729C93FF1266F0E9931266ECED1D
:1059730093FF1266F0ED931266ECEC93FF1266F060
:10598300EC93C4540FFF1266F0026854E49000CF06
:10599300F0A3F0A3F0A3F09000727408F0A3745284
:1059A300F0D2B3126AAD7F15126F1B126894900088
:1059B30072E0FEA3E0FF4E604AC3EF9434EE940816
:1059C30040028034C3900073E0942C900072E09402
:1059D300014029900074E07002A3E0700890007405
:1059E300F0A3747CF0D3900075E09404900074E00D
:1059F30094004004E4FF80067F0180027F01125C73
:105A03006280ABE4FF125C62900013E0FEA3E0FF50
:105A1300C374289FFF74239EFEE4FD124A42C2B35F
:105A2300229000CCEDF0E4FBFAEF7D3470027D04AC
:105A330012705C7F90126813900125E09000CFF004
:105A43007F01126813AF051268137F801268131267
:105A5300706B12705C7F90126813E4FF126813126C
:105A6300706B12705C7F9112681312698A9000CE7A
:105A7300EFF012698A9000CDEFF012706B7F647EB5
:105A830000126E989000CEE0FF7E009000CDE024DF
:105A930008FDEFA805088005C333CE33CED8F9FB44
:105AA300AA069000CCE070089000CFE0FF7E0022B1
:105AB300AE02AF0322787FE4F6D8FD758121025A46
:105AC300FF022E81E493A3F8E493A34003F680013D
:105AD300F208DFF48029E493A3F85407240CC8C325
:105AE30033C4540F4420C8834004F456800146F65F
:105AF300DFE4800B0102040810204080904D0CE489
:105B03007E019360BCA3FF543F30E509541FFEE4BC
:105B130093A360010ECF54C025E060A840B8E4937E
:105B2300A3FAE493A3F8E493A3C8C582C8CAC583C0
:105B3300CAF0A3C8C582C8CAC583CADFE9DEE78045
:105B4300BE9000DAEFF0FD9000F0E054BFF054DFB8
:105B5300F0E04480F0A3E0F0BD030C30E9099000CD
:105B6300F4E0547FF080079000F4E04480F0E4FF19
:105B73001269C69000DAE0FF126F349000DAE07524
:105B8300F005A420E9072489F97471800524C0F97C
:105B9300747135F0FA7BFF124E5920030A9000DA34
:105BA300E02405FF1261A19000DAE02405FF126FE3
:105BB3001B90003CE09000DAB40107E02405441098
:105BC3008003E02405FF126F1B229000CFEFF0FD4E
:105BD3009000F0E054BFF054DFF0547FF0BD030CAD
:105BE30030E9099000F4E0547FF080079000F4E07E
:105BF3004480F0E4FF1269C69000CFE0FF126F34D7
:105C03009000CFE075F005A420E9072489F97471A9
:105C1300800524C0F9747135F0FA7BFF124E5920C8
:105C2300030A9000CFE02405FF1261A19000CFE0AA
:105C33002405FF126F1B90003CE09000CFB40107D6
:105C4300E0240544108003E02405FF126F1B22F0BB
:105C530090003CE0900042F0C2B3A2B3E433FF9063
:105C6300003DE0706DEF6056900018E04410F07452
:105C7300FFFFFEFDFC90003EE0F8A3E0F9A3E0FA8D
:105C8300A3E0FBC3123E8640149000BBE044A2F0A5
:105C9300A3E0F090003E123EB60000000090003EEC
:105CA300E0FCA3E0FDA3E0FEA3E02401FFE43EFE4D
:105CB300E43DFDE43CFC90003E123EAA80079000C8
:105CC30018E054EFF0900018E0F580D2A200000035
:105CD300C2A222AB07AA069000F4E04440F07C0085
:105CE3007D64AF03123DD7AD077F23126DC9ED600D
:105CF3000790729C93FF80027F00AE071266F0EE5E
:105D03001266EC7C007D0AAF03AE02123DD77C0025
:105D13007D0A123DD7ED90729C93FE9000F4E03023
:105D2300E604EE4410FEAF061266F0EE1266ECAE29
:105D330002AF037C007D0A123DD7ED90729C93FE67
:105D43001266E89000F4E054BFF09000F0E0448065
:105D5300F0A3E0F00268541253BA9000DAEFF07047
:105D630007A3F01270C6805890010FE0FF9000DA8D
:105D7300E0FE6F602274102EF582E43401F583E0B7
:105D8300FF70079000DBEEF080421270BA9000DAE9
:105D9300E0900122F080309000DAE0FF2410F582D9
:105DA300E43401F583E07002801E900122E0B50720
:105DB300161270D2EF60101270C69000DAE0A3F0F2
:105DC300E4900122F08005E49000DBF09000DAE03B
:105DD30090010FF09000DBE0FF229000DAEFF090EB
:105DE30000F0E04420F0A3E0F09000F0E054BFF0B6
:105DF300E4FF126F349000F0E04480F0A3E0F090F1
:105E030000F4E04480F09000DAE0FFC374049F756F
:105E1300F005A424ACF9747135F0FA7BFF124E59E6
:105E23009000DAE0FF1269C620030D9000DAE0FF6C
:105E3300C374059FFF1261A190003CE09000DAB4A7
:105E4300010AE0FFC374059F44108006E0FFC3749A
:105E5300059FFF126F1B223090277F01126E3B902C
:105E63000031E004F090004DE004F0E4900002F013
:105E730090003CE0640470547FE87E03126E9880C7
:105E83004B90004DE0FF900031E0D39F4006E4903B
:105E9300004C8017900002E004F090004DE0FF906A
:105EA3000031E0B5071390004CE004F07F01126E5F
:105EB30059900031E014F08013900002E0D3940A6B
:105EC300400A7F01126E59E4900002F07F327E0097
:105ED300026E989000D3E0FEA3E0FF90003DE070D7
:105EE3006CFC7D04123E2C9000E0EEF0A3EFF090EA
:105EF30000DEEEF0A3EFF09000DCEEF0A3EFF09005
:105F030000DAEEF0FCA3EFF0FDE4FF12694E7F64CC
:105F13007E00126E989000DCE0FCA3E0FD7F01128E
:105F2300694E7F647E00126E989000DEE0FCA3E071
:105F3300FD7F0212694E7F647E00126E989000E02E
:105F4300E0FCA3E0FD7F0312694E126F7B229000F9
:105F5300CFEFF09000F0E04420F0A3E0F09000F0E9
:105F6300E054BFF0E4FF126F349000F0E0547FF090
:105F73009000F4E04480F09000CFE0FFC374049FEE
:105F830075F005A424ACF9747135F0FA7BFF124E59
:105F9300599000CFE0FF1269C620030D9000CFE0B7
:105FA300FFC374059FFF1261A190003CE09000CFF6
:105FB300B4010AE0FFC374059F44108006E0FFC3E9
:105FC30074059FFF126F1B22AB05AA04AD077F1355
:105FD300126DC97F011266F0ED75F00A849072C7E5
:105FE30093FE1266E8ED75F00A84E5F093FE1266FF
:105FF300E87C007D64AF03AE02123DD7AD077F237B
:10600300126DC9ED90729C93FE1266E87C007D0AC6
:10601300AF03AE02123DD77C007D0A123DD7ED934C
:106023004410FE1266E8AE02AF037C007D0A123D07
:10603300D7ED93FE1266E87F29126DC97F020266CF
:10604300F0E4FB9000F0E04401F0A3E044F0F090B2
:10605300008FE0FEA3E0FF7C007D18123DD7AD0763
:10606300AC06C3ED9449EC940040079000F0E05473
:10607300FEF0C3ED9492EC940040079000F1E054DD
:106083007FF0C3ED94DBEC940040079000F1E05403
:10609300BFF0C3ED9424EC940140079000F1E05469
:1060A300DFF0C3ED946DEC940140099000F1E054EE
:1060B300EFF07B01AF0322E49000C4125C52E49042
:1060C300004AF09000B6E0603EE4FF1261A1126F57
:1060D300F2E4FF126F1B1271029000C4E0702812E9
:1060E3005D5AEF7022126EE6EF4E60119000C47499
:1060F30001F07F081261A190003C7405F01252CBAD
:10610300E4FF12564280D2126EE6EF4E600B7F0818
:106113001261A190003C7405F0200706900093746F
:1061230002F0E4900078F090003CF022E4FD7F124E
:10613300126E1D7D027F13126E1D7D0230E9027DFA
:10614300007F14126E1D7D147F1E126E1D9000AE13
:10615300E0FD7F1F126E1D9000AFE0FD7F20126EE9
:106163001D9000B0E0FD7F21126E1D9000B1E0FD97
:106173007F22126E1D9000B2E0FD7F23126E1D90F0
:1061830000B3E0FD7F24126E1D9000B4E0FD7F2577
:10619300126E1DA2E9B3E433FD7F26026E1DEFB438
:1061A3000900506A9061AEF82828730261C9026140
:1061B300D30261DB0261E20261EA0261F20261F988
:1061C300026201026209E4FBFDFF126CC5C2DE221A
:1061D3007BDCE4FD7F7880337BFFE4FDFF802C7B59
:1061E300AA7D0A7F0F80247B3C7D08E4FF801CE4AA
:1061F300FB7DFFFF8015E4FB7DB47FA0800DE4FBF6
:106203007DB47FFF8005E4FBFD7FFF126CC522ABED
:10621300077F18126DC91266E2AF059000CCECF04F
:10622300A3EFF09000CCE0FEA3E0FF7C037DE81237
:106233003DD7AB079000CCE0FEA3E0FF7C037DE8F5
:106243001266D79000CCE0FEA3E0FF7C007D6412D1
:106253003DD77D641266CB9000CCE0FEA3E0FF7CCB
:10626300007D0A123DD77D0A1266CB9000CCA3E0D5
:106273009072B393FBFF1266F0C4540FFF0266F0F3
:106283007D457C007F2C126A019000DCEEF0A3EFC9
:10629300F07F807E3E126F597D467C007F2C126A10
:1062A30001EF541F7D00FC9000DCE0FAA3E0FBEA61
:1062B3005403FEE47802CEC313CE13D8F9FFEB5494
:1062C3003FFBEF4BFFEC4EFEED4FFF9000DCEEF09B
:1062D300A3EFF07F807E3E126F59900110E0B4016E
:1062E30007E49000DCF0A3F09000DCE0FEA3E0FF05
:1062F300227F1E126D80900043E4F0A3EFF07F1F16
:10630300126D80900096E4F0A3EFF07F20126D8071
:10631300900098E4F0A3EFF07F21126D8090009A33
:10632300E4F0A3EFF07F22126D8090009CE4F0A3D1
:10633300EFF0E4A3F0A3F07F23126D809000A0E4BC
:10634300F0A3EFF07F24126D809000A2E4F0A3EF9E
:10635300F07F25126D809000A4E4F0A3EFF0227F7C
:1063630005126DC9E4FE9000F0E0FCA3E0FD30E20D
:10637300010EEC30E104EE4402FEAF061266F0902B
:1063830000F0E07F0030E2027F02AE071266F09079
:1063930000F0E07F0030E3027F02AE079000F3E0FD
:1063A30030E004EE4404FEAF061266F09000F0E025
:1063B300FCA3E0FDEC7F0030E4027F02AE07ED308A
:1063C300E104EE4408FEAF060266F0AA077F23123B
:1063D3006DC9ED7012FF1266F01266F01266F012CC
:1063E30066F01266F08048EAC3940A5011E4F9FBA0
:1063F300EA75F00A84E5F090729C93FC8015E4F949
:10640300EA75F00A8490729C93FBEA75F00A84E5BE
:10641300F093FCAF011266F0E91266ECAF0312666B
:10642300F0EB1266ECAF041266F0ECC4540FFF12EB
:1064330066F0229000C6EFF0126DBC9000F4E044C9
:1064430080F09000F0E0547FF09000C5E004FFEF8F
:1064530014B40700504090646775F003A4C5832506
:10646300F0C5837302647C026480026484026488DE
:1064730002648D0264900264947F04800A7F038027
:10648300067F0280027F01025DDD02663A7F0180A2
:10649300027F02125B442278CC7C007D017BFF7A71
:1064A30071794E7E007F04123D86E49000CCF0A308
:1064B3007414F0A37421F0A37438F0900000E0FE8C
:1064C300700A7F49126DBC9000CC800DEEB40115AB
:1064D3009000CDE0FF126DBCA3E0FF126DBC9000F5
:1064E30000E004F0229000CFE0FF126DBCE49000C6
:1064F30000F0227C007D03123DD7C3EF940CEE9491
:10650300005004E4FB8041C3EF940FEE9400500469
:106513007B018034C3EF9412EE940050047B02801D
:1065230027C3EF9416EE940050047B03801AC3EF45
:106533009419EE940050047B04800DC3EF941CEE79
:1065430094007B0650027B05AF03229000C4E00455
:10655300FFEF14B40800504490656975F003A4C5B7
:106563008325F0C58373026581026585026589020F
:10657300658D02659F02659202659602659A7F04A6
:10658300800A7F0380067F0280027F01025F517FC2
:106593000180067F0280027F03125BCD22C0E0C030
:1065A300F0C083C082C0D075D000C000C001C0025B
:1065B300C003C004C005C006C007C28C781106E63C
:1065C30054077003126CEF758C0B758ADCD28CD078
:1065D30007D006D005D004D003D002D001D000D01C
:1065E300D0D082D083D0F0D0E032900126123F0D7C
:1065F3007810EC4D4E4F70047CA57DA5C3EC13FCC5
:10660300ED13FDEE13FEEF13FF5010EC64CCFCED25
:10661300644CFDEE644EFEEF64CEFFD8DF9001269E
:10662300123EAAEE547FFE22900126EEF0EFA3F075
:10663300A374A5F0A3F0229000F0E04440F0A3E09F
:10664300F09000F0E054DFF0E04480F0A3E0F0903D
:1066530000F4E04480F0E4FF126F34E4FF1269C6F3
:106663007BFF7A7179C0124E592003057F051261B1
:10667300A190003CE0B401047F1580027F05126FF6
:106683001B22AE079001257401F0E47812F6EE3078
:10669300E704D2A58002C2A5D296126FA0C29612B9
:1066A3006FA0EE25E0FE781206E6C3940840DFD221
:1066B300A5D296126FA030A50AE4900125F09001AF
:1066C3001004F0C296026FA0AB079000CCE0FEA3CB
:1066D300E0FF7C00123DD79000CCECF0A3EDF0EB93
:1066E3009072B393FBFF1266F0C4540FFFD2A08FD6
:1066F3008000000000C2A0C2B400C2A600C2A7006E
:106703000000D2A70000D2A6000022AC077F23120C
:106713006DC9ED7014FF1266F01266F01266F01286
:1067230066F07F0E1266F0801FEC75F00A8490729B
:106733009C93FE1266E8EC75F00A84E5F093FE1272
:1067430066E87F0E1266F0E4FF1266F022AE079051
:1067530001257401F0E47812F6EE30E704D2A58047
:1067630002C2A5D2E8126FA0C2E8126FA0EE25E024
:10677300FE781206E6C3940840DFD2A5D2E8126F72
:10678300A030A505E4900125F0C2E8026FA0AE0792
:10679300E47813F6D2A518F6D296126FA07813E612
:1067A300FF25E0F630A504E64401F6C296126FA079
:1067B300781206E6C3940840DFEE24FF92A5D29632
:1067C300126FA0C296D2A5126FA07813E6FF22AE75
:1067D300079001257401F0E47812F6EE30E704D255
:1067E300A58002C2A5D297126FA0C297126FA0EE26
:1067F30025E0FE781206E6C3940840DFD2A5D297BF
:10680300126FA030A505E4900125F0C297026FA096
:10681300AE079001257401F0E47812F6EE30E70438
:10682300D2EB8002C2EBD2EA126FA0C2EA126FA0CF
:10683300EE25E0FE781206E6C3940840DFD2EBD2E1
:10684300EA126FA030EB05E4900125F0C2EA026F73
:10685300A07F29126DC99000F2E0FF9000E4F09050
:1068630000F0E0A330E707EF4408A3F080079000AF
:10687300F2E054F7F09000F4E09000F230E306E029
:106883004401F08004E054FEF09000F2E0FF026661
:10689300F078D37C007D017BFF7A7179527E007F93
:1068A30005123D869000D77460F09000D67472F0A4
:1068B3009000D57481F09000D47493F09000D37459
:1068C300A0F0E4FE9000D3126DA20EEEB408F52200
:1068D300AD079000C0E06036D2B6D2B7D2A57FDC58
:1068E3007E05126F59C2A5126F4CE4FBED1392A5FE
:1068F300D2B7126F4CEDC313FD0BEBB408EEC2A578
:10690300D2B7126F55D2A57F607EEA126F5922E487
:106913007813F6D2A518F6D2E8126FA07813E6FF23
:1069230025E0F630A504E64401F6C2E8126FA0782C
:106933001206E6C3940840DFD2A5D2E8126FA0C2C4
:10694300E8D2A5126FA07813E6FF22A907ED4C60E9
:1069530014ED25E0FDEC33FCED1D70011CEC4490BF
:10696300FAAB0580047AB0E4FB12703E7FC0126775
:10697300D2E925E04440FF1267D2AF021267D2AFDB
:10698300031267D202704DE47813F6D2EB18F6D2F5
:10699300EA126FA07813E6FF25E0F630EB04E64435
:1069A30001F6C2EA126FA0781206E6C3940840DF2C
:1069B300D2EBD2EA126FA0C2EAD2EB126FA0781325
:1069C300E6FF22AD077F02126DC9ED9072C293FEFE
:1069D3009000F0E030E604EE4408FEAF061266F0E5
:1069E300EE1266ECE4FE9000F4E030E5010E900058
:1069F300F0E030E504EE4404FEAF060266F0AB07B8
:106A0300127020EB25E0FF126685ECFF126685AF5E
:106A13000512668512702FAF03EF25E004FF12669F
:106A230085E4FF126791EF7D00FC7F01126791EF10
:106A3300FD127117AE04AF05229000D5EFF0900060
:106A4300F0E054BFF054DFF09000F4E0547FF0E442
:106A5300FF126F34E4FF1269C67BFF7A7179D41297
:106A63004E599000D5E060047F0780027F051261D4
:106A7300A122D2A6D2A7007F2F126DFF126DC27F73
:106A8300F1126DFF7FAC126DFF7FF0126DFF7FA4DB
:106A9300126DFF7FAF126DFF7FA6126DFF7FA112F4
:106AA3006DFF7FC0126DFF026FF27F23126DC9E489
:106AB300FF1266F01266F01266F01266F01266F0CC
:106AC3001266F09000F0E04440F0A3E0F09000F094
:106AD300E054DFF0547FF0E4FF126F34E4FF026907
:106AE300C69000C4EFF004FF126D809000C5E4F07F
:106AF300A3EFF0E0F8E4F0E89000C5F09000C4E004
:106B0300FF126D809000C6E02FF09000C5E03400C6
:106B1300F0E0FEA3E0FF22C0E0C083C082C0D0301B
:106B23009902C29930981CC298900078E599F09028
:106B330000717401F0900078E0B43E07E4F0900037
:106B4300B704F0D0D0D082D083D0E0327F2C7E0146
:106B5300126E98900013E0FCA3E0FD7F179000DA1B
:106B6300EFF0A3ECF0A3EDF09000DAE0FF04F012F5
:106B73006E1D9000DBE0FD9000DAE0FF026E1DD297
:106B8300EAD2B7C2B6D297D2E8D296D2A3D2A4128F
:106B93006FA0126FA0126FA0126FA0C2A5C2EBE488
:106BA300FFFE0FBF00010EE4B507F7EEB401F322B9
:106BB300E49000D6F090000304F0E4FF90003DE081
:106BC300701DEF9000186006E04440F08004E0542C
:106BD300BFF0900018E0F580D2A2000000C2A2220C
:106BE300C2A0C2A1C2A2D2B57594FF7591037592DA
:106BF300387596C775B2FA75B105E4F580D2A2006F
:106C03000000C2A2C2B5D290A29133900039F02203
:106C1300E49000C6F03000FDC2009000C6E00444DA
:106C230010FF126F1B9000C6E004FF1261A19000D9
:106C3300C6E004F0E0C36480948740D922AD077FA7
:106C430013126DC97F011266F0ED75F00A8490721C
:106C5300C793FE1266E8ED75F00A84E5F093FEFF34
:106C63001266F0C4540FFF0266F07B1F0D7A007F9B
:106C73002CAE07127020AF06EF25E0FF126685ECFD
:106C8300FF126685AF05126685EAFF126685AF03BC
:106C9300126685027117AD0712705C7F5C12681370
:106CA300900125E0900047F0E4FF126813AF05124E
:106CB300681312706B7F647E00126E98900047E039
:106CC300FF22EFF4F5FBF5EBEBF4F5FCF5ECEDF45B
:106CD300F5FDF5EDE4F5D9F5E9F5F975DB4275DC7C
:106CE3004275DD42D2DE75D81FD2DE22E5C530E41F
:106CF3001F90012CE0242AF582E43401F583E5C6D4
:106D0300F090012CE004F0E05401F00444C8F5C510
:106D13002290003DE0701DEF9000186006E04420D3
:106D2300F08004E054DFF0900018E0F580D2A20078
:106D33000000C2A22290003DE0701DEF9000186099
:106D430006E04480F08004E0547FF0900018E0F502
:106D530080D2A2000000C2A222E4FEEE9072E09371
:106D6300D39F40030E80F4AF06EF75F005A42419FA
:106D7300FFE435F0FE7C007D0A123DC522AD07120B
:106D830070027FA0126750AF05126750126FBC7F6D
:106D9300A1126750126912AE07127011AF0622E0FA
:106DA300FF126DBCA3E0FF126DBCA3E0FF126DBC2C
:106DB300A3E0FF126DBCA3E0FF8F993099FD227F02
:106DC300B0126DFFE4FFAE07EEC4540F2410FF12A0
:106DD3006DFF0000EE540FFF126DFF0000229000C4
:106DE300C47427F09000C4E0FFC39451500DE4FD38
:106DF300126E1D9000C4E004F080E922D2A08F80BF
:106E030000000000C2A0D2B400C2A600C2A70000C6
:106E130000D2A70000D2A6000022AC071270027FA6
:106E2300A0126750AF04126750AF0512675012707B
:106E3300117F647E00026E98D2EAD2EB0000C2EAB0
:106E430000E4FEEEC39F500AC2EB0000D2EB000E3B
:106E530080F1D2EA0022D2EAC2EB0000C2EA00E4E7
:106E6300FEEEC39F500AD2EB0000C2EB000E80F18E
:106E7300D2EA002243985053C8F043C83053C9FCA8
:106E830075CDFF75CCD875CBFF75CAD8D2ACD2CA35
:106E9300227F2C7E01D3EF9400EE9400400EE4FD9C
:106EA3000DEDB4FFFBEF1F70EC1E80E92290003C58
:106EB300E0B401139000C1E0FF900046E02FFF1201
:106EC30068D3E4900079F022C0E0C083C0829000D0
:106ED300ACE004F070069000ABE004F0D082D08305
:106EE300D0E03290012BE0FFC394275009126D5C70
:106EF300AA06AB078003E4FAFBAF03AE02229000BD
:106F03003CE07013900079E0FF900046E02FFF1201
:106F130068D3E4900079F022E4FEEF30E4010EEF51
:106F2300540F9072EF934ED2A1F580000000C2A1DE
:106F330022AD07E4FF126DC9ED9072BE93FEFF12FE
:106F430066F0C4540FFF0266F07F0F7E00126F5984
:106F5300C2B77F0F7E00EF1FAC0670011E4C70F6A8
:106F630022C28E758911758D0B758BDCE47811F651
:106F7300127121D2ABD28E22E4900031F090004DF9
:106F8300F090004CF0126FD07FE87E03026E98ED14
:106F930025E0FDEC33FCC296126FA0D296E4FF0FFE
:106FA300EFB412FB22C28C758911758C0B758ADCC8
:106FB300E47810F6D2A9D28C22D2A5126FA0D2E81F
:106FC300126FA0C2A5126FA0C2E8026FA0E49000E6
:106FD300BFF0FF126C99EF70057F40126E592212B9
:106FE3006DC2E4FE7FFF1266F00EEEB42AF62212A3
:106FF3006DC2E4FEE4FF1266F00EEEB42AF622D26E
:10700300A5126FA0C2A5126FA0C2E8026FA0C2A50D
:10701300126FA0D2E8126FA0D2A5026FA0D2A51260
:107023006FA0C2A5126FA0C296026FA0D2A5126F65
:107033009BC2A5126FA0C296026FA0D2A5126FA029
:10704300C2A5126FA0C297026FA0C2A5126FA0D2F1
:1070530097126FA0D2A5026FA0D2EB126FA0C2EB62
:10706300126FA0C2EA026FA0C2EB126FA0D2EA12A3
:107073006FA0D2EB026FA0900049E030E0047F01E3
:1070830080027F0022900049E030E3047F01800208
:107093007F00227808A607900049E04401F022907F
:1070A3000049E054FEF0E47808F6227808E670041C
:1070B3007F0180027F00227809A607900049E044FF
:1070C30002F022900049E054FDF0E47809F62278BA
:1070D30009E670047F0180027F0022780BA60790E7
:1070E3000049E04408F022900049E054F7F0E478C6
:1070F3000BF622780BE670047F0180027F00227F6B
:1071030010900111E4F0A3DFFC227F22126DC9E489
:10711300FF0266F0C2A5126F9BD2A5026FA0900179
:107123002CE00444C8F5C522D2B2C289D288D2A8C1
:1071330022120C100112120E130612120C020E125E
:107143001201070A12120F0A0A127100000000004E
:10715300000000000000000000000000000000002C
:10716300000000000000000000000000000000001C
:10717300000011100100001110120905111012096D
:107183000011101208051110120700111012050545
:10719300111012040511101202050C140E0A131219
:1071A30012121212111416051211100100001110FF
:1071B30012090511101209001110120805111012FD
:1071C3000700111012050511101204051110120504
:1071D300110C140E0A1312121212121114160512A4
:1071E300000A0014001E00280032003C04030201C0
:1071F30011060705020B2D36000708064000320072
:107203000A0000025804B0138806A4080209600AA1
:107213008C0BEA0D480E740320047E05DC07080876
:107223006609C40AF00000015E02BC03E8055A06C1
:10723300A407D0000000C80190025803B605140645
:1072430040000000000000000000000000000003F8
:1072530020047E05DC0708086609C40AF005DC077C
:107263003A089809C40B220C800DAC07D0092E0AEA
:107273008C0BB80D160E740FA0FEC0FF1AFF38FF5B
:107283006A012C023A026C02BC323232323232329E
:10729300320101010100000000AFA06DE9E2CBCF94
:1072A300A1EFEBE7EF0FAF4F47E66700A70E40AE46
:1072B300AFA0CBE9E46D6FA8EFED000085BE9F00A2
:1072C30005B697475F506B79743D3F587F7D807457
:1072D300695E544B433B352F2925211D1A80726566
:1072E300594E443B342D27221D191613000A12222E
:0672F300420C1424447C4F
:00000001FF
