:10000000025E06027220E4FF0272700268F5C29678
:0A001000C2A51272F5D2960272F535
:03001B000255117A
:10002300026E6FE49000C4F0A3F0A3F0A3F0A3F07A
:10003300A3F0A3F0A3F0900078F0C2B3C203900042
:1000430013E0FEA3E0FFC374289F900030F07423F5
:100053009E90002FF012745790011F7405F09001C9
:100063001AF0A37403F0900093E0FF126738900036
:10007300F1E03007054404F0800354FBF09000C026
:10008300E0FD700D9000F0E054FBF054F7F054EFF6
:10009300F0EDB401149000F0E04404F0A3E0F0901C
:1000A30000F0E054F7F054EFF09000C0E0B4022405
:1000B3009000F0E04404FEA3E0FF9000F0EEF0A314
:1000C300EFF0FFEE44089000F0F0A3EFF09000F0A3
:1000D300E054EFF09000C0E0B403289000F0E04457
:1000E30004FEA3E0FF9000F0EEF0A3EFF0FFEE4478
:1000F30008FE9000F0F0A3EFF0EE44109000F0F053
:10010300A3EFF01266B0126392900013E0FEA3E037
:10011300FFC374289FFF74239EFEE4FD124D8AE4FF
:10012300FFFE126024E490004AF09000B6E07006EF
:100133009000ADF08013900042E0FF64046004EF90
:10014300B40106780F7605800090003CE0900042F1
:10015300F090003CE06003021881125702780FE62A
:1001630070069000B6E0700C9000B6E0700B900043
:10017300ADE06005E4FF125990780DE67004FF12BC
:100183005FB090002FE0FEA3E0FFC39484EE9403DE
:10019300400FD3900090E094CC90008FE0941E40E9
:1001A300689000BDE06401706090004BE0B4010B07
:1001B300E4F09000AAE02460F080259000AA741077
:1001C300F0900046E0FD64A06004EDB48007900069
:1001D300AAE02418F0EDB460079000AAE02428F008
:1001E300EF4E600FC3900090E0943890008FE0943E
:1001F300224008900079740DF08006900079740C09
:10020300F09000BE7401F08000E49000BDF0900017
:10021300B6E06003021564900078E09000C4F01229
:10022300422F144A0E14C71002971102D11203076A
:1002330013033114035315036C16038517039E1818
:1002430003B71903D01A04702204382314D52514D4
:10025300E52614F62715072815182915292A13FE4C
:100263002B04632C044E2D13C22E03F13B02873F54
:10027300027A400000156CE4900078F09000AD0421
:10028300F002156CE4900078F07F20126C28125C69
:10029300DD02156CE4900078F09000C07403F02444
:1002A30030FF126C289000F0E04404FEA3E0FF90BE
:1002B30000F0EEF0A3EFF0FFEE4408FE9000F0F044
:1002C300A3EFF0EE44109000F0F0A3EF8059E49018
:1002D3000078F09000C07402F02430FF126C289074
:1002E30000F0E04404FEA3E0FF9000F0EEF0A3EF83
:1002F300F0FFEE44089000F0F0A3EFF09000F0E080
:1003030054EF8023E4900078F09000C004F0243090
:10031300FF126C289000F0E04404F0A3E0F090009A
:10032300F0E054F7F054EFF01266B0020468E49082
:100333000078F09000C0F02430FF126C289000F099
:10034300E054FBF054F7F054EFF01266B002156C72
:10035300E4900078F07F20126C28E4900046F0FDD2
:100363007F14127172E4FD807DE4900078F07F20A9
:10037300126C28E4900046F0FD7F141271727D0325
:100383008064E4900078F07F20126C28E4900046AB
:10039300F0FD7F141271727D04804BE4900078F0BD
:1003A3007F20126C28E4900046F0FD7F14127172D6
:1003B3007D058032E4900078F07F20126C28E49071
:1003C3000046F0FD7F141271727D068019E49000DF
:1003D30078F07F20126C289000467440F07D027FF5
:1003E300141271727D017F2612717202156CE490F2
:1003F3000078F09000467440F07D027F1412717211
:100403007D017F26127172900078E0FF64237003F0
:1004130002156CEF642D700302156CEF60E9643B09
:1004230060E5E0FD7F26127172E4900078F07F2092
:10043300126C2880D2E4900078F0FFFE12602490C2
:100443000093E0FF1267387F21801CE4900078F06E
:10045300FFFE126024900093E0FF12673802156CD0
:10046300E4900078F07F20126C2802156CE4900071
:1004730078F07F21126C28E49000C8F09000C8E067
:10048300600302156C900078E09000C4F012422FD4
:1004930004BF1B06CD1C08E71D0B021E0D1D1F0FFD
:1004A3004620116F2113862304B52C13A22D0000BF
:1004B300047FE4900078F07F200213BCE49000787E
:1004C300F09000C4F0A3F0241FFF1270D512671C34
:1004D3009000C6E0FF7D01126787E49000C7F090AB
:1004E30000C7E07097900078E09000C4F012422FAC
:1004F300051E0B05360D05561B05751C05801D05D0
:100503008C1E05BB1F05EA20061921067323065C12
:100513002406B32C06942D000006BDE4900078F069
:100523009000C6E0C394325020E004F07F20126CA8
:10053300288016E4900078F09000C6E0D394004041
:1005430008E014F07F20126C289000C6E0FF1271BF
:10055300118015E4900078F09000C5F0241FFF127D
:1005630070D512671C9000C6E0FF7D0112678702F9
:1005730006BDE4900078F09000C5048016E4900076
:1005830078F09000C57402800AE4900078F090003F
:10059300C57403F0241FFF1270D59000C6EFF0124C
:1005A30071119000F4E04480F09000F0E0547FF08B
:1005B3009000C5E004020646E4900078F09000C580
:1005C3007404F0241FFF1270D59000C6EFF012716F
:1005D300119000F4E04480F09000F0E0547FF0903C
:1005E30000C5E02402805CE4900078F09000C574BC
:1005F30005F0241FFF1270D59000C6EFF0127111A1
:100603009000F4E04480F09000F0E0547FF090001C
:10061300C5E02402802DE4900078F09000C57406B4
:10062300F0241FFF1270D59000C6EFF012711190E5
:1006330000F4E04480F09000F0E0547FF09000C5B7
:10064300E02402FF1267389000C6E0FF7D011267C5
:10065300879000C77401F08061125B009000C5E0D1
:10066300241FFF1270D59000C6EFF0127111804560
:10067300E4900078F09000C704F0A3F0E4FFFE12CA
:100683006024900093E0FF1267381266427F218056
:1006930026E4900078F09000C704F0A3F0E4FFFE96
:1006A300126024900093E0FF126738126642800ABA
:1006B300E4900078F07F20126C289000C5E0241F9E
:1006C300FFA3E0FD1271720204E2E4900078F0905F
:1006D30000C4F0A304F0241FFF1270D59000C6EFEE
:1006E300F01267249000C6E0FF7D01126787900037
:1006F300C6E0FF127111E4A3F09000C7E0600302AB
:10070300047F900078E09000C4F012422F073B0B67
:1007130007530D07731B077D1C079D1D07A91E07A4
:10072300D81F08072008362108AF2308792408CDED
:100733002C08902D000008D7E4900078F09000C6B4
:10074300E0C394325020E004F07F20126C2880161E
:10075300E4900078F09000C6E0D394004008E014E1
:10076300F07F20126C289000C6E0FF1271118020E8
:10077300E4900078F09000C58036E4900078F09023
:1007830000C504F0241FFF1270D512671C9000C629
:10079300E0FF7D011267870208D7E4900078F090AC
:1007A30000C57402800AE4900078F09000C57403D9
:1007B300F0241FFF1270D59000C6EFF01271119054
:1007C30000F4E04480F09000F0E0547FF09000C526
:1007D300E004020863E4900078F09000C57404F02C
:1007E300241FFF1270D59000C6EFF0127111900014
:1007F300F4E04480F09000F0E0547FF09000C5E016
:100803002402805CE4900078F09000C57405F02425
:100813001FFF1270D59000C6EFF01271119000F413
:10082300E04480F09000F0E0547FF09000C5E024B5
:1008330002802DE4900078F09000C57406F0241F28
:10084300FF1270D59000C6EFF01271119000F4E022
:100853004480F09000F0E0547FF09000C5E0240263
:10086300FF1267389000C6E0FF7D01126787900092
:10087300C77401F0805E125B009000C5E0241FFF87
:100883001270D59000C6EFF01271118042E490000F
:1008930078F09000C704F0A3F0E4FFFE1260249008
:1008A3000093E0FF1267381266428028E4900078D4
:1008B300F09000C704F0A3F0E4FFFE126024900060
:1008C30093E0FF1267387F218007E4900078F07F80
:1008D30020126C289000C5E0241FFFA3E0FD1271D5
:1008E300720206FCE4900078F09000C4F0A3740256
:1008F300F0241FFF1270D59000C6EFF0126724900A
:1009030000C6E0FF7D011267879000C6E0FF127109
:1009130011E4A3F09000C7E0600302047F90007825
:10092300E09000C4F012422F09560B096E0D098E98
:100933001B09981C09A31D09C41E09F31F0A2220C1
:100943000A51210ACA230A94240AE82C0AAB2D006F
:10095300000AF2E4900078F09000C6E0C3943250AD
:1009630020E004F07F20126C288016E4900078F0D9
:100973009000C6E0D394004008E014F07F20126C8E
:10098300289000C6E0FF127111802CE4900078F0EB
:100993009000C58036E4900078F09000C504802B69
:1009A300E4900078F09000C57402F0241FFF1270E9
:1009B300D512671C9000C6E0FF7D01126787020A0B
:1009C300F2E4900078F09000C57403F0241FFF1246
:1009D30070D59000C6EFF01271119000F4E04480DE
:1009E300F09000F0E0547FF09000C5E004020A7E2E
:1009F300E4900078F09000C57404F0241FFF127097
:100A0300D59000C6EFF01271119000F4E04480F02D
:100A13009000F0E0547FF09000C5E02402805CE495
:100A2300900078F09000C57405F0241FFF1270D574
:100A33009000C6EFF01271119000F4E04480F09042
:100A430000F0E0547FF09000C5E02402802DE49094
:100A53000078F09000C57406F0241FFF1270D59043
:100A630000C6EFF01271119000F4E04480F09000A2
:100A7300F0E0547FF09000C5E02402FF1267389045
:100A830000C6E0FF7D011267879000C77401F08004
:100A93005E125B009000C5E0241FFF1270D590002A
:100AA300C6EFF01271118042E4900078F09000C715
:100AB30004F0A3F0E4FFFE126024900093E0FF1221
:100AC30067381266428028E4900078F09000C704EB
:100AD300F0A3F0E4FFFE126024900093E0FF12679E
:100AE300387F218007E4900078F07F20126C2890F3
:100AF30000C5E0241FFFA3E0FD127172020917E491
:100B0300900078F09000C4F0A37403F0241FFF1248
:100B130070D59000C6EFF01267249000C6E0FF7D09
:100B2300011267879000C6E0FF127111E4A3F090F1
:100B330000C7E0600302047F900078E09000C4F0F7
:100B430012422F0B710B0B890D0BA91B0BB31C0B43
:100B5300BE1D0BED1E0C0E1F0C3D200C6C210CE575
:100B6300230CAF240D032C0CC62D00000D0DE490B7
:100B73000078F09000C6E0C394325020E004F07F88
:100B830020126C288016E4900078F09000C6E0D321
:100B930094004008E014F07F20126C289000C6E017
:100BA300FF127111805BE4900078F09000C580150E
:100BB300E4900078F09000C504800AE4900078F097
:100BC3009000C57402F0241FFF1270D59000C6EF89
:100BD300F01271119000F4E04480F09000F0E054C2
:100BE3007FF09000C5E004020C99E4900078F09047
:100BF30000C57403F0241FFF1270D512671C900008
:100C0300C6E0FF7D01126787020D0DE4900078F0C6
:100C13009000C57404F0241FFF1270D59000C6EF36
:100C2300F01271119000F4E04480F09000F0E05471
:100C33007FF09000C5E02402805CE4900078F0909F
:100C430000C57405F0241FFF1270D59000C6EFF0A5
:100C53001271119000F4E04480F09000F0E0547FB2
:100C6300F09000C5E02402802DE4900078F090001D
:100C7300C57406F0241FFF1270D59000C6EFF01262
:100C830071119000F4E04480F09000F0E0547FF0A4
:100C93009000C5E02402FF1267389000C6E0FF7D94
:100CA300011267879000C77401F0805E125B0090A9
:100CB30000C5E0241FFF1270D59000C6EFF012713B
:100CC300118042E4900078F09000C704F0A3F0E4B0
:100CD300FFFE126024900093E0FF12673812664211
:100CE3008028E4900078F09000C704F0A3F0E4FFBC
:100CF300FE126024900093E0FF1267387F21800783
:100D0300E4900078F07F20126C289000C5E0241F47
:100D1300FFA3E0FD127172020B32E4900078F090B1
:100D230000C57404F0241FFF1270D59000C6EFF0C5
:100D33009000F4E04480F09000F0E0547FF09000E5
:100D4300C5E02402FF1267389000C6E0FF7D011260
:100D530067879000C6E0FF127111E4A3F09000C70B
:100D6300E0600302047F900078E09000C4F0124238
:100D73002F0D9F0B0DB70D0DD81B0DE21C0DED1D97
:100D83000DF91E0E281F0E66200E95210F0E230E41
:100D9300D8240F2C2C0EEF2D00000F36E490007892
:100DA300F09000C6E0C394325020E004F07F20129C
:100DB3006C288016E4900078F09000C6E0D394008D
:100DC3004008E014F07F20126C289000C6E0FF1268
:100DD3007111020E5CE4900078F09000C58021E46C
:100DE300900078F09000C5048016E4900078F090AD
:100DF30000C57402800AE4900078F09000C5740383
:100E0300F0241FFF1270D59000C6EFF012711190FD
:100E130000F4E04480F09000F0E0547FF09000C5CF
:100E2300E004020EC2E4900078F09000C57404F070
:100E3300241FFF1270D59000C6EFF01271119000BD
:100E4300F4E04480F09000F0E0547FF09000C5E0BF
:100E53002402FF1267389000C6E0FF7D0112678706
:100E6300020F36E4900078F09000C57405F0241F5B
:100E7300FF1270D59000C6EFF01271119000F4E0EC
:100E83004480F09000F0E0547FF09000C5E024022D
:100E9300802DE4900078F09000C57406F0241FFFC5
:100EA3001270D59000C6EFF01271119000F4E04477
:100EB30080F09000F0E0547FF09000C5E02402FF42
:100EC3001267389000C6E0FF7D011267879000C764
:100ED3007401F0805E125B009000C5E0241FFF12D6
:100EE30070D59000C6EFF01271118042E490007843
:100EF300F09000C704F0A3F0E4FFFE12602490001A
:100F030093E0FF1267381266428028E4900078F07D
:100F13009000C704F0A3F0E4FFFE12602490009356
:100F2300E0FF1267387F218007E4900078F07F208C
:100F3300126C289000C5E0241FFFA3E0FD1271721C
:100F4300020D60E4900078F09000C57405F0241F52
:100F5300FF1270D59000C6EFF09000F4E04480F0EB
:100F63009000F0E0547FF09000C5E02402FF126788
:100F7300389000C6E0FF7D011267879000C6E0FF4E
:100F8300127111E4A3F09000C7E0600302047F90A4
:100F93000078E09000C4F012422F0FC80B0FE00D51
:100FA30010011B100B1C10161D10221E10511F10B8
:100FB300802010BE2111372311012411552C111843
:100FC3002D0000115FE4900078F09000C6E0C39418
:100FD300325020E004F07F20126C288016E4900049
:100FE30078F09000C6E0D394004008E014F07F202E
:100FF300126C289000C6E0FF1271110210B4E49045
:101003000078F09000C58021E4900078F09000C54E
:10101300048016E4900078F09000C57402800AE41E
:10102300900078F09000C57403F0241FFF1270D570
:101033009000C6EFF01271119000F4E04480F0903C
:1010430000F0E0547FF09000C5E0040210EBE49060
:101053000078F09000C57404F0241FFF1270D5903F
:1010630000C6EFF01271119000F4E04480F090009C
:10107300F0E0547FF09000C5E02402806BE4900020
:1010830078F09000C57405F0241FFF1270D590000E
:10109300C6EFF01271119000F4E04480F09000F07C
:1010A300E0547FF09000C5E02402FF1267389000FF
:1010B300C6E0FF7D0112678702115FE4900078F0BC
:1010C3009000C57406F0241FFF1270D59000C6EF80
:1010D300F01271119000F4E04480F09000F0E054BD
:1010E3007FF09000C5E02402FF1267389000C6E04D
:1010F300FF7D011267879000C77401F0805E125B69
:10110300009000C5E0241FFF1270D59000C6EFF0D9
:101113001271118042E4900078F09000C704F0A3AC
:10112300F0E4FFFE126024900093E0FF1267381290
:1011330066428028E4900078F09000C704F0A3F0A2
:10114300E4FFFE126024900093E0FF1267387F21D2
:101153008007E4900078F07F20126C289000C5E0AF
:10116300241FFFA3E0FD127172020F89E49000783F
:10117300F09000C57406F0241FFF1270D59000C6CE
:10118300EFF01271119000F4E04480F09000F0E071
:10119300547FF09000C5E02402FF1267389000C628
:1011A300E0FF7D01126787E49000C7F09000C7E07D
:1011B300600302047F900078E09000C4F012422F95
:1011C30011EE0B12060D12271B12311C123C1D12BD
:1011D300481E12761F12A52012E921135C23132641
:1011E30024136C2C133D2D00001376E4900078F04B
:1011F3009000C6E0C394325020E004F07F20126CCC
:10120300288016E4900078F09000C6E0D394004064
:1012130008E014F07F20126C289000C6E0FF1271E2
:101223001102131DE4900078F09000C58021E49032
:101233000078F09000C5048016E4900078F09000E8
:10124300C57402800AE4900078F09000C57403F03E
:10125300241FFF1270D59000C6EFF0127111900099
:10126300F4E04480F09000F0E0547FF09000C5E09B
:1012730004805CE4900078F09000C57404F0241FAF
:10128300FF1270D59000C6EFF01271119000F4E0D8
:101293004480F09000F0E0547FF09000C5E0240219
:1012A300802DE4900078F09000C57405F0241FFFB2
:1012B3001270D59000C6EFF01271119000F4E04463
:1012C30080F09000F0E0547FF09000C5E02402FF2E
:1012D3001267389000C6E0FF7D011267879000C750
:1012E3007401F0021376E4900078F09000C5740660
:1012F300F0241FFF1270D59000C6EFF01271119009
:1013030000F4E04480F09000F0E0547FF09000C5DA
:10131300E02402FF1267389000C6E0FF7D011267E8
:10132300878050125B009000C5E0241FFF1270D528
:101333009000C6EFF01271118034E4900078F090C1
:1013430000C704F0A3F0E4FFFE126024900093E0D2
:10135300FF126738126642801AE4900078F090001A
:10136300C704F0A3F07F218007E4900078F07F208A
:10137300126C289000C5E0241FFFA3E0FD127172D8
:101383000211AFE4900078F09000C804F0E4FFFE8F
:10139300126024900093E0FF1267387F21801AE4E3
:1013A300900078F09000C804F0E4FFFE12602490EF
:1013B3000093E0FF1267387F21126C2802047FE458
:1013C300900078F07F21126C289000C4E0FF642322
:1013D3006021EF642D601C900078E09000C4F0243D
:1013E300CF24F6500280E29000C4E024CFFF1242E3
:1013F3006180D6E4900078F002156CE4900078F0F8
:101403007F21126C289000C4E0FF64236027EF64FF
:101413002F6022EF642D601D900078E09000C4F0EF
:101423007FE87E031271ED7DA87C017F0912656060
:101433001267EF80D07FE87E031271EDE4FDFC7F3D
:101443000312459F02156CE4900078F07F21126C23
:101453002890002F7423F0A37428F09000F1E04447
:1014630010F04420F04440F04480F09000F0E04459
:1014730001F0A3E0F0E4FD7F287E23124D8AE4907F
:101483000091F0A3F0900013F0A3F09000A6F0A356
:10149300F090008FF0A3F0FDFC7F15126EB5126E75
:1014A300A41271E99000A6E0FCA3E0FD7F19126E7F
:1014B300B51271E990008FE0FCA3E0FD7F1B126E73
:1014C300B502156CE4900078F090003C7406F002CD
:1014D300156CE4900078F07F20126C28E49000C52E
:1014E3008053E4900078F07F20126C289000C5743C
:1014F300018042E4900078F07F20126C289000C5B0
:1015030074028031E4900078F07F20126C28900000
:10151300C574038020E4900078F07F20126C28903B
:1015230000C57404800FE4900078F07F20126C28CB
:101533009000C57405F0FD7F131271729000C5E031
:1015430025E02438F582E43475F583E493FE7401D1
:1015530093FF900036EEF0A3EFF07D01126A6380F3
:10156300081260A89000C4EFF09000C4E0702C90C3
:101573000077E070030217FA1273CFEF70087F3C15
:101583001273EB0217FA127403EF70030217FA12C5
:1015930073F790003C7402F00217FA1273F790008D
:1015A300C4E014B40F0040030217FA9015BC75F0A1
:1015B30003A4C58325F0C583730217A902166F021E
:1015C30016800216920216A40216B60216C8021656
:1015D300DA0216EC0215E90215F70217FA021704EC
:1015E3000217FA021658E4900078F090003C740356
:1015F300F00217FAE4900078F0B207300729900060
:1016030093E02480FD7F121271729000F1E0440494
:10161300F09000B6E07008900046E06002802290EF
:101623000046E024088024E4FD7F121271729000CA
:10163300F1E054FBF09000B6E0700A900046E060E1
:10164300047F208007900046E02409FF126C2812D3
:1016530066B00217FAE4900078F07F20126C2890AD
:101663000077E004F0E05401F00217FAE490007808
:10167300F03007030217FA90009304807CE4900093
:1016830078F03007030217FA9000937402806AE43B
:10169300900078F03007030217FA900093740380E8
:1016A30058E4900078F03007030217FA900093741F
:1016B300048046E4900078F03007030217FA9000A4
:1016C3009374058034E4900078F03007030217FA2E
:1016D30090009374068022E4900078F030070302B0
:1016E30017FA90009374078010E4900078F03007A5
:1016F300030217FA9000937408F0FF126738021779
:10170300FAE4900078F09000C0E004F0E05403F0B5
:101713002430FF126C289000C0E0FD700D9000F0A3
:10172300E054FBF054F7F054EFF0EDB401149000E3
:10173300F0E04404F0A3E0F09000F0E054F7F0543C
:10174300EFF09000C0E0B402249000F0E04404FE07
:10175300A3E0FF9000F0EEF0A3EFF0FFEE4408905B
:1017630000F0F0A3EFF09000F0E054EFF09000C031
:10177300E0B403289000F0E04404FEA3E0FF9000EF
:10178300F0EEF0A3EFF0FFEE4408FE9000F0F0A3BC
:10179300EFF0EE44109000F0F0A3EFF01266B07F8C
:1017A30020126C288051E4900078F09000B6E0702D
:1017B3000A900046E060047F228012900046E0B465
:1017C300600424198006900046E02418FF126C2858
:1017D300900093E0FFC394014010EF9408500B3046
:1017E300010890003C7404F0800690003C7401F002
:1017F300EF4410FF127270200003020154D39000D3
:1018030030E0940090002FE0940040059000C980E0
:101813000F9000CAE09000C96006E04402F0800423
:10182300E054FDF0126392EF70059000C9800F90B1
:1018330000CAE09000C96006E04401F08004E0546F
:10184300FEF09000CAE004F0E05401F090002FE0B5
:10185300FEA3E0FF9000C9E0FD124D8A12723BEF38
:101863004E700790003CE0B4050790003C7405F00F
:1018730022E4FDFC7F0212459FC20002015422E4D0
:101883009000C6F0A3F0A3F0A3F0A3F0A304F0E448
:101893009000CEF0A3F0A3F0A3F0A3F09000D4F057
:1018A300A3F0A3F09000D8F0A3F0C208900032F0A8
:1018B300A3F0A3F0A3F0D2B31266427F01125FB08C
:1018C300E49000CCF0A3F0C200900049E04410F093
:1018D300D204C203900013E0FEA3E0FFC374289F69
:1018E300900030F074239E90002FF0E490004AF0B3
:1018F300900078F0900093E090754393900079F016
:1019030012745790003CE0900042F090011B740366
:10191300F0900093E0D3940540127F01126F14906E
:1019230000487401F0E4900003F0800AE49000485A
:10193300F090000304F090008FE0FEA3E0FF90001E
:10194300A7E02FFF9000A6E03EFE900004E06E703B
:1019530003A3E06F6025900003E09000B8F09000CF
:1019630004EEF0A3EFF0900093E025E02494F582D9
:10197300E43400F583A3E0900017F0C2A8E49000DC
:10198300ABF0A3F0780C7610D2A8900093E0B408E3
:1019930004D2018002C2019000B6E0700A90007880
:1019A300E09000C6F080081260A89000C6EFF090A7
:1019B30000C6E06401700302274BD2B3125702C37F
:1019C300900030E0948490002FE09403400FD39074
:1019D3000090E094CC90008FE0941E40209000C7CC
:1019E3007401F0A3E0700B1245969000C8E004F078
:1019F300800B9000C8E0D394144002E4F01261A875
:101A03009000B6E0700A900078E09000C6F0801174
:101A13001260A89000C6EFF06007E49000CEF0A338
:101A2300F0900093E0FF64087003021CE19000C68D
:101A3300E0FE146F7003021CE1EE24D47003021C59
:101A4300D7242AB407004003021CE1901A5C75F006
:101A530003A4C58325F0C58373021A71021AD20247
:101A63001B24021B76021BC8021C1A021C76E4907C
:101A73000078F0900093E06007E49000CEF0A3F0CC
:101A8300300703021CCFE4FF126F14E49000D6F07A
:101A930090000304F0E49000D9F090009304F00F59
:101AA300126738900093E090754393900079F0901B
:101AB30000D27407F090002EE0D394054008E49020
:101AC30000B8F0021CCF9000B87401F0021CCFE400
:101AD300900078F0900093E06007E49000CEF0A3CC
:101AE300F020073A126F08E49000D9F09000937445
:101AF30002F0FF126738900093E0907543939000D3
:101B030079F09000D27408F090002EE0D394054051
:101B130007E49000B8F080069000B87401F0021C4E
:101B2300CFE4900078F0900093E06007E49000CE5B
:101B3300F0A3F020073A126F08E49000D9F0900068
:101B4300937403F0FF126738900093E0907543930A
:101B5300900079F09000D27409F090002EE0D394B5
:101B6300054007E49000B8F080069000B87401F0D7
:101B7300021CCFE4900078F0900093E06007E490BB
:101B830000CEF0A3F020073A126F08E49000D9F0DA
:101B93009000937404F0FF126738900093E09075FF
:101BA3004393900079F09000D2740AF090002EE0F5
:101BB300D394054007E49000B8F080069000B87411
:101BC30001F0021CCFE4900078F0900093E06007EE
:101BD300E49000CEF0A3F020073A126F08E49000DF
:101BE300D9F09000937405F0FF126738900093E0EA
:101BF30090754393900079F09000D2740BF09000AD
:101C03002EE0D394054007E49000B8F080069000DE
:101C1300B87401F0021CCFE4900078F0900093E0D8
:101C23006007E49000CEF0A3F0200745E49000D6CF
:101C3300F0900003F07F01126F14E49000D9F0904C
:101C430000937406F0FF126738900093E090754399
:101C530093900079F09000D2740CF090002EE0D3B2
:101C630094054007E49000B8F080069000B8740132
:101C7300F08059E4900078F0900093E06007E490DE
:101C830000CEF0A3F0200744E49000D6F0900003C8
:101C9300F09000D9F07F01126F149000937407F055
:101CA300FF126738900093E090754393900079F0AA
:101CB3009000D2740DF090002EE0D394054007E419
:101CC3009000B8F080069000B87401F09000D574CD
:101CD30001F0800AE4900078F07F20126C289000D5
:101CE300C6E064017039900093E03006044410802C
:101CF30000FF127270127325E4FFFE12622CE4FFE0
:101D0300126F14900093E0FF6401700302274BEFFE
:101D13006407700302274BE4FF125FB002274B9066
:101D23000093E0FF90002EF09000C6E024F6604E92
:101D330024FD7003021DBF24026003021E62E490AF
:101D43000078F0B207300718EF2480FD7F1212717C
:101D5300729000F1E04404F0900046E024088014FF
:101D6300E4FD7F121271729000F1E054FBF09000D9
:101D730046E02409FF126C281266B0021E62E4904A
:101D83000078F07F20126C28200522D2059000F302
:101D9300E04402FEA3E0FF9000F3EEF0A3EFF0FFB8
:101DA300EE44019000F3F0A3EFF0021E62C205902F
:101DB30000F3E054FDF054FEF0021E62E49000785C
:101DC300F09000C0E004F0E05403F02430FF126C04
:101DD300289000C0E0FD700D9000F0E054FBF0543B
:101DE300F7F054EFF0EDB401149000F0E04404F088
:101DF300A3E0F09000F0E054F7F054EFF09000C04F
:101E0300E0B402249000F0E04404FEA3E0FF90005D
:101E1300F0EEF0A3EFF0FFEE44089000F0F0A3EF34
:101E2300F09000F0E054EFF09000C0E0B40328908D
:101E330000F0E04404FEA3E0FF9000F0EEF0A3EF17
:101E4300F0FFEE4408FE9000F0F0A3EFF0EE441034
:101E53009000F0F0A3EFF01266B07F20126C28120E
:101E63004596200003021F73900093E075F005A4CC
:101E730020E90724C5F97474800524FCF9747435CA
:101E8300F0FA7BFF9000C9E0FF124BD320032290AE
:101E93000093E0B405089000C97403F0802F90000C
:101EA300C9E0B40404E4F080249000C9E004F080A5
:101EB3001C9000C97404F09000F1E030E10554FD7A
:101EC300F080079000F1E04402F01266B0D3900076
:101ED30030E0940090002FE0940040069000CAE0A8
:101EE300800C9000CAE03008054402F0800354FDE2
:101EF300F0126392EF70069000CAE0800C9000CA63
:101F0300E03008054401F0800354FEF0B20890006D
:101F13002FE0FEA3E0FF9000CAE0FD124D8A12728B
:101F23003BEF4E701F900039E07043209116D39021
:101F3300003BE0940090003AE0943D500790003C51
:101F4300E0B4052A900039E0701820910FD3900077
:101F53003BE0940090003AE0943D400690004574C5
:101F630003F090003C7405F09000C67401F0C200C9
:101F7300780CE66003022597C2A890003DE0600B51
:101F8300900034E4F0A37430F0800F9000ABE0FFD6
:101F9300A3E0900034CFF0A3EFF0E49000ABF0A304
:101FA300F0780C7610D2A8900038E060579000D4F7
:101FB300E004F0E0D39403404B7F011257F1AC06E9
:101FC300AD07E4123F7BC004C005C006C007900004
:101FD300C4E0FCA3E0FDEC123F7B7B667A66798666
:101FE300783F123DF7A804A905AA06AB07D007D08E
:101FF30006D005D004123EFD500AE49000D4F07FD1
:102003000A1271AE900034E0FEA3E0FF900092E06C
:102013002FF0900091E03EF0900032E0FCA3E0FD51
:10202300EF2DFFEE3CFE7C007D1912410DEF78078A
:10203300CEC313CE13D8F9FF9000CCEEF0A3EFF08C
:102043001260249000CCE0FCA3E0FD7F0112459FC9
:102053003004030224AE9000CCE0FEA3E0FF12683C
:102063004B9000D3EFF09000D2E06F605890009354
:10207300E025E02494F582E43400F583E0FEA3E058
:10208300FF7C007D6412410D9000C4EEF0A3EFF0DD
:10209300C3EE648094805007E49000C4F0A3F0C3BF
:1020A3009000C5E094889000C4E064809493400756
:1020B3007417F0A37470F09000C41262279000D3D9
:1020C300E09000D2F0900038E060030224BD90005D
:1020D30003E0FF9000B8E06F700302235690009373
:1020E300E025E02494F582E43400F583E0FEA3E0E8
:1020F300FF900017E0FD7C00C39FFFEC9EFEC3EF43
:102103009419EE648094805025900093E0F925E0C3
:102113002494F582E43400F583E0FEA3E0C39DFF3D
:10212300EE9CFEC3EF9419EE648094804008900007
:10213300D7740AF0805BE925E02494F582E4340047
:10214300F583E0FEA3E0FF900017E0FD7C00C39F52
:10215300FFEC9EFEC3EF940FEE64809480502490B6
:102163000093E025E02494F582E43400F583E0FE57
:10217300A3E0C39DFFEE9CFEC3EF940FEE64809437
:102183008040089000D77405F080069000D7740152
:10219300F09000D7E0640170030222839000D6E040
:1021A30004F0E0C3940A5006E4FFFE0222AC900060
:1021B300D6E0C3940C500B9000C4E0FEA3E0FF02F2
:1021C30022AC9000D6E0FFC3941250030224A6EF82
:1021D300C3941350030222E29000D6E0FFC3941687
:1021E30050030224A6EFC394175002807D9000D6BB
:1021F300E0FFC3941950030224A6EFC3941A5002BC
:1022030080689000D6E0FFC3941E50030224A6EF1B
:10221300C3941F50030222E29000D6E0FFC3942030
:1022230050030224A6EFC394215002803D9000D6B0
:10223300E0FFC3942250030224A6EFC39423500269
:1022430080289000D6E0FFC3942450030224A6EF15
:10225300C39425500280139000D6E0FFC394275007
:10226300030224A6EFC3942850079000D7E002236B
:10227300039000D6E0C3942A50030224A602230746
:102283009000D7E0640160030223309000D6E0049D
:10229300F0E0FFC3940350030224A6EFC394055058
:1022A3000E9000C4E0FEA3E0FF12622C0224A6906D
:1022B30000D6E0FFC3940850030224A6EFC3940E94
:1022C300500A9000D7E075F00FA480349000D6E058
:1022D300FFC3941050030224A6EFC3941E5008902A
:1022E30000D7E025E080199000D6E0FFC394215089
:1022F300030224A6EFC39425500A9000D7E025E0FB
:10230300FF02246A900003E09000B8F0900093E08D
:1023130025E02494F582E43400F583A3E0900017CC
:10232300F0E49000D8F09000D6F00224A6900003C9
:10233300E09000B8F0900093E0FF25E02494F5824C
:10234300E43400F583A3E0900017F0E49000D8F0A4
:1023530002249D900017E0FFC3942D500302241321
:10236300900093E025E02494F582E43400F583E0C3
:10237300FCA3E0FD7E006F7001EC7003022413C325
:10238300EF9DFFEE9CFED3EF940FEE64809480509C
:102393007F9000D8E004F0E0FFC3940350030224CD
:1023A300A6EFC3940550057F0A02246A9000D8E083
:1023B300FFC3940850030224A6EFC3940E50057F75
:1023C3000A02246A9000D8E0FFC394105003022449
:1023D300A6EFC3941950057F0202246A9000D8E047
:1023E300FFC3941E50030224A6EFC3942250047F1C
:1023F300018074900093E0FF25E02494F582E43497
:1024030000F583A3E0900017F0E49000D80224A025
:102413009000D9E0FFC394285069900093E025E031
:102423002494F582E43400F583E0FCA3E0FDC39437
:1024330023EC64809480404BED942EEC6480948074
:102443005041EFC39408405B9000D9E0C3940E5011
:10245300047F0A80129000D9E0FFC394104044EF38
:10246300C3941950077F021271AE8037900093E036
:10247300FF25E02494F582E43400F583A3E0900083
:1024830017801A900093E0FF25E02494F582E4344A
:1024930000F583A3E0900017F0E49000D6F09000DD
:1024A3002EEFF09000D9E004F0800F127325E4FFC3
:1024B300FE12622C9000D27407F0900034E0FEA369
:1024C300E0FFC39407EE94005004D2048002C204D8
:1024D300900032EEF0A3EFF09000CFE004F070062E
:1024E3009000CEE004F09000CEE0B4030BA3E0B480
:1024F30084069000C67401F03003109000D0E0040D
:10250300F0E0B43C069000C67401F0C3900014E000
:102513009428900013E094235063C3900092E094B6
:10252300DC900091E094054054900014E004F070B6
:1025330006900013E004F0900036E0FCA3E0FD9069
:102543000013E0FEA3E0FF12411FED4C7018C3908F
:102553000090E0943890008FE094225002D206E479
:10256300FD7F51127172900091E0FEA3E0FF7C05A4
:102573007DDC12411F900091ECF0A3EDF09000136D
:10258300E0FEA3E0FFC374289F900030F074239E05
:1025930090002FF030046620032A1273DDEF7004DD
:1025A3007F0A803412744BEF700302273A12743F90
:1025B300D203900046E0240FFF126C287F051264BB
:1025C300EF02273A9000D1E0C39402400302273A76
:1025D3001273DDEF70087F0512743302273A127409
:1025E3004BEF700302273A12743F900046E0240F2A
:1025F300FF126C289000D1E004F002273AE4900027
:10260300D0F0A3F012743F30031CC2039000F1E03A
:1026130054FDF01266B0900093E0FF9075439390E1
:102623000079F01264EF900079E0700302273A908A
:102633000048E0B40125900093E0C39406501CE4E5
:10264300900048F07FA07E0F1271EDE49000ABF094
:10265300A3F07FA07E0F1271ED8016900093E0D35C
:10266300940540089000487401F08005E490004808
:10267300F09000B6E07011900046E0600B9000D53A
:10268300E0B401197F2280127FB87E0B1271ED90A6
:102693000079E0FF900046E02FFF126C2890009332
:1026A300E025E025E0244BF582E43400F583E0FCEB
:1026B300A3E0FDA3E0FEA3E0FF74FFFBFAF9F8D368
:1026C3001241CE5034900093E0FF25E02418F582A8
:1026D300E43400F583E0FCA3E0FD9000BBE04CF0A4
:1026E300A3E04DF0EF25E025E0244BF582E4340030
:1026F300F5831241FE00000000900093E0FB25E00B
:1027030025E0244BF582E43400F583E0FCA3E0FDEF
:10271300A3E0FEA3E02401FFE43EFEE43DFDE43C30
:10272300FCEB25E025E0244BF582E43400F583122D
:1027330041F2E4900079F07F327E001271ED7F3236
:102743007E001271ED0219B2E4900078F090004916
:10275300E054EFF0C2A8900091E0FCA3E0FD7F15E8
:10276300126EB5126EAB124A049000BD7401F09064
:1027730000CEE064037004A3E0648460079000D09B
:10278300E0B43C0EE49000BDF090003C7402F00213
:10279300281790003CE06405607A300606E4900058
:1027A300768017900093E0FF640560459000B6E0E3
:1027B300FE701020E90D90007604F090003C740444
:1027C300F08037EE602BEF64016007900093E0B474
:1027D300071DE4900076F090003CF0780D7605122A
:1027E3007325E4FFFE12622CE4FF126F14800B804A
:1027F30000E4900076F090003CF09000B6E0700AA0
:10280300900046E060047F238007900046E024198F
:10281300FF126C28E4900079F0FF12708DC2B3E4CC
:102823009000F3F0A3E054C0F0900093E075F0053E
:10283300A420E90724C5F97474800524FCF9747491
:1028430035F0FA7BFF1251A1E49000ABF0A3F0FF47
:10285300FE1260249000F1E054FDF01266B0127392
:1028630025E4FFFE12622CE4FF126F14780DE6706C
:1028730003125FB0900003E09000B8F0900093E083
:1028830025E02494F582E43400F583A3E090001757
:10289300F0E49000D8F09000D6F0C2059000D27416
:1028A3000DF012743F90008FE0FEA3E0FF9000A7AD
:1028B300E02FFF9000A6E03E900004F0A3EFF0228B
:1028C3009000C57401F0E49000C7F0A3F0A3F0A357
:1028D300F0A3F0A3125FA07F21126C289000F4E014
:1028E300547FF0E49000C6F09000F0E030E30690EF
:1028F30000C67401F09000F0E054F7F054EFF0FDDF
:102903009000F3E054FEF0ED547F9000F0F054DFBC
:10291300F054BFF07F051264EF12745790011A74DC
:1029230005F090011EF0900120F090011FF090013E
:1029330011F09000C7E060030231A3125702900028
:10294300C9E06003022AAF7F051264EF1273479058
:1029530000F0E0547FF07F1E1270D59000C5EFF0B9
:102963007E007D017C00125C43E49000C8F090007F
:10297300C8E06003022AAF30002D9000CBE0900046
:10298300C5700AE0FF7E007D017C008007E0FF7ECA
:1029930000E4FDFC125C439000CBE004F0E0540142
:1029A300F0A3E004F0C2001260A89000CAEFF06048
:1029B300031273F79000CAE0B4100050B19029C716
:1029C300F8282873022A85022971022A5F022A5FE6
:1029D300022A5F022A5F022971022A5F022A5F022A
:1029E3002A5F0229F7022A39022A02022A2002292F
:1029F30071022A779000C77401F0A3F00229717F56
:102A030020126C289000C87401F0A304F09000C455
:102A130014F0A3E0FD7F1E1271720229719000C5AC
:102A2300E0D3940050030229717F20126C28900098
:102A3300C5E024FE80179000C5E0C394184003024C
:102A430029717F20126C289000C5E02402F0E0FF7A
:102A53007E007D017C00125C430229719000CAE074
:102A630024FE9000C4F09000C97402F09000C814D2
:102A7300F002297190003D7401F07F21126C28024D
:102A830029711273CFEF70087F3C1273EB02297127
:102A9300127403EF70030229711273F79000C77465
:102AA30001F0A3F090003C04F00229719000C9E00A
:102AB30064016003022BCF1273479000CB7401F0C3
:102AC300E49000C8F09000F4E04480F09000C4E08B
:102AD300D394039000F0E0401A54DFF0E4FF126D4A
:102AE3001B9000C4E024FDFF1272899000C4E0240F
:102AF3001E801E4420F0A3E0F09000C4E0FFC374E6
:102B0300049FFF126D1BE4FF1272899000C4E0243E
:102B13001FFF1270D59000C5EFF01268A39000C498
:102B2300E075F005A420E90724CAF974748005242C
:102B330001F9747535F0FA7BFF1251A19000C5E0DD
:102B4300FF7D011267879000C8E06003022BCF125C
:102B530060A89000CAEFF060031273F79000CAE018
:102B6300604424FA60E0240424F8502324FE600E19
:102B7300240270D29000C77401F0A3F080C87F20B4
:102B8300126C289000C87401F0A37403F080B7900E
:102B930000CAE024FE9000C4F09000C97402F090D3
:102BA30000C814F080A01273CFEF70077F3C12733C
:102BB300EB8093127403EF608D1273F79000C77468
:102BC30001F0A3F090003C04F0022B499000C9E00F
:102BD30064026003022D781273479000CB7401F0F6
:102BE300E49000C8F09000F4E04480F09000C4E06A
:102BF300D394039000F0E0401A54DFF0E4FF126D29
:102C03001B9000C4E024FDFF1272899000C4E024ED
:102C13001E801E4420F0A3E0F09000C4E0FFC374C4
:102C2300049FFF126D1BE4FF1272899000C4E0241D
:102C33001FFF1270D59000C5EFF01268A39000C477
:102C4300E075F005A420E90724CAF974748005240B
:102C530001F9747535F0FA7BFF1251A19000C5029A
:102C63002D449000C8E06003022D781260A8900004
:102C7300CAEFF060031273F73000309000CBE0909E
:102C830000F4700DE04480F09000C5E0FF7D01800A
:102C93000BE0547FF09000C5E0FFE4FD12678790DE
:102CA30000CBE004F0E05401F0C2009000CAE070F1
:102CB30003022D4E24F56072146011146053240333
:102CC30070A09000C77401F0A3F080967F20126C6F
:102CD300289000C87401F0A3F09000C4E0FFC394EF
:102CE300045005EF241F80069000C4E0241EFFA3B8
:102CF300E0FD1271729000C5E0FF9000C4E025E092
:102D03002496F582E43400F583E4F0A3EFF0022C7B
:102D1300659000C5E0D394005003022C657F201218
:102D23006C289000C5E014F080179000C5E0C394B0
:102D33000A4003022C657F20126C289000C5E00432
:102D4300F0E0FF7D01126787022C651273CFEF70ED
:102D5300087F3C1273EB022C65127403EF700302BD
:102D63002C651273F79000C77401F0A3F090003C38
:102D730004F0022C659000C9E064036003022F4154
:102D83007F051264EF1273479000F0E054DFF0E424
:102D9300FF126D1BE4FF1272899000F0E0547FF084
:102DA3009000F4E0547FF0900046E0FFC413540712
:102DB3009000C4F025E02407F582E43400F583E0B5
:102DC300FEA3E0AA06F97BFF1251A1E49000C8F02C
:102DD3009000C8E06003022F411260A89000CAEF80
:102DE300F060031273F73000359000CBE0701A9057
:102DF30000C4E025E02407F582E43400F583E0FE17
:102E0300A3E0AA06F97BFF80067BFF7A75792E1271
:102E130051A19000CBE004F0E05401F0C200900017
:102E2300CAE0B40E0050A9902E31F8282873022F5F
:102E330017022DD3022EFF022EFF022EFF022EFFBA
:102E4300022DD3022EFF022EFF022EFF022E5B0263
:102E53002EC2022E66022E9E9000C77401F0A3F0CC
:102E6300022DD37F20126C289000C87401F0A37444
:102E730004F09000C4E0FD7F141271729000C4E06E
:102E83007003FD80027D017F261271729000C4E001
:102E9300C43354E0900046F0022DD37F20126C28F7
:102EA3009000C4E0FF70057405F08032EFB40207B0
:102EB300E49000C4F080279000C4E014F0801F7FEA
:102EC30020126C289000C4E0FFB40504E4F0800EE7
:102ED300EF9000C470057402F08003E004F09000EA
:102EE300C4E025E02407F582E43400F583E0FEA383
:102EF300E0AA06F97BFF1251A1022DD39000CAE08C
:102F030024FE9000C4F09000C97402F09000C8142D
:102F1300F0022DD31273CFEF70087F3C1273EB02D4
:102F23002DD3127403EF7003022DD31273F79000A5
:102F3300C77401F0A3F090003C04F0022DD390007D
:102F4300C9E0640460030229357F051264EF7F132F
:102F53001270D59000C4EFF01273477BFF7A757936
:102F6300291251A1126392900013E0FEA3E0FFC364
:102F730074289FFF74239EFE9000CDF0A3EFF0E42E
:102F8300FD124D8A9000C4E025E02438F582E43434
:102F930075F583E4740193FF7D01126A63E4900085
:102FA300C8F09000CBF09000C8E06003022935120E
:102FB30060A89000CAEFF060031273F730003F90EF
:102FC30000CBE09000C46015E025E02438F582E4EE
:102FD3003475F583E4740193FF7D018012E025E0ED
:102FE3002438F582E43475F583740193FFE4FD120C
:102FF3006A639000CBE004F0E05401F0C20090005B
:10300300CAE0B41100509F903011F82828730231A0
:103013007902316F0230C90230C90230C90230C9A6
:10302300022FA90230C90230C90230C9023044025A
:10303300309702304702307F0230E1022FA902317C
:10304300590231647F20126C289000C87401F0E4A7
:10305300A3F09000C4E0FD7F131271729000C4E0EE
:1030630025E02438F582E43475F583E493FF740195
:1030730093900036CFF0A3EFF0022FA97F20126CBC
:10308300289000C4E070057405F0801E9000C4E031
:1030930014F080167F20126C289000C4E0B405045D
:1030A300E4F080069000C4E004F09000C4E025E062
:1030B3002438F582E43475F583E4740193FF7D01CC
:1030C300126A63022FA99000CAE024FE9000C4F0A4
:1030D3009000C97402F09000C814F0022FA97F2059
:1030E300126C289000CD7423F0A37428F09000F1A3
:1030F300E04410F04420F04440F04480F09000F0AD
:10310300E04401F0A3E0F0E4FD7F287E23124D8A22
:10311300E4900091F0A3F0900013F0A3F09000A6C8
:10312300F0A3F090008FF0A3F0FDFC7F15126EB5B5
:10313300126EA41271E99000A6E0FCA3E0FD7F19D2
:10314300126EB51271E990008FE0FCA3E0FD7F1BC6
:10315300126EB5022FA9E4900078F090003C74063B
:10316300F09000C77401F0A3F0022FA9125CDD7F79
:1031730020126C28801A1273CFEF70087F3C1273F1
:10318300EB022FA9127403EF7003022FA91273F736
:103193009000C77401F0A3F090003C04F0022FA943
:1031A3007F21126C289000C6E0600A9000F0E04492
:1031B30008F0A3E0F090003CE0FF64026007EF64D6
:1031C300066002E4F022126F38126ED71200061264
:1031D3006DCA1272FD1272B91274801271CCD2AF21
:1031E3007F031264EF127337E4FFFE12622CE4FFD5
:1031F300127069C202C2049000777401F0E4900077
:1032030016F0900049F01247E3C2A89000F0E044A2
:1032130002FEA3E0FF9000F0EEF0A3EFF0FFEE4418
:1032230004FE9000F0F0A3EFF0EE4408FE9000F0EF
:10323300F0A3EFF075B2F275B10DEE54FEFEEF544C
:103243000FFF9000F0EEF0A3EFF030B3077FB87EEE
:103253000B1271ED7F141270D5EFD39405504630E5
:10326300E90B7F261270D5EFD3940650387F1412E2
:1032730070D5EF60137F261270D5EFD394065008F4
:103283007F261270D5BF011D7F141270D5EF702CED
:103293007F261270D5EFD39406500A7F261270D57D
:1032A300EF640170177D0230E9027D007F14127113
:1032B30072A2E9B3E433FD7F261271727DA87C010B
:1032C3007F091265601274627F021270D5BF091202
:1032D3007F031270D5BFA80A7F041270D5EF640173
:1032E30060267D41E4FF1271727D377F0112717296
:1032F3007D097F021271727DA87F031271727D01B5
:103303007F0412717212647DE4FF1270D5BF410A0B
:103313007F011270D5EF6437606C7D41E4FF127159
:10332300727D377F011271727D097F021271727D86
:10333300A87F031271727D017F0412717212647D82
:10334300127136E4900091F0A3F0900013F0A3F013
:103353009000A6F0A3F090008FF0A3F0FDFC7F1582
:10336300126EB5126EA41271E99000A6E0FCA3E000
:10337300FD7F19126EB51271E990008FE0FCA3E096
:10338300FD7F1B126EB57F261270D5127111E4906A
:103393000045F07F131270D5EF25E02438F582E461
:1033A3003475F583E493FE740193FF900036EEF0D9
:1033B300A3EFF0D3943CEE94004012900036E4F077
:1033C300A3741EF07D027C007F13126EB57F26125C
:1033D30070D5EFD3940640077D027F141271727F7C
:1033E300141270D5EFC43354E0900046F07F1512E9
:1033F3006E39900091EEF0A3EFF07F17126E3990C3
:103403000013EEF0A3EFF0900036A3E0FF1271116A
:103413007F19126E399000A6EEF0A3EFF07F1B1216
:103423006E3990008FEEF0A3EFF07F3E1271117FA3
:1034330029126E39EF7810C333CE33CED8F9FDACF1
:1034430006C004C0057F27126E39D0E02FFFD0E0FD
:103453003EFEE4FCFD90004F1241F27F2D126E39C7
:10346300EF7810C333CE33CED8F9FDAC06C004C019
:10347300057F2B126E39D0E02FFFD0E03EFEE4FC37
:10348300FD9000531241F27F31126E39EF7810C371
:1034930033CE33CED8F9FDAC06C004C0057F2F125E
:1034A3006E39D0E02FFFD0E03EFEE4FCFD900057E4
:1034B3001241F27F35126E39EF7810C333CE33CE1B
:1034C300D8F9FDAC06C004C0057F33126E39D0E0D5
:1034D3002FFFD0E03EFEE4FCFD90005B1241F27F43
:1034E30039126E39EF7810C333CE33CED8F9FDAC31
:1034F30006C004C0057F37126E39D0E02FFFD0E03D
:103503003EFEE4FCFD90005F1241F27F3D126E39F6
:10351300EF7810C333CE33CED8F9FDAC06C004C068
:10352300057F3B126E39D0E02FFFD0E03EFEE4FC76
:10353300FD9000631241F27F41126E39EF7810C3A0
:1035430033CE33CED8F9FDAC06C004C0057F3F129D
:103553006E39D0E02FFFD0E03EFEE4FCFD90006723
:103563001241F27F45126E39EF7810C333CE33CE5A
:10357300D8F9FDAC06C004C0057F43126E39D0E014
:103583002FFFD0E03EFEE4FCFD90006B1241F27F82
:1035930049126E39EF7810C333CE33CED8F9FDAC70
:1035A30006C004C0057F47126E39D0E02FFFD0E07C
:1035B3003EFEE4FCFD90007A1241F27F4D126E391B
:1035C300EF7810C333CE33CED8F9FDAC06C004C0B8
:1035D300057F4B126E39D0E02FFFD0E03EFEE4FCB6
:1035E300FD90003E1241F27F4F126E399000BBEE08
:1035F300F0A3EFF0EE44AFFE74FFF47003EE64AF9C
:103603006007E49000BBF0A3F0900013E0FEA3E09A
:10361300FFC374289F900030F074239E90002FF016
:10362300A207E4339000C0F030E70BE0547F900032
:1036330093F0D20780089000937402F0C2079000C1
:10364300C07402F02430FF126C28126F68127347A3
:103653007F021257F1900038EFF01266B0126392B6
:10366300900013E0FEA3E0FFC374289FFF74239E22
:10367300FEE4FD124D8A7F1E1270D5900043E4F0E4
:10368300A3EFF07F1F1270D5900096E4F0A3EFF044
:103693007F201270D5900098E4F0A3EFF07F211201
:1036A30070D590009AE4F0A3EFF07F221270D590CA
:1036B300009CE4F0A3EFF0E4A3F0A3F07F231270E7
:1036C300D59000A0E4F0A3EFF07F241270D5900012
:1036D300A2E4F0A3EFF07F251270D59000A4E4F0EC
:1036E300A3EFF0127476127325A2B3E4339000B6FD
:1036F300F0126F38C3900090E0943890008FE094FC
:1037030022500E900030E0940090002FE09400507F
:10371300077D017F511271727F511270D5EF6004E2
:10372300C2068002D2069000B6E0701A7F2612709D
:10373300D5EF24B0FF12711190003C7409F0900092
:10374300067401F0801030060890003C7404F08089
:1037530005E490003CF090003CE0FFB40A0050F612
:1037630090376AF82828730237910237990237A1F4
:103773000237DB0237A90237CD0237D502375902A8
:103783003759023788EF12459A125A5780C81245A3
:103793009612002680C012459612188280B81245F0
:1037A3009612640880B0124596900076E0B4010248
:1037B300800D3006047F01800C300107200604E4ED
:1037C300FF8002E4FF1237E1808C1245961258C342
:1037D30080841253FD0237591228C30237599000CF
:1037E300C4EFF0FDE4A3F0A3F09000C9F09000CC87
:1037F300F0A3F0A3F0A3F0A3F0A3741EF0E4A3F0EE
:10380300A37403F0A374E8F0C208E4900078F0789E
:103813000E7608C2A8C200900049E04410F0E4907C
:1038230000ABF0A3F0780C7610D2A8D204C20390B8
:103833000013E0FEA3E0FFC374289F9000C8F07458
:10384300239E9000C7F0E490004AF090003CE09083
:103853000042F0AF05126D9190004B7401F090009F
:10386300C4E0FF70089000D1E0FD125BA2900079E4
:103873007410F0900076E060047F0580089000C427
:10388300E070127F3C1273EBE49000D1F07F0112E1
:103893005FB00239609000B7E0702C9000C4E06420
:1038A3000170249000B6E0701E7F3C1273EBE4902D
:1038B30000D1F0A37402F07F01125FB01262247F83
:1038C30001126F140239609000B6E060030239659B
:1038D3009000C4E0640160030239659000CBE064AA
:1038E3003C604C900078E09000CBF0780CE6700FD1
:1038F3009000CFE060097F1E126C28780C76309020
:1039030000CBE0B42C0DE4900078F09000CFF07F72
:103913001B80179000CBE0B43DC1E4900078F09099
:1039230000CF04F0780C76307F1E126C2880ACE454
:10393300900078F0900006F01262247F01126F1459
:10394300125FB07F3C1273EB9000D27402F0E490EC
:1039530000D1F09000C4E0FFE4FD125BA27F1012DF
:103963007270125702780CE66003023B07C2A890FC
:1039730000CEE004F0E0D3940340119000D2E0B411
:10398300010AE49000CEF07F1E126C289000C4E080
:1039930064016003023A1E9000D2E0FF6402607B80
:1039A3009000D1E0606CEF7069780EE6703490009F
:1039B300CCE0FFB40806A37401F08009EFB401055D
:1039C300E49000CDF09000CDE09000CC7005E004D1
:1039D300F08003E014F09000CCE0FF127270780ED8
:1039E3007608E49000D1F09000C4E0FFE4FD125BA0
:1039F300A29000D1E0701B1262247F01126F141297
:103A03005FB07F3C1273EB9000D27402F07F101210
:103A13007270780C7610D2A8023B0790003DE0FF4D
:103A230070169000ABE0FCA3E0FD900092E02DF057
:103A3300900091E03CF08012900091E4F0A3743088
:103A4300F09000ABE4F0A3740AF0EF701F9000ABAA
:103A5300E0FEA3E0FF7C007D3212410DEF7807CE3C
:103A6300C313CE13D8F99000CAF080069000CA742D
:103A730012F09000CAE0FD7C007F0112459FC390C5
:103A830000ACE094089000ABE094005004D20480B2
:103A930002C204E49000ABF0A3F0780C7610D2A835
:103AA30030030E9000D0E004F0E0643C7003023D6C
:103AB3001CC3900014E09428900013E09423502D2D
:103AC300900091E0FEA3E0FFC394DCEE9405401D5B
:103AD300900014E004F07006900013E004F07C05FD
:103AE3007DDC12411F900091ECF0A3EDF0900013E8
:103AF300E0FEA3E0FFC374289F9000C8F074239EE8
:103B03009000C7F09000D1E06003023965D2B39012
:103B130000C4E0B401031261A8127403EF6006123B
:103B230073F7023D1C200003023C0220031B90009C
:103B3300C6E0FF04F07BFF7A757929124BD390001E
:103B4300C6E064047019F080169000F1E030E105DE
:103B530054FDF080079000F1E04402F01266B0D308
:103B63009000C8E094009000C7E0940040069000E5
:103B7300C5E0800C9000C5E03008054402F08003E6
:103B830054FDF0126392EF70069000C5E0800C9034
:103B930000C5E03008054401F0800354FEF0B2088C
:103BA3009000C7E0FEA3E0FF9000C5E0FD124D8A40
:103BB30012723BEF4E701F900039E0704020911657
:103BC300D390003BE0940090003AE0943D5007907E
:103BD300003CE0B40527900039E0701820910FD322
:103BE30090003BE0940090003AE0943D4006900042
:103BF300457403F090003C7405F0023D1CC20020A4
:103C03000403023C8C2003391273DDEF70047F0A36
:103C1300804012744BEF605812743F900046E024CA
:103C23000FFF126C28E49000F3F0A3E054C0F07B84
:103C3300FF7A7579291251A1D2037F051264EF80AF
:103C43002F9000C9E0C3940250261273DDEF700772
:103C53007F05127433801912744BEF601312743F93
:103C6300900046E0240FFF126C289000C9E004F096
:103C73009000C4E0640160030239659000D3F0A3AF
:103C8300F0FFFE12622C0239659000C4E0FF126D52
:103C930091E49000D0F09000C9F012743F30031209
:103CA3009000797410F0C2039000F1E054FDF0121B
:103CB30066B0900079E06029900076E0701E900075
:103CC300B6E0700A900046E060047F20800B90000D
:103CD30079E0FF900046E02FFF126C28E490007912
:103CE300F09000C4E0640160030239659000D3E002
:103CF3007002A3E060030239657FB87E0B12622C69
:103D03009000D3740BF0A374B8F09000177432F0E2
:103D130090002E7407F0023965900049E054EFF0EB
:103D2300E4FF12708DE4FE12622CE4FF126F14C2E2
:103D3300A89000BD7401F0E49000F3F0A3E054C038
:103D4300F0900093E075F005A420E90724C5F97409
:103D530074800524FCF9747435F0FA7BFF1251A1C9
:103D6300E49000ABF0A3F0FFFE1260249000F1E0BA
:103D730054FDF01266B012743FE4FF125FB090007E
:103D830091E0FCA3E0FD7F15126EB5126EAB9000BF
:103D9300D0E0B43C0890003C7402F0802A90003CD0
:103DA300E064056022E4F0900076E0701A9000B6BB
:103DB300E0700A900046E060047F20800790004690
:103DC300E02416FF126C289000C4E0B4010DC20673
:103DD300C2017D017F511271728008900076E070FC
:103DE30002C201E4900076F090003CE0FD7C00E428
:103DF300FF02459FEC4D6011E8497017ED33EC333A
:103E030004600DE4FCFFFEFD22E933E8330470F89F
:103E1300023FE9123FB458046009E4CC2481500600
:103E2300285009023FF3284003023FF0C0E0EB4A69
:103E33007044B98006D0E0FB023FDFEF4E701CBD3B
:103E43008008EBFFEAFEE9FD80EBE98DF0A4FEE5D7
:103E5300F0023EE0E9CDF9EAFEEBFFEF89F0A4FCC6
:103E6300E5F0CE89F0A42EFFE435F0CD89F0A42D42
:103E7300FEE435F08067EF4E7005BD80D780C3EF59
:103E83008BF0A4ACF0EE8BF0A42CFCE435F0F8EF4F
:103E93008AF0A42CE5F038FCE433CB8DF0A42CFCA1
:103EA300E5F03BF8EE8AF0A42CFCE5F038F8E433B7
:103EB300CF89F0A42CFCE5F038CF3400CE89F0A4F0
:103EC3002FFFE5F03EFEE433C98DF0A42EFEE5F0AE
:103ED30039CD8AF0A42FFFE5F03EFEE43DFD33D05B
:103EE300E0FB50070BBB000F023FF3EC2CFCEF335E
:103EF300FFEE33FEED33FD023FCB74F8CC6480CC90
:103F0300C86480C8F58204604FC3EB9FF5F0EA9E56
:103F130042F0E99D42F0E89C45F0603C501DE5828B
:103F23005FFFE582D313CB5BCBF42B5582FB502889
:103F33000ABA002409B9002008801DE5825BFBE56D
:103F430082D313CF5FCFF4C3132F5582FF50090ED3
:103F5300BE00050DBD00010CC3EB9FF5F0EA9E42C8
:103F6300F0E99D42F0E89C45F06007CC4820E7016A
:103F7300B3EC2275F020800E75F010800575F00803
:103F83007D007E007F003392D530D5031241C0EC13
:103F9300334010EF33FFEE33FEED33FDEC33FCD54E
:103FA300F0ED22E5F0247EA2D513CC92E7CDCEFF2F
:103FB30022E9D2E7C933E833F892D5EDD2E7CD331E
:103FC300EC33FC5002B2D522EC30E7100FBF000CEB
:103FD3000EBE00080DBD00040BEB6014A2D5EB135D
:103FE300FCED92E7FD2274FFFCFDFEFF22E480F866
:103FF300A2D574FF13FC7D80E480EFE709F608DFA8
:10400300FA8046E709F208DFFA803E88828C83E76C
:1040130009F0A3DFFA8032E309F608DFFA8078E3D8
:1040230009F208DFFA807088828C83E309F0A3DF4A
:10403300FA806489828A83E0A3F608DFFA805889CC
:10404300828A83E0A3F208DFFA804C80D280FA8070
:10405300C680D4806980F28033801080A680EA8095
:104063009A80A880DA80E280CA803389828A83ECCE
:10407300FAE493A3C8C582C8CCC583CCF0A3C8C552
:1040830082C8CCC583CCDFE9DEE7800D89828A83D1
:10409300E493A3F608DFF9ECFAA9F0EDFB22898299
:1040A3008A83ECFAE0A3C8C582C8CCC583CCF0A34D
:1040B300C8C582C8CCC583CCDFEADEE880DB898251
:1040C3008A83E493A3F208DFF980CC88F0EF6001E0
:1040D3000E4E60C388F0ED2402B4040050B9F5829B
:1040E300EB2402B4040050AF232345822390404EB7
:1040F30073BB010689828A83E0225002E722BBFE5A
:1041030002E32289828A83E49322EF8DF0A4A8F04C
:10411300CF8CF0A428CE8DF0A42EFE22BC000BBEC3
:104123000029EF8DF084FFADF022E4CCF875F008A0
:10413300EF2FFFEE33FEEC33FCEE9DEC984005FCD5
:10414300EE9DFE0FD5F0E9E4CEFD22EDF8F5F0EE9D
:104153008420D21CFEADF075F008EF2FFFED33FD88
:104163004007985006D5F0F222C398FD0FD5F0EA28
:1041730022C2D5EC30E709B2D5E4C39DFDE49CFC33
:10418300EE30E715B2D5E4C39FFFE49EFE12411F54
:10419300C3E49DFDE49CFC800312411F30D507C39B
:1041A300E49FFFE49EFE22A3F8E0C5F025F0F0E5CE
:1041B30082158270021583E0C838F0E822C3E49FB9
:1041C300FFE49EFEE49DFDE49CFC22EB9FF5F0EAF8
:1041D3009E42F0E99D42F0E89C45F022E8600FEC36
:1041E300C313FCED13FDEE13FEEF13FFD8F122EC26
:1041F300F0A3EDF0A3EEF0A3EFF022A8828583F005
:10420300D083D08212421512421512421512421562
:10421300E473E493A3C583C5F0C583C8C582C8F01E
:10422300A3C583C5F0C583C8C582C822D083D08205
:10423300F8E4937012740193700DA3A393F87401BF
:1042430093F5828883E4737402936860EFA3A3A356
:1042530080DFE0FCA3E0FDA3E0FEA3E0FF229000EB
:10426300CCEFF078CD7C007D017BFF7A7479AC7E56
:10427300007F0C1240CE9000BBA3E0FD540F2480BE
:104283009000D5F0ED54F0FFE4C4F854F0C8EFC447
:10429300540F482490A3F09000BBE0FCEC540F248F
:1042A300A09000D7F0EC54F0C4540F24B0A3F090C6
:1042B30000CCE024F8500E70030243EC14700302A8
:1042C30044AB0245809000CCE0FB25E025E0244F81
:1042D300F582E43400F583A3A3A3E0540FFF900019
:1042E300CDEFF0EB25E025E0244FF582E43400F533
:1042F30083A3A3A3E054F0FFE4FEFDFC7804124182
:10430300DFEF24109000CEF09000CCE025E025E014
:10431300244FF582E43400F583A3A3E0FEA3E4FF76
:10432300EE540FFEE4FDFC78081241DFEF242090E9
:1043330000CFF0EB25E025E0244FF582E43400F5CF
:1043430083A3A3E0FEA3E4FFEE54F0FEE4FDFC78B8
:104353000C1241DFEF24309000D0F09000CCE02528
:10436300E025E0244FF582E43400F583A3E0FDA3C8
:10437300A3E4FFFEED540FFDE4FC78101241DFEFE0
:1043830024409000D1F0EB25E025E0244FF582E4B2
:104393003400F583A3E0FDA3A3E4FFFEED54F0FD99
:1043A300E4FC78141241DFEF24509000D2F0900027
:1043B300CCE025E025E0244FF582E43400F583E0EA
:1043C300FCA3A3A3E4FFFEFDEC540FFC78181241F9
:1043D300DFEF24609000D3F0EB25E025E0244FF5D8
:1043E30082E43400F58302456790007AA3A3A3E037
:1043F300540FFF9000CDEFF090007AA3A3A3E054F5
:10440300F0FFE4FEFDFC78041241DFEF241090007E
:10441300CEF090007AA3A3E0FEA3E4FFEE540FFED8
:10442300E4FDFC78081241DFEF24209000CFF090E8
:10443300007AA3A3E0FEA3E4FFEE54F0FEE4FDFC48
:10444300780C1241DFEF24309000D0F090007AA373
:10445300E0FDA3A3E4FFFEED540FFDE4FC7810128E
:1044630041DFEF24409000D1F090007AA3E0FDA358
:10447300A3E4FFFEED54F0FDE4FC78141241DFEFFA
:1044830024509000D2F090007AE0FCA3A3A3E4FFB1
:10449300FEFDEC540FFC78181241DFEF246090000E
:1044A300D3F090007A02456790003EA3A3A3E054A3
:1044B3000FFF9000CDEFF090003EA3A3A3E054F0D4
:1044C300FFE4FEFDFC78041241DFEF24109000CEE0
:1044D300F090003EA3A3E0FEA3E4FFEE540FFEE43E
:1044E300FDFC78081241DFEF24209000CFF090000C
:1044F3003EA3A3E0FEA3E4FFEE54F0FEE4FDFC784C
:104503000C1241DFEF24309000D0F090003EA3E086
:10451300FDA3A3E4FFFEED540FFDE4FC781012416C
:10452300DFEF24409000D1F090003EA3E0FDA3A371
:10453300E4FFFEED54F0FDE4FC78141241DFEF24B8
:10454300509000D2F090003EE0FCA3A3A3E4FFFE52
:10455300FDEC540FFC78181241DFEF24609000D378
:10456300F090003EE0FCA3A3A3E4FFFEFDEC54F0B7
:10457300FC781C1241DFEF24709000D4F09000CD42
:104583001270F7A31270F7A3E0FF127111A3E0FFFB
:1045930002711190003CE0FD7C00E4FF9000DAEF33
:1045A300F0A3ECF0A3EDF078DD7C007D017BFF7AD6
:1045B3007479B87E007F021240CE78DF7C007D01E3
:1045C3007BFF7A7479BA7E007F081240CE78E77C4D
:1045D300007D017BFF7A7479C27E007F081240CE92
:1045E3009000DAE01470030246761470030246B0BA
:1045F3001470030247BD240360030247DD9000DB10
:10460300A3E0FEB40519900045E0FDB404047FE483
:10461300800AEDB403047FE380027FE1127111305D
:1046230006189000B7E0600E900006E060047F0B70
:1046330080317F0A802D7F078029C3900030E0946A
:104643008490002FE09403400FD3900090E094CC2B
:1046530090008FE0941E4009EE640560047F08809B
:1046630002AF061271113001057FD10247DA7FD004
:104673000247DA9000DBA3E0FD540F2410A3F0ED12
:1046830054F0FFE4C4F854F0C8EFC4540F48242096
:10469300A3F09000DDE0FF1271110000000000A301
:1046A300E0FF12711100000000000247DD90002FAF
:1046B300A3E0FD540F2430FEE4339000DFF0A3CEDB
:1046C300F0ED54F0FFE4C4F854F0C868FEEFC454AE
:1046D3000F482440FFE43EA3F0A3EFF090002FE047
:1046E300FCEC540F2450FEE4339000E3F0A3CEF02F
:1046F300EC54F0C4540F2460FEE433A3F0A3CEF0D3
:1047030090008FA3E0FD540F2470FEE4339000E784
:10471300F0A3CEF0ED54F0FFE4C4F854F0C868FE03
:10472300EFC4540F482480FFE43EA3F0A3EFF090BE
:10473300008FE0FCEC540F2490FEE4339000EBF088
:10474300A3CEF0EC54F0C4540F24A0FEE433A3F042
:10475300A3CEF0900001E0FE70059000E3801DEE13
:10476300B401059000DF8014900001E0FEB402055F
:104773009000E78007EEB403189000EBA3E0FF126C
:104783007111A3A3E0FF127111900001E004F08006
:10479300493006047F0780093001047FD180027FFE
:1047A300D0127111000000000000000000007FC162
:1047B300127111E4900001F080207F141270D5EF84
:1047C30070047FB080027FB11271110000000000FD
:1047D30000000000007FC1127111000000000022E0
:1047E300E4FBFAFDFC7F2C126FC97B307D407F2CEC
:1047F300126FC9E4FB7D0A7F2C126FC97D747F2C75
:10480300126FC97B3F7A037D417F2C126FC9126FF0
:10481300C27B3F7A030D7F2C126FC9126FC27B02DA
:104823007D087F2C126FC9E4FB7D3F7F2C126FC97B
:104833001D7F2C126FC97B1F7A0A7D517F2C126F4B
:10484300C97BBC126FC47BFF7A070D7F2C126FC923
:104853007B007A507D4E7F2C126FC90B7D5F126FE8
:10486300C57B320D7F2C126FC90D7F2C126FC90DC2
:104873007F2C126FC90D7F2C126FC90D7F2C126F05
:10488300C90D7F2C126FC97D687F2C126FC90D7FF4
:104893002C126FC90D7F2C126FC90D7F2C126FC99B
:1048A3000D7F2C126FC90D7F2C126FC90D7F2C1237
:1048B3006FC97B027D5F7F2C126FC97B100D7F2C2C
:1048C300126FC90D7F2C126FC90D7F2C126FC90D8A
:1048D3007F2C126FC90D7F2C126FC90D7F2C126FA5
:1048E300C97D687F2C126FC90D7F2C126FC90D7F94
:1048F3002C126FC90D7F2C126FC90D7F2C126FC93B
:104903000D7F2C126FC90D7F2C126FC97B037D5F46
:104913007F2C126FC90B0D7F2C126FC90D7F2C12C8
:104923006FC90D7F2C126FC90D7F2C126FC90D7FBC
:104933002C126FC90D7F2C126FC97D687F2C126FEB
:10494300C90D7F2C126FC90D7F2C126FC90D7F2CDF
:10495300126FC90D7F2C126FC90D7F2C126FC90DF9
:104963007F2C126FC97D5F7F2C126FC90D7F2C12B4
:104973006FC90D7F2C126FC90D7F2C126FC90D7F6C
:104983002C126FC90D7F2C126FC90D7F2C126FC9AA
:104993007D687F2C126FC90D7F2C126FC90D7F2C80
:1049A300126FC90D7F2C126FC90D7F2C126FC90DA9
:1049B3007F2C126FC90D7F2C126FC97B007A407D4B
:1049C300577F2C126FC97B037A007D757F2C126F82
:1049D300C9E4FB7D7C7F2C126FC90D7F2C126FC93C
:1049E3000D7F2C126FC90D7F2C126FC97B387AB0E3
:1049F3007D407F2C126FC9E4FBFA7D017F2C026F8F
:104A0300C990004FA3A3E0FEA3E0FDAC067F2712ED
:104A13006EB590004FE0FCA3E0FDA3E0FEA3E0FF32
:104A230078101241DFAD07AC067F29126EB59000F6
:104A330053A3A3E0FEA3E0FDAC067F2B126EB5905B
:104A43000053E0FCA3E0FDA3E0FEA3E0FF78101217
:104A530041DFAD07AC067F2D126EB5900057A3A3BF
:104A6300E0FEA3E0FDAC067F2F126EB5900057E089
:104A7300FCA3E0FDA3E0FEA3E0FF78101241DFAD4D
:104A830007AC067F31126EB590005BA3A3E0FEA3D3
:104A9300E0FDAC067F33126EB590005BE0FCA3E053
:104AA300FDA3E0FEA3E0FF78101241DFAD07AC06E3
:104AB3007F35126EB590005FA3A3E0FEA3E0FDACCB
:104AC300067F37126EB590005FE0FCA3E0FDA3E024
:104AD300FEA3E0FF78101241DFAD07AC067F391269
:104AE3006EB5900063A3A3E0FEA3E0FDAC067F3B9D
:104AF300126EB5900063E0FCA3E0FDA3E0FEA3E02B
:104B0300FF78101241DFAD07AC067F3D126EB59002
:104B13000067A3A3E0FEA3E0FDAC067F3F126EB5E2
:104B2300900067E0FCA3E0FDA3E0FEA3E0FF7810A4
:104B33001241DFAD07AC067F41126EB590006BA347
:104B4300A3E0FEA3E0FDAC067F43126EB590006BBD
:104B5300E0FCA3E0FDA3E0FEA3E0FF78101241DF39
:104B6300AD07AC067F45126EB590007AA3A3E0FEB5
:104B7300A3E0FDAC067F47126EB590007AE0FCA37C
:104B8300E0FDA3E0FEA3E0FF78101241DFAD07AC28
:104B9300067F49126EB590003EA3A3E0FEA3E0FD9D
:104BA300AC067F4B126EB590003EE0FCA3E0FDA384
:104BB300E0FEA3E0FF78101241DFAD07AC067F4DA6
:104BC300126EB59000BBE0FCA3E0FD7F4F026EB513
:104BD3009000DAEFF0A3EBF0A3EAF0A3E9F02005ED
:104BE30003024D59E49000E0F09000F4E030E70652
:104BF3009000E07401F09000DAE090754C93FF7E32
:104C0300009000F3EEF0A3EFF074010E9000F3F0C8
:104C1300A3EFF0EE44029000F3F0A3EFF012694229
:104C23007C007DC8124174AF05EFC39464404274A5
:104C33009C2FFFC3945A40027F64900093E0FB9043
:104C430075F093FEEF8EF0A4FFAEF07C007D64124E
:104C5300411F9000DEEEF0A3EFF0EB25E024DFF53B
:104C630082E43475F583C37401939FFFE4939E80BC
:104C73003CEFC3945A40027F64900093E0FB90752D
:104C8300F093FEEF8EF0A4FFAEF07C007D64124142
:104C93001F9000DEEEF0A3EFF0EB25E024DFF582BA
:104CA300E43475F5837401932FFFE4933EFE900083
:104CB30093E025E0247DF582E43400F583EEF0A350
:104CC300EFF0900093E0FF25E0247DF582E43400CB
:104CD300F583E0FCA3E0D394E7EC64809483401372
:104CE300EF25E0247DF582E43400F5837403F0A31B
:104CF30074E7F0C3900035E09407900034E094002B
:104D0300403F900093E025E0247DF582E43400F5F4
:104D130083E0FEA3E0FFC3EE64809480500B7CFF2E
:104D23007DFF12410D7D01801C900093E025E0245E
:104D33007DF582E43400F583E0FEA3E0FFE4FD802B
:104D430004E4FDFFFE1252E19000E0E060389000C1
:104D5300F4E04480F0229000F4E09000DA30E70AB7
:104D6300E090754C934480FF8006E090754C93FF70
:104D73009000F3E4F0A3EFF09000DBE0FBA3E0FA94
:104D8300A3E0F91251A1229000DAEEF0A3EFF0AB09
:104D9300057F1712711EEB7F0830E0027F00AA0720
:104DA300126A459000DAE0FEA3E0FF7C277D101233
:104DB300411FAA079000DAE0FEA3E0FF7C277D10E5
:104DC30012411FA3ECF0A3EDF0EA6004EB30E10421
:104DD3007F008006EA90761893FFAA079000F1E01F
:104DE30030E404EA4410FAAF02126A45EA126A4157
:104DF3009000DCE0FEA3E0FF7C037DE812411FAAE4
:104E0300079000DAE0FEA3E0FF7C037DE812411F78
:104E1300A3ECF0A3EDF0EB30E1047F008006EA9011
:104E2300761893FFAA079000F1E030E504EA4410F6
:104E3300FAAF02126A45EA126A419000DCE0FEA36F
:104E4300E0FF7C007D6412411FAA079000DCE0FEB6
:104E5300A3E0FF7C007D6412411F9000DCECF0A313
:104E6300EDF0EB30E1047F008006EA90761893FFC3
:104E7300AA079000F1E030E604EA4410FAAF021208
:104E83006A45EA126A419000DCE0FEA3E0FF7C0081
:104E93007D0A12411FAA079000DCE0FEA3E0FF7C1D
:104EA300007D0A12411F9000DCECF0A3EDF0EB3023
:104EB300E1047F008006EA90761893FFAA0790002A
:104EC300F1E030E704EA4410FAAF02126A45EA124D
:104ED3006A419000DCA3E0FAEB30E1047F00800636
:104EE300EA90761893FFAA079000F0E030E004EA16
:104EF3004410FAAF02126A45EF126A417F01026A57
:104F0300459000EFE004F0E0D394054002E4F09014
:104F130000C2EEF0A3EFF09000C2E0FEA3E0FF7C3E
:104F2300277D1012411FAB07EB90761893FB90007F
:104F3300C2E0FEA3E0FF7C277D1012411F9000C258
:104F4300ECF0A3EDF09000EFE0D394004004EB44C9
:104F530010FB7F1812711EAF03126A45EB126A41F0
:104F63009000C2E0FEA3E0FF7C037DE812411FAB8B
:104F7300079000C2E0FEA3E0FF7C037DE812411F1F
:104F83009000C2ECF0A3EDF0EB90761893FB900049
:104F9300EFE0D394014004EB4410FBAF03126A45E6
:104FA300EB126A419000C2E0FEA3E0FF7C007D6447
:104FB30012411FAB079000C2E0FEA3E0FF7C007D1F
:104FC3006412411F9000C2ECF0A3EDF0EB90761851
:104FD30093FB9000EFE0D394024004EB4410FBAF4B
:104FE30003126A45EB126A419000C2E0FEA3E0FFA0
:104FF3007C007D0A12411FAB079000C2E0FEA3E0D4
:10500300FF7C007D0A12411F9000C2ECF0A3EDF07B
:10501300EB90761893FB9000EFE0D394034004EBFE
:105023004410FBAF03126A45EB126A419000C2A31E
:10503300E090761893FB9000EFE0D394044004EBE8
:105043004410FBAF03126A45EF126A41E4FF026AA0
:10505300454C000774890000748E74937498749D92
:10506300C101C106C107C1054100AD004100760081
:10507300410047004100BF0041004E0041000600CF
:105083004200AB000042006F000042003A000041C2
:10509300004A004100B700410039004100180008F0
:1050A3000800000000000000004100AA004100BE0B
:1050B300004100B5004100190044007200000000E7
:1050C30041004900410079004100C100410048000E
:1050D3004100BD00410017004100B80041002E000F
:1050E3004200B92238440032000000004700AE16E7
:1050F300050402050C3241003D0041003800410027
:105103004B0054001AA001A002A004A008A010A004
:1051130020A040A080A100A20041000000410001A6
:105123000050007F000000000000000000000000AD
:10513300000000004100020041000300420004009F
:10514300005A00F5050007050A000C050F001105BC
:10515300140019001E00230028002D003200420015
:10516300F003F84200F300004100F2004100EF00B9
:1051730042012300004101210041010F00410122AE
:1051830000500111000000000000000000000000BA
:105193000000000041012C0042012AC8C800900011
:1051A300E1EBF0A3EAF0A3E9F07F0412711EE4FD42
:1051B3009000F4E030E5010D9000F0E030E504EDFF
:1051C3004404FDAF05126A457F0712711E9000F07B
:1051D300E07F0030E3027F02AD079000F3E030E0B0
:1051E30004ED4404FDAF05126A457F0912711E9058
:1051F30000E1E0FBA3E475F0011241AAA9F0FA1261
:1052030040F490760193FD9000F4E030E004ED4427
:1052130010FDAF05126A45ED126A419000E1E0FB13
:10522300A3E475F0011241AAA9F0FA1240F49076B2
:105233000193FD9000F4E030E204ED4410FDAF056E
:10524300126A45ED126A419000E1E0FBA3E475F0B8
:10525300011241AAA9F0FA1240F490760193FD904D
:1052630000F4E030E404ED4410FDAF05126A45EDAF
:10527300126A419000E1E0FBA3E475F0011241AA38
:10528300A9F0FA1240F490760193FD9000F4E03017
:10529300E704ED4410FDAF05126A45ED126A419033
:1052A30000E1E0FBA3E475F0011241AAA9F0FA12B0
:1052B30040F490760193FD9000F4E030E104ED4476
:1052C30010FDAF05126A45ED126A419000F3E07FCD
:1052D3000030E1027F04AD07126A45026BA9AB07F8
:1052E300AA067F0412711EE4FC9000F4E030E5018D
:1052F3000C9000F0E030E504EC4404FCAF04126AC7
:10530300457F0712711E9000F0E07F0030E3027FBB
:1053130002AC079000F3E030E004EC4404FCAF047B
:10532300126A457F0912711EED6008907616E493A8
:10533300FC8002E4FC9000F4E030E004EC4410FC58
:10534300AF04126A45EC126A417C007D64AF03AE80
:105353000212411F74012FF58274763EF583E493A4
:10536300FC9000F4E030E204EC4410FCAF04126A59
:1053730045EC126A417C007D0AAF03AE0212411F65
:105383007C007D0A12411F74012DF58274763CF571
:1053930083E493FC9000F4E030E404EC4410FCAFAD
:1053A30004126A45EC126A41AE02AF037C007D0A27
:1053B30012411F74012DF58274763CF583E493FC4E
:1053C3009000F4E030E704EC4410FCAF04126A45AB
:1053D300EC126A41E4FC9000F4E030E1037410FC49
:1053E300AF04126A45EC126A419000F3E030E10227
:1053F3007C04AF04126A45026BA9E49000C4F090E8
:10540300003CE0900042F01274577F051264EF12E3
:105413007337780C765080069000C5E0600A1260FE
:10542300A89000C5EFF080F0780CE670030254E218
:105433009000B6E070089000C5740CF0800812600C
:10544300A89000C5EFF09000C5E0640C707B7F204E
:10545300126C289000937402F012647D1266427FEE
:105463000230E9027F00EFC43354E0900046F0902D
:105473000036E4F0A3741EF09000C07402F02430F0
:10548300FF126C28C2079000F1E054FBF0A207E47E
:1054930033FD7F12127172900036E0FEA3E0FF7CB1
:1054A300007D0A12411FEF14FD7F131271727D02FA
:1054B30030E9027D007F14127172127337126F6824
:1054C3007FF47E011271ED8016780CE675F00A8484
:1054D30030E00612733702542B12734702542B9099
:1054E30000F0E04404FEA3E0FF9000F0EEF0A3EF31
:1054F300F0FFEE44089000F0F0A3EFF09000F0E02E
:1055030054EFF01266B0E490003CF0027347C0E041
:10551300C0F0C083C082C0D075D000C000C001C03D
:1055230002C003C004C005C006C007C28E781006BF
:105533009000BEE060159000AAE0600214F09000B5
:10554300AAE070079000BEF0127256900019E06056
:10555300159000B5E0600214F09000B5E07007907C
:105563000019F0127205780CE6600116780EE660F9
:1055730001167810E6FF54077002D200EF64107032
:105583006C7810F67808E66001167809E660011673
:10559300780AE6600116780BE6600116780DE6607E
:1055A3000116780FE6600116900072E07002A3E026
:1055B3006023900073E024FFF0900072E034FFF06A
:1055C300A3E0540F2450FF127111900072E0FEA368
:1055D300E0FF124F04900074E07002A3E0600E90AD
:1055E3000075E024FFF0900074E034FFF0758D0B3C
:1055F300758BDCD28ED007D006D005D004D003D073
:1056030002D001D000D0D0D082D083D0F0D0E0320D
:10561300E4FFFEF91265D1E4900110F0EF4E700340
:105623000256F3900123E0FCA3E0FDEC6EFAED6F6C
:105633004A70030256ECEF54096409700D790E9019
:105643000123F0A37409F00256FBEF5403640370C3
:105653000D790F900123F0A37403F00256FBEF546E
:10566300056405700D7910900123F0A37405F00211
:1056730056FBEC5EFCED5F4C6017900121E0FD648E
:105683000F600EED640E6009ED64106004A90580DF
:1056930067EF30E002790BEF30E102790CEF30E293
:1056A30002790DEF30E302790AEF30E4027909EF72
:1056B30030E5027908EF30E6027907EF30E7027947
:1056C30006EE30E0027905EE30E1027904EE30E2D5
:1056D300027903EE30E3027902EE30E402790190BD
:1056E3000123EEF0A3EFF0800F900121E0F9800891
:1056F300E4F9900123F0A3F0900121E9F0FF22786F
:105703000AE660030257F09000B9E0FEA3E0FFC38E
:10571300900090E09F90008FE09E40030257F0902E
:1057230000A7E004F070069000A6E004F09000A645
:10573300E0FCA3E0FD7F19126EB5780A763C900079
:1057430049E04404F09000A6E0FEA3E0FFC3943CCC
:10575300EE940050030257F07C007D3C12411F90F1
:1057630000A6ECF0A3EDF0900090E004F07006903A
:10577300008FE004F090008FE0FCA3E0FD7F1B129C
:105783006EB574FFFFFEFDFC90007AE0F8A3E0F92C
:10579300A3E0FAA3E0FBC31241CE401C90002CE02F
:1057A300FEA3E0FF9000BBE04EF0A3E04FF09000BB
:1057B3007A1241FE0000000090003CE0FFB40107B4
:1057C300900093E0B40507EFB4042230061F900065
:1057D3007AE0FCA3E0FDA3E0FEA3E02401FFE43EA6
:1057E300FEE43DFDE43CFC90007A1241F222A9075D
:1057F300E4FDFC7E91FB9000DAF0D2A5D296C2A51F
:105803001272F5E4FAC2961272F5EE30E704D2A5ED
:105813008002C2A5D2961272F5EE25E0FE0AEAB422
:1058230008E3C296D2A51272F520A5069000DA7499
:1058330001F0E4FA1272E7ED30A5054401FD80039F
:1058430054FEFD0AEAB408EC12000ED2A5E4FA12E3
:1058530072E7ED30A5054401FD800354FEFD0AEA1D
:10586300B408ECECC4F854F0C868FCEDC4540F4819
:10587300FDAE047803C333CE33CED8F9F5828E83DD
:1058830012000ED2A5E4FAEB25E0FB1272EEEB3028
:10589300A5054401FB800354FEFB0AEAB408E812A1
:1058A300000E1272EED2A5E97005AE04AF0522E92F
:1058B300B40105AE83AF82229000DAE0FF7E0022BE
:1058C300E49000C5F090003CE0900042F0C2B312B7
:1058D30073477F081264EF125FAB900045E0FFB49B
:1058E300040B9000C47424F0126F95803F90004520
:1058F300E0FFB403159000C47424F09000C6740351
:10590300F0A374B6F0FD7C03801FE49000BDF0901B
:10591300004504F09000C47415F09000C67402F0C2
:10592300A374A3F0FD7C027F011263197F3B127302
:10593300EB125702127403EF60051273F780429063
:1059430000C5E060127808E6FF75F00F84E5F0709B
:10595300E0EFD3941440DA1245969000C57401F039
:10596300900045E09000C4B40109E0FF900046E0D8
:105973002F8001E0FF126C287F207E4E1271ED8094
:10598300B090003C7402F0E4900045F0229000399E
:10599300E06003025A56EF701B7D01FF125D7290A7
:1059A300006FEEF0A3EFF0C39428EE94234002803F
:1059B3006A025A3D90003CE0FFB40107900093E077
:1059C300B40508EF6404707730067490004EE0FF6E
:1059D3009000BFE0FEC39FD3940A5008C3EF9ED349
:1059E300940A405B7D01E4FF125D7290006FE0FC5E
:1059F300A3E0FDC3EF9DFFEE9CFEC3EF9414EE9472
:105A0300005020C3ED9428EC942340177D01E4FF5C
:105A1300125D7290006FEEF0A3EFF090004AE00485
:105A2300F0801C7D01E4FF125D7290006FEEF0A325
:105A3300EFF09000BFE090004EF0E490004AF09049
:105A4300004AE0D39446400B90003C7405F090006C
:105A53004514F022E49000C4F0C2B39000C4E064A3
:105A630030607A900078E09000C4F0124596900080
:105A7300C4E024D57055E4900078F07F21126C289F
:105A83009000C4E0FF64236022EF642F601D900048
:105A930078E09000C4F07FE87E031271ED7DA87C6E
:105AA300017F091265601267EF80D59000C4E0B4EE
:105AB3002F0AE4900078F090003D04F07FE87E0325
:105AC3001271EDE4FDFC7F0312459F7F647E00129B
:105AD30071EDE4FDFC7F0212459F025A5E3006130E
:105AE3009000B7E0600D90003C7404F090000674E1
:105AF30001F022E490003CF0900006F022E49000D4
:105B030078F09000C5E0FF7E009000CCEEF0FCA39F
:105B1300EFF0FD241FFF74AE2DF58274003CF58376
:105B2300E0FD1271729000CCE0FEA3E0FFD394037A
:105B3300EE9400402EEF241FFF1270D5EFFD90006E
:105B4300CDE025E0FF9000CCE033FE74982FF58282
:105B530074003EF583E4F0A3EDF074982FF582749E
:105B63000080309000CCA3E0241FFF1270D5EFFD1E
:105B73009000CDE025E0FF9000CCE033FE74962F3B
:105B8300F58274003EF583E4F0A3EDF074962FF5EF
:105B93008274003EF583A3E0FF7D0112678722AC88
:105BA300079000F4E04440F07F2312711EEC600381
:105BB300ED700F907616E4939000D7F09000D6F036
:105BC3008033EC75F06484600790760193FF800264
:105BD3007F009000D7EFF0ED75F00A8475F00A842A
:105BE300E5F0907601939000D6F0ED75F00A84E528
:105BF300F0907601939000D5F09000D7E0FF126A01
:105C030045E0126A419000D6E0FF126A45E0126A4D
:105C1300419000D5E0FF126A45E0126A419000F41A
:105C2300E054BFF0EC6003ED700C9000F0E04480B2
:105C3300F0A3E0F080079000F0E0547FF0026BA93E
:105C4300AB07AA067F0812711E9000F0E07F0030B8
:105C5300E4027F02EF4404FF126A457F1312711EB0
:105C63007F08126A45ED4C701D0F12711EE4FF127E
:105C73006A45126A45126A45126A45126A45126AF2
:105C830045126A45804E74F52BF58274003AF5830C
:105C9300E0FF75F00A84F9EF75F00A84ADF074F64D
:105CA3002BF58274003AF583E0FC7F0B12711EE939
:105CB30090760193FF126A45E993126A41ED93FFCF
:105CC300126A45ED93126A41EC93FF126A45EC9315
:105CD300C4540FFF126A45026BA9E49000CFF0A3EE
:105CE300F0A3F0A3F09000727408F0A37452F0D202
:105CF300B3126E027F15127270126BE9900072E09C
:105D0300FEA3E0FF4E604AC3EF9434EE94084002D2
:105D13008034C3900073E0942C900072E0940140AF
:105D230029900074E07002A3E07008900074F0A35F
:105D3300747CF0D3900075E09404900074E09400B8
:105D43004004E4FF80067F0180027F01125FB08080
:105D5300ABE4FF125FB0900013E0FEA3E0FFC37457
:105D6300289FFF74239EFEE4FD124D8AC2B3229046
:105D730000CCEDF0E4FBFAEF7D3470027D04127386
:105D8300B17F90126B68900125E09000CFF07F0106
:105D9300126B68AF05126B687F80126B681273C059
:105DA3001273B17F90126B68E4FF126B681273C0B9
:105DB3001273B17F91126B68126CDF9000CEEFF01B
:105DC300126CDF9000CDEFF01273C07F647E00127F
:105DD30071ED9000CEE0FF7E009000CDE02408FD41
:105DE300EFA805088005C333CE33CED8F9FBAA0646
:105DF3009000CCE070089000CFE0FF7E0022AE025E
:105E0300AF0322787FE4F6D8FD758121025E4D024F
:105E130031C9E493A3F8E493A34003F68001F208A5
:105E2300DFF48029E493A3F85407240CC8C333C4D4
:105E3300540F4420C8834004F456800146F6DFE43F
:105E4300800B0102040810204080905054E47E012E
:105E53009360BCA3FF543F30E509541FFEE493A3B2
:105E630060010ECF54C025E060A840B8E493A3FAC4
:105E7300E493A3F8E493A3C8C582C8CAC583CAF050
:105E8300A3C8C582C8CAC583CADFE9DEE780BE905E
:105E930000DAEFF0FD9000F0E054BFF054DFF0E0E3
:105EA3004480F0A3E0F0BD030C30E9099000F4E076
:105EB300547FF080079000F4E04480F0E4FF126D1B
:105EC3001B9000DAE0FF1272899000DAE075F005AA
:105ED300A420E90724DEF9747480052415F9747588
:105EE30035F0FA7BFF1251A120030A9000DAE02477
:105EF30005FF1264EF9000DAE02405FF1272709040
:105F0300003CE09000DAB40107E02405441080036C
:105F1300E02405FF127270229000CFEFF0FD900095
:105F2300F0E054BFF054DFF0547FF0BD030C30E9D0
:105F3300099000F4E0547FF080079000F4E044807F
:105F4300F0E4FF126D1B9000CFE0FF127289900006
:105F5300CFE075F005A420E90724DEF97474800509
:105F63002415F9747535F0FA7BFF1251A120030A49
:105F73009000CFE02405FF1264EF9000CFE02405EA
:105F8300FF12727090003CE09000CFB40107E02450
:105F93000544108003E02405FF12727022F0900084
:105FA3003CE0900042F0C2B3A2B3E433FF90003D63
:105FB300E0706DEF6056900018E04410F074FFFF3E
:105FC300FEFDFC90003EE0F8A3E0F9A3E0FAA3E0B5
:105FD300FBC31241CE40149000BBE044A2F0A3E007
:105FE300F090003E1241FE0000000090003EE0FCF5
:105FF300A3E0FDA3E0FEA3E02401FFE43EFEE43DB5
:10600300FDE43CFC90003E1241F28007900018E052
:1060130054EFF0900018E0F580D2A2000000C2A275
:1060230022AB07AA069000F4E04440F07C007D64B4
:10603300AF0312411FAD077F2312711EED6007905E
:10604300760193FF80027F00AE07126A45EE126A63
:10605300417C007D0AAF03AE0212411F7C007D0A22
:1060630012411FED90760193FE9000F4E030E604B8
:10607300EE4410FEAF06126A45EE126A41AE02AF5D
:10608300037C007D0A12411FED90760193FE126A94
:106093003D9000F4E054BFF09000F0E04480F0A3A2
:1060A300E0F0026BA91256139000DAEFF07007A329
:1060B300F012741B805890010FE0FF9000DAE0FEAD
:1060C3006F602274102EF582E43401F583E0FF70D3
:1060D300079000DBEEF0804212740F9000DAE0903C
:1060E3000122F080309000DAE0FF2410F582E434DE
:1060F30001F583E07002801E900122E0B5071612BD
:106103007427EF601012741B9000DAE0A3F0E490A0
:106113000122F08005E49000DBF09000DAE09001CA
:106123000FF09000DBE0FF229000DAEFF09000F038
:10613300E04420F0A3E0F09000F0E054BFF0E4FF6F
:106143001272899000F0E04480F0A3E0F09000F434
:10615300E04480F09000DAE0FFC374049F75F0051B
:10616300A42401F9747535F0FA7BFF1251A1900054
:10617300DAE0FF126D1B20030D9000DAE0FFC37419
:10618300059FFF1264EF90003CE09000DAB4010A2F
:10619300E0FFC374059F44108006E0FFC374059FAE
:1061A300FF127270223090277F011271909000319C
:1061B300E004F090004DE004F0E4900002F0900061
:1061C3003CE0640470547FE87E031271ED804B90D1
:1061D300004DE0FF900031E0D39F4006E490004C77
:1061E3008017900002E004F090004DE0FF90003132
:1061F300E0B5071390004CE004F07F011271AE90FC
:106203000031E014F08013900002E0D3940A400AB6
:106213007F011271AEE4900002F07F327E000271C2
:10622300ED9000D3E0FEA3E0FF90003DE0706CFC36
:106233007D041241749000E0EEF0A3EFF09000DED5
:10624300EEF0A3EFF09000DCEEF0A3EFF09000DAB5
:10625300EEF0FCA3EFF0FDE4FF126CA37F647E007D
:106263001271ED9000DCE0FCA3E0FD7F01126CA352
:106273007F647E001271ED9000DEE0FCA3E0FD7F01
:1062830002126CA37F647E001271ED9000E0E0FCCB
:10629300A3E0FD7F03126CA31272D0229000CFEF14
:1062A300F09000F0E04420F0A3E0F09000F0E05420
:1062B300BFF0E4FF1272899000F0E0547FF0900089
:1062C300F4E04480F09000CFE0FFC374049F75F0C6
:1062D30005A42401F9747535F0FA7BFF1251A190DE
:1062E30000CFE0FF126D1B20030D9000CFE0FFC332
:1062F30074059FFF1264EF90003CE09000CFB4015F
:106303000AE0FFC374059F44108006E0FFC37405D1
:106313009FFF12727022AB05AA04AD077F1312719F
:106323001E7F01126A45ED75F00A8490762C93FE68
:10633300126A3DED75F00A84E5F093FE126A3D7C26
:10634300007D64AF03AE0212411FAD077F231271BC
:106353001EED90760193FE126A3D7C007D0AAF0329
:10636300AE0212411F7C007D0A12411FED934410BF
:10637300FE126A3DAE02AF037C007D0A12411FED9F
:1063830093FE126A3D7F2912711E7F02026A45E461
:10639300FB9000F0E04401F0A3E044F0F090008FA4
:1063A300E0FEA3E0FF7C007D1812411FAD07AC06A1
:1063B300C3ED9449EC940040079000F0E054FEF0E4
:1063C300C3ED9492EC940040079000F1E0547FF009
:1063D300C3ED94DBEC940040079000F1E054BFF070
:1063E300C3ED9424EC940140079000F1E054DFF0F6
:1063F300C3ED946DEC940140099000F1E054EFF08B
:106403007B01AF0322E49000C4125FA0E490004A32
:10641300F09000B6E0603EE4FF1264EF127347E4CD
:10642300FF1272701274579000C4E070281260A8B3
:10643300EF702212723BEF4E60119000C47401F0B2
:106443007F081264EF90003C7405F0125702E4FFDA
:1064530012599080D212723BEF4E600B7F08126488
:10646300EF90003C7405F02007069000937402F04F
:10647300E4900078F090003CF022E4FD7F1212716A
:10648300727D027F131271727D0230E9027D007FFB
:10649300141271727D147F1E1271729000AEE0FDB2
:1064A3007F1F1271729000AFE0FD7F201271729016
:1064B30000B0E0FD7F211271729000B1E0FD7F22F8
:1064C3001271729000B2E0FD7F231271729000B3DB
:1064D300E0FD7F241271729000B4E0FD7F251271FC
:1064E30072A2E9B3E433FD7F26027172EFB40900AF
:1064F300506A9064FCF8282873026517026521022C
:106503006529026530026538026540026547026508
:106513004F026557E4FBFDFF12701AC2DE227BDCDB
:10652300E4FD7F7880337BFFE4FDFF802C7BAA7D35
:106533000A7F0F80247B3C7D08E4FF801CE4FB7D05
:10654300FFFF8015E4FB7DB47FA0800DE4FB7DB4E9
:106553007FFF8005E4FBFD7FFF12701A22AB077FEC
:106563001812711E126A37AF059000CCECF0A3EF3E
:10657300F09000CCE0FEA3E0FF7C037DE812411F16
:10658300AB079000CCE0FEA3E0FF7C037DE8126A3A
:106593002C9000CCE0FEA3E0FF7C007D6412411F41
:1065A3007D64126A209000CCE0FEA3E0FF7C007DB6
:1065B3000A12411F7D0A126A209000CCA3E0907654
:1065C3001893FBFF126A45C4540FFF026A457D45C9
:1065D3007C007F2C126D569000DCEEF0A3EFF07F71
:1065E300807E3E1272AE7D467C007F2C126D56EF8C
:1065F300541F7D00FC9000DCE0FAA3E0FBEA5403A7
:10660300FEE47802CEC313CE13D8F9FFEB543FFB5D
:10661300EF4BFFEC4EFEED4FFF9000DCEEF0A3EFEF
:10662300F07F807E3E1272AE900110E0B40107E469
:106633009000DCF0A3F09000DCE0FEA3E0FF227FFB
:106643001E1270D5900043E4F0A3EFF07F1F127089
:10665300D5900096E4F0A3EFF07F201270D5900060
:1066630098E4F0A3EFF07F211270D590009AE4F044
:10667300A3EFF07F221270D590009CE4F0A3EFF01B
:10668300E4A3F0A3F07F231270D59000A0E4F0A35D
:10669300EFF07F241270D59000A2E4F0A3EFF07F17
:1066A300251270D59000A4E4F0A3EFF0227F051229
:1066B300711EE4FE9000F0E0FCA3E0FD30E2010E69
:1066C300EC30E104EE4402FEAF06126A459000F09E
:1066D300E07F0030E2027F02AE07126A459000F0CD
:1066E300E07F0030E3027F02AE079000F3E030E08A
:1066F30004EE4404FEAF06126A459000F0E0FCA3EA
:10670300E0FDEC7F0030E4027F02AE07ED30E104F0
:10671300EE4408FEAF06026A459000C6EFF0127120
:10672300119000F4E04480F09000F0E0547FF0908A
:1067330000C5E004FFEF14B40800504790674D759F
:10674300F003A4C58325F0C58373026765026769F7
:1067530002676D02677102677602677902677D02DD
:1067630067817F04800A7F0380067F0280027F01A6
:1067730002612B02698F7F0180067F0280027F0303
:10678300125E9222AA077F2312711EED7012FF126E
:106793006A45126A45126A45126A45126A4580487B
:1067A300EAC3940A5011E4F9FBEA75F00A84E5F0B0
:1067B30090760193FC8015E4F9EA75F00A849076EB
:1067C3000193FBEA75F00A84E5F093FCAF01126ACA
:1067D30045E9126A41AF03126A45EB126A41AF04FD
:1067E300126A45ECC4540FFF126A452278CC7C0030
:1067F3007D017BFF7A7479A37E007F041240CEE48F
:106803009000CCF0A37414F0A37422F0A37434F0BA
:10681300900000E0FE700A7F491271119000CC8055
:106823000DEEB401159000CDE0FF127111A3E0FF4E
:10683300127111900000E004F0229000CFE0FF12EB
:106843007111E4900000F0227C007D0312411FC30C
:10685300EF940CEE94005004E4FB8041C3EF940FDB
:10686300EE940050047B018034C3EF9412EE940045
:1068730050047B028027C3EF9416EE940050047BF0
:1068830003801AC3EF9419EE940050047B04800D27
:10689300C3EF941CEE94007B0650027B05AF0322EA
:1068A3009000C4E004FFEF14B4080050449068BEA5
:1068B30075F003A4C58325F0C583730268D6026807
:1068C300DA0268DE0268E20268F40268E70268EB53
:1068D3000268EF7F04800A7F0380067F0280027FC5
:1068E3000102629F7F0180067F0280027F03125FA5
:1068F3001B22C0E0C0F0C083C082C0D075D000C0EE
:1069030000C001C002C003C004C005C006C007C266
:106913008C781106E654077003127044758C0B755E
:106923008ADCD28CD007D006D005D004D003D002A5
:10693300D001D000D0D0D082D083D0F0D0E032903C
:1069430001261242557810EC4D4E4F70047CA57D04
:10695300A5C3EC13FCED13FDEE13FEEF13FF501074
:10696300EC64CCFCED644CFDEE644EFEEF64CEFFB4
:10697300D8DF9001261241F2EE547FFE22900126C9
:10698300EEF0EFA3F0A374A5F0A3F0229000F0E0E3
:106993004440F0A3E0F09000F0E054DFF0E04480E6
:1069A300F0A3E0F09000F4E04480F0E4FF12728979
:1069B300E4FF126D1B7BFF7A7579151251A1200339
:1069C300057F051264EF90003CE0B401047F15805D
:1069D300027F0512727022AE079001257401F0E464
:1069E3007812F6EE30E704D2A58002C2A5D2961241
:1069F30072F5C2961272F5EE25E0FE781206E6C332
:106A0300940840DFD2A5D2961272F530A50AE4901D
:106A13000125F090011004F0C2960272F5AB0790C5
:106A230000CCE0FEA3E0FF7C0012411F9000CCEC01
:106A3300F0A3EDF0EB90761893FBFF126A45C45474
:106A43000FFFD2A08F8000000000C2A0C2B400C21A
:106A5300A600C2A7000000D2A70000D2A600002211
:106A6300AC077F2312711EED7014FF126A45126A80
:106A730045126A45126A457F0E126A45801FEC75FE
:106A8300F00A8490760193FE126A3DEC75F00A8455
:106A9300E5F093FE126A3D7F0E126A45E4FF126A27
:106AA3004522AE079001257401F0E47812F6EE302A
:106AB300E704D2A58002C2A5D2E81272F5C2E81299
:106AC30072F5EE25E0FE781206E6C3940840DFD2A5
:106AD300A5D2E81272F530A505E4900125F0C2E8CD
:106AE3000272F5AE07E47813F6D2A518F6D2961221
:106AF30072F57813E6FF25E0F630A504E64401F6C7
:106B0300C2961272F5781206E6C3940840DFEE24AB
:106B1300FF92A5D2961272F5C296D2A51272F5789B
:106B230013E6FF22AE079001257401F0E47812F614
:106B3300EE30E704D2A58002C2A5D2971272F5C245
:106B4300971272F5EE25E0FE781206E6C39408402C
:106B5300DFD2A5D2971272F530A505E4900125F096
:106B6300C2970272F5AE079001257401F0E4781222
:106B7300F6EE30E704D2EB8002C2EBD2EA1272F5F2
:106B8300C2EA1272F5EE25E0FE781206E6C3940817
:106B930040DFD2EBD2EA1272F530EB05E490012527
:106BA300F0C2EA0272F57F2912711E9000F2E0FF33
:106BB3009000E4F09000F0E0A330E707EF4408A36F
:106BC300F080079000F2E054F7F09000F4E09000BA
:106BD300F230E306E04401F08004E054FEF090005C
:106BE300F2E0FF026A4578D37C007D017BFF7A7473
:106BF30079A77E007F051240CE9000D77460F09095
:106C030000D67472F09000D57481F09000D4749320
:106C1300F09000D374A0F0E4FE9000D31270F70E4E
:106C2300EEB408F522AD079000C0E06036D2B6D2CC
:106C3300B7D2A57FDC7E051272AEC2A51272A1E4A3
:106C4300FBED1392A5D2B71272A1EDC313FD0BEBAB
:106C5300B408EEC2A5D2B71272AAD2A57F607EEAAB
:106C63001272AE22E47813F6D2A518F6D2E81272A5
:106C7300F57813E6FF25E0F630A504E64401F6C2F5
:106C8300E81272F5781206E6C3940840DFD2A5D263
:106C9300E81272F5C2E8D2A51272F57813E6FF2264
:106CA300A907ED4C6014ED25E0FDEC33FCED1D7000
:106CB300011CEC4490FAAB0580047AB0E4FB127338
:106CC300937FC0126B27E925E04440FF126B27AF87
:106CD30002126B27AF03126B270273A2E47813F639
:106CE300D2EB18F6D2EA1272F57813E6FF25E0F636
:106CF30030EB04E64401F6C2EA1272F5781206E6B6
:106D0300C3940840DFD2EBD2EA1272F5C2EAD2EBA7
:106D13001272F57813E6FF22AD077F0212711EEDA2
:106D230090762793FE9000F0E030E604EE4408FEF0
:106D3300AF06126A45EE126A41E4FE9000F4E030B9
:106D4300E5010E9000F0E030E504EE4404FEAF06EA
:106D5300026A45AB07127375EB25E0FF1269DAECA3
:106D6300FF1269DAAF051269DA127384AF03EF25F4
:106D7300E004FF1269DAE4FF126AE6EF7D00FC7FAC
:106D830001126AE6EFFD12746CAE04AF05229000A7
:106D9300D5EFF09000F0E054BFF054DFF09000F432
:106DA300E0547FF0E4FF127289E4FF126D1B7BFF56
:106DB3007A7579291251A19000D5E060047F07808C
:106DC300027F051264EF22D2A6D2A7007F2F127191
:106DD300541271177FF11271547FAC1271547FF00A
:106DE3001271547FA41271547FAF1271547FA61293
:106DF30071547FA11271547FC01271540273477F83
:106E03002312711EE4FF126A45126A45126A451283
:106E13006A45126A45126A459000F0E04440F0A3C7
:106E2300E0F09000F0E054DFF0547FF0E4FF1272E2
:106E330089E4FF026D1B9000C4EFF004FF1270D5CC
:106E43009000C5E4F0A3EFF0E0F8E4F0E89000C5AB
:106E5300F09000C4E0FF1270D59000C6E02FF090D0
:106E630000C5E03400F0E0FEA3E0FF22C0E0C083F1
:106E7300C082C0D0309902C29930981CC298900049
:106E830078E599F09000717401F0900078E0B43ED9
:106E930007E4F09000B704F0D0D0D082D083D0E0E4
:106EA300327F2C7E011271ED900013E0FCA3E0FD14
:106EB3007F179000DAEFF0A3ECF0A3EDF09000DA87
:106EC300E0FF04F01271729000DBE0FD9000DAE065
:106ED300FF027172D2EAD2B7C2B6D297D2E8D29683
:106EE300D2A3D2A41272F51272F51272F51272F5D0
:106EF300C2A5C2EBE4FFFE0FBF00010EE4B507F726
:106F0300EEB401F322E49000D6F090000304F0E421
:106F1300FF90003DE0701DEF9000186006E04440D4
:106F2300F08004E054BFF0900018E0F580D2A20096
:106F33000000C2A222C2A0C2A1C2A2D2B57594FF10
:106F43007591037592387596C775B2FA75B105E4F4
:106F5300F580D2A2000000C2A2C2B5D290A29133A2
:106F6300900039F022E49000C6F03000FDC200909A
:106F730000C6E0044410FF1272709000C6E004FFE4
:106F83001264EF9000C6E004F0E0C364809488408C
:106F9300D922AD077F1312711E7F01126A45ED7569
:106FA300F00A8490762C93FE126A3DED75F00A8404
:106FB300E5F093FEFF126A45C4540FFF026A457B56
:106FC3001F0D7A007F2CAE07127375AF06EF25E015
:106FD300FF1269DAECFF1269DAAF051269DAEAFF28
:106FE3001269DAAF031269DA02746CAD071273B176
:106FF3007F5C126B68900125E0900047F0E4FF127C
:107003006B68AF05126B681273C07F647E001271E8
:10701300ED900047E0FF22EFF4F5FBF5EBEBF4F521
:10702300FCF5ECEDF4F5FDF5EDE4F5D9F5E9F5F94D
:1070330075DB4275DC4275DD42D2DE75D81FD2DEC8
:1070430022E5C530E41F90012CE0242AF582E434C4
:1070530001F583E5C6F090012CE004F0E05401F063
:107063000444C8F5C52290003DE0701DEF90001860
:107073006006E04420F08004E054DFF0900018E064
:10708300F580D2A2000000C2A22290003DE0701D54
:10709300EF9000186006E04480F08004E0547FF035
:1070A300900018E0F580D2A2000000C2A222E4FE04
:1070B300EE90764593D39F40030E80F4AF06EF75B1
:1070C300F005A42419FFE435F0FE7C007D0A12418B
:1070D3000D22AD071273577FA0126AA5AF05126A7E
:1070E300A51273117FA1126AA5126C67AE07127302
:1070F30066AF0622E0FF127111A3E0FF127111A324
:10710300E0FF127111A3E0FF127111A3E0FF8F9949
:107113003099FD227FB0127154E4FFAE07EEC454E0
:107123000F2410FF1271540000EE540FFF1271541C
:107133000000229000C47427F09000C4E0FFC394C1
:1071430051500DE4FD1271729000C4E004F080E927
:1071530022D2A08F8000000000C2A0D2B400C2A639
:1071630000C2A7000000D2A70000D2A6000022ACF4
:10717300071273577FA0126AA5AF04126AA5AF0561
:10718300126AA51273667F647E000271EDD2EAD2A1
:10719300EB0000C2EA00E4FEEEC39F500AC2EB001C
:1071A30000D2EB000E80F1D2EA0022D2EAC2EB0059
:1071B30000C2EA00E4FEEEC39F500AD2EB0000C215
:1071C300EB000E80F1D2EA002243985053C8F043FB
:1071D300C83053C9FC75CDFF75CCD875CBFF75CAC4
:1071E300D8D2ACD2CA227F2C7E01D3EF9400EE9486
:1071F30000400EE4FD0DEDB4FFFBEF1F70EC1E80AD
:10720300E92290003CE0B401139000C1E0FF90003C
:1072130046E02FFF126C28E4900079F022C0E0C012
:1072230083C0829000ACE004F070069000ABE004F1
:10723300F0D082D083D0E03290012BE0FFC39427BB
:1072430050091270B1AA06AB078003E4FAFBAF033F
:10725300AE022290003CE07013900079E0FF9000B2
:1072630046E02FFF126C28E4900079F022E4FEEF51
:1072730030E4010EEF540F907654934ED2A1F58073
:10728300000000C2A122AD07E4FF12711EED90764B
:107293002393FEFF126A45C4540FFF026A457F0F12
:1072A3007E001272AEC2B77F0F7E00EF1FAC067076
:1072B300011E4C70F622C28E758911758D0B758B6C
:1072C300DCE47811F6127476D2ABD28E22E490000D
:1072D30031F090004DF090004CF01273257FE87E62
:1072E300030271EDED25E0FDEC33FCC2961272F55D
:1072F300D296E4FF0FEFB412FB22C28C758911758D
:107303008C0B758ADCE47810F6D2A9D28C22D2A534
:107313001272F5D2E81272F5C2A51272F5C2E80232
:1073230072F5E49000BFF0FF126FEEEF70057F403F
:107333001271AE22127117E4FE7FFF126A450EEE40
:10734300B42AF622127117E4FEE4FF126A450EEE28
:10735300B42AF622D2A51272F5C2A51272F5C2E8BA
:107363000272F5C2A51272F5D2E81272F5D2A50225
:1073730072F5D2A51272F5C2A51272F5C296027207
:10738300F5D2A51272F0C2A51272F5C2960272F579
:10739300D2A51272F5C2A51272F5C2970272F5C296
:1073A300A51272F5D2971272F5D2A50272F5D2EB3D
:1073B3001272F5C2EB1272F5C2EA0272F5C2EB1257
:1073C30072F5D2EA1272F5D2EB0272F5900049E03F
:1073D30030E0047F0180027F0022900049E030E327
:1073E300047F0180027F00227808A607900049E00D
:1073F3004401F022900049E054FEF0E47808F622BC
:107403007808E670047F0180027F00227809A607CE
:10741300900049E04402F022900049E054FDF0E47A
:107423007809F6227809E670047F0180027F002242
:10743300780BA607900049E04408F022900049E049
:1074430054F7F0E4780BF622780BE670047F0180A2
:10745300027F00227F10900111E4F0A3DFFC227F62
:107463002212711EE4FF026A45C2A51272F0D2A570
:107473000272F590012CE00444C8F5C522D2B2C2D1
:1074830089D288D2A822120C100112120E130612EE
:10749300120C020E121201070A12120F0A0A1271BB
:1074A30000000000000000000000000000000000D9
:1074B30000000000000000000000000000000000C9
:1074C3000000000000000011100100081110120953
:1074D30005111012090011101208001110120700F3
:1074E3001110120505111012030511101202050CDB
:1074F300140E0A131212121212111416051211107D
:1075030001000811101209051110120900111012BF
:1075130008001110120700111012050511101203B3
:107523000511101202050C140E0A13121212121274
:107533001114160512000A0014001E002800320060
:107543003C0403020111060705020B2D3600070850
:1075530006400032000A0000025804B0138806A453
:10756300080209600A8C0BEA0D480E740320047E9E
:1075730005DC0708086609C40AF00000015E02BCC6
:1075830003E8055A06A407D0000000C8019002587A
:1075930003B60514064000000000000000000000D0
:1075A300000000000320047E05DC0708086609C408
:1075B3000AF005DC073A089809C40B220C800DACCD
:1075C30007D0092E0A8C0BB80D160E740FA0006499
:1075D3000064006400640001006400640064FEC091
:1075E300FF1AFF38FF6A012C023A026C02BC3232E6
:1075F3003232323232320101010100000000AFA009
:107603006DE9E2CBCFA1EFEBE7EF0FAF4F47E667B3
:1076130000A70E40AEAFA0CBE9E46D6FA8EFED007D
:107623000085BE9F0005B697475F506B79743D3F59
:10763300587F7D8074695E544B433B352F29252148
:107643001D1A807265594E443B342D27221D19168D
:0B76530013000A1222420C1424447C95
:00000001FF
