LX51 LINKER/LOCATER V4.66.1.0                                                           04/24/2019  16:34:17  PAGE 1


LX51 LINKER/LOCATER V4.66.1.0, INVOKED BY:
C:\KEIL_4\C51\BIN\LX51.EXE main.obj, LCM.obj, LED.obj, I2C.obj, MCP4011.obj, Counter.obj, AD.obj TO PL905


CPU MODE:     8051 MODE
MEMORY MODEL: LARGE WITH FLOATING POINT ARITHMETIC


INPUT MODULES INCLUDED:
  main.obj (MAIN)
         COMMENT TYPE 0: C51 V9.52.0.0
  LCM.obj (LCM)
         COMMENT TYPE 0: C51 V9.52.0.0
  LED.obj (LED)
         COMMENT TYPE 0: C51 V9.52.0.0
  I2C.obj (I2C)
         COMMENT TYPE 0: C51 V9.52.0.0
  MCP4011.obj (MCP4011)
         COMMENT TYPE 0: C51 V9.52.0.0
  Counter.obj (COUNTER)
         COMMENT TYPE 0: C51 V9.52.0.0
  AD.obj (AD)
         COMMENT TYPE 0: C51 V9.52.0.0
  C:\KEIL_4\C51\LIB\C51FPL.LIB (?C?FPMUL)
         COMMENT TYPE 1: A51 / ASM51 Assembler
  C:\KEIL_4\C51\LIB\C51FPL.LIB (?C?FPCMP)
         COMMENT TYPE 1: A51 / ASM51 Assembler
  C:\KEIL_4\C51\LIB\C51FPL.LIB (?C?FCAST)
         COMMENT TYPE 1: A51 / ASM51 Assembler
  C:\KEIL_4\C51\LIB\C51FPL.LIB (?C?FPGETOPN)
         COMMENT TYPE 1: A51 / ASM51 Assembler
  C:\KEIL_4\C51\LIB\C51L.LIB (?C_STARTUP)
         COMMENT TYPE 1: A51 / ASM51 Assembler
  C:\KEIL_4\C51\LIB\C51L.LIB (?C?COPY)
         COMMENT TYPE 1: A51 / ASM51 Assembler
  C:\KEIL_4\C51\LIB\C51L.LIB (?C?CLDPTR)
         COMMENT TYPE 1: A51 / ASM51 Assembler
  C:\KEIL_4\C51\LIB\C51L.LIB (?C?IMUL)
         COMMENT TYPE 1: A51 / ASM51 Assembler
  C:\KEIL_4\C51\LIB\C51L.LIB (?C?UIDIV)
         COMMENT TYPE 1: A51 / ASM51 Assembler
  C:\KEIL_4\C51\LIB\C51L.LIB (?C?SIDIV)
         COMMENT TYPE 1: A51 / ASM51 Assembler
  C:\KEIL_4\C51\LIB\C51L.LIB (?C?ILDIX)
         COMMENT TYPE 1: A51 / ASM51 Assembler
  C:\KEIL_4\C51\LIB\C51L.LIB (?C?LNEG)
         COMMENT TYPE 1: A51 / ASM51 Assembler
  C:\KEIL_4\C51\LIB\C51L.LIB (?C?ULCMP)
         COMMENT TYPE 1: A51 / ASM51 Assembler
  C:\KEIL_4\C51\LIB\C51L.LIB (?C?ULSHR)
         COMMENT TYPE 1: A51 / ASM51 Assembler
  C:\KEIL_4\C51\LIB\C51L.LIB (?C?LSTXDATA)
         COMMENT TYPE 1: A51 / ASM51 Assembler
  C:\KEIL_4\C51\LIB\C51L.LIB (?C?LSTKXDATA)
         COMMENT TYPE 1: A51 / ASM51 Assembler
  C:\KEIL_4\C51\LIB\C51L.LIB (?C?CCASE)
         COMMENT TYPE 1: A51 / ASM51 Assembler
  C:\KEIL_4\C51\LIB\C51L.LIB (RAND)
         COMMENT TYPE 1: A51 / ASM51 Assembler
  C:\KEIL_4\C51\LIB\C51L.LIB (?C_INIT)
         COMMENT TYPE 1: A51 / ASM51 Assembler
  C:\KEIL_4\C51\LIB\C51L.LIB (?C?LLDXDATA)
         COMMENT TYPE 1: A51 / ASM51 Assembler


ACTIVE MEMORY CLASSES OF MODULE:  PL905 (MAIN)
LX51 LINKER/LOCATER V4.66.1.0                                                         04/24/2019  16:34:17  PAGE 2



BASE        START       END         USED      MEMORY CLASS
==========================================================
C:000000H   C:000000H   C:00FFFFH   007483H   CODE
X:000000H   X:000000H   X:00FFFFH   00012DH   XDATA
I:000020H.0 I:000020H.0 I:00002FH.7 000001H.1 BIT
C:000000H   C:000000H   C:00FFFFH   0001D5H   CONST
I:000000H   I:000000H   I:0000FFH   00000DH   IDATA
I:000000H   I:000000H   I:00007FH   000008H   DATA


MEMORY MAP OF MODULE:  PL905 (MAIN)


START     STOP      LENGTH    ALIGN  RELOC    MEMORY CLASS   SEGMENT NAME
=========================================================================

* * * * * * * * * * *   D A T A   M E M O R Y   * * * * * * * * * * * * *
000000H   000007H   000008H   ---    AT..     DATA           "REG BANK 0"
000008H   000011H   00000AH   BYTE   UNIT     IDATA          ?ID?MAIN
000012H   000013H   000002H   BYTE   UNIT     IDATA          _IDATA_GROUP_
000014H.0 00001FH.7 00000CH.0 ---    ---      **GAP**
000020H.0 000020H.7 000001H.0 BIT    UNIT     BIT            ?BI?MAIN
000021H.0 000021H.0 000000H.1 BIT    UNIT     BIT            _BIT_GROUP_
000021H.1 000021H   000000H.7 ---    ---      **GAP**
000022H   000022H   000001H   BYTE   UNIT     IDATA          ?STACK

* * * * * * * * * * *   C O D E   M E M O R Y   * * * * * * * * * * * * *
000000H   000002H   000003H   ---    OFFS..   CODE           ?CO??C_STARTUP?0
000003H   000005H   000003H   BYTE   OFFS..   CODE           ?MAIN?00003
000006H   00000AH   000005H   BYTE   UNIT     CODE           ?PR?LED_INIT?LED
00000BH   00000DH   000003H   BYTE   OFFS..   CODE           ?MAIN?0000B
00000EH   000019H   00000CH   BYTE   UNIT     CODE           ?PR?ADS1110_MASTER_ACK?I2C
00001AH   00001AH   000001H   ---    ---      **GAP**
00001BH   00001DH   000003H   BYTE   OFFS..   CODE           ?MAIN?0001B
00001EH   000022H   000005H   ---    ---      **GAP**
000023H   000025H   000003H   BYTE   OFFS..   CODE           ?MAIN?00023
000026H   001881H   00185CH   BYTE   UNIT     CODE           ?PR?DO_STANDBY?MAIN
001882H   0028C2H   001041H   BYTE   UNIT     CODE           ?PR?DO_ELECTROLYZE?MAIN
0028C3H   0031C8H   000906H   BYTE   UNIT     CODE           ?PR?DO_SETUP?MAIN
0031C9H   0037E0H   000618H   BYTE   UNIT     CODE           ?PR?MAIN?MAIN
0037E1H   003DF6H   000616H   BYTE   UNIT     CODE           ?PR?_DO_CLEAN?MAIN
003DF7H   004260H   00046AH   BYTE   UNIT     CODE           ?C?LIB_CODE
004261H   004595H   000335H   BYTE   UNIT     CODE           ?PR?_SENDHIDEINFO?MAIN
004596H   0047E2H   00024DH   BYTE   UNIT     CODE           ?PR?_SENDMODE?MAIN
0047E3H   004A03H   000221H   BYTE   UNIT     CODE           ?PR?LDS6128_INIT?I2C
004A04H   004BD2H   0001CFH   BYTE   UNIT     CODE           ?PR?EEPROM_WRITE_HIDE_INFO?MAIN
004BD3H   004D89H   0001B7H   BYTE   UNIT     CODE           ?PR?_DISP_FLOWGRAPH?MAIN
004D8AH   004F03H   00017AH   BYTE   UNIT     CODE           ?PR?_LCM_DISP_KL?LCM
004F04H   005053H   000150H   BYTE   UNIT     CODE           ?PR?_LCM_DISP_PJ6000_COUNTDOWN?LCM
005054H   0051A0H   00014DH   BYTE   UNIT     CODE           ?C_INITSEG
0051A1H   0052E0H   000140H   BYTE   UNIT     CODE           ?PR?_LCM_DISP_PH_AND_R?LCM
0052E1H   0053FCH   00011CH   BYTE   UNIT     CODE           ?PR?_LCM_DISP_ORP?LCM
0053FDH   005510H   000114H   BYTE   UNIT     CODE           ?PR?DO_RESET?MAIN
005511H   005612H   000102H   BYTE   UNIT     CODE           ?PR?TIME1?MAIN
005613H   005701H   0000EFH   BYTE   UNIT     CODE           ?PR?KEYSCAN?I2C
005702H   0057F0H   0000EFH   BYTE   UNIT     CODE           ?PR?START_HOUR_COUNT?COUNTER
0057F1H   0058C2H   0000D2H   BYTE   UNIT     CODE           ?PR?_ADS1110_READ_VOLTAGE?I2C
0058C3H   00598FH   0000CDH   BYTE   UNIT     CODE           ?PR?DO_WARNING?MAIN
005990H   005A56H   0000C7H   BYTE   UNIT     CODE           ?PR?_ADS1115_CHECK?MAIN
005A57H   005AFFH   0000A9H   BYTE   UNIT     CODE           ?PR?DO_START_UP?MAIN
005B00H   005BA1H   0000A2H   BYTE   UNIT     CODE           ?PR?_EEPROM_ELECTROLYSIS_WRITEDEFAULT?MAIN
005BA2H   005C42H   0000A1H   BYTE   UNIT     CODE           ?PR?_LCM_NON_DISP_WATERFLOW_COUNT_DOWN?LCM
005C43H   005CDCH   00009AH   BYTE   UNIT     CODE           ?PR?_LCM_DISP_TDS?LCM
005CDDH   005D71H   000095H   BYTE   UNIT     CODE           ?PR?CLEAN_W_PJ6000?MAIN
LX51 LINKER/LOCATER V4.66.1.0                                                         04/24/2019  16:34:17  PAGE 3


005D72H   005E05H   000094H   BYTE   UNIT     CODE           ?PR?_ADS1115_READ?I2C
005E06H   005E91H   00008CH   BYTE   UNIT     CODE           ?C_C51STARTUP
005E92H   005F1AH   000089H   BYTE   UNIT     CODE           ?PR?_DISP_ACID?MAIN
005F1BH   005F9FH   000085H   BYTE   UNIT     CODE           ?PR?_DISP_ACID_WITHOUTLMIN?MAIN
005FA0H   006023H   000084H   BYTE   UNIT     CODE           ?PR?_WATER_IN?MAIN
006024H   0060A7H   000084H   BYTE   UNIT     CODE           ?PR?_LCM_DISP_WATERFLOW?LCM
0060A8H   00612AH   000083H   BYTE   UNIT     CODE           ?PR?GET_KEY?I2C
00612BH   0061A7H   00007DH   BYTE   UNIT     CODE           ?PR?_DISP_ALAK?MAIN
0061A8H   006223H   00007CH   BYTE   UNIT     CODE           ?PR?VOLT_CTRL?MAIN
006224H   00629EH   00007BH   BYTE   UNIT     CODE           ?PR?_SETCURRENT?MAIN
00629FH   006318H   00007AH   BYTE   UNIT     CODE           ?PR?_DISP_ALAK_WITHOUTLMIN?MAIN
006319H   006391H   000079H   BYTE   UNIT     CODE           ?PR?_LCM_DISP_ERROR?LCM
006392H   006407H   000076H   BYTE   UNIT     CODE           ?PR?FILTER_TIME_IS_UP?MAIN
006408H   00647CH   000075H   BYTE   UNIT     CODE           ?PR?DO_SLEEP?MAIN
00647DH   0064EEH   000072H   BYTE   UNIT     CODE           ?PR?EEPROM_WRITEDEFAULT?MAIN
0064EFH   00655FH   000071H   BYTE   UNIT     CODE           ?PR?_LCM_BACKLIGHT?LCM
006560H   0065D0H   000071H   BYTE   UNIT     CODE           ?PR?_LCM_DISP_VERSION?LCM
0065D1H   006641H   000071H   BYTE   UNIT     CODE           ?PR?LDS6128_KEY_STATUS?I2C
006642H   0066AFH   00006EH   BYTE   UNIT     CODE           ?PR?EEPROM_ELECTROLYSIS_READ?MAIN
0066B0H   00671BH   00006CH   BYTE   UNIT     CODE           ?PR?LCM_DISP_VOL_K2K3?LCM
00671CH   006786H   00006BH   BYTE   UNIT     CODE           ?PR?_DISP_ELECTROLYSIS_TYPE?MAIN
006787H   0067EEH   000068H   BYTE   UNIT     CODE           ?PR?_LCM_DISP_I_ADD?LCM
0067EFH   00684AH   00005CH   BYTE   UNIT     CODE           ?PR?SENDVERSION?MAIN
00684BH   0068A2H   000058H   BYTE   UNIT     CODE           ?PR?_CURRENTSEG?MAIN
0068A3H   0068F4H   000052H   BYTE   UNIT     CODE           ?PR?_DISP_ELECTROLYSIS_TYPE_WITHOUTLMIN?MAIN
0068F5H   006941H   00004DH   BYTE   UNIT     CODE           ?PR?TIME0?MAIN
006942H   00698EH   00004DH   BYTE   UNIT     CODE           ?PR?RAND?RAND
00698FH   0069D9H   00004BH   BYTE   UNIT     CODE           ?PR?DISP_FILTER?MAIN
0069DAH   006A1FH   000046H   BYTE   UNIT     CODE           ?PR?_I2C_WRITE_BYTE1?I2C
006A20H   006A62H   000043H   BYTE   UNIT     CODE           ?PR?_LCM_DATA_WRITE?LCM
006A63H   006AA4H   000042H   BYTE   UNIT     CODE           ?PR?_LCM_DISP_WASHLITER?LCM
006AA5H   006AE5H   000041H   BYTE   UNIT     CODE           ?PR?_I2C_WRITE_BYTE0?I2C
006AE6H   006B26H   000041H   BYTE   UNIT     CODE           ?PR?_I2C_READ_BYTE1?I2C
006B27H   006B67H   000041H   BYTE   UNIT     CODE           ?PR?_I2C_WRITE_BYTE2?I2C
006B68H   006BA8H   000041H   BYTE   UNIT     CODE           ?PR?_I2C_WRITE_BYTE3?I2C
006BA9H   006BE8H   000040H   BYTE   UNIT     CODE           ?PR?LCM_DISP_S41?LCM
006BE9H   006C27H   00003FH   BYTE   UNIT     CODE           ?PR?SENDPJ_6000_TIME?MAIN
006C28H   006C66H   00003FH   BYTE   UNIT     CODE           ?PR?_PLAYSOUND?I2C
006C67H   006CA2H   00003CH   BYTE   UNIT     CODE           ?PR?I2C_READ_BYTE0?I2C
006CA3H   006CDEH   00003CH   BYTE   UNIT     CODE           ?PR?_DAC_WRITE?I2C
006CDFH   006D1AH   00003CH   BYTE   UNIT     CODE           ?PR?I2C_READ_BYTE3?I2C
006D1BH   006D55H   00003BH   BYTE   UNIT     CODE           ?PR?_LCM_DISP_ALKA?LCM
006D56H   006D90H   00003BH   BYTE   UNIT     CODE           ?PR?_TOUCH_READ_WORD?I2C
006D91H   006DC9H   000039H   BYTE   UNIT     CODE           ?PR?_DISP_CLEAN?MAIN
006DCAH   006E01H   000038H   BYTE   UNIT     CODE           ?PR?LCM_INIT?LCM
006E02H   006E38H   000037H   BYTE   UNIT     CODE           ?PR?LCM_DISP_PJ6000?LCM
006E39H   006E6EH   000036H   BYTE   UNIT     CODE           ?PR?_EEPROM_READ_WORD?MAIN
006E6FH   006EA3H   000035H   BYTE   UNIT     CODE           ?PR?SERIAL?MAIN
006EA4H   006ED6H   000033H   BYTE   UNIT     CODE           ?PR?_EEPROM_WRITE_WORD?MAIN
006ED7H   006F07H   000031H   BYTE   UNIT     CODE           ?PR?I2C_INIT?I2C
006F08H   006F37H   000030H   BYTE   UNIT     CODE           ?PR?_ACID_POLAR?MAIN
006F38H   006F67H   000030H   BYTE   UNIT     CODE           ?PR?PORT_INIT?MAIN
006F68H   006F94H   00002DH   BYTE   UNIT     CODE           ?PR?DISP_TEST?MAIN
006F95H   006FC1H   00002DH   BYTE   UNIT     CODE           ?PR?_LCM_DISP_ERROR_CODE?LCM
006FC2H   006FEDH   00002CH   BYTE   UNIT     CODE           ?PR?_TOUCH_WRITE_WORD?I2C
006FEEH   007019H   00002CH   BYTE   UNIT     CODE           ?PR?_TPL0401A_SET_R?I2C
00701AH   007043H   00002AH   BYTE   UNIT     CODE           ?PR?_RGB?LCM
007044H   007068H   000025H   BYTE   UNIT     CODE           ?PR?GET_ADC_VALUE?AD
007069H   00708CH   000024H   BYTE   UNIT     CODE           ?PR?_BUZZER?MAIN
00708DH   0070B0H   000024H   BYTE   UNIT     CODE           ?PR?_U8_SWITCH_SHORT?MAIN
0070B1H   0070D4H   000024H   BYTE   UNIT     CODE           ?PR?_GET_TMP1?AD
0070D5H   0070F6H   000022H   BYTE   UNIT     CODE           ?PR?_EEPROM_READ_BYTE?I2C
0070F7H   007116H   000020H   BYTE   UNIT     CODE           ?PR?_SENDCHAR?MAIN
007117H   007135H   00001FH   BYTE   UNIT     CODE           ?PR?_LCM_COLUMNADDRESS?LCM
007136H   007153H   00001EH   BYTE   UNIT     CODE           ?PR?EEPROM_WRITEHIDEDATA?MAIN
LX51 LINKER/LOCATER V4.66.1.0                                                         04/24/2019  16:34:17  PAGE 4


007154H   007171H   00001EH   BYTE   UNIT     CODE           ?PR?_LCM_CMD_WRITE?LCM
007172H   00718FH   00001EH   BYTE   UNIT     CODE           ?PR?_EEPROM_WRITE_BYTE?I2C
007190H   0071ADH   00001EH   BYTE   UNIT     CODE           ?PR?_INCREMENT_R?MCP4011
0071AEH   0071CBH   00001EH   BYTE   UNIT     CODE           ?PR?_DECREMENT_R?MCP4011
0071CCH   0071E8H   00001DH   BYTE   UNIT     CODE           ?PR?UART_INIT?MAIN
0071E9H   007204H   00001CH   BYTE   UNIT     CODE           ?PR?_DELAY?MAIN
007205H   00721FH   00001BH   BYTE   UNIT     CODE           ?PR?VOICE_PVOICE?MAIN
007220H   00723AH   00001BH   BYTE   UNIT     CODE           ?PR?EX_INT0?MAIN
00723BH   007255H   00001BH   BYTE   UNIT     CODE           ?PR?POWEROVERHOT_WARNING?AD
007256H   00726FH   00001AH   BYTE   UNIT     CODE           ?PR?VOICE_12_13?MAIN
007270H   007288H   000019H   BYTE   UNIT     CODE           ?PR?_LED_DISP?LED
007289H   0072A0H   000018H   BYTE   UNIT     CODE           ?PR?_LCM_DISP_ACID?LCM
0072A1H   0072B8H   000018H   BYTE   UNIT     CODE           ?PR?_S_DELAY?I2C
0072B9H   0072CFH   000017H   BYTE   UNIT     CODE           ?PR?T1_INIT?MAIN
0072D0H   0072E6H   000017H   BYTE   UNIT     CODE           ?PR?INIT_VOLT_DETECT?MAIN
0072E7H   0072FCH   000016H   BYTE   UNIT     CODE           ?PR?_I2CBITDLY?I2C
0072FDH   007310H   000014H   BYTE   UNIT     CODE           ?PR?T0_INIT?MAIN
007311H   007324H   000014H   BYTE   UNIT     CODE           ?PR?I2C_RESTART0?I2C
007325H   007336H   000012H   BYTE   UNIT     CODE           ?PR?SET_U7_10K?MAIN
007337H   007346H   000010H   BYTE   UNIT     CODE           ?PR?LCM_FILL?LCM
007347H   007356H   000010H   BYTE   UNIT     CODE           ?PR?LCM_CLS?LCM
007357H   007365H   00000FH   BYTE   UNIT     CODE           ?PR?I2C_START0?I2C
007366H   007374H   00000FH   BYTE   UNIT     CODE           ?PR?I2C_STOP0?I2C
007375H   007383H   00000FH   BYTE   UNIT     CODE           ?PR?I2C_START1?I2C
007384H   007392H   00000FH   BYTE   UNIT     CODE           ?PR?I2C_RESTART1?I2C
007393H   0073A1H   00000FH   BYTE   UNIT     CODE           ?PR?I2C_START2?I2C
0073A2H   0073B0H   00000FH   BYTE   UNIT     CODE           ?PR?I2C_STOP2?I2C
0073B1H   0073BFH   00000FH   BYTE   UNIT     CODE           ?PR?I2C_START3?I2C
0073C0H   0073CEH   00000FH   BYTE   UNIT     CODE           ?PR?I2C_STOP3?I2C
0073CFH   0073DCH   00000EH   BYTE   UNIT     CODE           ?PR?CHECK_SLEEPCOUNTER_START?COUNTER
0073DDH   0073EAH   00000EH   BYTE   UNIT     CODE           ?PR?CHECK_WATERLACKCOUNTER_START?COUNTER
0073EBH   0073F6H   00000CH   BYTE   UNIT     CODE           ?PR?_START_SLEEPCOUNTER?COUNTER
0073F7H   007402H   00000CH   BYTE   UNIT     CODE           ?PR?STOP_SLEEPCOUNTER?COUNTER
007403H   00740EH   00000CH   BYTE   UNIT     CODE           ?PR?IS_SLEEPCOUNTER_COUNTDOWN_FINISH?COUNTER
00740FH   00741AH   00000CH   BYTE   UNIT     CODE           ?PR?_START_KEYHOLDCOUNTER?COUNTER
00741BH   007426H   00000CH   BYTE   UNIT     CODE           ?PR?STOP_KEYHOLDCOUNTER?COUNTER
007427H   007432H   00000CH   BYTE   UNIT     CODE           ?PR?IS_KEYHOLDCOUNTER_COUNTDOWN_FINISH?COUNTER
007433H   00743EH   00000CH   BYTE   UNIT     CODE           ?PR?_START_WATERLACKCOUNTER?COUNTER
00743FH   00744AH   00000CH   BYTE   UNIT     CODE           ?PR?STOP_WATERLACKCOUNTER?COUNTER
00744BH   007456H   00000CH   BYTE   UNIT     CODE           ?PR?IS_WATERLACKCOUNTER_COUNTDOWN_FINISH?COUNTER
007457H   007461H   00000BH   BYTE   UNIT     CODE           ?PR?CLEAR_KEY_DELAY?I2C
007462H   00746BH   00000AH   BYTE   UNIT     CODE           ?PR?LCM_CLRL?LCM
00746CH   007475H   00000AH   BYTE   UNIT     CODE           ?PR?I2C_STOP1?I2C
007476H   00747FH   00000AH   BYTE   UNIT     CODE           ?PR?INIT_ADC?AD
007480H   007488H   000009H   BYTE   UNIT     CODE           ?PR?INT0_INIT?MAIN
007489H   007600H   000178H   BYTE   UNIT     CONST          ?CO?MAIN
007601H   007635H   000035H   BYTE   UNIT     CONST          ?CO?LCM
007636H   007653H   00001EH   BYTE   UNIT     CONST          ?CO?AD
007654H   00765DH   00000AH   BYTE   UNIT     CONST          ?CO?LED

* * * * * * * * * * *  X D A T A   M E M O R Y  * * * * * * * * * * * * *
000000H   0000C1H   0000C2H   BYTE   UNIT     XDATA          ?XD?MAIN
0000C2H   0000EEH   00002DH   BYTE   UNIT     XDATA          _XDATA_GROUP_
0000EFH   00010EH   000020H   BYTE   UNIT     XDATA          ?XD?LCM
00010FH   000125H   000017H   BYTE   UNIT     XDATA          ?XD?I2C
000126H   000129H   000004H   BYTE   UNIT     XDATA          ?XD?RAND?RAND
00012AH   00012CH   000003H   BYTE   UNIT     XDATA          ?XD?AD



OVERLAY MAP OF MODULE:   PL905 (MAIN)


FUNCTION/MODULE                                BIT_GROUP   IDATA_GROUP  XDATA_GROUP
--> CALLED FUNCTION/MODULE                    START  STOP  START  STOP  START  STOP
LX51 LINKER/LOCATER V4.66.1.0                                                         04/24/2019  16:34:17  PAGE 5


===================================================================================
SERIAL/MAIN                                   ----- -----  ----- -----  ----- -----

*** NEW ROOT ********************************

EX_INT0/MAIN                                  ----- -----  ----- -----  ----- -----

*** NEW ROOT ********************************

TIME0/MAIN                                    ----- -----  ----- -----  ----- -----
  +--> GET_ADC_VALUE/AD

GET_ADC_VALUE/AD                              ----- -----  ----- -----  ----- -----

*** NEW ROOT ********************************

TIME1/MAIN                                    ----- -----  ----- -----  ----- -----
  +--> VOICE_12_13/MAIN
  +--> VOICE_PVOICE/MAIN
  +--> _SENDCHAR/MAIN
  +--> _LCM_DISP_PJ6000_COUNTDOWN/LCM

VOICE_12_13/MAIN                              ----- -----  ----- -----  ----- -----
  +--> _PLAYSOUND/I2C

_PLAYSOUND/I2C                                ----- -----  ----- -----  ----- -----
  +--> _S_DELAY/I2C

_S_DELAY/I2C                                  ----- -----  ----- -----  ----- -----

VOICE_PVOICE/MAIN                             ----- -----  ----- -----  ----- -----
  +--> _PLAYSOUND/I2C

_SENDCHAR/MAIN                                ----- -----  ----- -----  ----- -----

_LCM_DISP_PJ6000_COUNTDOWN/LCM                ----- -----  ----- -----  00C2H 00C3H
  +--> ?CO?LCM
  +--> _LCM_COLUMNADDRESS/LCM
  +--> _LCM_DATA_WRITE/LCM

?CO?LCM                                       ----- -----  ----- -----  ----- -----

_LCM_COLUMNADDRESS/LCM                        ----- -----  ----- -----  ----- -----
  +--> _LCM_CMD_WRITE/LCM

_LCM_CMD_WRITE/LCM                            ----- -----  ----- -----  ----- -----

_LCM_DATA_WRITE/LCM                           ----- -----  ----- -----  ----- -----
  +--> ?CO?LCM

*** NEW ROOT ********************************

?C_C51STARTUP                                 ----- -----  ----- -----  ----- -----
  +--> MAIN/MAIN
  +--> ?C_INITSEG

MAIN/MAIN                                     ----- -----  ----- -----  ----- -----
  +--> PORT_INIT/MAIN
  +--> I2C_INIT/I2C
  +--> LED_INIT/LED
  +--> LCM_INIT/LCM
  +--> T0_INIT/MAIN
  +--> T1_INIT/MAIN
  +--> INT0_INIT/MAIN
  +--> UART_INIT/MAIN
LX51 LINKER/LOCATER V4.66.1.0                                                         04/24/2019  16:34:17  PAGE 6


  +--> _LCM_BACKLIGHT/LCM
  +--> LCM_FILL/LCM
  +--> _SETCURRENT/MAIN
  +--> _BUZZER/MAIN
  +--> LDS6128_INIT/I2C
  +--> _DELAY/MAIN
  +--> _EEPROM_READ_BYTE/I2C
  +--> _EEPROM_WRITE_BYTE/I2C
  +--> _LCM_DISP_VERSION/LCM
  +--> LCM_CLRL/LCM
  +--> EEPROM_WRITEDEFAULT/MAIN
  +--> EEPROM_WRITEHIDEDATA/MAIN
  +--> _EEPROM_WRITE_WORD/MAIN
  +--> _SENDCHAR/MAIN
  +--> ?CO?MAIN
  +--> _EEPROM_READ_WORD/MAIN
  +--> _PLAYSOUND/I2C
  +--> DISP_TEST/MAIN
  +--> LCM_CLS/LCM
  +--> _ADS1110_READ_VOLTAGE/I2C
  +--> LCM_DISP_VOL_K2K3/LCM
  +--> FILTER_TIME_IS_UP/MAIN
  +--> _LCM_DISP_KL/LCM
  +--> INIT_ADC/AD
  +--> SET_U7_10K/MAIN
  +--> _SENDMODE/MAIN
  +--> DO_START_UP/MAIN
  +--> DO_STANDBY/MAIN
  +--> DO_ELECTROLYZE/MAIN
  +--> DO_SLEEP/MAIN
  +--> _DO_CLEAN/MAIN
  +--> DO_WARNING/MAIN
  +--> DO_RESET/MAIN
  +--> DO_SETUP/MAIN

PORT_INIT/MAIN                                ----- -----  ----- -----  ----- -----

I2C_INIT/I2C                                  ----- -----  ----- -----  ----- -----
  +--> _I2CBITDLY/I2C

_I2CBITDLY/I2C                                ----- -----  ----- -----  ----- -----

LED_INIT/LED                                  ----- -----  ----- -----  ----- -----
  +--> _LED_DISP/LED

_LED_DISP/LED                                 ----- -----  ----- -----  ----- -----
  +--> ?CO?LED

?CO?LED                                       ----- -----  ----- -----  ----- -----

LCM_INIT/LCM                                  ----- -----  ----- -----  ----- -----
  +--> _LCM_CMD_WRITE/LCM
  +--> _LCM_COLUMNADDRESS/LCM
  +--> LCM_CLS/LCM

LCM_CLS/LCM                                   ----- -----  ----- -----  ----- -----
  +--> _LCM_COLUMNADDRESS/LCM
  +--> _LCM_DATA_WRITE/LCM

T0_INIT/MAIN                                  ----- -----  ----- -----  ----- -----

T1_INIT/MAIN                                  ----- -----  ----- -----  ----- -----
  +--> INIT_ADC/AD

INIT_ADC/AD                                   ----- -----  ----- -----  ----- -----
LX51 LINKER/LOCATER V4.66.1.0                                                         04/24/2019  16:34:17  PAGE 7



INT0_INIT/MAIN                                ----- -----  ----- -----  ----- -----

UART_INIT/MAIN                                ----- -----  ----- -----  ----- -----

_LCM_BACKLIGHT/LCM                            ----- -----  ----- -----  ----- -----
  +--> _RGB/LCM

_RGB/LCM                                      ----- -----  ----- -----  ----- -----

LCM_FILL/LCM                                  ----- -----  ----- -----  ----- -----
  +--> _LCM_COLUMNADDRESS/LCM
  +--> _LCM_DATA_WRITE/LCM

_SETCURRENT/MAIN                              ----- -----  ----- -----  00DAH 00E1H
  +--> _DAC_WRITE/I2C
  +--> _DELAY/MAIN
  +--> INIT_VOLT_DETECT/MAIN

_DAC_WRITE/I2C                                ----- -----  ----- -----  ----- -----
  +--> I2C_START2/I2C
  +--> _I2C_WRITE_BYTE2/I2C
  +--> I2C_STOP2/I2C

I2C_START2/I2C                                ----- -----  ----- -----  ----- -----
  +--> _I2CBITDLY/I2C

_I2C_WRITE_BYTE2/I2C                          ----- -----  0012H 0012H  ----- -----
  +--> _I2CBITDLY/I2C

I2C_STOP2/I2C                                 ----- -----  ----- -----  ----- -----
  +--> _I2CBITDLY/I2C

_DELAY/MAIN                                   ----- -----  ----- -----  ----- -----

INIT_VOLT_DETECT/MAIN                         ----- -----  ----- -----  ----- -----
  +--> SET_U7_10K/MAIN
  +--> _DELAY/MAIN

SET_U7_10K/MAIN                               ----- -----  ----- -----  ----- -----
  +--> _TPL0401A_SET_R/I2C
  +--> _DECREMENT_R/MCP4011

_TPL0401A_SET_R/I2C                           ----- -----  ----- -----  ----- -----
  +--> I2C_START3/I2C
  +--> _I2C_WRITE_BYTE3/I2C
  +--> I2C_STOP3/I2C
  +--> _DELAY/MAIN

I2C_START3/I2C                                ----- -----  ----- -----  ----- -----
  +--> _I2CBITDLY/I2C

_I2C_WRITE_BYTE3/I2C                          ----- -----  0012H 0012H  ----- -----
  +--> _I2CBITDLY/I2C

I2C_STOP3/I2C                                 ----- -----  ----- -----  ----- -----
  +--> _I2CBITDLY/I2C

_DECREMENT_R/MCP4011                          ----- -----  ----- -----  ----- -----

_BUZZER/MAIN                                  ----- -----  ----- -----  ----- -----

LDS6128_INIT/I2C                              ----- -----  ----- -----  ----- -----
  +--> _TOUCH_WRITE_WORD/I2C

LX51 LINKER/LOCATER V4.66.1.0                                                         04/24/2019  16:34:17  PAGE 8


_TOUCH_WRITE_WORD/I2C                         ----- -----  ----- -----  ----- -----
  +--> I2C_START1/I2C
  +--> _I2C_WRITE_BYTE1/I2C
  +--> I2C_STOP1/I2C

I2C_START1/I2C                                ----- -----  ----- -----  ----- -----
  +--> _I2CBITDLY/I2C

_I2C_WRITE_BYTE1/I2C                          ----- -----  0012H 0012H  ----- -----
  +--> _I2CBITDLY/I2C

I2C_STOP1/I2C                                 ----- -----  ----- -----  ----- -----
  +--> _I2CBITDLY/I2C

_EEPROM_READ_BYTE/I2C                         ----- -----  ----- -----  ----- -----
  +--> I2C_START0/I2C
  +--> _I2C_WRITE_BYTE0/I2C
  +--> I2C_RESTART0/I2C
  +--> I2C_READ_BYTE0/I2C
  +--> I2C_STOP0/I2C

I2C_START0/I2C                                ----- -----  ----- -----  ----- -----
  +--> _I2CBITDLY/I2C

_I2C_WRITE_BYTE0/I2C                          ----- -----  0012H 0012H  ----- -----
  +--> _I2CBITDLY/I2C

I2C_RESTART0/I2C                              ----- -----  ----- -----  ----- -----
  +--> _I2CBITDLY/I2C

I2C_READ_BYTE0/I2C                            ----- -----  0012H 0013H  ----- -----
  +--> _I2CBITDLY/I2C

I2C_STOP0/I2C                                 ----- -----  ----- -----  ----- -----
  +--> _I2CBITDLY/I2C

_EEPROM_WRITE_BYTE/I2C                        ----- -----  ----- -----  ----- -----
  +--> I2C_START0/I2C
  +--> _I2C_WRITE_BYTE0/I2C
  +--> I2C_STOP0/I2C
  +--> _DELAY/MAIN

_LCM_DISP_VERSION/LCM                         ----- -----  ----- -----  00CCH 00CDH
  +--> _LCM_COLUMNADDRESS/LCM
  +--> _LCM_DATA_WRITE/LCM
  +--> ?CO?LCM

LCM_CLRL/LCM                                  ----- -----  ----- -----  ----- -----
  +--> _LCM_COLUMNADDRESS/LCM
  +--> _LCM_DATA_WRITE/LCM

EEPROM_WRITEDEFAULT/MAIN                      ----- -----  ----- -----  ----- -----
  +--> _EEPROM_WRITE_BYTE/I2C

EEPROM_WRITEHIDEDATA/MAIN                     ----- -----  ----- -----  00C4H 00C4H
  +--> _EEPROM_WRITE_BYTE/I2C

_EEPROM_WRITE_WORD/MAIN                       ----- -----  ----- -----  00DAH 00DCH
  +--> _DELAY/MAIN
  +--> _EEPROM_WRITE_BYTE/I2C

?CO?MAIN                                      ----- -----  ----- -----  ----- -----

_EEPROM_READ_WORD/MAIN                        ----- -----  ----- -----  00C4H 00C6H
  +--> _EEPROM_READ_BYTE/I2C
LX51 LINKER/LOCATER V4.66.1.0                                                         04/24/2019  16:34:17  PAGE 9



DISP_TEST/MAIN                                ----- -----  ----- -----  00C6H 00C6H
  +--> _LED_DISP/LED
  +--> _LCM_BACKLIGHT/LCM

_ADS1110_READ_VOLTAGE/I2C                     ----- -----  ----- -----  00DAH 00DAH
  +--> _I2CBITDLY/I2C
  +--> ADS1110_MASTER_ACK/I2C

ADS1110_MASTER_ACK/I2C                        ----- -----  ----- -----  ----- -----
  +--> _I2CBITDLY/I2C

LCM_DISP_VOL_K2K3/LCM                         ----- -----  ----- -----  ----- -----
  +--> _LCM_COLUMNADDRESS/LCM
  +--> _LCM_DATA_WRITE/LCM

FILTER_TIME_IS_UP/MAIN                        ----- -----  ----- -----  ----- -----

_LCM_DISP_KL/LCM                              ----- -----  ----- -----  00DAH 00DDH
  +--> _LCM_COLUMNADDRESS/LCM
  +--> _LCM_DATA_WRITE/LCM
  +--> ?CO?LCM

_SENDMODE/MAIN                                ----- -----  ----- -----  00DAH 00EEH
  +--> ?CO?MAIN
  +--> _SENDCHAR/MAIN
  +--> _EEPROM_READ_BYTE/I2C

DO_START_UP/MAIN                              ----- -----  ----- -----  00C4H 00C4H
  +--> _SENDMODE/MAIN
  +--> _PLAYSOUND/I2C
  +--> _DELAY/MAIN
  +--> _LCM_DISP_VERSION/LCM
  +--> SENDVERSION/MAIN

SENDVERSION/MAIN                              ----- -----  ----- -----  00CCH 00CFH
  +--> ?CO?MAIN
  +--> _SENDCHAR/MAIN

DO_STANDBY/MAIN                               ----- -----  ----- -----  00C4H 00CBH
  +--> CLEAR_KEY_DELAY/I2C
  +--> _DISP_ELECTROLYSIS_TYPE/MAIN
  +--> LCM_DISP_VOL_K2K3/LCM
  +--> FILTER_TIME_IS_UP/MAIN
  +--> _LCM_DISP_KL/LCM
  +--> _LCM_DISP_WATERFLOW/LCM
  +--> START_HOUR_COUNT/COUNTER
  +--> _ADS1115_CHECK/MAIN
  +--> _WATER_IN/MAIN
  +--> _PLAYSOUND/I2C
  +--> CLEAN_W_PJ6000/MAIN
  +--> _EEPROM_WRITE_BYTE/I2C
  +--> _EEPROM_READ_BYTE/I2C
  +--> _LCM_DISP_I_ADD/LCM
  +--> _SENDCHAR/MAIN
  +--> _EEPROM_ELECTROLYSIS_WRITEDEFAULT/MAIN
  +--> EEPROM_ELECTROLYSIS_READ/MAIN
  +--> _SENDHIDEINFO/MAIN
  +--> _DELAY/MAIN
  +--> _LCM_DISP_VERSION/LCM
  +--> SENDVERSION/MAIN
  +--> _SENDMODE/MAIN
  +--> _EEPROM_WRITE_WORD/MAIN
  +--> ?CO?MAIN
  +--> _LCM_DISP_WASHLITER/LCM
LX51 LINKER/LOCATER V4.66.1.0                                                         04/24/2019  16:34:17  PAGE 10


  +--> GET_KEY/I2C
  +--> CHECK_SLEEPCOUNTER_START/COUNTER
  +--> _START_SLEEPCOUNTER/COUNTER
  +--> IS_SLEEPCOUNTER_COUNTDOWN_FINISH/COUNTER
  +--> STOP_SLEEPCOUNTER/COUNTER
  +--> _LED_DISP/LED
  +--> POWEROVERHOT_WARNING/AD

CLEAR_KEY_DELAY/I2C                           ----- -----  ----- -----  ----- -----

_DISP_ELECTROLYSIS_TYPE/MAIN                  ----- -----  ----- -----  ----- -----
  +--> _SENDCHAR/MAIN
  +--> _DISP_ALAK/MAIN
  +--> DISP_FILTER/MAIN
  +--> _DISP_ACID/MAIN

_DISP_ALAK/MAIN                               ----- -----  ----- -----  00DAH 00DAH
  +--> _LCM_DISP_ACID/LCM
  +--> ?CO?MAIN
  +--> _LCM_DISP_PH_AND_R/LCM
  +--> _LCM_DISP_ALKA/LCM
  +--> _LCM_BACKLIGHT/LCM
  +--> _LED_DISP/LED

_LCM_DISP_ACID/LCM                            ----- -----  ----- -----  ----- -----
  +--> _LCM_COLUMNADDRESS/LCM
  +--> ?CO?LCM
  +--> _LCM_DATA_WRITE/LCM

_LCM_DISP_PH_AND_R/LCM                        ----- -----  ----- -----  00E1H 00E3H
  +--> _LCM_COLUMNADDRESS/LCM
  +--> _LCM_DATA_WRITE/LCM
  +--> ?CO?LCM
  +--> LCM_DISP_S41/LCM

LCM_DISP_S41/LCM                              ----- -----  ----- -----  00E4H 00E4H
  +--> _LCM_COLUMNADDRESS/LCM
  +--> _LCM_DATA_WRITE/LCM

_LCM_DISP_ALKA/LCM                            ----- -----  ----- -----  ----- -----
  +--> _LCM_COLUMNADDRESS/LCM
  +--> ?CO?LCM
  +--> _LCM_DATA_WRITE/LCM

DISP_FILTER/MAIN                              ----- -----  ----- -----  ----- -----
  +--> _LCM_DISP_ACID/LCM
  +--> _LCM_DISP_ALKA/LCM
  +--> ?CO?MAIN
  +--> _LCM_DISP_PH_AND_R/LCM
  +--> _LCM_BACKLIGHT/LCM
  +--> _LED_DISP/LED

_DISP_ACID/MAIN                               ----- -----  ----- -----  00DAH 00DAH
  +--> _LCM_DISP_ALKA/LCM
  +--> _LCM_DISP_ACID/LCM
  +--> ?CO?MAIN
  +--> _LCM_DISP_PH_AND_R/LCM
  +--> _LCM_BACKLIGHT/LCM
  +--> _LED_DISP/LED

_LCM_DISP_WATERFLOW/LCM                       ----- -----  ----- -----  ----- -----
  +--> _LCM_COLUMNADDRESS/LCM
  +--> ?CO?LCM
  +--> _LCM_DATA_WRITE/LCM
  +--> LCM_DISP_S41/LCM
LX51 LINKER/LOCATER V4.66.1.0                                                         04/24/2019  16:34:17  PAGE 11



START_HOUR_COUNT/COUNTER                      ----- -----  ----- -----  ----- -----
  +--> _EEPROM_WRITE_WORD/MAIN

_ADS1115_CHECK/MAIN                           ----- -----  ----- -----  ----- -----
  +--> _ADS1115_READ/I2C

_ADS1115_READ/I2C                             ----- -----  ----- -----  00CCH 00CFH
  +--> I2C_START3/I2C
  +--> _I2C_WRITE_BYTE3/I2C
  +--> I2C_STOP3/I2C
  +--> I2C_READ_BYTE3/I2C
  +--> _DELAY/MAIN

I2C_READ_BYTE3/I2C                            ----- -----  0012H 0013H  ----- -----
  +--> _I2CBITDLY/I2C

_WATER_IN/MAIN                                ----- -----  ----- -----  ----- -----

CLEAN_W_PJ6000/MAIN                           ----- -----  ----- -----  00CFH 00D2H
  +--> LCM_DISP_PJ6000/LCM
  +--> _LED_DISP/LED
  +--> SENDPJ_6000_TIME/MAIN
  +--> _WATER_IN/MAIN
  +--> _LCM_DISP_KL/LCM

LCM_DISP_PJ6000/LCM                           ----- -----  ----- -----  ----- -----
  +--> _LCM_COLUMNADDRESS/LCM
  +--> _LCM_DATA_WRITE/LCM
  +--> _LCM_DISP_ACID/LCM
  +--> _LCM_DISP_ALKA/LCM

SENDPJ_6000_TIME/MAIN                         ----- -----  ----- -----  00D3H 00D7H
  +--> ?CO?MAIN
  +--> _SENDCHAR/MAIN

_LCM_DISP_I_ADD/LCM                           ----- -----  ----- -----  ----- -----
  +--> _LCM_COLUMNADDRESS/LCM
  +--> _LCM_DATA_WRITE/LCM
  +--> ?CO?LCM

_EEPROM_ELECTROLYSIS_WRITEDEFAULT/MAIN        ----- -----  ----- -----  00CCH 00CDH
  +--> _EEPROM_WRITE_BYTE/I2C
  +--> _EEPROM_READ_BYTE/I2C
  +--> _LCM_DISP_I_ADD/LCM

EEPROM_ELECTROLYSIS_READ/MAIN                 ----- -----  ----- -----  ----- -----
  +--> _EEPROM_READ_BYTE/I2C

_SENDHIDEINFO/MAIN                            ----- -----  ----- -----  00CCH 00D8H
  +--> ?CO?MAIN
  +--> _SENDCHAR/MAIN

_LCM_DISP_WASHLITER/LCM                       ----- -----  ----- -----  ----- -----
  +--> _LCM_COLUMNADDRESS/LCM
  +--> _LCM_DATA_WRITE/LCM
  +--> ?CO?LCM

GET_KEY/I2C                                   ----- -----  ----- -----  00DAH 00DBH
  +--> KEYSCAN/I2C
  +--> STOP_KEYHOLDCOUNTER/COUNTER
  +--> _START_KEYHOLDCOUNTER/COUNTER
  +--> IS_KEYHOLDCOUNTER_COUNTDOWN_FINISH/COUNTER

KEYSCAN/I2C                                   ----- -----  ----- -----  ----- -----
LX51 LINKER/LOCATER V4.66.1.0                                                         04/24/2019  16:34:17  PAGE 12


  +--> LDS6128_KEY_STATUS/I2C

LDS6128_KEY_STATUS/I2C                        ----- -----  ----- -----  00DCH 00DDH
  +--> _TOUCH_READ_WORD/I2C
  +--> _S_DELAY/I2C

_TOUCH_READ_WORD/I2C                          ----- -----  ----- -----  ----- -----
  +--> I2C_START1/I2C
  +--> _I2C_WRITE_BYTE1/I2C
  +--> I2C_RESTART1/I2C
  +--> _I2C_READ_BYTE1/I2C
  +--> I2C_STOP1/I2C

I2C_RESTART1/I2C                              ----- -----  ----- -----  ----- -----
  +--> _I2CBITDLY/I2C

_I2C_READ_BYTE1/I2C                           ----- -----  0012H 0013H  ----- -----
  +--> _I2CBITDLY/I2C

STOP_KEYHOLDCOUNTER/COUNTER                   ----- -----  ----- -----  ----- -----

_START_KEYHOLDCOUNTER/COUNTER                 ----- -----  ----- -----  ----- -----

IS_KEYHOLDCOUNTER_COUNTDOWN_FINISH/COUNT+     ----- -----  ----- -----  ----- -----
... ER

CHECK_SLEEPCOUNTER_START/COUNTER              ----- -----  ----- -----  ----- -----

_START_SLEEPCOUNTER/COUNTER                   ----- -----  ----- -----  ----- -----

IS_SLEEPCOUNTER_COUNTDOWN_FINISH/COUNTER      ----- -----  ----- -----  ----- -----

STOP_SLEEPCOUNTER/COUNTER                     ----- -----  ----- -----  ----- -----

POWEROVERHOT_WARNING/AD                       ----- -----  ----- -----  ----- -----
  +--> _GET_TMP1/AD

_GET_TMP1/AD                                  ----- -----  ----- -----  ----- -----
  +--> ?CO?AD

?CO?AD                                        ----- -----  ----- -----  ----- -----

DO_ELECTROLYZE/MAIN                           21H.0 21H.0  ----- -----  00C4H 00D9H
  +--> EEPROM_ELECTROLYSIS_READ/MAIN
  +--> _WATER_IN/MAIN
  +--> ?CO?MAIN
  +--> CLEAR_KEY_DELAY/I2C
  +--> _ACID_POLAR/MAIN
  +--> GET_KEY/I2C
  +--> START_HOUR_COUNT/COUNTER
  +--> _SENDMODE/MAIN
  +--> VOLT_CTRL/MAIN
  +--> _DISP_ELECTROLYSIS_TYPE/MAIN
  +--> _PLAYSOUND/I2C
  +--> _LED_DISP/LED
  +--> SET_U7_10K/MAIN
  +--> _SETCURRENT/MAIN
  +--> _EEPROM_WRITE_BYTE/I2C
  +--> LCM_DISP_VOL_K2K3/LCM
  +--> _DISP_FLOWGRAPH/MAIN
  +--> FILTER_TIME_IS_UP/MAIN
  +--> _LCM_DISP_KL/LCM
  +--> POWEROVERHOT_WARNING/AD
  +--> _ADS1110_READ_VOLTAGE/I2C
  +--> _DECREMENT_R/MCP4011
LX51 LINKER/LOCATER V4.66.1.0                                                         04/24/2019  16:34:17  PAGE 13


  +--> _LCM_DISP_WATERFLOW/LCM
  +--> _CURRENTSEG/MAIN
  +--> CHECK_WATERLACKCOUNTER_START/COUNTER
  +--> IS_WATERLACKCOUNTER_COUNTDOWN_FINISH/COUNTER
  +--> STOP_WATERLACKCOUNTER/COUNTER
  +--> _LCM_BACKLIGHT/LCM
  +--> _START_WATERLACKCOUNTER/COUNTER
  +--> _DELAY/MAIN
  +--> _EEPROM_WRITE_WORD/MAIN
  +--> EEPROM_WRITE_HIDE_INFO/MAIN
  +--> _U8_SWITCH_SHORT/MAIN
  +--> _LCM_DISP_PH_AND_R/LCM

_ACID_POLAR/MAIN                              ----- -----  ----- -----  ----- -----

VOLT_CTRL/MAIN                                ----- -----  ----- -----  ----- -----
  +--> _INCREMENT_R/MCP4011
  +--> _DELAY/MAIN
  +--> _DECREMENT_R/MCP4011

_INCREMENT_R/MCP4011                          ----- -----  ----- -----  ----- -----

_DISP_FLOWGRAPH/MAIN                          ----- -----  ----- -----  00DAH 00E0H
  +--> ?CO?MAIN
  +--> RAND/RAND
  +--> _LCM_DISP_ORP/LCM
  +--> _LCM_DISP_PH_AND_R/LCM

RAND/RAND                                     ----- -----  ----- -----  ----- -----

_LCM_DISP_ORP/LCM                             ----- -----  ----- -----  ----- -----
  +--> _LCM_COLUMNADDRESS/LCM
  +--> _LCM_DATA_WRITE/LCM
  +--> ?CO?LCM
  +--> LCM_DISP_S41/LCM

_CURRENTSEG/MAIN                              ----- -----  ----- -----  ----- -----

CHECK_WATERLACKCOUNTER_START/COUNTER          ----- -----  ----- -----  ----- -----

IS_WATERLACKCOUNTER_COUNTDOWN_FINISH/COU+     ----- -----  ----- -----  ----- -----
... NTER

STOP_WATERLACKCOUNTER/COUNTER                 ----- -----  ----- -----  ----- -----

_START_WATERLACKCOUNTER/COUNTER               ----- -----  ----- -----  ----- -----

EEPROM_WRITE_HIDE_INFO/MAIN                   ----- -----  ----- -----  ----- -----
  +--> _EEPROM_WRITE_WORD/MAIN

_U8_SWITCH_SHORT/MAIN                         ----- -----  ----- -----  ----- -----

DO_SLEEP/MAIN                                 ----- -----  ----- -----  00C4H 00C4H
  +--> _WATER_IN/MAIN
  +--> _LCM_BACKLIGHT/LCM
  +--> LCM_CLS/LCM
  +--> _LED_DISP/LED
  +--> CLEAR_KEY_DELAY/I2C
  +--> GET_KEY/I2C
  +--> POWEROVERHOT_WARNING/AD
  +--> START_HOUR_COUNT/COUNTER
  +--> _ADS1115_CHECK/MAIN

_DO_CLEAN/MAIN                                21H.0 21H.0  ----- -----  00C4H 00D4H
  +--> _DISP_CLEAN/MAIN
LX51 LINKER/LOCATER V4.66.1.0                                                         04/24/2019  16:34:17  PAGE 14


  +--> _LCM_NON_DISP_WATERFLOW_COUNT_DOWN/LCM
  +--> _START_SLEEPCOUNTER/COUNTER
  +--> _WATER_IN/MAIN
  +--> _SETCURRENT/MAIN
  +--> _ACID_POLAR/MAIN
  +--> _PLAYSOUND/I2C
  +--> _LED_DISP/LED
  +--> START_HOUR_COUNT/COUNTER
  +--> _SENDMODE/MAIN
  +--> VOLT_CTRL/MAIN
  +--> IS_SLEEPCOUNTER_COUNTDOWN_FINISH/COUNTER
  +--> STOP_SLEEPCOUNTER/COUNTER
  +--> ?CO?MAIN
  +--> _DISP_FLOWGRAPH/MAIN
  +--> LCM_DISP_VOL_K2K3/LCM
  +--> FILTER_TIME_IS_UP/MAIN
  +--> _LCM_DISP_KL/LCM
  +--> POWEROVERHOT_WARNING/AD
  +--> CHECK_WATERLACKCOUNTER_START/COUNTER
  +--> IS_WATERLACKCOUNTER_COUNTDOWN_FINISH/COUNTER
  +--> STOP_WATERLACKCOUNTER/COUNTER
  +--> _LCM_DISP_PH_AND_R/LCM
  +--> _LCM_BACKLIGHT/LCM
  +--> _START_WATERLACKCOUNTER/COUNTER
  +--> _U8_SWITCH_SHORT/MAIN
  +--> _LCM_DISP_WATERFLOW/LCM
  +--> _EEPROM_WRITE_WORD/MAIN
  +--> _EEPROM_WRITE_BYTE/I2C

_DISP_CLEAN/MAIN                              ----- -----  ----- -----  00D5H 00D5H
  +--> _LCM_DISP_ACID/LCM
  +--> _LCM_DISP_ALKA/LCM
  +--> ?CO?MAIN
  +--> _LCM_DISP_PH_AND_R/LCM
  +--> _LCM_BACKLIGHT/LCM

_LCM_NON_DISP_WATERFLOW_COUNT_DOWN/LCM        ----- -----  ----- -----  00D5H 00D7H
  +--> _LCM_COLUMNADDRESS/LCM
  +--> ?CO?LCM
  +--> _LCM_DATA_WRITE/LCM
  +--> LCM_DISP_S41/LCM

DO_WARNING/MAIN                               ----- -----  ----- -----  00C4H 00C7H
  +--> LCM_CLS/LCM
  +--> _LCM_BACKLIGHT/LCM
  +--> _WATER_IN/MAIN
  +--> _LCM_DISP_ERROR_CODE/LCM
  +--> _LCM_DISP_ERROR/LCM
  +--> _START_SLEEPCOUNTER/COUNTER
  +--> START_HOUR_COUNT/COUNTER
  +--> IS_SLEEPCOUNTER_COUNTDOWN_FINISH/COUNTER
  +--> STOP_SLEEPCOUNTER/COUNTER
  +--> _SENDMODE/MAIN
  +--> _PLAYSOUND/I2C
  +--> _DELAY/MAIN

_LCM_DISP_ERROR_CODE/LCM                      ----- -----  ----- -----  ----- -----
  +--> _LCM_COLUMNADDRESS/LCM
  +--> _LCM_DATA_WRITE/LCM
  +--> ?CO?LCM

_LCM_DISP_ERROR/LCM                           ----- -----  ----- -----  ----- -----
  +--> _LCM_COLUMNADDRESS/LCM
  +--> _LCM_DATA_WRITE/LCM
  +--> ?CO?LCM
LX51 LINKER/LOCATER V4.66.1.0                                                         04/24/2019  16:34:17  PAGE 15



DO_RESET/MAIN                                 ----- -----  ----- -----  00C4H 00C5H
  +--> CLEAR_KEY_DELAY/I2C
  +--> _LCM_BACKLIGHT/LCM
  +--> LCM_FILL/LCM
  +--> GET_KEY/I2C
  +--> _PLAYSOUND/I2C
  +--> EEPROM_WRITEDEFAULT/MAIN
  +--> EEPROM_ELECTROLYSIS_READ/MAIN
  +--> _EEPROM_WRITE_BYTE/I2C
  +--> DISP_TEST/MAIN
  +--> _DELAY/MAIN
  +--> LCM_CLS/LCM
  +--> LCM_DISP_VOL_K2K3/LCM

DO_SETUP/MAIN                                 ----- -----  ----- -----  00C4H 00CEH
  +--> _WATER_IN/MAIN
  +--> _PLAYSOUND/I2C
  +--> _LCM_BACKLIGHT/LCM
  +--> CLEAR_KEY_DELAY/I2C
  +--> START_HOUR_COUNT/COUNTER
  +--> LCM_CLS/LCM
  +--> _EEPROM_READ_BYTE/I2C
  +--> _LCM_DISP_TDS/LCM
  +--> GET_KEY/I2C
  +--> STOP_SLEEPCOUNTER/COUNTER
  +--> _EEPROM_WRITE_BYTE/I2C
  +--> CHECK_SLEEPCOUNTER_START/COUNTER
  +--> _START_SLEEPCOUNTER/COUNTER
  +--> IS_SLEEPCOUNTER_COUNTDOWN_FINISH/COUNTER
  +--> _LCM_DISP_ALKA/LCM
  +--> _LCM_DISP_ACID/LCM
  +--> _DISP_ELECTROLYSIS_TYPE_WITHOUTLMIN/MAIN
  +--> ?CO?MAIN
  +--> _LCM_DISP_PH_AND_R/LCM
  +--> _LCM_DISP_I_ADD/LCM
  +--> FILTER_TIME_IS_UP/MAIN
  +--> _LCM_DISP_KL/LCM
  +--> _LCM_DISP_WASHLITER/LCM
  +--> _EEPROM_WRITE_WORD/MAIN
  +--> _DELAY/MAIN
  +--> CLEAN_W_PJ6000/MAIN

_LCM_DISP_TDS/LCM                             ----- -----  ----- -----  ----- -----
  +--> _LCM_COLUMNADDRESS/LCM
  +--> _LCM_DATA_WRITE/LCM
  +--> ?CO?LCM
  +--> LCM_DISP_S41/LCM

_DISP_ELECTROLYSIS_TYPE_WITHOUTLMIN/MAIN      ----- -----  ----- -----  ----- -----
  +--> _DISP_ALAK_WITHOUTLMIN/MAIN
  +--> _DISP_ACID_WITHOUTLMIN/MAIN

_DISP_ALAK_WITHOUTLMIN/MAIN                   ----- -----  ----- -----  00CFH 00CFH
  +--> _LCM_DISP_ACID/LCM
  +--> ?CO?MAIN
  +--> _LCM_DISP_PH_AND_R/LCM
  +--> _LCM_DISP_ALKA/LCM
  +--> _LCM_BACKLIGHT/LCM
  +--> _LED_DISP/LED

_DISP_ACID_WITHOUTLMIN/MAIN                   ----- -----  ----- -----  00CFH 00CFH
  +--> _LCM_DISP_ALKA/LCM
  +--> _LCM_DISP_ACID/LCM
  +--> ?CO?MAIN
LX51 LINKER/LOCATER V4.66.1.0                                                         04/24/2019  16:34:17  PAGE 16


  +--> _LCM_DISP_PH_AND_R/LCM
  +--> _LCM_BACKLIGHT/LCM
  +--> _LED_DISP/LED

?C_INITSEG                                    ----- -----  ----- -----  ----- -----
  +--> ?CO?MAIN



PUBLIC SYMBOLS OF MODULE:  PL905 (MAIN)


      VALUE       CLASS    TYPE      PUBLIC SYMBOL NAME
      =================================================
      0100422FH   CODE     ---       ?C?CCASE
      010040F4H   CODE     ---       ?C?CLDPTR
      00000000H   NUMBER   ---       ?C?CODESEG
      010040CEH   CODE     ---       ?C?COPY
      01003F80H   CODE     ---       ?C?FCASTC
      01003F7BH   CODE     ---       ?C?FCASTI
      01003F76H   CODE     ---       ?C?FCASTL
      01003EFFH   CODE     ---       ?C?FPCMP
      01003EFDH   CODE     ---       ?C?FPCMP3
      01003FB4H   CODE     ---       ?C?FPGETOPN2
      01003DF7H   CODE     ---       ?C?FPMUL
      01003FE9H   CODE     ---       ?C?FPNANRESULT
      01003FF3H   CODE     ---       ?C?FPOVERFLOW
      01003FCBH   CODE     ---       ?C?FPRESULT
      01003FDFH   CODE     ---       ?C?FPRESULT2
      01003FF0H   CODE     ---       ?C?FPUNDERFLOW
      010041AAH   CODE     ---       ?C?ILDIX
      0100410DH   CODE     ---       ?C?IMUL
      01004255H   CODE     ---       ?C?LLDXDATA
      010041C0H   CODE     ---       ?C?LNEG
      010041FEH   CODE     ---       ?C?LSTKXDATA
      010041F2H   CODE     ---       ?C?LSTXDATA
      01004174H   CODE     ---       ?C?SIDIV
      0100411FH   CODE     ---       ?C?UIDIV
      010041CEH   CODE     ---       ?C?ULCMP
      010041DFH   CODE     ---       ?C?ULSHR
      00000000H   NUMBER   ---       ?C?XDATASEG
      01005E4DH   CODE     ---       ?C_START
      01000000H   CODE     ---       ?C_STARTUP
      02000126H   XDATA    ---       ?SRAND?BYTE
      01006F14H   CODE     ---       _Acid_Polar
      010057F1H   CODE     ---       _ADS1110_read_voltage
      01005990H   CODE     ---       _ADS1115_Check
      01005D72H   CODE     ---       _ADS1115_Read
      01007069H   CODE     ---       _Buzzer
      0100684BH   CODE     ---       _CurrentSeg
      01006CA3H   CODE     ---       _DAC_write
      010071AEH   CODE     ---       _Decrement_R
      010071EDH   CODE     ---       _delay
      01005E92H   CODE     ---       _Disp_Acid
      01005F1BH   CODE     ---       _Disp_Acid_withoutLmin
      0100612BH   CODE     ---       _Disp_Alak
      0100629FH   CODE     ---       _Disp_Alak_withoutLmin
      01006D91H   CODE     ---       _Disp_Clean
      01006738H   CODE     ---       _Disp_electrolysis_type
      010068A9H   CODE     ---       _Disp_electrolysis_type_withoutLmin
      01004BD3H   CODE     ---       _Disp_FlowGraph
      010037E1H   CODE     ---       _do_clean
      01005B0CH   CODE     ---       _EEPROM_ELECTROLYSIS_WriteDefault
      010070D5H   CODE     ---       _EEPROM_read_byte
      01006E39H   CODE     ---       _EEPROM_read_word
LX51 LINKER/LOCATER V4.66.1.0                                                         04/24/2019  16:34:17  PAGE 17


      01007172H   CODE     ---       _EEPROM_write_byte
      01006EB5H   CODE     ---       _EEPROM_write_word
      010070B1H   CODE     ---       _Get_tmp1
      02000125H   XDATA    BYTE      _i2c_ack
      01006AE6H   CODE     ---       _i2c_read_byte1
      01006AA5H   CODE     ---       _i2c_write_byte0
      010069DAH   CODE     ---       _i2c_write_byte1
      01006B27H   CODE     ---       _i2c_write_byte2
      01006B68H   CODE     ---       _i2c_write_byte3
      010072F5H   CODE     ---       _i2cBitDly
      01007190H   CODE     ---       _Increment_R
      010064EFH   CODE     ---       _LCM_Backlight
      01007154H   CODE     ---       _LCM_CMD_Write
      0100711EH   CODE     ---       _LCM_ColumnAddress
      01006A45H   CODE     ---       _LCM_DATA_Write
      01007289H   CODE     ---       _LCM_Disp_Acid
      01006D1BH   CODE     ---       _LCM_Disp_Alka
      01006319H   CODE     ---       _LCM_Disp_Error
      01006F95H   CODE     ---       _LCM_Disp_Error_Code
      01006787H   CODE     ---       _LCM_Disp_I_add
      01004D8AH   CODE     ---       _LCM_Disp_KL
      010052E1H   CODE     ---       _LCM_Disp_ORP
      010051A1H   CODE     ---       _LCM_Disp_PH_and_R
      01004F04H   CODE     ---       _LCM_Disp_PJ6000_Countdown
      01005C43H   CODE     ---       _LCM_Disp_TDS
      01006560H   CODE     ---       _LCM_Disp_Version
      01006A63H   CODE     ---       _LCM_Disp_WashLiter
      01006024H   CODE     ---       _LCM_Disp_WaterFlow
      01005BA2H   CODE     ---       _LCM_NON_Disp_WaterFlow_count_down
      01007270H   CODE     ---       _LED_Disp
      01006C28H   CODE     ---       _PlaySound
      0100701AH   CODE     ---       _RGB
      010072AEH   CODE     ---       _S_Delay
      01007111H   CODE     ---       _sendchar
      01004261H   CODE     ---       _SendHideInfo
      0100459FH   CODE     ---       _SendMode
      0100622CH   CODE     ---       _SetCurrent
      01006980H   CODE     ---       _SRAND
      0100740FH   CODE     ---       _Start_KeyholdCounter
      010073EBH   CODE     ---       _Start_SleepCounter
      01007433H   CODE     ---       _Start_WaterLackCounter
      01006D56H   CODE     ---       _TOUCH_read_word
      01006FC9H   CODE     ---       _TOUCH_write_word
      01006FEEH   CODE     ---       _TPL0401A_Set_R
      0100708DH   CODE     ---       _U8_switch_short
      01005FB0H   CODE     ---       _Water_In
*SFR* 000000D0H.6 DATA     BIT       AC
*SFR* 000000E0H   DATA     BYTE      ACC
      02000048H   XDATA    BYTE      aci_flag
*SFR* 000000C6H   DATA     BYTE      ADC
      0200012CH   XDATA    BYTE      adc_ch
      0200012AH   XDATA    ---       adc_val
*SFR* 000000C6H   DATA     BYTE      ADCH
*SFR* 000000BEH   DATA     BYTE      ADCL
*SFR* 000000C5H   DATA     BYTE      ADCTL
      0200007EH   XDATA    BYTE      ADH
      02000094H   XDATA    BYTE      ADL
      02000038H   XDATA    BYTE      ADS1110_flag
      0100000EH   CODE     ---       ADS1110_master_ack
      02000095H   XDATA    BYTE      ADS1115_ACK
      020000ADH   XDATA    BYTE      ADS1115_Check_flag
      0200003AH   XDATA    WORD      ads1115_temp
      020000BDH   XDATA    BYTE      after_action
*SFR* 000000ADH   DATA     BYTE      AUXIE
*SFR* 000000AEH   DATA     BYTE      AUXIP
LX51 LINKER/LOCATER V4.66.1.0                                                         04/24/2019  16:34:17  PAGE 18


*SFR* 000000AFH   DATA     BYTE      AUXIPH
*SFR* 0000008EH   DATA     BYTE      AUXR
*SFR* 000000A2H   DATA     BYTE      AUXR1
*SFR* 000000A6H   DATA     BYTE      AUXR2
*SFR* 000000F0H   DATA     BYTE      B
*SFR* 00000090H.4 DATA     BIT       BL_BLUE
*SFR* 00000090H.5 DATA     BIT       BL_GREEN
*SFR* 00000090H.3 DATA     BIT       BL_RED
*SFR* 000000C8H.1 DATA     BIT       C_T2
*SFR* 000000FAH   DATA     BYTE      CCAP0H
*SFR* 000000EAH   DATA     BYTE      CCAP0L
*SFR* 000000FBH   DATA     BYTE      CCAP1H
*SFR* 000000EBH   DATA     BYTE      CCAP1L
*SFR* 000000FCH   DATA     BYTE      CCAP2H
*SFR* 000000ECH   DATA     BYTE      CCAP2L
*SFR* 000000FDH   DATA     BYTE      CCAP3H
*SFR* 000000EDH   DATA     BYTE      CCAP3L
*SFR* 000000FEH   DATA     BYTE      CCAP4H
*SFR* 000000EEH   DATA     BYTE      CCAP4L
*SFR* 000000FFH   DATA     BYTE      CCAP5H
*SFR* 000000EFH   DATA     BYTE      CCAP5L
*SFR* 000000DAH   DATA     BYTE      CCAPM0
*SFR* 000000DBH   DATA     BYTE      CCAPM1
*SFR* 000000DCH   DATA     BYTE      CCAPM2
*SFR* 000000DDH   DATA     BYTE      CCAPM3
*SFR* 000000DEH   DATA     BYTE      CCAPM4
*SFR* 000000DFH   DATA     BYTE      CCAPM5
*SFR* 000000D8H   DATA     BIT       CCF0
*SFR* 000000D8H.1 DATA     BIT       CCF1
*SFR* 000000D8H.2 DATA     BIT       CCF2
*SFR* 000000D8H.3 DATA     BIT       CCF3
*SFR* 000000D8H.4 DATA     BIT       CCF4
*SFR* 000000D8H.5 DATA     BIT       CCF5
*SFR* 000000D8H   DATA     BYTE      CCON
*SFR* 00000090H.2 DATA     BIT       CEX0
*SFR* 00000090H.3 DATA     BIT       CEX1
*SFR* 00000090H.4 DATA     BIT       CEX2
*SFR* 00000090H.5 DATA     BIT       CEX3
*SFR* 00000090H.6 DATA     BIT       CEX4
*SFR* 00000090H.7 DATA     BIT       CEX5
*SFR* 000000D8H.7 DATA     BIT       CF
*SFR* 000000F9H   DATA     BYTE      CH
      010073CFH   CODE     ---       Check_SleepCounter_Start
      010073DDH   CODE     ---       Check_WaterLackCounter_Start
*SFR* 000000E8H.1 DATA     BIT       Choose_Default
*SFR* 000000E9H   DATA     BYTE      CL
      02000076H   XDATA    BYTE      clean_after_trun_off
      01005CDDH   CODE     ---       clean_w_PJ6000
      01007457H   CODE     ---       Clear_key_delay
*SFR* 000000D9H   DATA     BYTE      CMOD
      020000B6H   XDATA    BYTE      Control_Selection
*SFR* 000000C8H   DATA     BIT       CP_RL2
*SFR* 000000D8H.6 DATA     BIT       CR
*SFR* 000000D0H.7 DATA     BIT       CY
*SFR* 000000A0H.3 DATA     BIT       DAC_LDAC
*SFR* 000000A0H.4 DATA     BIT       DAC_RDY
*SFR* 00000090H.7 DATA     BIT       DAC_SCL
      0200003DH   XDATA    BYTE      demo_flag
      0100698FH   CODE     ---       Disp_Filter
      01006F68H   CODE     ---       Disp_test
      0200004BH   XDATA    BYTE      do_clean_flag
      01001882H   CODE     ---       do_electrolyze
      010053FDH   CODE     ---       do_reset
      010028C3H   CODE     ---       do_setup
      01006408H   CODE     ---       do_sleep
LX51 LINKER/LOCATER V4.66.1.0                                                         04/24/2019  16:34:17  PAGE 19


      01000026H   CODE     ---       do_standby
      01005A57H   CODE     ---       do_start_up
      010058C3H   CODE     ---       do_warning
*SFR* 00000083H   DATA     BYTE      DPH
*SFR* 00000082H   DATA     BYTE      DPL
*SFR* 000000A8H.7 DATA     BIT       EA
*SFR* 00000090H.1 DATA     BIT       ECI
      01006642H   CODE     ---       EEPROM_ELECTROLYSIS_Read
*SFR* 000000E8H   DATA     BIT       EEPROM_SCL
      01004A04H   CODE     ---       EEPROM_write_hide_info
      0100647DH   CODE     ---       EEPROM_WriteDefault
      01007136H   CODE     ---       EEPROM_WriteHideData
      020000AEH   XDATA    ---       ele_set
      02000093H   XDATA    BYTE      electrolysis_type
      0200007AH   XDATA    DWORD     electrolyze_time
      02000045H   XDATA    BYTE      ErrCode
*SFR* 000000A8H.4 DATA     BIT       ES
*SFR* 000000A8H.1 DATA     BIT       ET0
*SFR* 000000A8H.3 DATA     BIT       ET1
*SFR* 000000A8H.5 DATA     BIT       ET2
*SFR* 000000E8H.2 DATA     BIT       EVR_CS
*SFR* 000000E8H.3 DATA     BIT       EVR_UD
*SFR* 00000097H   DATA     BYTE      EVRCR
*SFR* 000000A8H   DATA     BIT       EX0
*SFR* 000000A8H.2 DATA     BIT       EX1
*SFR* 000000C0H.2 DATA     BIT       EX2
*SFR* 000000C0H.6 DATA     BIT       EX3
      0200006FH   XDATA    WORD      ex_ads1115_value
      020000B8H   XDATA    BYTE      ex_alk_flag
      0200002EH   XDATA    BYTE      ex_electrolysis_type
      02000017H   XDATA    BYTE      ex_I
      01007220H   CODE     ---       ex_int0
      02000042H   XDATA    BYTE      ex_op_mode
      0200004EH   XDATA    BYTE      ex_tpl0401a_value
*SFR* 000000C8H.3 DATA     BIT       EXEN2
*SFR* 000000C8H.6 DATA     BIT       EXF2
*SFR* 000000D0H.5 DATA     BIT       F0
      00000020H.1 BIT      BIT       f_acid3
      00000020H.3 BIT      BIT       f_alarm_no_water
      00000020H.6 BIT      BIT       f_clean
      00000020H.0 BIT      BIT       f_half_sec
      00000020H.2 BIT      BIT       f_key_hold
      00000020H.7 BIT      BIT       f_lock
      00000020H.4 BIT      BIT       f_no_water
      00000020H.5 BIT      BIT       f_show_orp
      020000B7H   XDATA    BYTE      Faucent_Version_Flag
*SFR* 00000098H.7 DATA     BIT       FE
      01006392H   CODE     ---       Filter_time_is_up
      020000ABH   XDATA    WORD      FLOW_cnt
      02000032H   XDATA    ---       flow_cnt_tmp
      01007044H   CODE     ---       Get_ADC_Value
      010060A8H   CODE     ---       Get_Key
      02000122H   XDATA    BYTE      hold_key
*SFR* 00000090H.1 DATA     BIT       HOT_CHK
      01006ED7H   CODE     ---       I2C_Init
      01006C67H   CODE     ---       i2c_read_byte0
      01006CDFH   CODE     ---       i2c_read_byte3
      01007311H   CODE     ---       i2c_restart0
      01007384H   CODE     ---       i2c_restart1
*SFR* 000000E8H.2 DATA     BIT       I2C_SCL
*SFR* 000000E8H.3 DATA     BIT       I2C_SDA
      01007357H   CODE     ---       i2c_start0
      01007375H   CODE     ---       i2c_start1
      01007393H   CODE     ---       i2c_start2
      010073B1H   CODE     ---       i2c_start3
LX51 LINKER/LOCATER V4.66.1.0                                                         04/24/2019  16:34:17  PAGE 20


      01007366H   CODE     ---       i2c_stop0
      0100746CH   CODE     ---       i2c_stop1
      010073A2H   CODE     ---       i2c_stop2
      010073C0H   CODE     ---       i2c_stop3
      02000096H   XDATA    ---       I_add
      02000043H   XDATA    INT       I_add_t
      010075D1H   CONST    ---       i_multiply
*SFR* 000000A8H   DATA     BYTE      IE
*SFR* 00000088H.1 DATA     BIT       IE0
*SFR* 00000088H.3 DATA     BIT       IE1
*SFR* 000000C0H.1 DATA     BIT       IE2
*SFR* 000000C0H.5 DATA     BIT       IE3
*SFR* 000000E3H   DATA     BYTE      IFADRH
*SFR* 000000E4H   DATA     BYTE      IFADRL
*SFR* 000000E2H   DATA     BYTE      IFD
*SFR* 000000E5H   DATA     BYTE      IFMT
      01007476H   CODE     ---       Init_ADC
      010072D0H   CODE     ---       Init_Volt_Detect
*SFR* 000000B0H.3 DATA     BIT       INT
*SFR* 000000B0H.2 DATA     BIT       INT0
      01007480H   CODE     ---       INT0_Init
*SFR* 000000B0H.3 DATA     BIT       INT1
*SFR* 000000E8H.3 DATA     BIT       INT2
*SFR* 000000E8H.2 DATA     BIT       INT3
*SFR* 000000A0H.2 DATA     BIT       IO_DataLE
*SFR* 000000B0H.5 DATA     BIT       IO_DataOE
      010075E1H   CONST    ---       iORPValue
      0200007FH   XDATA    ---       iORPValue_Disp
      010075F9H   CONST    ---       iORPValue_Falg
      010075F1H   CONST    ---       iORPValue_index
*SFR* 000000B8H   DATA     BYTE      IP
*SFR* 000000B7H   DATA     BYTE      IPH
      01007427H   CODE     ---       Is_KeyholdCounter_CountDown_Finish
      01007403H   CODE     ---       Is_SleepCounter_CountDown_Finish
      0100744BH   CODE     ---       Is_WaterLackCounter_CountDown_Finish
*SFR* 000000E7H   DATA     BYTE      ISPCR
*SFR* 00000088H   DATA     BIT       IT0
*SFR* 00000088H.2 DATA     BIT       IT1
*SFR* 000000C0H   DATA     BIT       IT2
*SFR* 000000C0H.4 DATA     BIT       IT3
*SFR* 000000D6H   DATA     BYTE      KBCON
*SFR* 000000D7H   DATA     BYTE      KBMASK
*SFR* 000000D5H   DATA     BYTE      KBPATN
      0200010FH   XDATA    BYTE      key1_bak
      02000016H   XDATA    BYTE      Key_backup
      02000111H   XDATA    ---       key_delay
      01005613H   CODE     ---       KeyScan
      020000A8H   XDATA    INT       kk
      020000F0H   XDATA    WORD      KX
      01007489H   CONST    ---       LAN0
      0100748EH   CONST    ---       LAN2
      01007493H   CONST    ---       LAN3
      01007498H   CONST    ---       LAN4
      0100749DH   CONST    ---       LAN5
      02000046H   XDATA    BYTE      Language
      02000007H   XDATA    ---       LANGUAGE_STRING
      02000123H   XDATA    WORD      LAST_key_lds6128
      02000121H   XDATA    BYTE      LAST_KeyValue
*SFR* 000000B0H.4 DATA     BIT       LCM_A0
      01007462H   CODE     ---       LCM_ClrL
      01007347H   CODE     ---       LCM_Cls
*SFR* 000000A0H.6 DATA     BIT       LCM_CS
*SFR* 000000A0H   DATA     BIT       LCM_DataLE
      01006E02H   CODE     ---       LCM_Disp_PJ6000
      01006BA9H   CODE     ---       LCM_Disp_S41
LX51 LINKER/LOCATER V4.66.1.0                                                         04/24/2019  16:34:17  PAGE 21


      010066B0H   CODE     ---       LCM_Disp_VOL_K2K3
      01007337H   CODE     ---       LCM_Fill
      01006DCAH   CODE     ---       LCM_Init
*SFR* 000000A0H.7 DATA     BIT       LCM_WR
      010047E3H   CODE     ---       LDS6128_init
      010065D1H   CODE     ---       LDS6128_key_status
*SFR* 000000A0H.1 DATA     BIT       LED_DataLE
      01000006H   CODE     ---       LED_Init
      02000091H   XDATA    WORD      left_FlowCnt
      0200002FH   XDATA    WORD      LeftLiter
      02000013H   XDATA    WORD      Liter
      010074A2H   CONST    BYTE      Machine_ID
      010031C9H   CODE     ---       main
      020000B9H   XDATA    WORD      max_hour_count
      02000110H   XDATA    BYTE      nack
      0200003CH   XDATA    BYTE      Operation_Mode
      0200003EH   XDATA    DWORD     Outwater_Counter
*SFR* 000000D0H.2 DATA     BIT       OV
      0200001AH   XDATA    ---       Over_each_flag
      020000BBH   XDATA    WORD      overflow_flag
*SFR* 000000D0H   DATA     BIT       P
*SFR* 00000080H   DATA     BYTE      P0
*SFR* 00000080H   DATA     BIT       P00
*SFR* 00000080H.1 DATA     BIT       P01
*SFR* 00000080H.2 DATA     BIT       P02
*SFR* 00000080H.3 DATA     BIT       P03
*SFR* 00000080H.4 DATA     BIT       P04
*SFR* 00000080H.5 DATA     BIT       P05
*SFR* 00000080H.6 DATA     BIT       P06
*SFR* 00000080H.7 DATA     BIT       P07
*SFR* 00000093H   DATA     BYTE      P0M0
*SFR* 00000094H   DATA     BYTE      P0M1
*SFR* 00000090H   DATA     BYTE      P1
*SFR* 00000090H   DATA     BIT       P10
*SFR* 00000090H.1 DATA     BIT       P11
*SFR* 00000090H.2 DATA     BIT       P12
*SFR* 00000090H.3 DATA     BIT       P13
*SFR* 00000090H.4 DATA     BIT       P14
*SFR* 00000090H.5 DATA     BIT       P15
*SFR* 00000090H.6 DATA     BIT       P16
*SFR* 00000090H.7 DATA     BIT       P17
*SFR* 00000091H   DATA     BYTE      P1M0
*SFR* 00000092H   DATA     BYTE      P1M1
*SFR* 000000A0H   DATA     BYTE      P2
*SFR* 000000A0H   DATA     BIT       P20
*SFR* 000000A0H.1 DATA     BIT       P21
*SFR* 000000A0H.2 DATA     BIT       P22
*SFR* 000000A0H.3 DATA     BIT       P23
*SFR* 000000A0H.4 DATA     BIT       P24
*SFR* 000000A0H.5 DATA     BIT       P25
*SFR* 000000A0H.6 DATA     BIT       P26
*SFR* 000000A0H.7 DATA     BIT       P27
*SFR* 00000095H   DATA     BYTE      P2M0
*SFR* 00000096H   DATA     BYTE      P2M1
*SFR* 000000B0H   DATA     BYTE      P3
*SFR* 000000B0H   DATA     BIT       P30
*SFR* 000000B0H.1 DATA     BIT       P31
*SFR* 000000B0H.2 DATA     BIT       P32
*SFR* 000000B0H.3 DATA     BIT       P33
*SFR* 000000B0H.4 DATA     BIT       P34
*SFR* 000000B0H.5 DATA     BIT       P35
*SFR* 000000B0H.6 DATA     BIT       P36
*SFR* 000000B0H.7 DATA     BIT       P37
*SFR* 000000B1H   DATA     BYTE      P3M0
*SFR* 000000B2H   DATA     BYTE      P3M1
LX51 LINKER/LOCATER V4.66.1.0                                                         04/24/2019  16:34:17  PAGE 22


*SFR* 000000E8H   DATA     BYTE      P4
*SFR* 000000E8H   DATA     BIT       P40
*SFR* 000000E8H.1 DATA     BIT       P41
*SFR* 000000E8H.2 DATA     BIT       P42
*SFR* 000000E8H.3 DATA     BIT       P43
*SFR* 000000B3H   DATA     BYTE      P4M0
*SFR* 000000B4H   DATA     BYTE      P4M1
*SFR* 000000F2H   DATA     BYTE      PCAPWM0
*SFR* 000000F3H   DATA     BYTE      PCAPWM1
*SFR* 000000F4H   DATA     BYTE      PCAPWM2
*SFR* 000000F5H   DATA     BYTE      PCAPWM3
*SFR* 000000F6H   DATA     BYTE      PCAPWM4
*SFR* 000000F7H   DATA     BYTE      PCAPWM5
*SFR* 00000087H   DATA     BYTE      PCON
*SFR* 000000C7H   DATA     BYTE      PCON2
      01007501H   CONST    ---       PH_tab
      010074CAH   CONST    ---       PH_tab0
      01006F38H   CODE     ---       PORT_Init
      0200004AH   XDATA    BYTE      POT_Fail_Flag
      0100723BH   CODE     ---       PowerOverHot_warning
*SFR* 000000B8H.4 DATA     BIT       PS
*SFR* 000000D0H   DATA     BYTE      PSW
*SFR* 000000B8H.1 DATA     BIT       PT0
*SFR* 000000B8H.3 DATA     BIT       PT1
*SFR* 000000B8H.5 DATA     BIT       PT2
      02000079H   XDATA    BYTE      PVoice
      020000C1H   XDATA    BYTE      PVoice_tmp
*SFR* 000000B8H   DATA     BIT       PX0
*SFR* 000000B8H.2 DATA     BIT       PX1
*SFR* 000000C0H.3 DATA     BIT       PX2
*SFR* 000000C0H.7 DATA     BIT       PX3
      020000F3H   XDATA    WORD      R
      02000039H   XDATA    BYTE      R03_R05N
      02000031H   XDATA    BYTE      r_step
      0200004CH   XDATA    BYTE      r_step_cnt
      0200004DH   XDATA    BYTE      r_step_max
      01006942H   CODE     ---       RAND
*SFR* 00000098H.2 DATA     BIT       RB8
*SFR* 000000CBH   DATA     BYTE      RCAP2H
*SFR* 000000CAH   DATA     BYTE      RCAP2L
*SFR* 000000C8H.5 DATA     BIT       RCLK
*SFR* 000000B0H.7 DATA     BIT       RD
      02000078H   XDATA    BYTE      ReceiveDate
      02000071H   XDATA    BYTE      ReceiveFlag
*SFR* 00000098H.4 DATA     BIT       REN
*SFR* 00000098H   DATA     BIT       RI
*SFR* 000000D0H.3 DATA     BIT       RS0
*SFR* 000000D0H.4 DATA     BIT       RS1
*SFR* 000000B0H   DATA     BIT       RXD
*SFR* 000000BAH   DATA     BYTE      S2BRT
*SFR* 0000009AH   DATA     BYTE      S2BUF
*SFR* 000000B0H.5 DATA     BIT       S2CKO
*SFR* 000000AAH   DATA     BYTE      S2CON
*SFR* 00000090H.2 DATA     BIT       S2RXD
*SFR* 00000090H.3 DATA     BIT       S2TXD
      020000F2H   XDATA    BYTE      S41
*SFR* 000000A9H   DATA     BYTE      SADDR
*SFR* 000000B9H   DATA     BYTE      SADEN
*SFR* 00000099H   DATA     BYTE      SBUF
*SFR* 000000E6H   DATA     BYTE      SCMD
*SFR* 00000098H   DATA     BYTE      SCON
*SFR* 000000A0H.5 DATA     BIT       SDA
      01006BE9H   CODE     ---       SendPJ_6000_Time
      010067EFH   CODE     ---       SendVersion
      01006E6FH   CODE     ---       serial
LX51 LINKER/LOCATER V4.66.1.0                                                         04/24/2019  16:34:17  PAGE 23


      020000F5H   XDATA    ---       Set_TDS
      01007325H   CODE     ---       Set_U7_10k
      02000077H   XDATA    BYTE      SleepEnable
*SFR* 00000098H.7 DATA     BIT       SM0
*SFR* 00000098H.6 DATA     BIT       SM1
*SFR* 00000098H.5 DATA     BIT       SM2
      00000008H   IDATA    ---       Soft_Timer
      02000049H   XDATA    BYTE      Soft_Timer_Enable
      02000072H   XDATA    ---       Soft_Timer_PJ6000
*SFR* 00000081H   DATA     BYTE      SP
*SFR* 00000085H   DATA     BYTE      SPCTL
*SFR* 00000086H   DATA     BYTE      SPDAT
*SFR* 00000090H.7 DATA     BIT       SPI_CLK
*SFR* 00000090H.6 DATA     BIT       SPI_MISO
*SFR* 00000090H.5 DATA     BIT       SPI_MOSI
*SFR* 00000090H.4 DATA     BIT       SPI_SS
*SFR* 00000084H   DATA     BYTE      SPSTAT
      01005702H   CODE     ---       Start_Hour_Count
      02000006H   XDATA    BYTE      start_up_mode
      0100741BH   CODE     ---       Stop_KeyholdCounter
      010073F7H   CODE     ---       Stop_SleepCounter
      0100743FH   CODE     ---       Stop_WaterLackCounter
*SFR* 0000008FH   DATA     BYTE      STRETCH
*SFR* 000000B0H.4 DATA     BIT       T0
      00000010H   IDATA    BYTE      T0_cnt
      010072FDH   CODE     ---       T0_Init
*SFR* 000000B0H.4 DATA     BIT       T0CKO
*SFR* 000000B0H.5 DATA     BIT       T1
      00000011H   IDATA    BYTE      T1_cnt
      010072B9H   CODE     ---       T1_Init
*SFR* 00000090H   DATA     BIT       T2
*SFR* 000000C8H   DATA     BYTE      T2CON
*SFR* 00000090H.1 DATA     BIT       T2EX
*SFR* 000000C9H   DATA     BYTE      T2MOD
      01007623H   CONST    ---       tab_16
      01007627H   CONST    ---       tab_17
      01007618H   CONST    ---       tab_1_to_5
      0100762CH   CONST    ---       tab_6_to_7
      01007601H   CONST    ---       tab_8_to_15
      01007551H   CONST    ---       tab_current
      0100754CH   CONST    ---       tab_graph
      01007561H   CONST    ---       tab_i
      01007654H   CONST    ---       tab_LED
      01007544H   CONST    ---       tab_voice
      01007538H   CONST    ---       tab_wash
*SFR* 00000098H.3 DATA     BIT       TB8
*SFR* 000000C8H.4 DATA     BIT       TCLK
*SFR* 00000088H   DATA     BYTE      TCON
*SFR* 00000088H.5 DATA     BIT       TF0
*SFR* 00000088H.7 DATA     BIT       TF1
*SFR* 000000C8H.7 DATA     BIT       TF2
*SFR* 0000008CH   DATA     BYTE      TH0
*SFR* 0000008DH   DATA     BYTE      TH1
*SFR* 000000CDH   DATA     BYTE      TH2
*SFR* 00000098H.1 DATA     BIT       TI
      010068F5H   CODE     ---       time0
      01005511H   CODE     ---       time1
*SFR* 0000008AH   DATA     BYTE      TL0
*SFR* 0000008BH   DATA     BYTE      TL1
*SFR* 000000CCH   DATA     BYTE      TL2
*SFR* 00000089H   DATA     BYTE      TMOD
      01007636H   CONST    ---       tmp0_tab
      02000015H   XDATA    BYTE      tmp1
      01007645H   CONST    ---       tmp1_tab
*SFR* 00000090H.6 DATA     BIT       TOUCH_SCL
LX51 LINKER/LOCATER V4.66.1.0                                                         04/24/2019  16:34:17  PAGE 24


      02000047H   XDATA    BYTE      TPL0401A_ACK
      020000BFH   XDATA    BYTE      tpl0401a_value
*SFR* 00000088H.4 DATA     BIT       TR0
*SFR* 00000088H.6 DATA     BIT       TR1
*SFR* 000000C8H.2 DATA     BIT       TR2
*SFR* 000000B0H.1 DATA     BIT       TXD
      010071CCH   CODE     ---       uart_init
      0200004FH   XDATA    ---       Usage_Counter
      0200008FH   XDATA    WORD      UseHour
      020000A6H   XDATA    WORD      UseMin
*SFR* 00000090H   DATA     BIT       V_DETECT
      01007256H   CODE     ---       voice_12_13
*SFR* 000000B0H.6 DATA     BIT       VOICE_CS
      01007205H   CODE     ---       voice_pvoice
*SFR* 000000B0H.7 DATA     BIT       VOICE_SCL
      020000AAH   XDATA    BYTE      Voice_Timer
      020000B5H   XDATA    BYTE      Voice_Timer_2
      020000BEH   XDATA    BYTE      Voice_timer_flag
      02000019H   XDATA    BYTE      Voice_timer_flag_2
      010061A8H   CODE     ---       Volt_Ctrl
      020000C0H   XDATA    BYTE      Volume
      02000018H   XDATA    BYTE      VP02
      02000036H   XDATA    WORD      WashLiter
*SFR* 000000E1H   DATA     BYTE      WDTCR
*SFR* 000000B0H.6 DATA     BIT       WR
*SFR* 000000C0H   DATA     BYTE      XICON



SYMBOL TABLE OF MODULE:  PL905 (MAIN)

      VALUE       REP       CLASS    TYPE      SYMBOL NAME
      ====================================================
      ---         MODULE    ---      ---       MAIN
      020000C1H   PUBLIC    XDATA    BYTE      PVoice_tmp
      020000C0H   PUBLIC    XDATA    BYTE      Volume
      020000BFH   PUBLIC    XDATA    BYTE      tpl0401a_value
      020000BEH   PUBLIC    XDATA    BYTE      Voice_timer_flag
      020000BDH   PUBLIC    XDATA    BYTE      after_action
      020000BBH   PUBLIC    XDATA    WORD      overflow_flag
      020000B9H   PUBLIC    XDATA    WORD      max_hour_count
      020000B8H   PUBLIC    XDATA    BYTE      ex_alk_flag
      020000B7H   PUBLIC    XDATA    BYTE      Faucent_Version_Flag
      020000B6H   PUBLIC    XDATA    BYTE      Control_Selection
      00000020H.7 PUBLIC    BIT      BIT       f_lock
      020000B5H   PUBLIC    XDATA    BYTE      Voice_Timer_2
      020000AEH   PUBLIC    XDATA    ---       ele_set
      020000ADH   PUBLIC    XDATA    BYTE      ADS1115_Check_flag
      020000ABH   PUBLIC    XDATA    WORD      FLOW_cnt
      020000AAH   PUBLIC    XDATA    BYTE      Voice_Timer
      020000A8H   PUBLIC    XDATA    INT       kk
      020000A6H   PUBLIC    XDATA    WORD      UseMin
      02000096H   PUBLIC    XDATA    ---       I_add
      02000095H   PUBLIC    XDATA    BYTE      ADS1115_ACK
      02000094H   PUBLIC    XDATA    BYTE      ADL
      02000093H   PUBLIC    XDATA    BYTE      electrolysis_type
      02000091H   PUBLIC    XDATA    WORD      left_FlowCnt
      0200008FH   PUBLIC    XDATA    WORD      UseHour
      0200007FH   PUBLIC    XDATA    ---       iORPValue_Disp
      0200007EH   PUBLIC    XDATA    BYTE      ADH
      00000020H.6 PUBLIC    BIT      BIT       f_clean
      0200007AH   PUBLIC    XDATA    DWORD     electrolyze_time
      02000079H   PUBLIC    XDATA    BYTE      PVoice
      02000078H   PUBLIC    XDATA    BYTE      ReceiveDate
      02000077H   PUBLIC    XDATA    BYTE      SleepEnable
LX51 LINKER/LOCATER V4.66.1.0                                                         04/24/2019  16:34:17  PAGE 25


      02000076H   PUBLIC    XDATA    BYTE      clean_after_trun_off
      02000072H   PUBLIC    XDATA    ---       Soft_Timer_PJ6000
      02000071H   PUBLIC    XDATA    BYTE      ReceiveFlag
      0200006FH   PUBLIC    XDATA    WORD      ex_ads1115_value
      00000020H.5 PUBLIC    BIT      BIT       f_show_orp
      0200004FH   PUBLIC    XDATA    ---       Usage_Counter
      0200004EH   PUBLIC    XDATA    BYTE      ex_tpl0401a_value
      0200004DH   PUBLIC    XDATA    BYTE      r_step_max
      0200004CH   PUBLIC    XDATA    BYTE      r_step_cnt
      0200004BH   PUBLIC    XDATA    BYTE      do_clean_flag
      0200004AH   PUBLIC    XDATA    BYTE      POT_Fail_Flag
      02000049H   PUBLIC    XDATA    BYTE      Soft_Timer_Enable
      00000011H   PUBLIC    IDATA    BYTE      T1_cnt
      00000020H.4 PUBLIC    BIT      BIT       f_no_water
      00000010H   PUBLIC    IDATA    BYTE      T0_cnt
      02000048H   PUBLIC    XDATA    BYTE      aci_flag
      02000047H   PUBLIC    XDATA    BYTE      TPL0401A_ACK
      02000046H   PUBLIC    XDATA    BYTE      Language
      02000045H   PUBLIC    XDATA    BYTE      ErrCode
      02000043H   PUBLIC    XDATA    INT       I_add_t
      02000042H   PUBLIC    XDATA    BYTE      ex_op_mode
      0200003EH   PUBLIC    XDATA    DWORD     Outwater_Counter
      0200003DH   PUBLIC    XDATA    BYTE      demo_flag
      0200003CH   PUBLIC    XDATA    BYTE      Operation_Mode
      00000020H.3 PUBLIC    BIT      BIT       f_alarm_no_water
      0200003AH   PUBLIC    XDATA    WORD      ads1115_temp
      02000039H   PUBLIC    XDATA    BYTE      R03_R05N
      00000020H.2 PUBLIC    BIT      BIT       f_key_hold
      02000038H   PUBLIC    XDATA    BYTE      ADS1110_flag
      02000036H   PUBLIC    XDATA    WORD      WashLiter
      02000032H   PUBLIC    XDATA    ---       flow_cnt_tmp
      02000031H   PUBLIC    XDATA    BYTE      r_step
      0200002FH   PUBLIC    XDATA    WORD      LeftLiter
      0200002EH   PUBLIC    XDATA    BYTE      ex_electrolysis_type
      0200001AH   PUBLIC    XDATA    ---       Over_each_flag
      00000020H.1 PUBLIC    BIT      BIT       f_acid3
      02000019H   PUBLIC    XDATA    BYTE      Voice_timer_flag_2
      02000018H   PUBLIC    XDATA    BYTE      VP02
      02000017H   PUBLIC    XDATA    BYTE      ex_I
      02000016H   PUBLIC    XDATA    BYTE      Key_backup
      02000015H   PUBLIC    XDATA    BYTE      tmp1
      00000008H   PUBLIC    IDATA    ---       Soft_Timer
      02000013H   PUBLIC    XDATA    WORD      Liter
      02000007H   PUBLIC    XDATA    ---       LANGUAGE_STRING
      00000020H.0 PUBLIC    BIT      BIT       f_half_sec
      02000006H   PUBLIC    XDATA    BYTE      start_up_mode
      010075F9H   PUBLIC    CONST    ---       iORPValue_Falg
      010075F1H   PUBLIC    CONST    ---       iORPValue_index
      010075E1H   PUBLIC    CONST    ---       iORPValue
      010075D1H   PUBLIC    CONST    ---       i_multiply
      01007561H   PUBLIC    CONST    ---       tab_i
      01007551H   PUBLIC    CONST    ---       tab_current
      0100754CH   PUBLIC    CONST    ---       tab_graph
      01007544H   PUBLIC    CONST    ---       tab_voice
      01007538H   PUBLIC    CONST    ---       tab_wash
      01007501H   PUBLIC    CONST    ---       PH_tab
      010074CAH   PUBLIC    CONST    ---       PH_tab0
      010074A2H   PUBLIC    CONST    BYTE      Machine_ID
      0100749DH   PUBLIC    CONST    ---       LAN5
      01007498H   PUBLIC    CONST    ---       LAN4
      01007493H   PUBLIC    CONST    ---       LAN3
      0100748EH   PUBLIC    CONST    ---       LAN2
      01007489H   PUBLIC    CONST    ---       LAN0
      010031C9H   PUBLIC    CODE     ---       main
      01005A57H   PUBLIC    CODE     ---       do_start_up
LX51 LINKER/LOCATER V4.66.1.0                                                         04/24/2019  16:34:17  PAGE 26


      010058C3H   PUBLIC    CODE     ---       do_warning
      01006F38H   PUBLIC    CODE     ---       PORT_Init
      01001882H   PUBLIC    CODE     ---       do_electrolyze
      0100684BH   PUBLIC    CODE     ---       _CurrentSeg
      01006408H   PUBLIC    CODE     ---       do_sleep
      010028C3H   PUBLIC    CODE     ---       do_setup
      010037E1H   PUBLIC    CODE     ---       _do_clean
      010061A8H   PUBLIC    CODE     ---       Volt_Ctrl
      01004BD3H   PUBLIC    CODE     ---       _Disp_FlowGraph
      01000026H   PUBLIC    CODE     ---       do_standby
      01005CDDH   PUBLIC    CODE     ---       clean_w_PJ6000
      010053FDH   PUBLIC    CODE     ---       do_reset
      01006642H   PUBLIC    CODE     ---       EEPROM_ELECTROLYSIS_Read
      01007136H   PUBLIC    CODE     ---       EEPROM_WriteHideData
      0100647DH   PUBLIC    CODE     ---       EEPROM_WriteDefault
      01005B0CH   PUBLIC    CODE     ---       _EEPROM_ELECTROLYSIS_WriteDefault
      01006F68H   PUBLIC    CODE     ---       Disp_test
      010068A9H   PUBLIC    CODE     ---       _Disp_electrolysis_type_withoutLmin
      01006738H   PUBLIC    CODE     ---       _Disp_electrolysis_type
      01006E39H   PUBLIC    CODE     ---       _EEPROM_read_word
      01004A04H   PUBLIC    CODE     ---       EEPROM_write_hide_info
      01006EB5H   PUBLIC    CODE     ---       _EEPROM_write_word
      0100622CH   PUBLIC    CODE     ---       _SetCurrent
      010072D0H   PUBLIC    CODE     ---       Init_Volt_Detect
      01005E92H   PUBLIC    CODE     ---       _Disp_Acid
      01006D91H   PUBLIC    CODE     ---       _Disp_Clean
      0100698FH   PUBLIC    CODE     ---       Disp_Filter
      0100612BH   PUBLIC    CODE     ---       _Disp_Alak
      01005F1BH   PUBLIC    CODE     ---       _Disp_Acid_withoutLmin
      0100629FH   PUBLIC    CODE     ---       _Disp_Alak_withoutLmin
      01006392H   PUBLIC    CODE     ---       Filter_time_is_up
      01007480H   PUBLIC    CODE     ---       INT0_Init
      01005FB0H   PUBLIC    CODE     ---       _Water_In
      010072B9H   PUBLIC    CODE     ---       T1_Init
      010072FDH   PUBLIC    CODE     ---       T0_Init
      01005511H   PUBLIC    CODE     ---       time1
      010068F5H   PUBLIC    CODE     ---       time0
      01007220H   PUBLIC    CODE     ---       ex_int0
      01007205H   PUBLIC    CODE     ---       voice_pvoice
      01007256H   PUBLIC    CODE     ---       voice_12_13
      01006F14H   PUBLIC    CODE     ---       _Acid_Polar
      01005990H   PUBLIC    CODE     ---       _ADS1115_Check
      0100708DH   PUBLIC    CODE     ---       _U8_switch_short
      01007325H   PUBLIC    CODE     ---       Set_U7_10k
      01007069H   PUBLIC    CODE     ---       _Buzzer
      010071EDH   PUBLIC    CODE     ---       _delay
      0100459FH   PUBLIC    CODE     ---       _SendMode
      01004261H   PUBLIC    CODE     ---       _SendHideInfo
      01006BE9H   PUBLIC    CODE     ---       SendPJ_6000_Time
      010067EFH   PUBLIC    CODE     ---       SendVersion
      01007111H   PUBLIC    CODE     ---       _sendchar
      01006E6FH   PUBLIC    CODE     ---       serial
      010071CCH   PUBLIC    CODE     ---       uart_init
      000000D8H.2 SFRSYM    DATA     BIT       CCF2
      000000F6H   SFRSYM    DATA     BYTE      PCAPWM4
      00000091H   SFRSYM    DATA     BYTE      P1M0
      00000094H   SFRSYM    DATA     BYTE      P0M1
      000000D8H.3 SFRSYM    DATA     BIT       CCF3
      000000F7H   SFRSYM    DATA     BYTE      PCAPWM5
      00000095H   SFRSYM    DATA     BYTE      P2M0
      00000092H   SFRSYM    DATA     BYTE      P1M1
      00000080H   SFRSYM    DATA     BYTE      P0
      000000D8H.4 SFRSYM    DATA     BIT       CCF4
      000000B1H   SFRSYM    DATA     BYTE      P3M0
      00000096H   SFRSYM    DATA     BYTE      P2M1
LX51 LINKER/LOCATER V4.66.1.0                                                         04/24/2019  16:34:17  PAGE 27


      00000090H   SFRSYM    DATA     BYTE      P1
      000000D8H.5 SFRSYM    DATA     BIT       CCF5
      000000B3H   SFRSYM    DATA     BYTE      P4M0
      000000B2H   SFRSYM    DATA     BYTE      P3M1
      000000A0H   SFRSYM    DATA     BYTE      P2
      000000E7H   SFRSYM    DATA     BYTE      ISPCR
      000000B4H   SFRSYM    DATA     BYTE      P4M1
      000000B0H   SFRSYM    DATA     BYTE      P3
      000000C0H   SFRSYM    DATA     BYTE      XICON
      000000B0H.4 SFRSYM    DATA     BIT       T0
      000000D0H.6 SFRSYM    DATA     BIT       AC
      00000097H   SFRSYM    DATA     BYTE      EVRCR
      000000E8H   SFRSYM    DATA     BYTE      P4
      000000B0H.5 SFRSYM    DATA     BIT       T1
      00000090H   SFRSYM    DATA     BIT       T2
      000000A8H.7 SFRSYM    DATA     BIT       EA
      000000E1H   SFRSYM    DATA     BYTE      WDTCR
      000000A0H.2 SFRSYM    DATA     BIT       IO_DataLE
      00000090H.5 SFRSYM    DATA     BIT       SPI_MOSI
      00000090H.6 SFRSYM    DATA     BIT       SPI_MISO
      00000085H   SFRSYM    DATA     BYTE      SPCTL
      000000D8H.7 SFRSYM    DATA     BIT       CF
      000000AEH   SFRSYM    DATA     BYTE      AUXIP
      000000B0H.5 SFRSYM    DATA     BIT       IO_DataOE
      00000098H.7 SFRSYM    DATA     BIT       FE
      000000F9H   SFRSYM    DATA     BYTE      CH
      000000A8H   SFRSYM    DATA     BYTE      IE
      000000E8H.1 SFRSYM    DATA     BIT       Choose_Default
      000000E9H   SFRSYM    DATA     BYTE      CL
      00000090H.2 SFRSYM    DATA     BIT       CEX0
      000000FAH   SFRSYM    DATA     BYTE      CCAP0H
      000000C6H   SFRSYM    DATA     BYTE      ADCH
      00000090H.3 SFRSYM    DATA     BIT       CEX1
      000000FBH   SFRSYM    DATA     BYTE      CCAP1H
      00000090H.4 SFRSYM    DATA     BIT       CEX2
      000000FCH   SFRSYM    DATA     BYTE      CCAP2H
      00000090H.5 SFRSYM    DATA     BIT       CEX3
      000000FDH   SFRSYM    DATA     BYTE      CCAP3H
      00000090H.6 SFRSYM    DATA     BIT       CEX4
      000000D8H.6 SFRSYM    DATA     BIT       CR
      000000FEH   SFRSYM    DATA     BYTE      CCAP4H
      000000EAH   SFRSYM    DATA     BYTE      CCAP0L
      000000BEH   SFRSYM    DATA     BYTE      ADCL
      000000B0H.7 SFRSYM    DATA     BIT       RD
      00000090H.7 SFRSYM    DATA     BIT       CEX5
      000000C8H.6 SFRSYM    DATA     BIT       EXF2
      000000FFH   SFRSYM    DATA     BYTE      CCAP5H
      000000EBH   SFRSYM    DATA     BYTE      CCAP1L
      000000DAH   SFRSYM    DATA     BYTE      CCAPM0
      000000ECH   SFRSYM    DATA     BYTE      CCAP2L
      000000DBH   SFRSYM    DATA     BYTE      CCAPM1
      000000A8H.4 SFRSYM    DATA     BIT       ES
      000000EDH   SFRSYM    DATA     BYTE      CCAP3L
      000000DCH   SFRSYM    DATA     BYTE      CCAPM2
      000000EEH   SFRSYM    DATA     BYTE      CCAP4L
      000000DDH   SFRSYM    DATA     BYTE      CCAPM3
      000000B8H   SFRSYM    DATA     BYTE      IP
      000000EFH   SFRSYM    DATA     BYTE      CCAP5L
      000000DEH   SFRSYM    DATA     BYTE      CCAPM4
      00000098H   SFRSYM    DATA     BIT       RI
      000000DFH   SFRSYM    DATA     BYTE      CCAPM5
      000000B0H.2 SFRSYM    DATA     BIT       INT0
      000000D0H.7 SFRSYM    DATA     BIT       CY
      000000B0H.3 SFRSYM    DATA     BIT       INT1
      00000098H.1 SFRSYM    DATA     BIT       TI
LX51 LINKER/LOCATER V4.66.1.0                                                         04/24/2019  16:34:17  PAGE 28


      000000E8H.3 SFRSYM    DATA     BIT       INT2
      000000E8H.2 SFRSYM    DATA     BIT       INT3
      0000008FH   SFRSYM    DATA     BYTE      STRETCH
      000000CBH   SFRSYM    DATA     BYTE      RCAP2H
      00000090H.1 SFRSYM    DATA     BIT       HOT_CHK
      000000B8H.4 SFRSYM    DATA     BIT       PS
      00000081H   SFRSYM    DATA     BYTE      SP
      00000090H.1 SFRSYM    DATA     BIT       T2EX
      000000D9H   SFRSYM    DATA     BYTE      CMOD
      000000D8H   SFRSYM    DATA     BYTE      CCON
      000000D0H.2 SFRSYM    DATA     BIT       OV
      000000CAH   SFRSYM    DATA     BYTE      RCAP2L
      00000090H.7 SFRSYM    DATA     BIT       SPI_CLK
      000000E6H   SFRSYM    DATA     BYTE      SCMD
      000000B0H.6 SFRSYM    DATA     BIT       WR
      000000C8H.1 SFRSYM    DATA     BIT       C_T2
      000000C8H.5 SFRSYM    DATA     BIT       RCLK
      000000C8H.4 SFRSYM    DATA     BIT       TCLK
      00000080H   SFRSYM    DATA     BIT       P00
      000000E3H   SFRSYM    DATA     BYTE      IFADRH
      00000090H   SFRSYM    DATA     BIT       P10
      00000080H.1 SFRSYM    DATA     BIT       P01
      000000E5H   SFRSYM    DATA     BYTE      IFMT
      00000087H   SFRSYM    DATA     BYTE      PCON
      00000099H   SFRSYM    DATA     BYTE      SBUF
      000000A0H   SFRSYM    DATA     BIT       P20
      00000090H.1 SFRSYM    DATA     BIT       P11
      00000080H.2 SFRSYM    DATA     BIT       P02
      000000B0H   SFRSYM    DATA     BIT       P30
      000000A0H.1 SFRSYM    DATA     BIT       P21
      00000090H.2 SFRSYM    DATA     BIT       P12
      00000080H.3 SFRSYM    DATA     BIT       P03
      000000E8H   SFRSYM    DATA     BIT       P40
      000000B0H.1 SFRSYM    DATA     BIT       P31
      000000A0H.2 SFRSYM    DATA     BIT       P22
      00000090H.3 SFRSYM    DATA     BIT       P13
      00000080H.4 SFRSYM    DATA     BIT       P04
      000000E4H   SFRSYM    DATA     BYTE      IFADRL
      00000098H   SFRSYM    DATA     BYTE      SCON
      000000E8H.1 SFRSYM    DATA     BIT       P41
      000000B0H.2 SFRSYM    DATA     BIT       P32
      000000A0H.3 SFRSYM    DATA     BIT       P23
      00000090H.4 SFRSYM    DATA     BIT       P14
      00000080H.5 SFRSYM    DATA     BIT       P05
      00000089H   SFRSYM    DATA     BYTE      TMOD
      00000088H   SFRSYM    DATA     BYTE      TCON
      000000E8H.2 SFRSYM    DATA     BIT       P42
      000000B0H.3 SFRSYM    DATA     BIT       P33
      000000A0H.4 SFRSYM    DATA     BIT       P24
      00000090H.5 SFRSYM    DATA     BIT       P15
      00000080H.6 SFRSYM    DATA     BIT       P06
      000000E8H.3 SFRSYM    DATA     BIT       P43
      000000B0H.4 SFRSYM    DATA     BIT       P34
      000000A0H.5 SFRSYM    DATA     BIT       P25
      00000090H.6 SFRSYM    DATA     BIT       P16
      00000080H.7 SFRSYM    DATA     BIT       P07
      000000B0H.5 SFRSYM    DATA     BIT       P35
      000000A0H.6 SFRSYM    DATA     BIT       P26
      00000090H.7 SFRSYM    DATA     BIT       P17
      000000B0H.6 SFRSYM    DATA     BIT       P36
      000000A0H.7 SFRSYM    DATA     BIT       P27
      000000B0H.7 SFRSYM    DATA     BIT       P37
      000000D7H   SFRSYM    DATA     BYTE      KBMASK
      00000088H.1 SFRSYM    DATA     BIT       IE0
      00000088H.3 SFRSYM    DATA     BIT       IE1
LX51 LINKER/LOCATER V4.66.1.0                                                         04/24/2019  16:34:17  PAGE 29


      000000C0H.1 SFRSYM    DATA     BIT       IE2
      000000C0H.5 SFRSYM    DATA     BIT       IE3
      0000008EH   SFRSYM    DATA     BYTE      AUXR
      000000F0H   SFRSYM    DATA     BYTE      B
      000000D5H   SFRSYM    DATA     BYTE      KBPATN
      000000A0H.1 SFRSYM    DATA     BIT       LED_DataLE
      000000C8H   SFRSYM    DATA     BIT       CP_RL2
      000000E0H   SFRSYM    DATA     BYTE      ACC
      000000C6H   SFRSYM    DATA     BYTE      ADC
      000000A8H.1 SFRSYM    DATA     BIT       ET0
      00000088H.5 SFRSYM    DATA     BIT       TF0
      000000A8H.3 SFRSYM    DATA     BIT       ET1
      000000A0H   SFRSYM    DATA     BIT       LCM_DataLE
      00000088H.7 SFRSYM    DATA     BIT       TF1
      000000A8H.5 SFRSYM    DATA     BIT       ET2
      000000C8H.7 SFRSYM    DATA     BIT       TF2
      00000098H.2 SFRSYM    DATA     BIT       RB8
      0000008CH   SFRSYM    DATA     BYTE      TH0
      00000088H   SFRSYM    DATA     BIT       IT0
      000000A8H   SFRSYM    DATA     BIT       EX0
      0000008DH   SFRSYM    DATA     BYTE      TH1
      00000088H.2 SFRSYM    DATA     BIT       IT1
      00000098H.3 SFRSYM    DATA     BIT       TB8
      000000A8H.2 SFRSYM    DATA     BIT       EX1
      000000CDH   SFRSYM    DATA     BYTE      TH2
      000000C0H   SFRSYM    DATA     BIT       IT2
      000000C0H.2 SFRSYM    DATA     BIT       EX2
      000000D0H   SFRSYM    DATA     BIT       P
      000000C0H.4 SFRSYM    DATA     BIT       IT3
      000000C0H.6 SFRSYM    DATA     BIT       EX3
      00000098H.7 SFRSYM    DATA     BIT       SM0
      0000008AH   SFRSYM    DATA     BYTE      TL0
      00000090H.1 SFRSYM    DATA     BIT       ECI
      00000098H.6 SFRSYM    DATA     BIT       SM1
      0000008BH   SFRSYM    DATA     BYTE      TL1
      000000AFH   SFRSYM    DATA     BYTE      AUXIPH
      00000098H.5 SFRSYM    DATA     BIT       SM2
      000000CCH   SFRSYM    DATA     BYTE      TL2
      000000E2H   SFRSYM    DATA     BYTE      IFD
      000000B8H.1 SFRSYM    DATA     BIT       PT0
      000000B8H.3 SFRSYM    DATA     BIT       PT1
      000000D0H.3 SFRSYM    DATA     BIT       RS0
      00000088H.4 SFRSYM    DATA     BIT       TR0
      000000B8H.5 SFRSYM    DATA     BIT       PT2
      000000D0H.4 SFRSYM    DATA     BIT       RS1
      00000088H.6 SFRSYM    DATA     BIT       TR1
      000000C8H.2 SFRSYM    DATA     BIT       TR2
      000000B8H   SFRSYM    DATA     BIT       PX0
      000000B8H.2 SFRSYM    DATA     BIT       PX1
      000000C0H.3 SFRSYM    DATA     BIT       PX2
      000000C0H.7 SFRSYM    DATA     BIT       PX3
      00000083H   SFRSYM    DATA     BYTE      DPH
      00000082H   SFRSYM    DATA     BYTE      DPL
      00000084H   SFRSYM    DATA     BYTE      SPSTAT
      000000B7H   SFRSYM    DATA     BYTE      IPH
      000000B0H.4 SFRSYM    DATA     BIT       T0CKO
      000000B0H.5 SFRSYM    DATA     BIT       S2CKO
      000000C8H.3 SFRSYM    DATA     BIT       EXEN2
      000000C7H   SFRSYM    DATA     BYTE      PCON2
      0000009AH   SFRSYM    DATA     BYTE      S2BUF
      00000098H.4 SFRSYM    DATA     BIT       REN
      000000AAH   SFRSYM    DATA     BYTE      S2CON
      000000C9H   SFRSYM    DATA     BYTE      T2MOD
      000000C8H   SFRSYM    DATA     BYTE      T2CON
      000000C5H   SFRSYM    DATA     BYTE      ADCTL
LX51 LINKER/LOCATER V4.66.1.0                                                         04/24/2019  16:34:17  PAGE 30


      000000B0H.3 SFRSYM    DATA     BIT       INT
      000000B9H   SFRSYM    DATA     BYTE      SADEN
      000000B0H   SFRSYM    DATA     BIT       RXD
      000000D6H   SFRSYM    DATA     BYTE      KBCON
      000000BAH   SFRSYM    DATA     BYTE      S2BRT
      000000A9H   SFRSYM    DATA     BYTE      SADDR
      000000B0H.1 SFRSYM    DATA     BIT       TXD
      00000090H   SFRSYM    DATA     BIT       V_DETECT
      000000A2H   SFRSYM    DATA     BYTE      AUXR1
      00000090H.4 SFRSYM    DATA     BIT       SPI_SS
      000000A6H   SFRSYM    DATA     BYTE      AUXR2
      00000090H.2 SFRSYM    DATA     BIT       S2RXD
      000000D0H.5 SFRSYM    DATA     BIT       F0
      00000090H.3 SFRSYM    DATA     BIT       S2TXD
      000000F2H   SFRSYM    DATA     BYTE      PCAPWM0
      000000D0H   SFRSYM    DATA     BYTE      PSW
      000000F3H   SFRSYM    DATA     BYTE      PCAPWM1
      000000D8H   SFRSYM    DATA     BIT       CCF0
      000000F4H   SFRSYM    DATA     BYTE      PCAPWM2
      000000D8H.1 SFRSYM    DATA     BIT       CCF1
      000000F5H   SFRSYM    DATA     BYTE      PCAPWM3
      00000086H   SFRSYM    DATA     BYTE      SPDAT
      00000093H   SFRSYM    DATA     BYTE      P0M0
      000000ADH   SFRSYM    DATA     BYTE      AUXIE
      010074A3H   SYMBOL    CONST    ---       _?ix1000
      010074A7H   SYMBOL    CONST    ---       _?ix1001
      010074ACH   SYMBOL    CONST    ---       _?ix1002
      010074B8H   SYMBOL    CONST    ---       _?ix1003
      010074BAH   SYMBOL    CONST    ---       _?ix1004
      010074C2H   SYMBOL    CONST    ---       _?ix1005

      010071CCH   BLOCK     CODE     ---       LVL=0
      010071CCH   LINE      CODE     ---       #151
      010071CCH   LINE      CODE     ---       #152
      010071CCH   LINE      CODE     ---       #153
      010071CFH   LINE      CODE     ---       #154
      010071D2H   LINE      CODE     ---       #155
      010071D5H   LINE      CODE     ---       #156
      010071D8H   LINE      CODE     ---       #161
      010071DBH   LINE      CODE     ---       #162
      010071DEH   LINE      CODE     ---       #163
      010071E1H   LINE      CODE     ---       #164
      010071E4H   LINE      CODE     ---       #165
      010071E6H   LINE      CODE     ---       #166
      010071E8H   LINE      CODE     ---       #167
      ---         BLOCKEND  ---      ---       LVL=0

      01006E6FH   BLOCK     CODE     ---       LVL=0
      01006E6FH   LINE      CODE     ---       #169
      01006E77H   LINE      CODE     ---       #172
      01006E7AH   LINE      CODE     ---       #173
      01006E7AH   LINE      CODE     ---       #174
      01006E7CH   LINE      CODE     ---       #175
      01006E7CH   LINE      CODE     ---       #176
      01006E7FH   LINE      CODE     ---       #177
      01006E7FH   LINE      CODE     ---       #178
      01006E81H   LINE      CODE     ---       #179
      01006E87H   LINE      CODE     ---       #180
      01006E8DH   LINE      CODE     ---       #181
      01006E94H   LINE      CODE     ---       #182
      01006E94H   LINE      CODE     ---       #183
      01006E96H   LINE      CODE     ---       #184
      01006E9BH   LINE      CODE     ---       #185
      01006E9BH   LINE      CODE     ---       #186
      01006E9BH   LINE      CODE     ---       #187
LX51 LINKER/LOCATER V4.66.1.0                                                         04/24/2019  16:34:17  PAGE 31


      ---         BLOCKEND  ---      ---       LVL=0

      010070F7H   BLOCK     CODE     VOID      LVL=0
      ---         BLOCKEND  ---      ---       LVL=0

      01007111H   BLOCK     CODE     ---       LVL=0
      00000007H   SYMBOL    DATA     BYTE      SendData
      01007111H   LINE      CODE     ---       #188
      01007111H   LINE      CODE     ---       #189
      01007111H   LINE      CODE     ---       #190
      01007113H   LINE      CODE     ---       #191
      01007116H   LINE      CODE     ---       #192
      ---         BLOCKEND  ---      ---       LVL=0

      010067EFH   BLOCK     CODE     ---       LVL=0
      010067EFH   BLOCK     CODE     NEAR LAB  LVL=1
      020000CCH   SYMBOL    XDATA    ---       version_date
      02000000H   SYMBOL    XDATA    BYTE      i
      ---         BLOCKEND  ---      ---       LVL=1
      010067EFH   LINE      CODE     ---       #193
      010067EFH   LINE      CODE     ---       #194
      010067EFH   LINE      CODE     ---       #206
      01006802H   LINE      CODE     ---       #208
      01006807H   LINE      CODE     ---       #209
      0100680BH   LINE      CODE     ---       #210
      0100680FH   LINE      CODE     ---       #211
      01006813H   LINE      CODE     ---       #213
      0100681AH   LINE      CODE     ---       #214
      0100681AH   LINE      CODE     ---       #215
      0100681FH   LINE      CODE     ---       #216
      01006822H   LINE      CODE     ---       #217
      01006822H   LINE      CODE     ---       #218
      01006824H   LINE      CODE     ---       #219
      01006828H   LINE      CODE     ---       #220
      01006828H   LINE      CODE     ---       #221
      01006830H   LINE      CODE     ---       #222
      01006836H   LINE      CODE     ---       #223
      0100683CH   LINE      CODE     ---       #224
      0100683DH   LINE      CODE     ---       #226
      0100683DH   LINE      CODE     ---       #227
      01006845H   LINE      CODE     ---       #229
      0100684AH   LINE      CODE     ---       #230
      0100684AH   LINE      CODE     ---       #233
      ---         BLOCKEND  ---      ---       LVL=0

      01006BE9H   BLOCK     CODE     ---       LVL=0
      01006BE9H   BLOCK     CODE     NEAR LAB  LVL=1
      020000D3H   SYMBOL    XDATA    ---       pj6000_time
      00000006H   SYMBOL    DATA     BYTE      i
      ---         BLOCKEND  ---      ---       LVL=1
      01006BE9H   LINE      CODE     ---       #234
      01006BE9H   LINE      CODE     ---       #235
      01006BE9H   LINE      CODE     ---       #247
      01006BFCH   LINE      CODE     ---       #249
      01006C02H   LINE      CODE     ---       #250
      01006C08H   LINE      CODE     ---       #251
      01006C0EH   LINE      CODE     ---       #252
      01006C14H   LINE      CODE     ---       #253
      01006C1AH   LINE      CODE     ---       #255
      01006C1CH   LINE      CODE     ---       #256
      01006C1CH   LINE      CODE     ---       #257
      01006C1FH   LINE      CODE     ---       #258
      01006C1FH   LINE      CODE     ---       #259
      01006C1FH   LINE      CODE     ---       #260
      01006C1FH   LINE      CODE     ---       #261
LX51 LINKER/LOCATER V4.66.1.0                                                         04/24/2019  16:34:17  PAGE 32


      01006C22H   LINE      CODE     ---       #262
      01006C27H   LINE      CODE     ---       #263
      ---         BLOCKEND  ---      ---       LVL=0

      01004261H   BLOCK     CODE     ---       LVL=0
      020000CCH   SYMBOL    XDATA    BYTE      sel_data
      01004266H   BLOCK     CODE     NEAR LAB  LVL=1
      020000CDH   SYMBOL    XDATA    ---       hide_date
      ---         BLOCKEND  ---      ---       LVL=1
      01004261H   LINE      CODE     ---       #265
      01004266H   LINE      CODE     ---       #266
      01004266H   LINE      CODE     ---       #285
      01004279H   LINE      CODE     ---       #286
      01004287H   LINE      CODE     ---       #287
      0100429AH   LINE      CODE     ---       #288
      010042A8H   LINE      CODE     ---       #289
      010042B2H   LINE      CODE     ---       #290
      010042C8H   LINE      CODE     ---       #291
      010042C8H   LINE      CODE     ---       #292
      010042C8H   LINE      CODE     ---       #293
      010042C8H   LINE      CODE     ---       #294
      010042C8H   LINE      CODE     ---       #295
      010042C8H   LINE      CODE     ---       #296
      010042C8H   LINE      CODE     ---       #297
      010042C8H   LINE      CODE     ---       #298
      010042C8H   LINE      CODE     ---       #299
      010042C8H   LINE      CODE     ---       #300
      010042E6H   LINE      CODE     ---       #301
      0100430BH   LINE      CODE     ---       #302
      01004336H   LINE      CODE     ---       #303
      0100435EH   LINE      CODE     ---       #304
      01004389H   LINE      CODE     ---       #305
      010043B1H   LINE      CODE     ---       #306
      010043DBH   LINE      CODE     ---       #307
      010043E9H   LINE      CODE     ---       #308
      010043ECH   LINE      CODE     ---       #309
      010043ECH   LINE      CODE     ---       #310
      010043FBH   LINE      CODE     ---       #311
      01004415H   LINE      CODE     ---       #312
      01004432H   LINE      CODE     ---       #313
      0100444FH   LINE      CODE     ---       #314
      0100446CH   LINE      CODE     ---       #315
      01004489H   LINE      CODE     ---       #316
      010044A5H   LINE      CODE     ---       #317
      010044A8H   LINE      CODE     ---       #318
      010044ABH   LINE      CODE     ---       #319
      010044ABH   LINE      CODE     ---       #320
      010044BAH   LINE      CODE     ---       #321
      010044D4H   LINE      CODE     ---       #322
      010044F1H   LINE      CODE     ---       #323
      0100450EH   LINE      CODE     ---       #324
      0100452BH   LINE      CODE     ---       #325
      01004548H   LINE      CODE     ---       #326
      01004564H   LINE      CODE     ---       #327
      01004580H   LINE      CODE     ---       #328
      01004580H   LINE      CODE     ---       #329
      01004580H   LINE      CODE     ---       #330
      01004583H   LINE      CODE     ---       #331
      01004583H   LINE      CODE     ---       #332
      01004583H   LINE      CODE     ---       #333
      01004583H   LINE      CODE     ---       #334
      01004586H   LINE      CODE     ---       #335
      01004587H   LINE      CODE     ---       #336
      01004587H   LINE      CODE     ---       #337
      01004587H   LINE      CODE     ---       #338
LX51 LINKER/LOCATER V4.66.1.0                                                         04/24/2019  16:34:17  PAGE 33


      01004587H   LINE      CODE     ---       #339
      0100458AH   LINE      CODE     ---       #340
      01004590H   LINE      CODE     ---       #341
      ---         BLOCKEND  ---      ---       LVL=0

      01004596H   BLOCK     CODE     VOID      LVL=0
      ---         BLOCKEND  ---      ---       LVL=0

      0100459FH   BLOCK     CODE     ---       LVL=0
      020000DAH   SYMBOL    XDATA    BYTE      mode_sel
      020000DBH   SYMBOL    XDATA    WORD      uart_data
      020000DDH   SYMBOL    XDATA    ---       flow
      00000006H   SYMBOL    DATA     BYTE      op_mode
      00000007H   SYMBOL    DATA     BYTE      area
      02000001H   SYMBOL    XDATA    BYTE      i
      020000DFH   SYMBOL    XDATA    ---       left_liter
      020000E7H   SYMBOL    XDATA    ---       use_hour
      010045AAH   BLOCK     CODE     NEAR LAB  LVL=1
      020000DDH   SYMBOL    XDATA    ---       flow
      00000006H   SYMBOL    DATA     BYTE      op_mode
      00000007H   SYMBOL    DATA     BYTE      area
      02000001H   SYMBOL    XDATA    BYTE      i
      020000DFH   SYMBOL    XDATA    ---       left_liter
      020000E7H   SYMBOL    XDATA    ---       use_hour
      ---         BLOCKEND  ---      ---       LVL=1
      0100459FH   LINE      CODE     ---       #345
      010045AAH   LINE      CODE     ---       #346
      010045AAH   LINE      CODE     ---       #383
      010045BDH   LINE      CODE     ---       #385
      010045E3H   LINE      CODE     ---       #386
      01004600H   LINE      CODE     ---       #387
      01004600H   LINE      CODE     ---       #388
      01004600H   LINE      CODE     ---       #389
      01004606H   LINE      CODE     ---       #390
      01004609H   LINE      CODE     ---       #391
      01004611H   LINE      CODE     ---       #392
      01004615H   LINE      CODE     ---       #393
      01004619H   LINE      CODE     ---       #394
      0100461DH   LINE      CODE     ---       #396
      01004622H   LINE      CODE     ---       #397
      01004625H   LINE      CODE     ---       #398
      01004625H   LINE      CODE     ---       #399
      0100462BH   LINE      CODE     ---       #400
      0100462BH   LINE      CODE     ---       #401
      01004631H   LINE      CODE     ---       #402
      01004635H   LINE      CODE     ---       #405
      01004637H   LINE      CODE     ---       #406
      01004639H   LINE      CODE     ---       #408
      0100463BH   LINE      CODE     ---       #409
      0100463DH   LINE      CODE     ---       #410
      01004664H   LINE      CODE     ---       #411
      01004669H   LINE      CODE     ---       #412
      0100466CH   LINE      CODE     ---       #413
      01004671H   LINE      CODE     ---       #415
      01004673H   LINE      CODE     ---       #416
      01004676H   LINE      CODE     ---       #417
      01004676H   LINE      CODE     ---       #418
      01004682H   LINE      CODE     ---       #419
      01004695H   LINE      CODE     ---       #420
      010046A2H   LINE      CODE     ---       #421
      010046ADH   LINE      CODE     ---       #422
      010046B0H   LINE      CODE     ---       #423
      010046B0H   LINE      CODE     ---       #424
      010046C4H   LINE      CODE     ---       #425
      010046DFH   LINE      CODE     ---       #426
LX51 LINKER/LOCATER V4.66.1.0                                                         04/24/2019  16:34:17  PAGE 34


      010046F3H   LINE      CODE     ---       #427
      01004703H   LINE      CODE     ---       #431
      01004717H   LINE      CODE     ---       #432
      01004732H   LINE      CODE     ---       #433
      01004746H   LINE      CODE     ---       #434
      01004756H   LINE      CODE     ---       #441
      0100475DH   LINE      CODE     ---       #442
      0100475DH   LINE      CODE     ---       #443
      01004760H   LINE      CODE     ---       #444
      01004760H   LINE      CODE     ---       #445
      01004760H   LINE      CODE     ---       #446
      01004762H   LINE      CODE     ---       #447
      01004766H   LINE      CODE     ---       #448
      01004766H   LINE      CODE     ---       #449
      01004769H   LINE      CODE     ---       #450
      01004769H   LINE      CODE     ---       #451
      01004769H   LINE      CODE     ---       #452
      0100476BH   LINE      CODE     ---       #453
      01004773H   LINE      CODE     ---       #454
      01004773H   LINE      CODE     ---       #455
      01004776H   LINE      CODE     ---       #456
      01004776H   LINE      CODE     ---       #457
      01004776H   LINE      CODE     ---       #458
      01004778H   LINE      CODE     ---       #459
      0100477CH   LINE      CODE     ---       #460
      0100477CH   LINE      CODE     ---       #461
      01004785H   LINE      CODE     ---       #462
      0100478CH   LINE      CODE     ---       #463
      01004792H   LINE      CODE     ---       #464
      01004794H   LINE      CODE     ---       #466
      01004794H   LINE      CODE     ---       #467
      0100479BH   LINE      CODE     ---       #468
      0100479EH   LINE      CODE     ---       #469
      010047A2H   LINE      CODE     ---       #471
      010047A7H   LINE      CODE     ---       #472
      010047B1H   LINE      CODE     ---       #473
      010047B6H   LINE      CODE     ---       #474
      010047BBH   LINE      CODE     ---       #475
      010047BBH   LINE      CODE     ---       #476
      010047BDH   LINE      CODE     ---       #477
      010047BDH   LINE      CODE     ---       #478
      010047C2H   LINE      CODE     ---       #479
      010047C5H   LINE      CODE     ---       #480
      010047C9H   LINE      CODE     ---       #482
      010047CEH   LINE      CODE     ---       #483
      010047D8H   LINE      CODE     ---       #484
      010047DDH   LINE      CODE     ---       #485
      010047DDH   LINE      CODE     ---       #486
      010047DDH   LINE      CODE     ---       #488
      010047E2H   LINE      CODE     ---       #490
      ---         BLOCKEND  ---      ---       LVL=0

      010071E9H   BLOCK     CODE     VOID      LVL=0
      ---         BLOCKEND  ---      ---       LVL=0

      010071EDH   BLOCK     CODE     ---       LVL=0
      00000006H   SYMBOL    DATA     WORD      i
      00000005H   SYMBOL    DATA     BYTE      j
      010071EDH   BLOCK     CODE     NEAR LAB  LVL=1
      00000005H   SYMBOL    DATA     BYTE      j
      ---         BLOCKEND  ---      ---       LVL=1
      010071EDH   LINE      CODE     ---       #546
      010071EDH   LINE      CODE     ---       #547
      010071EDH   LINE      CODE     ---       #549
      010071F6H   LINE      CODE     ---       #550
LX51 LINKER/LOCATER V4.66.1.0                                                         04/24/2019  16:34:17  PAGE 35


      01007204H   LINE      CODE     ---       #551
      ---         BLOCKEND  ---      ---       LVL=0

      01007069H   BLOCK     CODE     ---       LVL=0
      00000007H   SYMBOL    DATA     BYTE      status
      01007069H   LINE      CODE     ---       #553
      01007069H   LINE      CODE     ---       #554
      01007069H   LINE      CODE     ---       #555
      0100706FH   LINE      CODE     ---       #556
      0100706FH   LINE      CODE     ---       #557
      01007075H   LINE      CODE     ---       #558
      0100707BH   LINE      CODE     ---       #560
      0100707FH   LINE      CODE     ---       #561
      01007085H   LINE      CODE     ---       #562
      01007087H   LINE      CODE     ---       #563
      01007088H   LINE      CODE     ---       #564
      01007089H   LINE      CODE     ---       #565
      0100708AH   LINE      CODE     ---       #566
      0100708CH   LINE      CODE     ---       #567
      0100708CH   LINE      CODE     ---       #568
      ---         BLOCKEND  ---      ---       LVL=0

      01007325H   BLOCK     CODE     ---       LVL=0
      01007325H   LINE      CODE     ---       #569
      01007325H   LINE      CODE     ---       #570
      01007325H   LINE      CODE     ---       #571
      0100732AH   LINE      CODE     ---       #573
      01007331H   LINE      CODE     ---       #574
      01007336H   LINE      CODE     ---       #575
      ---         BLOCKEND  ---      ---       LVL=0

      0100708DH   BLOCK     CODE     ---       LVL=0
      00000007H   SYMBOL    DATA     BYTE      status
      0100708DH   LINE      CODE     ---       #576
      0100708DH   LINE      CODE     ---       #577
      0100708DH   LINE      CODE     ---       #578
      01007093H   LINE      CODE     ---       #579
      01007093H   LINE      CODE     ---       #580
      01007099H   LINE      CODE     ---       #581
      0100709FH   LINE      CODE     ---       #583
      010070A3H   LINE      CODE     ---       #584
      010070A9H   LINE      CODE     ---       #585
      010070ABH   LINE      CODE     ---       #586
      010070ACH   LINE      CODE     ---       #587
      010070ADH   LINE      CODE     ---       #588
      010070AEH   LINE      CODE     ---       #589
      010070B0H   LINE      CODE     ---       #590
      010070B0H   LINE      CODE     ---       #591
      ---         BLOCKEND  ---      ---       LVL=0

      01005990H   BLOCK     CODE     ---       LVL=0
      00000007H   SYMBOL    DATA     BYTE      status
      01005990H   LINE      CODE     ---       #592
      01005990H   LINE      CODE     ---       #593
      01005990H   LINE      CODE     ---       #594
      01005999H   LINE      CODE     ---       #595
      01005999H   LINE      CODE     ---       #596
      0100599CH   LINE      CODE     ---       #597
      0100599CH   LINE      CODE     ---       #598
      010059AAH   LINE      CODE     ---       #599
      010059B2H   LINE      CODE     ---       #600
      010059B4H   LINE      CODE     ---       #602
      010059B4H   LINE      CODE     ---       #603
      010059B7H   LINE      CODE     ---       #605
      010059B7H   LINE      CODE     ---       #606
LX51 LINKER/LOCATER V4.66.1.0                                                         04/24/2019  16:34:17  PAGE 36


      010059CEH   LINE      CODE     ---       #607
      010059CEH   LINE      CODE     ---       #608
      010059E7H   LINE      CODE     ---       #609
      010059E7H   LINE      CODE     ---       #610
      01005A0FH   LINE      CODE     ---       #611
      01005A0FH   LINE      CODE     ---       #612
      01005A1EH   LINE      CODE     ---       #613
      01005A24H   LINE      CODE     ---       #614
      01005A26H   LINE      CODE     ---       #616
      01005A26H   LINE      CODE     ---       #617
      01005A35H   LINE      CODE     ---       #618
      01005A3DH   LINE      CODE     ---       #619
      01005A42H   LINE      CODE     ---       #620
      01005A42H   LINE      CODE     ---       #621
      01005A42H   LINE      CODE     ---       #622
      01005A42H   LINE      CODE     ---       #623
      01005A42H   LINE      CODE     ---       #624
      01005A4BH   LINE      CODE     ---       #625
      01005A4BH   LINE      CODE     ---       #626
      01005A51H   LINE      CODE     ---       #627
      01005A56H   LINE      CODE     ---       #628
      01005A56H   LINE      CODE     ---       #629
      01005A56H   LINE      CODE     ---       #630
      ---         BLOCKEND  ---      ---       LVL=0

      01006F08H   BLOCK     CODE     VOID      LVL=0
      ---         BLOCKEND  ---      ---       LVL=0

      01006F14H   BLOCK     CODE     ---       LVL=0
      00000007H   SYMBOL    DATA     BYTE      status
      01006F14H   LINE      CODE     ---       #631
      01006F14H   LINE      CODE     ---       #632
      01006F14H   LINE      CODE     ---       #633
      01006F1AH   LINE      CODE     ---       #634
      01006F1AH   LINE      CODE     ---       #635
      01006F20H   LINE      CODE     ---       #636
      01006F26H   LINE      CODE     ---       #638
      01006F2AH   LINE      CODE     ---       #639
      01006F30H   LINE      CODE     ---       #640
      01006F32H   LINE      CODE     ---       #641
      01006F33H   LINE      CODE     ---       #642
      01006F34H   LINE      CODE     ---       #643
      01006F35H   LINE      CODE     ---       #644
      01006F37H   LINE      CODE     ---       #645
      01006F37H   LINE      CODE     ---       #646
      ---         BLOCKEND  ---      ---       LVL=0

      01007256H   BLOCK     CODE     ---       LVL=0
      01007256H   LINE      CODE     ---       #647
      01007256H   LINE      CODE     ---       #648
      01007256H   LINE      CODE     ---       #649
      0100725CH   LINE      CODE     ---       #650
      0100725CH   LINE      CODE     ---       #651
      0100726AH   LINE      CODE     ---       #652
      0100726FH   LINE      CODE     ---       #653
      0100726FH   LINE      CODE     ---       #655
      ---         BLOCKEND  ---      ---       LVL=0

      01007205H   BLOCK     CODE     ---       LVL=0
      01007205H   LINE      CODE     ---       #656
      01007205H   LINE      CODE     ---       #657
      01007205H   LINE      CODE     ---       #658
      0100720CH   LINE      CODE     ---       #659
      0100720CH   LINE      CODE     ---       #660
      0100721AH   LINE      CODE     ---       #661
LX51 LINKER/LOCATER V4.66.1.0                                                         04/24/2019  16:34:17  PAGE 37


      0100721FH   LINE      CODE     ---       #662
      0100721FH   LINE      CODE     ---       #663
      ---         BLOCKEND  ---      ---       LVL=0

      01007220H   BLOCK     CODE     ---       LVL=0
      01007220H   LINE      CODE     ---       #664
      01007226H   LINE      CODE     ---       #666
      01007234H   LINE      CODE     ---       #667
      ---         BLOCKEND  ---      ---       LVL=0

      010068F5H   BLOCK     CODE     ---       LVL=0
      010068F5H   LINE      CODE     ---       #669
      01006912H   LINE      CODE     ---       #671
      01006914H   LINE      CODE     ---       #672
      01006917H   LINE      CODE     ---       #673
      0100691CH   LINE      CODE     ---       #674
      0100691FH   LINE      CODE     ---       #675
      01006922H   LINE      CODE     ---       #676
      01006925H   LINE      CODE     ---       #677
      01006927H   LINE      CODE     ---       #678
      ---         BLOCKEND  ---      ---       LVL=0

      01005511H   BLOCK     CODE     ---       LVL=0
      01005511H   LINE      CODE     ---       #680
      0100552EH   LINE      CODE     ---       #682
      01005530H   LINE      CODE     ---       #683
      01005533H   LINE      CODE     ---       #685
      01005539H   LINE      CODE     ---       #686
      01005539H   LINE      CODE     ---       #688
      01005541H   LINE      CODE     ---       #689
      01005547H   LINE      CODE     ---       #690
      01005547H   LINE      CODE     ---       #691
      0100554BH   LINE      CODE     ---       #692
      0100554EH   LINE      CODE     ---       #693
      0100554EH   LINE      CODE     ---       #694
      0100554EH   LINE      CODE     ---       #695
      01005554H   LINE      CODE     ---       #696
      01005554H   LINE      CODE     ---       #698
      0100555CH   LINE      CODE     ---       #699
      01005562H   LINE      CODE     ---       #700
      01005562H   LINE      CODE     ---       #701
      01005566H   LINE      CODE     ---       #702
      01005569H   LINE      CODE     ---       #703
      01005569H   LINE      CODE     ---       #704
      01005569H   LINE      CODE     ---       #705
      0100556FH   LINE      CODE     ---       #706
      01005575H   LINE      CODE     ---       #708
      0100557DH   LINE      CODE     ---       #709
      0100557FH   LINE      CODE     ---       #711
      01005584H   LINE      CODE     ---       #712
      01005584H   LINE      CODE     ---       #713
      01005587H   LINE      CODE     ---       #714
      0100558DH   LINE      CODE     ---       #715
      01005593H   LINE      CODE     ---       #716
      01005599H   LINE      CODE     ---       #717
      0100559FH   LINE      CODE     ---       #718
      010055A5H   LINE      CODE     ---       #719
      010055ABH   LINE      CODE     ---       #720
      010055B5H   LINE      CODE     ---       #721
      010055B5H   LINE      CODE     ---       #722
      010055C3H   LINE      CODE     ---       #723
      010055CDH   LINE      CODE     ---       #724
      010055D8H   LINE      CODE     ---       #725
      010055D8H   LINE      CODE     ---       #726
      010055F0H   LINE      CODE     ---       #728
LX51 LINKER/LOCATER V4.66.1.0                                                         04/24/2019  16:34:17  PAGE 38


      010055F0H   LINE      CODE     ---       #729
      010055F3H   LINE      CODE     ---       #730
      010055F6H   LINE      CODE     ---       #731
      010055F8H   LINE      CODE     ---       #732
      ---         BLOCKEND  ---      ---       LVL=0

      010072FDH   BLOCK     CODE     ---       LVL=0
      010072FDH   LINE      CODE     ---       #734
      010072FDH   LINE      CODE     ---       #735
      010072FDH   LINE      CODE     ---       #736
      010072FFH   LINE      CODE     ---       #737
      01007302H   LINE      CODE     ---       #738
      01007305H   LINE      CODE     ---       #739
      01007308H   LINE      CODE     ---       #740
      0100730CH   LINE      CODE     ---       #741
      0100730EH   LINE      CODE     ---       #742
      01007310H   LINE      CODE     ---       #743
      ---         BLOCKEND  ---      ---       LVL=0

      010072B9H   BLOCK     CODE     ---       LVL=0
      010072B9H   LINE      CODE     ---       #745
      010072B9H   LINE      CODE     ---       #746
      010072B9H   LINE      CODE     ---       #747
      010072BBH   LINE      CODE     ---       #748
      010072BEH   LINE      CODE     ---       #749
      010072C1H   LINE      CODE     ---       #750
      010072C4H   LINE      CODE     ---       #751
      010072C8H   LINE      CODE     ---       #752
      010072CBH   LINE      CODE     ---       #753
      010072CDH   LINE      CODE     ---       #754
      010072CFH   LINE      CODE     ---       #755
      ---         BLOCKEND  ---      ---       LVL=0

      01005FA0H   BLOCK     CODE     VOID      LVL=0
      ---         BLOCKEND  ---      ---       LVL=0

      01005FB0H   BLOCK     CODE     ---       LVL=0
      00000007H   SYMBOL    DATA     BYTE      status
      01005FB0H   LINE      CODE     ---       #757
      01005FB0H   LINE      CODE     ---       #758
      01005FB0H   LINE      CODE     ---       #759
      01005FB6H   LINE      CODE     ---       #760
      01005FB6H   LINE      CODE     ---       #761
      01005FB9H   LINE      CODE     ---       #762
      01005FB9H   LINE      CODE     ---       #763
      01005FC0H   LINE      CODE     ---       #764
      01005FDAH   LINE      CODE     ---       #765
      01005FDAH   LINE      CODE     ---       #766
      01005FE4H   LINE      CODE     ---       #767
      01005FEEH   LINE      CODE     ---       #768
      01005FEEH   LINE      CODE     ---       #769
      0100600DH   LINE      CODE     ---       #770
      0100600FH   LINE      CODE     ---       #772
      01006016H   LINE      CODE     ---       #773
      0100601CH   LINE      CODE     ---       #774
      0100601EH   LINE      CODE     ---       #775
      0100601FH   LINE      CODE     ---       #776
      01006020H   LINE      CODE     ---       #777
      01006021H   LINE      CODE     ---       #778
      01006023H   LINE      CODE     ---       #779
      01006023H   LINE      CODE     ---       #780
      ---         BLOCKEND  ---      ---       LVL=0

      01007480H   BLOCK     CODE     ---       LVL=0
      01007480H   LINE      CODE     ---       #782
LX51 LINKER/LOCATER V4.66.1.0                                                         04/24/2019  16:34:17  PAGE 39


      01007480H   LINE      CODE     ---       #783
      01007480H   LINE      CODE     ---       #784
      01007482H   LINE      CODE     ---       #785
      01007484H   LINE      CODE     ---       #786
      01007486H   LINE      CODE     ---       #787
      01007488H   LINE      CODE     ---       #788
      ---         BLOCKEND  ---      ---       LVL=0

      01006392H   BLOCK     CODE     ---       LVL=0
      01006392H   BLOCK     CODE     NEAR LAB  LVL=1
      00000004H   SYMBOL    DATA     WORD      i
      00000002H   SYMBOL    DATA     WORD      reti
      ---         BLOCKEND  ---      ---       LVL=1
      01006392H   LINE      CODE     ---       #790
      01006392H   LINE      CODE     ---       #791
      01006392H   LINE      CODE     ---       #794
      01006394H   LINE      CODE     ---       #795
      010063A0H   LINE      CODE     ---       #796
      010063B3H   LINE      CODE     ---       #797
      010063C3H   LINE      CODE     ---       #798
      010063D3H   LINE      CODE     ---       #799
      010063E3H   LINE      CODE     ---       #800
      010063F3H   LINE      CODE     ---       #801
      010063FCH   LINE      CODE     ---       #802
      010063FCH   LINE      CODE     ---       #803
      01006403H   LINE      CODE     ---       #804
      01006405H   LINE      CODE     ---       #805
      01006405H   LINE      CODE     ---       #806
      01006407H   LINE      CODE     ---       #807
      ---         BLOCKEND  ---      ---       LVL=0

      0100629FH   BLOCK     CODE     ---       LVL=0
      020000CFH   SYMBOL    XDATA    BYTE      c
      0100629FH   LINE      CODE     ---       #809
      010062A4H   LINE      CODE     ---       #810
      010062A4H   LINE      CODE     ---       #811
      010062AEH   LINE      CODE     ---       #812
      010062B5H   LINE      CODE     ---       #813
      010062BAH   LINE      CODE     ---       #814
      010062C1H   LINE      CODE     ---       #815
      010062C8H   LINE      CODE     ---       #816
      010062E2H   LINE      CODE     ---       #817
      010062EAH   LINE      CODE     ---       #818
      010062EDH   LINE      CODE     ---       #819
      010062FAH   LINE      CODE     ---       #820
      01006304H   LINE      CODE     ---       #821
      0100630EH   LINE      CODE     ---       #823
      01006318H   LINE      CODE     ---       #824
      ---         BLOCKEND  ---      ---       LVL=0

      01005F1BH   BLOCK     CODE     ---       LVL=0
      020000CFH   SYMBOL    XDATA    BYTE      c
      01005F1BH   LINE      CODE     ---       #826
      01005F21H   LINE      CODE     ---       #827
      01005F21H   LINE      CODE     ---       #828
      01005F28H   LINE      CODE     ---       #829
      01005F2BH   LINE      CODE     ---       #830
      01005F2EH   LINE      CODE     ---       #831
      01005F34H   LINE      CODE     ---       #832
      01005F3DH   LINE      CODE     ---       #834
      01005F44H   LINE      CODE     ---       #835
      01005F49H   LINE      CODE     ---       #836
      01005F51H   LINE      CODE     ---       #839
      01005F5CH   LINE      CODE     ---       #840
      01005F63H   LINE      CODE     ---       #842
LX51 LINKER/LOCATER V4.66.1.0                                                         04/24/2019  16:34:17  PAGE 40


      01005F70H   LINE      CODE     ---       #844
      01005F73H   LINE      CODE     ---       #845
      01005F7DH   LINE      CODE     ---       #846
      01005F87H   LINE      CODE     ---       #847
      01005F91H   LINE      CODE     ---       #848
      01005F98H   LINE      CODE     ---       #850
      01005F9FH   LINE      CODE     ---       #851
      ---         BLOCKEND  ---      ---       LVL=0

      0100612BH   BLOCK     CODE     ---       LVL=0
      020000DAH   SYMBOL    XDATA    BYTE      c
      0100612BH   LINE      CODE     ---       #854
      01006130H   LINE      CODE     ---       #855
      01006130H   LINE      CODE     ---       #856
      0100613AH   LINE      CODE     ---       #857
      01006141H   LINE      CODE     ---       #858
      01006146H   LINE      CODE     ---       #859
      01006150H   LINE      CODE     ---       #860
      01006157H   LINE      CODE     ---       #861
      01006171H   LINE      CODE     ---       #862
      01006179H   LINE      CODE     ---       #863
      0100617CH   LINE      CODE     ---       #864
      01006189H   LINE      CODE     ---       #865
      01006193H   LINE      CODE     ---       #866
      0100619DH   LINE      CODE     ---       #868
      010061A7H   LINE      CODE     ---       #869
      ---         BLOCKEND  ---      ---       LVL=0

      0100698FH   BLOCK     CODE     ---       LVL=0
      0100698FH   LINE      CODE     ---       #871
      0100698FH   LINE      CODE     ---       #872
      0100698FH   LINE      CODE     ---       #873
      01006999H   LINE      CODE     ---       #874
      010069A0H   LINE      CODE     ---       #875
      010069A7H   LINE      CODE     ---       #876
      010069AEH   LINE      CODE     ---       #877
      010069B3H   LINE      CODE     ---       #878
      010069B8H   LINE      CODE     ---       #879
      010069C1H   LINE      CODE     ---       #880
      010069C4H   LINE      CODE     ---       #881
      010069C9H   LINE      CODE     ---       #882
      010069D0H   LINE      CODE     ---       #883
      010069D4H   LINE      CODE     ---       #885
      010069D9H   LINE      CODE     ---       #886
      ---         BLOCKEND  ---      ---       LVL=0

      01006D91H   BLOCK     CODE     ---       LVL=0
      020000D5H   SYMBOL    XDATA    BYTE      c
      01006D91H   LINE      CODE     ---       #888
      01006D96H   LINE      CODE     ---       #889
      01006D96H   LINE      CODE     ---       #890
      01006D9DH   LINE      CODE     ---       #891
      01006DA0H   LINE      CODE     ---       #892
      01006DA7H   LINE      CODE     ---       #893
      01006DACH   LINE      CODE     ---       #894
      01006DB1H   LINE      CODE     ---       #895
      01006DBAH   LINE      CODE     ---       #896
      01006DC0H   LINE      CODE     ---       #897
      01006DC4H   LINE      CODE     ---       #899
      01006DC9H   LINE      CODE     ---       #900
      ---         BLOCKEND  ---      ---       LVL=0

      01005E92H   BLOCK     CODE     ---       LVL=0
      020000DAH   SYMBOL    XDATA    BYTE      c
      01005E92H   LINE      CODE     ---       #902
LX51 LINKER/LOCATER V4.66.1.0                                                         04/24/2019  16:34:17  PAGE 41


      01005E98H   LINE      CODE     ---       #903
      01005E98H   LINE      CODE     ---       #904
      01005E9FH   LINE      CODE     ---       #905
      01005EA2H   LINE      CODE     ---       #906
      01005EA9H   LINE      CODE     ---       #907
      01005EAFH   LINE      CODE     ---       #908
      01005EB8H   LINE      CODE     ---       #910
      01005EBFH   LINE      CODE     ---       #911
      01005EC4H   LINE      CODE     ---       #912
      01005ECCH   LINE      CODE     ---       #915
      01005ED7H   LINE      CODE     ---       #916
      01005EDEH   LINE      CODE     ---       #918
      01005EEBH   LINE      CODE     ---       #920
      01005EEEH   LINE      CODE     ---       #921
      01005EF8H   LINE      CODE     ---       #922
      01005F02H   LINE      CODE     ---       #923
      01005F0CH   LINE      CODE     ---       #924
      01005F13H   LINE      CODE     ---       #926
      01005F1AH   LINE      CODE     ---       #927
      ---         BLOCKEND  ---      ---       LVL=0

      010072D0H   BLOCK     CODE     ---       LVL=0
      010072D0H   LINE      CODE     ---       #928
      010072D0H   LINE      CODE     ---       #929
      010072D0H   LINE      CODE     ---       #930
      010072D5H   LINE      CODE     ---       #931
      010072D9H   LINE      CODE     ---       #932
      010072DDH   LINE      CODE     ---       #933
      010072E0H   LINE      CODE     ---       #934
      ---         BLOCKEND  ---      ---       LVL=0

      01006224H   BLOCK     CODE     VOID      LVL=0
      ---         BLOCKEND  ---      ---       LVL=0

      0100622CH   BLOCK     CODE     ---       LVL=0
      00000006H   SYMBOL    DATA     INT       current
      020000DAH   SYMBOL    XDATA    ---       d
      0100622CH   BLOCK     CODE     NEAR LAB  LVL=1
      020000DAH   SYMBOL    XDATA    ---       d
      ---         BLOCKEND  ---      ---       LVL=1
      0100622CH   LINE      CODE     ---       #939
      0100622CH   LINE      CODE     ---       #940
      0100622CH   LINE      CODE     ---       #943
      01006232H   LINE      CODE     ---       #944
      01006232H   LINE      CODE     ---       #951
      0100625AH   LINE      CODE     ---       #953
      0100625FH   LINE      CODE     ---       #954
      01006266H   LINE      CODE     ---       #955
      01006273H   LINE      CODE     ---       #956
      0100627AH   LINE      CODE     ---       #957
      01006287H   LINE      CODE     ---       #958
      0100628EH   LINE      CODE     ---       #959
      0100629BH   LINE      CODE     ---       #961
      0100629EH   LINE      CODE     ---       #962
      0100629EH   LINE      CODE     ---       #963
      ---         BLOCKEND  ---      ---       LVL=0

      01006EA4H   BLOCK     CODE     VOID      LVL=0
      ---         BLOCKEND  ---      ---       LVL=0

      01006EB5H   BLOCK     CODE     ---       LVL=0
      020000DAH   SYMBOL    XDATA    BYTE      addr
      020000DBH   SYMBOL    XDATA    WORD      intdata
      01006EB5H   LINE      CODE     ---       #966
      01006EC0H   LINE      CODE     ---       #967
LX51 LINKER/LOCATER V4.66.1.0                                                         04/24/2019  16:34:17  PAGE 42


      01006EC0H   LINE      CODE     ---       #968
      01006ECAH   LINE      CODE     ---       #969
      ---         BLOCKEND  ---      ---       LVL=0

      01004A04H   BLOCK     CODE     ---       LVL=0
      01004A04H   LINE      CODE     ---       #972
      01004A04H   LINE      CODE     ---       #973
      01004A04H   LINE      CODE     ---       #974
      01004A15H   LINE      CODE     ---       #975
      01004A31H   LINE      CODE     ---       #976
      01004A42H   LINE      CODE     ---       #977
      01004A5EH   LINE      CODE     ---       #978
      01004A6FH   LINE      CODE     ---       #979
      01004A8BH   LINE      CODE     ---       #980
      01004A9CH   LINE      CODE     ---       #981
      01004AB8H   LINE      CODE     ---       #982
      01004AC9H   LINE      CODE     ---       #983
      01004AE5H   LINE      CODE     ---       #984
      01004AF6H   LINE      CODE     ---       #985
      01004B12H   LINE      CODE     ---       #986
      01004B23H   LINE      CODE     ---       #987
      01004B3FH   LINE      CODE     ---       #988
      01004B50H   LINE      CODE     ---       #989
      01004B6CH   LINE      CODE     ---       #990
      01004B7DH   LINE      CODE     ---       #991
      01004B99H   LINE      CODE     ---       #992
      01004BAAH   LINE      CODE     ---       #993
      01004BC6H   LINE      CODE     ---       #994
      ---         BLOCKEND  ---      ---       LVL=0

      01006E39H   BLOCK     CODE     ---       LVL=0
      020000C4H   SYMBOL    XDATA    BYTE      addr
      01006E3EH   BLOCK     CODE     NEAR LAB  LVL=1
      020000C5H   SYMBOL    XDATA    WORD      rdata
      ---         BLOCKEND  ---      ---       LVL=1
      01006E39H   LINE      CODE     ---       #997
      01006E3EH   LINE      CODE     ---       #998
      01006E3EH   LINE      CODE     ---       #1001
      01006E4BH   LINE      CODE     ---       #1002
      01006E54H   LINE      CODE     ---       #1003
      01006E69H   LINE      CODE     ---       #1005
      01006E6EH   LINE      CODE     ---       #1006
      ---         BLOCKEND  ---      ---       LVL=0

      0100671CH   BLOCK     CODE     VOID      LVL=0
      ---         BLOCKEND  ---      ---       LVL=0

      01006738H   BLOCK     CODE     ---       LVL=0
      00000007H   SYMBOL    DATA     BYTE      type
      01006738H   LINE      CODE     ---       #1008
      01006738H   LINE      CODE     ---       #1009
      01006738H   LINE      CODE     ---       #1010
      01006765H   LINE      CODE     ---       #1011
      01006765H   LINE      CODE     ---       #1012
      01006769H   LINE      CODE     ---       #1013
      0100676DH   LINE      CODE     ---       #1014
      01006771H   LINE      CODE     ---       #1015
      01006776H   LINE      CODE     ---       #1016
      01006779H   LINE      CODE     ---       #1017
      0100677DH   LINE      CODE     ---       #1018
      01006781H   LINE      CODE     ---       #1019
      01006786H   LINE      CODE     ---       #1020
      01006786H   LINE      CODE     ---       #1021
      ---         BLOCKEND  ---      ---       LVL=0

LX51 LINKER/LOCATER V4.66.1.0                                                         04/24/2019  16:34:17  PAGE 43


      010068A3H   BLOCK     CODE     VOID      LVL=0
      ---         BLOCKEND  ---      ---       LVL=0

      010068A9H   BLOCK     CODE     ---       LVL=0
      00000007H   SYMBOL    DATA     BYTE      type
      010068A9H   LINE      CODE     ---       #1024
      010068A9H   LINE      CODE     ---       #1025
      010068A9H   LINE      CODE     ---       #1026
      010068D6H   LINE      CODE     ---       #1027
      010068D6H   LINE      CODE     ---       #1028
      010068DAH   LINE      CODE     ---       #1029
      010068DEH   LINE      CODE     ---       #1030
      010068E2H   LINE      CODE     ---       #1031
      010068E7H   LINE      CODE     ---       #1032
      010068EBH   LINE      CODE     ---       #1033
      010068EFH   LINE      CODE     ---       #1034
      010068F4H   LINE      CODE     ---       #1035
      010068F4H   LINE      CODE     ---       #1036
      ---         BLOCKEND  ---      ---       LVL=0

      01006F68H   BLOCK     CODE     ---       LVL=0
      01006F68H   BLOCK     CODE     NEAR LAB  LVL=1
      020000C6H   SYMBOL    XDATA    CHAR      i
      ---         BLOCKEND  ---      ---       LVL=1
      01006F68H   LINE      CODE     ---       #1038
      01006F68H   LINE      CODE     ---       #1039
      01006F68H   LINE      CODE     ---       #1041
      01006F6DH   LINE      CODE     ---       #1042
      01006F6DH   LINE      CODE     ---       #1043
      01006F70H   LINE      CODE     ---       #1044
      01006F72H   LINE      CODE     ---       #1045
      01006F7DH   LINE      CODE     ---       #1046
      01006F86H   LINE      CODE     ---       #1047
      01006F94H   LINE      CODE     ---       #1048
      ---         BLOCKEND  ---      ---       LVL=0

      01005B00H   BLOCK     CODE     VOID      LVL=0
      ---         BLOCKEND  ---      ---       LVL=0

      01005B0CH   BLOCK     CODE     ---       LVL=0
      020000CCH   SYMBOL    XDATA    WORD      tmp
      01005B0CH   LINE      CODE     ---       #1050
      01005B16H   LINE      CODE     ---       #1051
      01005B16H   LINE      CODE     ---       #1053
      01005B28H   LINE      CODE     ---       #1054
      01005B38H   LINE      CODE     ---       #1055
      01005B38H   LINE      CODE     ---       #1056
      01005B5DH   LINE      CODE     ---       #1057
      01005B64H   LINE      CODE     ---       #1058
      01005B66H   LINE      CODE     ---       #1060
      01005B66H   LINE      CODE     ---       #1061
      01005B8FH   LINE      CODE     ---       #1062
      01005BA1H   LINE      CODE     ---       #1063
      01005BA1H   LINE      CODE     ---       #1064
      ---         BLOCKEND  ---      ---       LVL=0

      0100647DH   BLOCK     CODE     ---       LVL=0
      0100647DH   LINE      CODE     ---       #1066
      0100647DH   LINE      CODE     ---       #1067
      0100647DH   LINE      CODE     ---       #1068
      01006484H   LINE      CODE     ---       #1069
      0100648BH   LINE      CODE     ---       #1070
      01006497H   LINE      CODE     ---       #1071
      0100649EH   LINE      CODE     ---       #1072
      010064A8H   LINE      CODE     ---       #1073
LX51 LINKER/LOCATER V4.66.1.0                                                         04/24/2019  16:34:17  PAGE 44


      010064B2H   LINE      CODE     ---       #1074
      010064BCH   LINE      CODE     ---       #1075
      010064C6H   LINE      CODE     ---       #1076
      010064D0H   LINE      CODE     ---       #1077
      010064DAH   LINE      CODE     ---       #1078
      010064E4H   LINE      CODE     ---       #1079
      ---         BLOCKEND  ---      ---       LVL=0

      01007136H   BLOCK     CODE     ---       LVL=0
      01007136H   BLOCK     CODE     NEAR LAB  LVL=1
      020000C4H   SYMBOL    XDATA    BYTE      i
      ---         BLOCKEND  ---      ---       LVL=1
      01007136H   LINE      CODE     ---       #1082
      01007136H   LINE      CODE     ---       #1083
      01007136H   LINE      CODE     ---       #1085
      01007146H   LINE      CODE     ---       #1086
      01007153H   LINE      CODE     ---       #1089
      ---         BLOCKEND  ---      ---       LVL=0

      01006642H   BLOCK     CODE     ---       LVL=0
      01006642H   LINE      CODE     ---       #1091
      01006642H   LINE      CODE     ---       #1092
      01006642H   LINE      CODE     ---       #1093
      0100664FH   LINE      CODE     ---       #1094
      0100665CH   LINE      CODE     ---       #1095
      01006669H   LINE      CODE     ---       #1096
      01006676H   LINE      CODE     ---       #1097
      01006683H   LINE      CODE     ---       #1098
      01006688H   LINE      CODE     ---       #1099
      01006695H   LINE      CODE     ---       #1100
      010066A2H   LINE      CODE     ---       #1101
      010066AFH   LINE      CODE     ---       #1102
      ---         BLOCKEND  ---      ---       LVL=0

      010053FDH   BLOCK     CODE     ---       LVL=0
      010053FDH   BLOCK     CODE     NEAR LAB  LVL=1
      020000C4H   SYMBOL    XDATA    BYTE      c
      020000C5H   SYMBOL    XDATA    BYTE      key
      ---         BLOCKEND  ---      ---       LVL=1
      010053FDH   LINE      CODE     ---       #1103
      010053FDH   LINE      CODE     ---       #1104
      010053FDH   LINE      CODE     ---       #1105
      01005402H   LINE      CODE     ---       #1106
      0100540AH   LINE      CODE     ---       #1107
      0100540DH   LINE      CODE     ---       #1108
      01005412H   LINE      CODE     ---       #1109
      01005415H   LINE      CODE     ---       #1110
      01005419H   LINE      CODE     ---       #1111
      0100541BH   LINE      CODE     ---       #1112
      01005421H   LINE      CODE     ---       #1113
      0100542BH   LINE      CODE     ---       #1115
      01005433H   LINE      CODE     ---       #1116
      01005433H   LINE      CODE     ---       #1117
      01005439H   LINE      CODE     ---       #1118
      01005441H   LINE      CODE     ---       #1120
      01005449H   LINE      CODE     ---       #1121
      01005451H   LINE      CODE     ---       #1122
      01005451H   LINE      CODE     ---       #1123
      01005456H   LINE      CODE     ---       #1124
      0100545CH   LINE      CODE     ---       #1125
      0100545FH   LINE      CODE     ---       #1126
      01005462H   LINE      CODE     ---       #1127
      01005472H   LINE      CODE     ---       #1128
      0100547BH   LINE      CODE     ---       #1129
      01005481H   LINE      CODE     ---       #1130
LX51 LINKER/LOCATER V4.66.1.0                                                         04/24/2019  16:34:17  PAGE 45


      01005487H   LINE      CODE     ---       #1131
      01005489H   LINE      CODE     ---       #1132
      01005490H   LINE      CODE     ---       #1133
      0100549AH   LINE      CODE     ---       #1134
      010054B1H   LINE      CODE     ---       #1135
      010054BDH   LINE      CODE     ---       #1136
      010054C0H   LINE      CODE     ---       #1137
      010054C3H   LINE      CODE     ---       #1138
      010054CAH   LINE      CODE     ---       #1139
      010054CCH   LINE      CODE     ---       #1140
      010054CCH   LINE      CODE     ---       #1141
      010054D6H   LINE      CODE     ---       #1142
      010054DCH   LINE      CODE     ---       #1144
      010054DFH   LINE      CODE     ---       #1145
      010054E2H   LINE      CODE     ---       #1147
      01005506H   LINE      CODE     ---       #1148
      01005509H   LINE      CODE     ---       #1149
      0100550EH   LINE      CODE     ---       #1150
      ---         BLOCKEND  ---      ---       LVL=0

      01005CDDH   BLOCK     CODE     ---       LVL=0
      01005CDDH   BLOCK     CODE     NEAR LAB  LVL=1
      020000CFH   SYMBOL    XDATA    BYTE      status
      020000D0H   SYMBOL    XDATA    BYTE      finish_flag
      020000D1H   SYMBOL    XDATA    WORD      total_time
      ---         BLOCKEND  ---      ---       LVL=1
      01005CDDH   LINE      CODE     ---       #1152
      01005CDDH   LINE      CODE     ---       #1153
      01005CDDH   LINE      CODE     ---       #1154
      01005CE4H   LINE      CODE     ---       #1155
      01005CE8H   LINE      CODE     ---       #1156
      01005CF2H   LINE      CODE     ---       #1158
      01005CF4H   LINE      CODE     ---       #1159
      01005CF7H   LINE      CODE     ---       #1160
      01005CFCH   LINE      CODE     ---       #1161
      01005CFFH   LINE      CODE     ---       #1162
      01005D0AH   LINE      CODE     ---       #1163
      01005D0AH   LINE      CODE     ---       #1164
      01005D13H   LINE      CODE     ---       #1165
      01005D15H   LINE      CODE     ---       #1166
      01005D24H   LINE      CODE     ---       #1167
      01005D24H   LINE      CODE     ---       #1168
      01005D36H   LINE      CODE     ---       #1169
      01005D45H   LINE      CODE     ---       #1170
      01005D49H   LINE      CODE     ---       #1172
      01005D4BH   LINE      CODE     ---       #1173
      01005D4DH   LINE      CODE     ---       #1175
      01005D52H   LINE      CODE     ---       #1176
      01005D54H   LINE      CODE     ---       #1177
      01005D59H   LINE      CODE     ---       #1178
      01005D6FH   LINE      CODE     ---       #1179
      01005D71H   LINE      CODE     ---       #1180
      ---         BLOCKEND  ---      ---       LVL=0

      01000026H   BLOCK     CODE     ---       LVL=0
      01000026H   BLOCK     CODE     NEAR LAB  LVL=1
      020000C4H   SYMBOL    XDATA    BYTE      key
      020000C5H   SYMBOL    XDATA    BYTE      tmp
      020000C6H   SYMBOL    XDATA    BYTE      tmp1
      020000C7H   SYMBOL    XDATA    BYTE      Set_exit_1
      020000C8H   SYMBOL    XDATA    BYTE      Set_exit_2
      020000C9H   SYMBOL    XDATA    BYTE      rr1
      020000CAH   SYMBOL    XDATA    BYTE      rr2
      020000CBH   SYMBOL    XDATA    BYTE      rr
      ---         BLOCKEND  ---      ---       LVL=1
LX51 LINKER/LOCATER V4.66.1.0                                                         04/24/2019  16:34:17  PAGE 46


      01000026H   LINE      CODE     ---       #1183
      01000026H   LINE      CODE     ---       #1184
      01000026H   LINE      CODE     ---       #1185
      01000033H   LINE      CODE     ---       #1186
      01000039H   LINE      CODE     ---       #1187
      0100003DH   LINE      CODE     ---       #1188
      0100003FH   LINE      CODE     ---       #1189
      01000041H   LINE      CODE     ---       #1190
      01000058H   LINE      CODE     ---       #1191
      0100005BH   LINE      CODE     ---       #1192
      01000061H   LINE      CODE     ---       #1193
      01000065H   LINE      CODE     ---       #1194
      01000069H   LINE      CODE     ---       #1199
      01000071H   LINE      CODE     ---       #1201
      01000078H   LINE      CODE     ---       #1202
      0100007DH   LINE      CODE     ---       #1204
      01000080H   LINE      CODE     ---       #1206
      01000087H   LINE      CODE     ---       #1207
      01000087H   LINE      CODE     ---       #1208
      01000094H   LINE      CODE     ---       #1209
      01000094H   LINE      CODE     ---       #1210
      01000098H   LINE      CODE     ---       #1211
      01000098H   LINE      CODE     ---       #1212
      010000ACH   LINE      CODE     ---       #1213
      010000ACH   LINE      CODE     ---       #1214
      010000B3H   LINE      CODE     ---       #1215
      010000B3H   LINE      CODE     ---       #1216
      010000D7H   LINE      CODE     ---       #1217
      010000D7H   LINE      CODE     ---       #1218
      010000DEH   LINE      CODE     ---       #1219
      010000DEH   LINE      CODE     ---       #1220
      01000106H   LINE      CODE     ---       #1221
      01000106H   LINE      CODE     ---       #1226
      01000109H   LINE      CODE     ---       #1227
      0100010CH   LINE      CODE     ---       #1228
      01000122H   LINE      CODE     ---       #1229
      01000128H   LINE      CODE     ---       #1230
      0100012DH   LINE      CODE     ---       #1231
      01000133H   LINE      CODE     ---       #1232
      01000133H   LINE      CODE     ---       #1233
      01000137H   LINE      CODE     ---       #1234
      01000137H   LINE      CODE     ---       #1235
      01000139H   LINE      CODE     ---       #1236
      01000146H   LINE      CODE     ---       #1237
      01000146H   LINE      CODE     ---       #1238
      0100014AH   LINE      CODE     ---       #1239
      0100014AH   LINE      CODE     ---       #1240
      0100014CH   LINE      CODE     ---       #1242
      01000154H   LINE      CODE     ---       #1244
      0100015DH   LINE      CODE     ---       #1245
      0100015DH   LINE      CODE     ---       #1246
      01000160H   LINE      CODE     ---       #1247
      0100017CH   LINE      CODE     ---       #1248
      01000185H   LINE      CODE     ---       #1249
      010001ACH   LINE      CODE     ---       #1250
      010001ACH   LINE      CODE     ---       #1273
      010001B3H   LINE      CODE     ---       #1274
      010001B3H   LINE      CODE     ---       #1275
      010001B5H   LINE      CODE     ---       #1276
      010001BCH   LINE      CODE     ---       #1278
      010001BEH   LINE      CODE     ---       #1280
      010001BEH   LINE      CODE     ---       #1281
      010001C4H   LINE      CODE     ---       #1283
      010001D1H   LINE      CODE     ---       #1284
      010001D8H   LINE      CODE     ---       #1285
LX51 LINKER/LOCATER V4.66.1.0                                                         04/24/2019  16:34:17  PAGE 47


      010001DCH   LINE      CODE     ---       #1286
      010001E3H   LINE      CODE     ---       #1287
      010001E3H   LINE      CODE     ---       #1289
      010001F6H   LINE      CODE     ---       #1290
      010001FEH   LINE      CODE     ---       #1292
      01000204H   LINE      CODE     ---       #1294
      0100020AH   LINE      CODE     ---       #1295
      0100020AH   LINE      CODE     ---       #1299
      0100020CH   LINE      CODE     ---       #1301
      01000211H   LINE      CODE     ---       #1302
      0100021AH   LINE      CODE     ---       #1303
      0100021AH   LINE      CODE     ---       #1304
      01000222H   LINE      CODE     ---       #1305
      0100027AH   LINE      CODE     ---       #1306
      0100027AH   LINE      CODE     ---       #1307
      0100027AH   LINE      CODE     ---       #1308
      0100027FH   LINE      CODE     ---       #1309
      01000284H   LINE      CODE     ---       #1310
      01000287H   LINE      CODE     ---       #1312
      01000287H   LINE      CODE     ---       #1313
      0100028CH   LINE      CODE     ---       #1314
      01000291H   LINE      CODE     ---       #1315
      01000294H   LINE      CODE     ---       #1316
      01000297H   LINE      CODE     ---       #1318
      01000297H   LINE      CODE     ---       #1319
      0100029CH   LINE      CODE     ---       #1320
      010002A2H   LINE      CODE     ---       #1321
      010002A8H   LINE      CODE     ---       #1322
      010002CFH   LINE      CODE     ---       #1323
      010002CFH   LINE      CODE     ---       #1324
      010002CFH   LINE      CODE     ---       #1325
      010002D1H   LINE      CODE     ---       #1327
      010002D1H   LINE      CODE     ---       #1328
      010002D6H   LINE      CODE     ---       #1329
      010002DCH   LINE      CODE     ---       #1330
      010002E2H   LINE      CODE     ---       #1331
      01000305H   LINE      CODE     ---       #1332
      01000305H   LINE      CODE     ---       #1333
      01000305H   LINE      CODE     ---       #1334
      01000307H   LINE      CODE     ---       #1336
      01000307H   LINE      CODE     ---       #1337
      0100030CH   LINE      CODE     ---       #1338
      01000311H   LINE      CODE     ---       #1339
      01000317H   LINE      CODE     ---       #1340
      0100032BH   LINE      CODE     ---       #1341
      0100032EH   LINE      CODE     ---       #1342
      0100032EH   LINE      CODE     ---       #1343
      01000331H   LINE      CODE     ---       #1345
      01000331H   LINE      CODE     ---       #1346
      01000336H   LINE      CODE     ---       #1347
      0100033AH   LINE      CODE     ---       #1348
      01000340H   LINE      CODE     ---       #1349
      0100034DH   LINE      CODE     ---       #1350
      01000350H   LINE      CODE     ---       #1351
      01000353H   LINE      CODE     ---       #1353
      01000353H   LINE      CODE     ---       #1354
      01000358H   LINE      CODE     ---       #1355
      0100035DH   LINE      CODE     ---       #1356
      01000362H   LINE      CODE     ---       #1357
      01000368H   LINE      CODE     ---       #1358
      0100036AH   LINE      CODE     ---       #1359
      0100036CH   LINE      CODE     ---       #1361
      0100036CH   LINE      CODE     ---       #1362
      01000371H   LINE      CODE     ---       #1363
      01000376H   LINE      CODE     ---       #1364
LX51 LINKER/LOCATER V4.66.1.0                                                         04/24/2019  16:34:17  PAGE 48


      0100037BH   LINE      CODE     ---       #1365
      01000381H   LINE      CODE     ---       #1366
      01000383H   LINE      CODE     ---       #1367
      01000385H   LINE      CODE     ---       #1369
      01000385H   LINE      CODE     ---       #1370
      0100038AH   LINE      CODE     ---       #1371
      0100038FH   LINE      CODE     ---       #1372
      01000394H   LINE      CODE     ---       #1373
      0100039AH   LINE      CODE     ---       #1374
      0100039CH   LINE      CODE     ---       #1375
      0100039EH   LINE      CODE     ---       #1377
      0100039EH   LINE      CODE     ---       #1378
      010003A3H   LINE      CODE     ---       #1379
      010003A8H   LINE      CODE     ---       #1380
      010003ADH   LINE      CODE     ---       #1381
      010003B3H   LINE      CODE     ---       #1382
      010003B5H   LINE      CODE     ---       #1383
      010003B7H   LINE      CODE     ---       #1385
      010003B7H   LINE      CODE     ---       #1386
      010003BCH   LINE      CODE     ---       #1387
      010003C1H   LINE      CODE     ---       #1388
      010003C6H   LINE      CODE     ---       #1389
      010003CCH   LINE      CODE     ---       #1390
      010003CEH   LINE      CODE     ---       #1391
      010003D0H   LINE      CODE     ---       #1393
      010003D0H   LINE      CODE     ---       #1394
      010003D5H   LINE      CODE     ---       #1395
      010003DAH   LINE      CODE     ---       #1396
      010003E0H   LINE      CODE     ---       #1397
      010003E7H   LINE      CODE     ---       #1398
      010003EEH   LINE      CODE     ---       #1399
      010003F1H   LINE      CODE     ---       #1401
      010003F1H   LINE      CODE     ---       #1402
      010003F6H   LINE      CODE     ---       #1403
      010003FCH   LINE      CODE     ---       #1404
      01000403H   LINE      CODE     ---       #1405
      0100040AH   LINE      CODE     ---       #1406
      0100041EH   LINE      CODE     ---       #1407
      0100041EH   LINE      CODE     ---       #1408
      01000425H   LINE      CODE     ---       #1409
      01000425H   LINE      CODE     ---       #1410
      0100042CH   LINE      CODE     ---       #1411
      01000431H   LINE      CODE     ---       #1412
      01000436H   LINE      CODE     ---       #1413
      01000436H   LINE      CODE     ---       #1414
      01000438H   LINE      CODE     ---       #1415
      01000438H   LINE      CODE     ---       #1416
      01000438H   LINE      CODE     ---       #1417
      0100043DH   LINE      CODE     ---       #1418
      01000442H   LINE      CODE     ---       #1419
      0100044AH   LINE      CODE     ---       #1420
      0100044CH   LINE      CODE     ---       #1421
      0100044EH   LINE      CODE     ---       #1423
      0100044EH   LINE      CODE     ---       #1424
      01000453H   LINE      CODE     ---       #1425
      01000458H   LINE      CODE     ---       #1426
      01000460H   LINE      CODE     ---       #1427
      01000463H   LINE      CODE     ---       #1429
      01000463H   LINE      CODE     ---       #1430
      01000468H   LINE      CODE     ---       #1431
      0100046DH   LINE      CODE     ---       #1432
      01000470H   LINE      CODE     ---       #1434
      01000470H   LINE      CODE     ---       #1435
      01000470H   LINE      CODE     ---       #1436
      01000475H   LINE      CODE     ---       #1437
LX51 LINKER/LOCATER V4.66.1.0                                                         04/24/2019  16:34:17  PAGE 49


      0100047AH   LINE      CODE     ---       #1438
      0100047FH   LINE      CODE     ---       #1439
      01000488H   LINE      CODE     ---       #1440
      01000488H   LINE      CODE     ---       #1441
      01000490H   LINE      CODE     ---       #1443
      010004B5H   LINE      CODE     ---       #1444
      010004B5H   LINE      CODE     ---       #1445
      010004B5H   LINE      CODE     ---       #1446
      010004BAH   LINE      CODE     ---       #1447
      010004BCH   LINE      CODE     ---       #1448
      010004BFH   LINE      CODE     ---       #1450
      010004BFH   LINE      CODE     ---       #1451
      010004C4H   LINE      CODE     ---       #1452
      010004C8H   LINE      CODE     ---       #1453
      010004CAH   LINE      CODE     ---       #1454
      010004D0H   LINE      CODE     ---       #1455
      010004D0H   LINE      CODE     ---       #1456
      010004D0H   LINE      CODE     ---       #1457
      010004D3H   LINE      CODE     ---       #1458
      010004DDH   LINE      CODE     ---       #1460
      010004E2H   LINE      CODE     ---       #1461
      010004E8H   LINE      CODE     ---       #1462
      010004E8H   LINE      CODE     ---       #1463
      010004F0H   LINE      CODE     ---       #1464
      0100051EH   LINE      CODE     ---       #1465
      0100051EH   LINE      CODE     ---       #1466
      0100051EH   LINE      CODE     ---       #1467
      01000523H   LINE      CODE     ---       #1468
      0100052CH   LINE      CODE     ---       #1469
      0100052CH   LINE      CODE     ---       #1470
      0100052FH   LINE      CODE     ---       #1471
      01000534H   LINE      CODE     ---       #1472
      01000534H   LINE      CODE     ---       #1473
      01000534H   LINE      CODE     ---       #1474
      01000534H   LINE      CODE     ---       #1475
      01000536H   LINE      CODE     ---       #1477
      01000536H   LINE      CODE     ---       #1478
      0100053BH   LINE      CODE     ---       #1479
      01000544H   LINE      CODE     ---       #1480
      01000544H   LINE      CODE     ---       #1481
      01000547H   LINE      CODE     ---       #1482
      0100054CH   LINE      CODE     ---       #1483
      0100054CH   LINE      CODE     ---       #1484
      01000554H   LINE      CODE     ---       #1485
      01000554H   LINE      CODE     ---       #1486
      01000556H   LINE      CODE     ---       #1488
      01000556H   LINE      CODE     ---       #1489
      0100055BH   LINE      CODE     ---       #1490
      0100055FH   LINE      CODE     ---       #1491
      01000565H   LINE      CODE     ---       #1492
      01000565H   LINE      CODE     ---       #1493
      01000565H   LINE      CODE     ---       #1494
      01000568H   LINE      CODE     ---       #1495
      01000572H   LINE      CODE     ---       #1498
      01000575H   LINE      CODE     ---       #1500
      01000575H   LINE      CODE     ---       #1501
      0100057AH   LINE      CODE     ---       #1502
      0100057EH   LINE      CODE     ---       #1503
      0100057EH   LINE      CODE     ---       #1504
      0100057EH   LINE      CODE     ---       #1505
      0100057EH   LINE      CODE     ---       #1506
      0100057EH   LINE      CODE     ---       #1507
      0100057EH   LINE      CODE     ---       #1508
      0100057EH   LINE      CODE     ---       #1510
      01000580H   LINE      CODE     ---       #1512
LX51 LINKER/LOCATER V4.66.1.0                                                         04/24/2019  16:34:17  PAGE 50


      01000580H   LINE      CODE     ---       #1513
      01000585H   LINE      CODE     ---       #1514
      0100058AH   LINE      CODE     ---       #1515
      0100058AH   LINE      CODE     ---       #1516
      0100058AH   LINE      CODE     ---       #1517
      0100058AH   LINE      CODE     ---       #1518
      0100058AH   LINE      CODE     ---       #1519
      0100058AH   LINE      CODE     ---       #1520
      0100058AH   LINE      CODE     ---       #1522
      0100058CH   LINE      CODE     ---       #1524
      0100058CH   LINE      CODE     ---       #1525
      01000591H   LINE      CODE     ---       #1526
      01000597H   LINE      CODE     ---       #1527
      010005A2H   LINE      CODE     ---       #1528
      010005A5H   LINE      CODE     ---       #1529
      010005B3H   LINE      CODE     ---       #1530
      010005B8H   LINE      CODE     ---       #1531
      010005B8H   LINE      CODE     ---       #1532
      010005B8H   LINE      CODE     ---       #1534
      010005BBH   LINE      CODE     ---       #1536
      010005BBH   LINE      CODE     ---       #1537
      010005C0H   LINE      CODE     ---       #1538
      010005C6H   LINE      CODE     ---       #1539
      010005D1H   LINE      CODE     ---       #1540
      010005D4H   LINE      CODE     ---       #1541
      010005E2H   LINE      CODE     ---       #1542
      010005E8H   LINE      CODE     ---       #1543
      010005E8H   LINE      CODE     ---       #1544
      010005E8H   LINE      CODE     ---       #1546
      010005EAH   LINE      CODE     ---       #1548
      010005EAH   LINE      CODE     ---       #1549
      010005EFH   LINE      CODE     ---       #1550
      010005F5H   LINE      CODE     ---       #1551
      01000600H   LINE      CODE     ---       #1552
      01000603H   LINE      CODE     ---       #1553
      01000611H   LINE      CODE     ---       #1554
      01000617H   LINE      CODE     ---       #1555
      01000617H   LINE      CODE     ---       #1556
      01000617H   LINE      CODE     ---       #1558
      01000619H   LINE      CODE     ---       #1560
      01000619H   LINE      CODE     ---       #1561
      0100061EH   LINE      CODE     ---       #1562
      01000624H   LINE      CODE     ---       #1563
      0100062FH   LINE      CODE     ---       #1564
      01000632H   LINE      CODE     ---       #1565
      01000640H   LINE      CODE     ---       #1566
      0100064AH   LINE      CODE     ---       #1567
      01000654H   LINE      CODE     ---       #1568
      0100065AH   LINE      CODE     ---       #1570
      0100065CH   LINE      CODE     ---       #1572
      0100065CH   LINE      CODE     ---       #1573
      0100065CH   LINE      CODE     ---       #1574
      0100065FH   LINE      CODE     ---       #1575
      0100066EH   LINE      CODE     ---       #1576
      01000671H   LINE      CODE     ---       #1577
      01000671H   LINE      CODE     ---       #1578
      01000673H   LINE      CODE     ---       #1580
      01000673H   LINE      CODE     ---       #1581
      01000678H   LINE      CODE     ---       #1582
      0100067DH   LINE      CODE     ---       #1583
      0100067FH   LINE      CODE     ---       #1584
      01000685H   LINE      CODE     ---       #1585
      0100068DH   LINE      CODE     ---       #1586
      01000690H   LINE      CODE     ---       #1587
      01000692H   LINE      CODE     ---       #1588
LX51 LINKER/LOCATER V4.66.1.0                                                         04/24/2019  16:34:17  PAGE 51


      01000694H   LINE      CODE     ---       #1590
      01000694H   LINE      CODE     ---       #1591
      01000699H   LINE      CODE     ---       #1592
      0100069EH   LINE      CODE     ---       #1593
      010006A0H   LINE      CODE     ---       #1594
      010006A6H   LINE      CODE     ---       #1595
      010006AEH   LINE      CODE     ---       #1596
      010006B1H   LINE      CODE     ---       #1597
      010006B3H   LINE      CODE     ---       #1599
      010006B3H   LINE      CODE     ---       #1600
      010006B8H   LINE      CODE     ---       #1601
      010006BDH   LINE      CODE     ---       #1602
      010006BDH   LINE      CODE     ---       #1604
      010006BDH   LINE      CODE     ---       #1605
      010006CAH   LINE      CODE     ---       #1606
      010006CDH   LINE      CODE     ---       #1607
      010006CDH   LINE      CODE     ---       #1609
      010006CDH   LINE      CODE     ---       #1610
      010006D2H   LINE      CODE     ---       #1611
      010006D6H   LINE      CODE     ---       #1612
      010006D9H   LINE      CODE     ---       #1613
      010006E4H   LINE      CODE     ---       #1614
      010006E4H   LINE      CODE     ---       #1615
      010006E7H   LINE      CODE     ---       #1616
      010006F1H   LINE      CODE     ---       #1617
      010006F9H   LINE      CODE     ---       #1618
      010006FCH   LINE      CODE     ---       #1620
      01000705H   LINE      CODE     ---       #1621
      01000705H   LINE      CODE     ---       #1622
      0100070DH   LINE      CODE     ---       #1623
      0100073BH   LINE      CODE     ---       #1624
      0100073BH   LINE      CODE     ---       #1625
      0100073BH   LINE      CODE     ---       #1626
      01000740H   LINE      CODE     ---       #1627
      01000749H   LINE      CODE     ---       #1628
      01000749H   LINE      CODE     ---       #1629
      0100074CH   LINE      CODE     ---       #1630
      01000751H   LINE      CODE     ---       #1631
      01000751H   LINE      CODE     ---       #1632
      01000751H   LINE      CODE     ---       #1633
      01000751H   LINE      CODE     ---       #1634
      01000753H   LINE      CODE     ---       #1636
      01000753H   LINE      CODE     ---       #1637
      01000758H   LINE      CODE     ---       #1638
      01000761H   LINE      CODE     ---       #1639
      01000761H   LINE      CODE     ---       #1640
      01000764H   LINE      CODE     ---       #1641
      01000769H   LINE      CODE     ---       #1642
      01000769H   LINE      CODE     ---       #1643
      01000771H   LINE      CODE     ---       #1644
      01000771H   LINE      CODE     ---       #1645
      01000773H   LINE      CODE     ---       #1647
      01000773H   LINE      CODE     ---       #1648
      01000778H   LINE      CODE     ---       #1649
      0100077BH   LINE      CODE     ---       #1650
      0100077BH   LINE      CODE     ---       #1651
      0100077BH   LINE      CODE     ---       #1652
      0100077BH   LINE      CODE     ---       #1653
      0100077BH   LINE      CODE     ---       #1654
      0100077BH   LINE      CODE     ---       #1655
      0100077BH   LINE      CODE     ---       #1657
      0100077DH   LINE      CODE     ---       #1659
      0100077DH   LINE      CODE     ---       #1660
      01000782H   LINE      CODE     ---       #1661
      01000787H   LINE      CODE     ---       #1662
LX51 LINKER/LOCATER V4.66.1.0                                                         04/24/2019  16:34:17  PAGE 52


      0100078DH   LINE      CODE     ---       #1663
      0100078DH   LINE      CODE     ---       #1664
      0100078DH   LINE      CODE     ---       #1665
      01000790H   LINE      CODE     ---       #1666
      0100079AH   LINE      CODE     ---       #1669
      0100079DH   LINE      CODE     ---       #1671
      0100079DH   LINE      CODE     ---       #1672
      010007A2H   LINE      CODE     ---       #1673
      010007A7H   LINE      CODE     ---       #1674
      010007A7H   LINE      CODE     ---       #1675
      010007A7H   LINE      CODE     ---       #1676
      010007A7H   LINE      CODE     ---       #1677
      010007A7H   LINE      CODE     ---       #1678
      010007A7H   LINE      CODE     ---       #1679
      010007A7H   LINE      CODE     ---       #1681
      010007A9H   LINE      CODE     ---       #1683
      010007A9H   LINE      CODE     ---       #1684
      010007AEH   LINE      CODE     ---       #1685
      010007B4H   LINE      CODE     ---       #1686
      010007BFH   LINE      CODE     ---       #1687
      010007C2H   LINE      CODE     ---       #1688
      010007D0H   LINE      CODE     ---       #1689
      010007D5H   LINE      CODE     ---       #1690
      010007D5H   LINE      CODE     ---       #1691
      010007D5H   LINE      CODE     ---       #1693
      010007D8H   LINE      CODE     ---       #1695
      010007D8H   LINE      CODE     ---       #1696
      010007DDH   LINE      CODE     ---       #1697
      010007E3H   LINE      CODE     ---       #1698
      010007EEH   LINE      CODE     ---       #1699
      010007F1H   LINE      CODE     ---       #1700
      010007FFH   LINE      CODE     ---       #1701
      01000805H   LINE      CODE     ---       #1702
      01000805H   LINE      CODE     ---       #1703
      01000805H   LINE      CODE     ---       #1705
      01000807H   LINE      CODE     ---       #1707
      01000807H   LINE      CODE     ---       #1708
      0100080CH   LINE      CODE     ---       #1709
      01000812H   LINE      CODE     ---       #1710
      0100081DH   LINE      CODE     ---       #1711
      01000820H   LINE      CODE     ---       #1712
      0100082EH   LINE      CODE     ---       #1713
      01000834H   LINE      CODE     ---       #1714
      01000834H   LINE      CODE     ---       #1715
      01000834H   LINE      CODE     ---       #1717
      01000836H   LINE      CODE     ---       #1719
      01000836H   LINE      CODE     ---       #1720
      0100083BH   LINE      CODE     ---       #1721
      01000841H   LINE      CODE     ---       #1722
      0100084CH   LINE      CODE     ---       #1723
      0100084FH   LINE      CODE     ---       #1724
      0100085DH   LINE      CODE     ---       #1725
      01000867H   LINE      CODE     ---       #1726
      01000871H   LINE      CODE     ---       #1727
      01000877H   LINE      CODE     ---       #1729
      01000879H   LINE      CODE     ---       #1731
      01000879H   LINE      CODE     ---       #1732
      01000879H   LINE      CODE     ---       #1733
      0100087CH   LINE      CODE     ---       #1734
      0100088BH   LINE      CODE     ---       #1735
      0100088EH   LINE      CODE     ---       #1736
      0100088EH   LINE      CODE     ---       #1737
      01000890H   LINE      CODE     ---       #1739
      01000890H   LINE      CODE     ---       #1740
      01000895H   LINE      CODE     ---       #1741
LX51 LINKER/LOCATER V4.66.1.0                                                         04/24/2019  16:34:17  PAGE 53


      0100089AH   LINE      CODE     ---       #1742
      0100089CH   LINE      CODE     ---       #1743
      010008A2H   LINE      CODE     ---       #1744
      010008AAH   LINE      CODE     ---       #1745
      010008ADH   LINE      CODE     ---       #1746
      010008AFH   LINE      CODE     ---       #1748
      010008AFH   LINE      CODE     ---       #1749
      010008B4H   LINE      CODE     ---       #1750
      010008B9H   LINE      CODE     ---       #1751
      010008BBH   LINE      CODE     ---       #1752
      010008C1H   LINE      CODE     ---       #1753
      010008C9H   LINE      CODE     ---       #1754
      010008CBH   LINE      CODE     ---       #1755
      010008CDH   LINE      CODE     ---       #1757
      010008CDH   LINE      CODE     ---       #1758
      010008D2H   LINE      CODE     ---       #1759
      010008D7H   LINE      CODE     ---       #1760
      010008D7H   LINE      CODE     ---       #1761
      010008D7H   LINE      CODE     ---       #1762
      010008E4H   LINE      CODE     ---       #1764
      010008E7H   LINE      CODE     ---       #1765
      010008E7H   LINE      CODE     ---       #1767
      010008E7H   LINE      CODE     ---       #1768
      010008ECH   LINE      CODE     ---       #1769
      010008F0H   LINE      CODE     ---       #1770
      010008F4H   LINE      CODE     ---       #1771
      010008FFH   LINE      CODE     ---       #1772
      010008FFH   LINE      CODE     ---       #1773
      01000902H   LINE      CODE     ---       #1774
      0100090CH   LINE      CODE     ---       #1775
      01000914H   LINE      CODE     ---       #1776
      01000917H   LINE      CODE     ---       #1778
      01000920H   LINE      CODE     ---       #1779
      01000920H   LINE      CODE     ---       #1780
      01000928H   LINE      CODE     ---       #1781
      01000956H   LINE      CODE     ---       #1782
      01000956H   LINE      CODE     ---       #1783
      01000956H   LINE      CODE     ---       #1784
      0100095BH   LINE      CODE     ---       #1785
      01000964H   LINE      CODE     ---       #1786
      01000964H   LINE      CODE     ---       #1787
      01000967H   LINE      CODE     ---       #1788
      0100096CH   LINE      CODE     ---       #1789
      0100096CH   LINE      CODE     ---       #1790
      0100096CH   LINE      CODE     ---       #1791
      0100096CH   LINE      CODE     ---       #1792
      0100096EH   LINE      CODE     ---       #1794
      0100096EH   LINE      CODE     ---       #1795
      01000973H   LINE      CODE     ---       #1796
      0100097CH   LINE      CODE     ---       #1797
      0100097CH   LINE      CODE     ---       #1798
      0100097FH   LINE      CODE     ---       #1799
      01000984H   LINE      CODE     ---       #1800
      01000984H   LINE      CODE     ---       #1801
      0100098CH   LINE      CODE     ---       #1802
      0100098CH   LINE      CODE     ---       #1803
      0100098EH   LINE      CODE     ---       #1805
      0100098EH   LINE      CODE     ---       #1806
      01000993H   LINE      CODE     ---       #1807
      01000996H   LINE      CODE     ---       #1808
      01000996H   LINE      CODE     ---       #1809
      01000996H   LINE      CODE     ---       #1810
      01000996H   LINE      CODE     ---       #1811
      01000996H   LINE      CODE     ---       #1812
      01000996H   LINE      CODE     ---       #1813
LX51 LINKER/LOCATER V4.66.1.0                                                         04/24/2019  16:34:17  PAGE 54


      01000996H   LINE      CODE     ---       #1815
      01000998H   LINE      CODE     ---       #1817
      01000998H   LINE      CODE     ---       #1818
      0100099DH   LINE      CODE     ---       #1819
      010009A1H   LINE      CODE     ---       #1820
      010009A1H   LINE      CODE     ---       #1821
      010009A1H   LINE      CODE     ---       #1822
      010009A1H   LINE      CODE     ---       #1823
      010009A1H   LINE      CODE     ---       #1824
      010009A1H   LINE      CODE     ---       #1825
      010009A1H   LINE      CODE     ---       #1827
      010009A3H   LINE      CODE     ---       #1829
      010009A3H   LINE      CODE     ---       #1830
      010009A8H   LINE      CODE     ---       #1831
      010009AEH   LINE      CODE     ---       #1832
      010009B4H   LINE      CODE     ---       #1833
      010009B4H   LINE      CODE     ---       #1834
      010009B4H   LINE      CODE     ---       #1835
      010009B7H   LINE      CODE     ---       #1836
      010009C1H   LINE      CODE     ---       #1839
      010009C4H   LINE      CODE     ---       #1841
      010009C4H   LINE      CODE     ---       #1842
      010009C9H   LINE      CODE     ---       #1843
      010009CFH   LINE      CODE     ---       #1844
      010009DAH   LINE      CODE     ---       #1845
      010009DDH   LINE      CODE     ---       #1846
      010009EBH   LINE      CODE     ---       #1847
      010009F0H   LINE      CODE     ---       #1848
      010009F0H   LINE      CODE     ---       #1849
      010009F0H   LINE      CODE     ---       #1851
      010009F3H   LINE      CODE     ---       #1853
      010009F3H   LINE      CODE     ---       #1854
      010009F8H   LINE      CODE     ---       #1855
      010009FEH   LINE      CODE     ---       #1856
      01000A09H   LINE      CODE     ---       #1857
      01000A0CH   LINE      CODE     ---       #1858
      01000A1AH   LINE      CODE     ---       #1859
      01000A20H   LINE      CODE     ---       #1860
      01000A20H   LINE      CODE     ---       #1861
      01000A20H   LINE      CODE     ---       #1863
      01000A22H   LINE      CODE     ---       #1865
      01000A22H   LINE      CODE     ---       #1866
      01000A27H   LINE      CODE     ---       #1867
      01000A2DH   LINE      CODE     ---       #1868
      01000A38H   LINE      CODE     ---       #1869
      01000A3BH   LINE      CODE     ---       #1870
      01000A49H   LINE      CODE     ---       #1871
      01000A4FH   LINE      CODE     ---       #1872
      01000A4FH   LINE      CODE     ---       #1873
      01000A4FH   LINE      CODE     ---       #1875
      01000A51H   LINE      CODE     ---       #1877
      01000A51H   LINE      CODE     ---       #1878
      01000A56H   LINE      CODE     ---       #1879
      01000A5CH   LINE      CODE     ---       #1880
      01000A67H   LINE      CODE     ---       #1881
      01000A6AH   LINE      CODE     ---       #1882
      01000A78H   LINE      CODE     ---       #1883
      01000A82H   LINE      CODE     ---       #1884
      01000A8CH   LINE      CODE     ---       #1885
      01000A92H   LINE      CODE     ---       #1887
      01000A94H   LINE      CODE     ---       #1889
      01000A94H   LINE      CODE     ---       #1890
      01000A94H   LINE      CODE     ---       #1891
      01000A97H   LINE      CODE     ---       #1892
      01000AA6H   LINE      CODE     ---       #1893
LX51 LINKER/LOCATER V4.66.1.0                                                         04/24/2019  16:34:17  PAGE 55


      01000AA9H   LINE      CODE     ---       #1894
      01000AA9H   LINE      CODE     ---       #1895
      01000AABH   LINE      CODE     ---       #1897
      01000AABH   LINE      CODE     ---       #1898
      01000AB0H   LINE      CODE     ---       #1899
      01000AB5H   LINE      CODE     ---       #1900
      01000AB7H   LINE      CODE     ---       #1901
      01000ABDH   LINE      CODE     ---       #1902
      01000AC5H   LINE      CODE     ---       #1903
      01000AC8H   LINE      CODE     ---       #1904
      01000ACAH   LINE      CODE     ---       #1906
      01000ACAH   LINE      CODE     ---       #1907
      01000ACFH   LINE      CODE     ---       #1908
      01000AD4H   LINE      CODE     ---       #1909
      01000AD6H   LINE      CODE     ---       #1910
      01000ADCH   LINE      CODE     ---       #1911
      01000AE4H   LINE      CODE     ---       #1912
      01000AE6H   LINE      CODE     ---       #1913
      01000AE8H   LINE      CODE     ---       #1915
      01000AE8H   LINE      CODE     ---       #1916
      01000AEDH   LINE      CODE     ---       #1917
      01000AF2H   LINE      CODE     ---       #1918
      01000AF2H   LINE      CODE     ---       #1919
      01000AF2H   LINE      CODE     ---       #1920
      01000AFFH   LINE      CODE     ---       #1921
      01000B02H   LINE      CODE     ---       #1922
      01000B02H   LINE      CODE     ---       #1924
      01000B02H   LINE      CODE     ---       #1925
      01000B07H   LINE      CODE     ---       #1926
      01000B0BH   LINE      CODE     ---       #1927
      01000B0FH   LINE      CODE     ---       #1928
      01000B1AH   LINE      CODE     ---       #1929
      01000B1AH   LINE      CODE     ---       #1930
      01000B1DH   LINE      CODE     ---       #1931
      01000B27H   LINE      CODE     ---       #1932
      01000B2FH   LINE      CODE     ---       #1933
      01000B32H   LINE      CODE     ---       #1935
      01000B3BH   LINE      CODE     ---       #1936
      01000B3BH   LINE      CODE     ---       #1937
      01000B43H   LINE      CODE     ---       #1938
      01000B71H   LINE      CODE     ---       #1939
      01000B71H   LINE      CODE     ---       #1940
      01000B71H   LINE      CODE     ---       #1941
      01000B76H   LINE      CODE     ---       #1942
      01000B7FH   LINE      CODE     ---       #1943
      01000B7FH   LINE      CODE     ---       #1944
      01000B82H   LINE      CODE     ---       #1945
      01000B87H   LINE      CODE     ---       #1946
      01000B87H   LINE      CODE     ---       #1947
      01000B87H   LINE      CODE     ---       #1948
      01000B87H   LINE      CODE     ---       #1949
      01000B89H   LINE      CODE     ---       #1951
      01000B89H   LINE      CODE     ---       #1952
      01000B8EH   LINE      CODE     ---       #1953
      01000B97H   LINE      CODE     ---       #1954
      01000B97H   LINE      CODE     ---       #1955
      01000B9AH   LINE      CODE     ---       #1956
      01000B9FH   LINE      CODE     ---       #1957
      01000B9FH   LINE      CODE     ---       #1958
      01000BA7H   LINE      CODE     ---       #1959
      01000BA7H   LINE      CODE     ---       #1960
      01000BA9H   LINE      CODE     ---       #1962
      01000BA9H   LINE      CODE     ---       #1963
      01000BAEH   LINE      CODE     ---       #1964
      01000BB1H   LINE      CODE     ---       #1965
LX51 LINKER/LOCATER V4.66.1.0                                                         04/24/2019  16:34:17  PAGE 56


      01000BB1H   LINE      CODE     ---       #1966
      01000BB1H   LINE      CODE     ---       #1967
      01000BB1H   LINE      CODE     ---       #1968
      01000BB1H   LINE      CODE     ---       #1969
      01000BB1H   LINE      CODE     ---       #1970
      01000BB1H   LINE      CODE     ---       #1972
      01000BB3H   LINE      CODE     ---       #1974
      01000BB3H   LINE      CODE     ---       #1975
      01000BB8H   LINE      CODE     ---       #1976
      01000BBCH   LINE      CODE     ---       #1977
      01000BBCH   LINE      CODE     ---       #1978
      01000BBCH   LINE      CODE     ---       #1979
      01000BBCH   LINE      CODE     ---       #1980
      01000BBCH   LINE      CODE     ---       #1981
      01000BBCH   LINE      CODE     ---       #1982
      01000BBCH   LINE      CODE     ---       #1984
      01000BBEH   LINE      CODE     ---       #1986
      01000BBEH   LINE      CODE     ---       #1987
      01000BC3H   LINE      CODE     ---       #1988
      01000BC9H   LINE      CODE     ---       #1989
      01000BD4H   LINE      CODE     ---       #1990
      01000BD7H   LINE      CODE     ---       #1991
      01000BE5H   LINE      CODE     ---       #1992
      01000BEAH   LINE      CODE     ---       #1993
      01000BEAH   LINE      CODE     ---       #1994
      01000BEAH   LINE      CODE     ---       #1996
      01000BEDH   LINE      CODE     ---       #1998
      01000BEDH   LINE      CODE     ---       #1999
      01000BF2H   LINE      CODE     ---       #2000
      01000BF8H   LINE      CODE     ---       #2001
      01000BFEH   LINE      CODE     ---       #2002
      01000BFEH   LINE      CODE     ---       #2003
      01000BFEH   LINE      CODE     ---       #2004
      01000C01H   LINE      CODE     ---       #2005
      01000C0BH   LINE      CODE     ---       #2008
      01000C0EH   LINE      CODE     ---       #2010
      01000C0EH   LINE      CODE     ---       #2011
      01000C13H   LINE      CODE     ---       #2012
      01000C19H   LINE      CODE     ---       #2013
      01000C24H   LINE      CODE     ---       #2014
      01000C27H   LINE      CODE     ---       #2015
      01000C35H   LINE      CODE     ---       #2016
      01000C3BH   LINE      CODE     ---       #2017
      01000C3BH   LINE      CODE     ---       #2018
      01000C3BH   LINE      CODE     ---       #2020
      01000C3DH   LINE      CODE     ---       #2022
      01000C3DH   LINE      CODE     ---       #2023
      01000C42H   LINE      CODE     ---       #2024
      01000C48H   LINE      CODE     ---       #2025
      01000C53H   LINE      CODE     ---       #2026
      01000C56H   LINE      CODE     ---       #2027
      01000C64H   LINE      CODE     ---       #2028
      01000C6AH   LINE      CODE     ---       #2029
      01000C6AH   LINE      CODE     ---       #2030
      01000C6AH   LINE      CODE     ---       #2032
      01000C6CH   LINE      CODE     ---       #2034
      01000C6CH   LINE      CODE     ---       #2035
      01000C71H   LINE      CODE     ---       #2036
      01000C77H   LINE      CODE     ---       #2037
      01000C82H   LINE      CODE     ---       #2038
      01000C85H   LINE      CODE     ---       #2039
      01000C93H   LINE      CODE     ---       #2040
      01000C9DH   LINE      CODE     ---       #2041
      01000CA7H   LINE      CODE     ---       #2042
      01000CADH   LINE      CODE     ---       #2044
LX51 LINKER/LOCATER V4.66.1.0                                                         04/24/2019  16:34:17  PAGE 57


      01000CAFH   LINE      CODE     ---       #2046
      01000CAFH   LINE      CODE     ---       #2047
      01000CAFH   LINE      CODE     ---       #2048
      01000CB2H   LINE      CODE     ---       #2049
      01000CC1H   LINE      CODE     ---       #2050
      01000CC4H   LINE      CODE     ---       #2051
      01000CC4H   LINE      CODE     ---       #2052
      01000CC6H   LINE      CODE     ---       #2054
      01000CC6H   LINE      CODE     ---       #2055
      01000CCBH   LINE      CODE     ---       #2056
      01000CD0H   LINE      CODE     ---       #2057
      01000CD2H   LINE      CODE     ---       #2058
      01000CD8H   LINE      CODE     ---       #2059
      01000CE0H   LINE      CODE     ---       #2060
      01000CE3H   LINE      CODE     ---       #2061
      01000CE5H   LINE      CODE     ---       #2063
      01000CE5H   LINE      CODE     ---       #2064
      01000CEAH   LINE      CODE     ---       #2065
      01000CEFH   LINE      CODE     ---       #2066
      01000CF1H   LINE      CODE     ---       #2067
      01000CF7H   LINE      CODE     ---       #2068
      01000CFFH   LINE      CODE     ---       #2069
      01000D01H   LINE      CODE     ---       #2070
      01000D03H   LINE      CODE     ---       #2072
      01000D03H   LINE      CODE     ---       #2073
      01000D08H   LINE      CODE     ---       #2074
      01000D0DH   LINE      CODE     ---       #2075
      01000D0DH   LINE      CODE     ---       #2076
      01000D0DH   LINE      CODE     ---       #2077
      01000D1AH   LINE      CODE     ---       #2078
      01000D1DH   LINE      CODE     ---       #2079
      01000D1DH   LINE      CODE     ---       #2081
      01000D1DH   LINE      CODE     ---       #2082
      01000D22H   LINE      CODE     ---       #2083
      01000D28H   LINE      CODE     ---       #2084
      01000D33H   LINE      CODE     ---       #2085
      01000D41H   LINE      CODE     ---       #2086
      01000D4BH   LINE      CODE     ---       #2087
      01000D55H   LINE      CODE     ---       #2088
      01000D5DH   LINE      CODE     ---       #2089
      01000D60H   LINE      CODE     ---       #2091
      01000D69H   LINE      CODE     ---       #2092
      01000D69H   LINE      CODE     ---       #2093
      01000D71H   LINE      CODE     ---       #2094
      01000D9FH   LINE      CODE     ---       #2095
      01000D9FH   LINE      CODE     ---       #2096
      01000D9FH   LINE      CODE     ---       #2097
      01000DA4H   LINE      CODE     ---       #2098
      01000DADH   LINE      CODE     ---       #2099
      01000DADH   LINE      CODE     ---       #2100
      01000DB0H   LINE      CODE     ---       #2101
      01000DB5H   LINE      CODE     ---       #2102
      01000DB5H   LINE      CODE     ---       #2103
      01000DB5H   LINE      CODE     ---       #2104
      01000DB5H   LINE      CODE     ---       #2105
      01000DB7H   LINE      CODE     ---       #2107
      01000DB7H   LINE      CODE     ---       #2108
      01000DBCH   LINE      CODE     ---       #2109
      01000DC5H   LINE      CODE     ---       #2110
      01000DC5H   LINE      CODE     ---       #2111
      01000DC8H   LINE      CODE     ---       #2112
      01000DCDH   LINE      CODE     ---       #2113
      01000DCDH   LINE      CODE     ---       #2114
      01000DD5H   LINE      CODE     ---       #2115
      01000DD5H   LINE      CODE     ---       #2116
LX51 LINKER/LOCATER V4.66.1.0                                                         04/24/2019  16:34:17  PAGE 58


      01000DD8H   LINE      CODE     ---       #2118
      01000DD8H   LINE      CODE     ---       #2119
      01000DDDH   LINE      CODE     ---       #2120
      01000DE0H   LINE      CODE     ---       #2121
      01000DE0H   LINE      CODE     ---       #2122
      01000DE0H   LINE      CODE     ---       #2123
      01000DE0H   LINE      CODE     ---       #2124
      01000DE0H   LINE      CODE     ---       #2125
      01000DE0H   LINE      CODE     ---       #2126
      01000DE0H   LINE      CODE     ---       #2128
      01000DE2H   LINE      CODE     ---       #2130
      01000DE2H   LINE      CODE     ---       #2131
      01000DE7H   LINE      CODE     ---       #2132
      01000DEBH   LINE      CODE     ---       #2133
      01000DEBH   LINE      CODE     ---       #2134
      01000DEBH   LINE      CODE     ---       #2135
      01000DEBH   LINE      CODE     ---       #2136
      01000DEBH   LINE      CODE     ---       #2137
      01000DEBH   LINE      CODE     ---       #2138
      01000DEBH   LINE      CODE     ---       #2140
      01000DEDH   LINE      CODE     ---       #2142
      01000DEDH   LINE      CODE     ---       #2143
      01000DF2H   LINE      CODE     ---       #2144
      01000DF7H   LINE      CODE     ---       #2145
      01000DF7H   LINE      CODE     ---       #2146
      01000DF7H   LINE      CODE     ---       #2147
      01000DF7H   LINE      CODE     ---       #2148
      01000DF7H   LINE      CODE     ---       #2149
      01000DF7H   LINE      CODE     ---       #2150
      01000DF7H   LINE      CODE     ---       #2152
      01000DF9H   LINE      CODE     ---       #2154
      01000DF9H   LINE      CODE     ---       #2155
      01000DFEH   LINE      CODE     ---       #2156
      01000E04H   LINE      CODE     ---       #2157
      01000E0FH   LINE      CODE     ---       #2158
      01000E12H   LINE      CODE     ---       #2159
      01000E20H   LINE      CODE     ---       #2160
      01000E25H   LINE      CODE     ---       #2161
      01000E25H   LINE      CODE     ---       #2162
      01000E25H   LINE      CODE     ---       #2164
      01000E28H   LINE      CODE     ---       #2166
      01000E28H   LINE      CODE     ---       #2167
      01000E2DH   LINE      CODE     ---       #2168
      01000E33H   LINE      CODE     ---       #2169
      01000E3EH   LINE      CODE     ---       #2170
      01000E41H   LINE      CODE     ---       #2171
      01000E4FH   LINE      CODE     ---       #2172
      01000E59H   LINE      CODE     ---       #2173
      01000E63H   LINE      CODE     ---       #2176
      01000E66H   LINE      CODE     ---       #2178
      01000E66H   LINE      CODE     ---       #2179
      01000E6BH   LINE      CODE     ---       #2180
      01000E71H   LINE      CODE     ---       #2181
      01000E7CH   LINE      CODE     ---       #2182
      01000E7FH   LINE      CODE     ---       #2183
      01000E8DH   LINE      CODE     ---       #2184
      01000E93H   LINE      CODE     ---       #2185
      01000E93H   LINE      CODE     ---       #2186
      01000E93H   LINE      CODE     ---       #2188
      01000E95H   LINE      CODE     ---       #2190
      01000E95H   LINE      CODE     ---       #2191
      01000E9AH   LINE      CODE     ---       #2192
      01000EA0H   LINE      CODE     ---       #2193
      01000EABH   LINE      CODE     ---       #2194
      01000EAEH   LINE      CODE     ---       #2195
LX51 LINKER/LOCATER V4.66.1.0                                                         04/24/2019  16:34:17  PAGE 59


      01000EBCH   LINE      CODE     ---       #2196
      01000EC6H   LINE      CODE     ---       #2197
      01000ED0H   LINE      CODE     ---       #2198
      01000ED6H   LINE      CODE     ---       #2200
      01000ED8H   LINE      CODE     ---       #2202
      01000ED8H   LINE      CODE     ---       #2203
      01000ED8H   LINE      CODE     ---       #2204
      01000EDBH   LINE      CODE     ---       #2205
      01000EEAH   LINE      CODE     ---       #2206
      01000EEDH   LINE      CODE     ---       #2207
      01000EEDH   LINE      CODE     ---       #2208
      01000EEFH   LINE      CODE     ---       #2210
      01000EEFH   LINE      CODE     ---       #2211
      01000EF4H   LINE      CODE     ---       #2212
      01000EF9H   LINE      CODE     ---       #2213
      01000EFBH   LINE      CODE     ---       #2214
      01000F01H   LINE      CODE     ---       #2215
      01000F09H   LINE      CODE     ---       #2216
      01000F0CH   LINE      CODE     ---       #2217
      01000F0EH   LINE      CODE     ---       #2219
      01000F0EH   LINE      CODE     ---       #2220
      01000F13H   LINE      CODE     ---       #2221
      01000F18H   LINE      CODE     ---       #2222
      01000F1AH   LINE      CODE     ---       #2223
      01000F20H   LINE      CODE     ---       #2224
      01000F28H   LINE      CODE     ---       #2225
      01000F2AH   LINE      CODE     ---       #2226
      01000F2CH   LINE      CODE     ---       #2228
      01000F2CH   LINE      CODE     ---       #2229
      01000F31H   LINE      CODE     ---       #2230
      01000F36H   LINE      CODE     ---       #2231
      01000F36H   LINE      CODE     ---       #2232
      01000F36H   LINE      CODE     ---       #2233
      01000F43H   LINE      CODE     ---       #2234
      01000F46H   LINE      CODE     ---       #2235
      01000F46H   LINE      CODE     ---       #2237
      01000F46H   LINE      CODE     ---       #2238
      01000F4BH   LINE      CODE     ---       #2239
      01000F51H   LINE      CODE     ---       #2240
      01000F5CH   LINE      CODE     ---       #2241
      01000F6AH   LINE      CODE     ---       #2242
      01000F74H   LINE      CODE     ---       #2243
      01000F7EH   LINE      CODE     ---       #2244
      01000F86H   LINE      CODE     ---       #2245
      01000F89H   LINE      CODE     ---       #2247
      01000F92H   LINE      CODE     ---       #2248
      01000F92H   LINE      CODE     ---       #2249
      01000F9AH   LINE      CODE     ---       #2250
      01000FC8H   LINE      CODE     ---       #2251
      01000FC8H   LINE      CODE     ---       #2252
      01000FC8H   LINE      CODE     ---       #2253
      01000FCDH   LINE      CODE     ---       #2254
      01000FD6H   LINE      CODE     ---       #2255
      01000FD6H   LINE      CODE     ---       #2256
      01000FD9H   LINE      CODE     ---       #2257
      01000FDEH   LINE      CODE     ---       #2258
      01000FDEH   LINE      CODE     ---       #2259
      01000FDEH   LINE      CODE     ---       #2260
      01000FDEH   LINE      CODE     ---       #2261
      01000FE0H   LINE      CODE     ---       #2263
      01000FE0H   LINE      CODE     ---       #2264
      01000FE5H   LINE      CODE     ---       #2265
      01000FEEH   LINE      CODE     ---       #2266
      01000FEEH   LINE      CODE     ---       #2267
      01000FF1H   LINE      CODE     ---       #2268
LX51 LINKER/LOCATER V4.66.1.0                                                         04/24/2019  16:34:17  PAGE 60


      01000FF6H   LINE      CODE     ---       #2269
      01000FF6H   LINE      CODE     ---       #2270
      01000FFEH   LINE      CODE     ---       #2271
      01000FFEH   LINE      CODE     ---       #2272
      01001001H   LINE      CODE     ---       #2274
      01001001H   LINE      CODE     ---       #2275
      01001006H   LINE      CODE     ---       #2276
      01001009H   LINE      CODE     ---       #2277
      01001009H   LINE      CODE     ---       #2278
      01001009H   LINE      CODE     ---       #2279
      01001009H   LINE      CODE     ---       #2280
      01001009H   LINE      CODE     ---       #2281
      01001009H   LINE      CODE     ---       #2282
      01001009H   LINE      CODE     ---       #2284
      0100100BH   LINE      CODE     ---       #2286
      0100100BH   LINE      CODE     ---       #2287
      01001010H   LINE      CODE     ---       #2288
      01001014H   LINE      CODE     ---       #2289
      01001014H   LINE      CODE     ---       #2290
      01001014H   LINE      CODE     ---       #2291
      01001014H   LINE      CODE     ---       #2292
      01001014H   LINE      CODE     ---       #2293
      01001014H   LINE      CODE     ---       #2294
      01001014H   LINE      CODE     ---       #2296
      01001016H   LINE      CODE     ---       #2298
      01001016H   LINE      CODE     ---       #2299
      0100101BH   LINE      CODE     ---       #2300
      01001020H   LINE      CODE     ---       #2301
      01001020H   LINE      CODE     ---       #2302
      01001020H   LINE      CODE     ---       #2303
      01001020H   LINE      CODE     ---       #2304
      01001020H   LINE      CODE     ---       #2305
      01001020H   LINE      CODE     ---       #2306
      01001020H   LINE      CODE     ---       #2308
      01001022H   LINE      CODE     ---       #2310
      01001022H   LINE      CODE     ---       #2311
      01001027H   LINE      CODE     ---       #2312
      0100102DH   LINE      CODE     ---       #2313
      01001038H   LINE      CODE     ---       #2314
      0100103BH   LINE      CODE     ---       #2315
      01001049H   LINE      CODE     ---       #2316
      0100104EH   LINE      CODE     ---       #2317
      0100104EH   LINE      CODE     ---       #2318
      0100104EH   LINE      CODE     ---       #2320
      01001051H   LINE      CODE     ---       #2322
      01001051H   LINE      CODE     ---       #2323
      01001056H   LINE      CODE     ---       #2324
      0100105CH   LINE      CODE     ---       #2325
      01001067H   LINE      CODE     ---       #2326
      0100106AH   LINE      CODE     ---       #2327
      01001078H   LINE      CODE     ---       #2328
      0100107EH   LINE      CODE     ---       #2329
      0100107EH   LINE      CODE     ---       #2330
      0100107EH   LINE      CODE     ---       #2332
      01001080H   LINE      CODE     ---       #2334
      01001080H   LINE      CODE     ---       #2335
      01001085H   LINE      CODE     ---       #2336
      0100108BH   LINE      CODE     ---       #2337
      01001096H   LINE      CODE     ---       #2338
      01001099H   LINE      CODE     ---       #2339
      010010A7H   LINE      CODE     ---       #2340
      010010B1H   LINE      CODE     ---       #2341
      010010BBH   LINE      CODE     ---       #2344
      010010BEH   LINE      CODE     ---       #2346
      010010BEH   LINE      CODE     ---       #2347
LX51 LINKER/LOCATER V4.66.1.0                                                         04/24/2019  16:34:17  PAGE 61


      010010C3H   LINE      CODE     ---       #2348
      010010C9H   LINE      CODE     ---       #2349
      010010D4H   LINE      CODE     ---       #2350
      010010D7H   LINE      CODE     ---       #2351
      010010E5H   LINE      CODE     ---       #2352
